:10000000009E0020ED3B00003D480100D93B000070
:10001000D93B0000D93B0000D93B000000000000A4
:10002000000000000000000000000000A13D0000F2
:10003000D93B0000000000006D3D0000D93B0000EE
:10004000553F0000A9CA0000553F0000553F000081
:10005000553F0000553F0000553F0000553F000050
:10006000553F0000553F0000553F0000553F000040
:10007000553F0000553F0000553F0000553F000030
:10008000553F0000553F0000553F0000553F000020
:10009000553F0000553F0000553F0000553F000010
:1000A000553F0000553F0000553F0000553F000000
:1000B000553F0000553F0000553F0000553F0000F0
:1000C000553F0000553F0000553F0000553F0000E0
:1000D000553F0000553F0000553F0000553F0000D0
:1000E000553F0000553F0000553F0000553F0000C0
:1000F000553F0000553F0000553F0000553F0000B0
:1001000081F0004102E000BF83F0004330B54FEAC8
:1001100041044FEA430594EA050F08BF90EA020F35
:100120001FBF54EA000C55EA020C7FEA645C7FEAC8
:10013000655C00F0E2804FEA5454D4EB5555B8BFEB
:100140006D420CDD2C4480EA020281EA030382EA5C
:10015000000083EA010180EA020281EA0303362DEE
:1001600088BF30BD11F0004F4FEA01314FF4801CC1
:100170004CEA113102D0404261EB410113F0004FD3
:100180004FEA03334CEA133302D0524263EB43038A
:1001900094EA050F00F0A780A4F10104D5F1200E28
:1001A0000DDB02FA0EFC22FA05F2801841F1000183
:1001B00003FA0EF2801843FA05F359410EE0A5F157
:1001C00020050EF1200E012A03FA0EFC28BF4CF088
:1001D000020C43FA05F3C01851EBE37101F000453E
:1001E00007D54FF0000EDCF1000C7EEB00006EEB4B
:1001F0000101B1F5801F1BD3B1F5001F0CD34908D5
:100200005FEA30004FEA3C0C04F101044FEA44522B
:1002100012F5800F80F09A80BCF1004F08BF5FEAB2
:10022000500C50F1000041EB045141EA050130BD92
:100230005FEA4C0C404141EB0101013C28BFB1F5A4
:10024000801FE9D291F0000F04BF01460020B1FAEF
:1002500081F308BF2033A3F10B03B3F120020CDAC2
:100260000C3208DD02F1140CC2F10C0201FA0CF0A0
:1002700021FA02F10CE002F11402D8BFC2F1200C05
:1002800001FA02F120FA0CFCDCBF41EA0C019040BB
:10029000E41AA2BF01EB0451294330BD6FEA040404
:1002A0001F3C1CDA0C340EDC04F11404C4F12002EF
:1002B00020FA04F001FA02F340EA030021FA04F301
:1002C00045EA030130BDC4F10C04C4F1200220FA58
:1002D00002F001FA04F340EA0300294630BD21FA96
:1002E00004F0294630BD94F0000F83F4801306BF5C
:1002F00081F480110134013D4EE77FEA645C18BF50
:100300007FEA655C29D094EA050F08BF90EA020FE6
:1003100005D054EA000C04BF1946104630BD91EADE
:10032000030F1EBF0021002030BD5FEA545C05D1E1
:100330004000494128BF41F0004130BD14F5800420
:100340003CBF01F5801130BD01F0004545F0FE4194
:1003500041F470014FF0000030BD7FEA645C1ABFC9
:10036000194610467FEA655C1CBF0B46024650EA00
:10037000013406BF52EA033591EA030F41F400212C
:1003800030BD00BF90F0000F04BF0021704730B5B2
:100390004FF4806404F132044FF000054FF0000187
:1003A00050E700BF90F0000F04BF0021704730B548
:1003B0004FF4806404F1320410F0004548BF40421D
:1003C0004FF000013EE700BF42004FEAE2014FEA72
:1003D00031014FEA02701FBF12F07F4393F07F4F4D
:1003E00081F06051704732F07F4208BF704793F050
:1003F0007F4F04BF41F40021704730B54FF4607463
:1004000001F0004521F000411CE700BF50EA010265
:1004100008BF704730B54FF000050AE050EA01020E
:1004200008BF704730B511F0004502D5404261EB7E
:1004300041014FF4806404F132045FEA915C3FF4BF
:10044000D8AE4FF003025FEADC0C18BF03325FEA5C
:10045000DC0C18BF033202EBDC02C2F1200300FA0D
:1004600003FC20FA02F001FA03FE40EA0E0021FA32
:1004700002F11444BDE600BF70B54FF0FF0C4CF420
:10048000E06C1CEA11541DBF1CEA135594EA0C0FD2
:1004900095EA0C0F00F0DEF82C4481EA030621EA0D
:1004A0004C5123EA4C5350EA013518BF52EA033548
:1004B00041F4801143F4801338D0A0FB02CE4FF0FA
:1004C0000005E1FB02E506F00042E0FB03E54FF02A
:1004D0000006E1FB03569CF0000F18BF4EF0010E22
:1004E000A4F1FF04B6F5007F64F5407404D25FEA1E
:1004F0004E0E6D4146EB060642EAC62141EA5551D1
:100500004FEAC52040EA5E504FEACE2EB4F1FD0C12
:1005100088BFBCF5E06F1ED8BEF1004F08BF5FEA90
:10052000500E50F1000041EB045170BD06F0004642
:1005300046EA010140EA020081EA0301B4EB5C04EF
:10054000C2BFD4EB0C0541EA045170BD41F48011E7
:100550004FF0000E013C00F3AB8014F1360FDEBF0C
:10056000002001F0004170BDC4F10004203C35DAE8
:100570000C341BDC04F11404C4F1200500FA05F36B
:1005800020FA04F001FA05F240EA020001F000420C
:1005900021F0004110EBD37021FA04F642EB060182
:1005A0005EEA430E08BF20EAD37070BDC4F10C04AC
:1005B000C4F1200500FA04F320FA05F001FA04F270
:1005C00040EA020001F0004110EBD37041F100015C
:1005D0005EEA430E08BF20EAD37070BDC4F1200567
:1005E00000FA05F24EEA020E20FA04F301FA05F2CF
:1005F00043EA020321FA04F001F0004121FA04F277
:1006000020EA020000EBD3705EEA430E08BF20EA46
:10061000D37070BD94F0000F0FD101F00046400080
:1006200041EB010111F4801F08BF013CF7D041EA02
:10063000060195F0000F18BF704703F00046520006
:1006400043EB030313F4801F08BF013DF7D043EAD7
:100650000603704794EA0C0F0CEA135518BF95EA8D
:100660000C0F0CD050EA410618BF52EA4306D1D114
:1006700081EA030101F000414FF0000070BD50EA33
:10068000410606BF1046194652EA430619D094EABD
:100690000C0F02D150EA013613D195EA0C0F05D1A7
:1006A00052EA03361CBF104619460AD181EA0301FB
:1006B00001F0004141F0FE4141F470014FF00000B3
:1006C00070BD41F0FE4141F4780170BD70B54FF04E
:1006D000FF0C4CF4E06C1CEA11541DBF1CEA1355CE
:1006E00094EA0C0F95EA0C0F00F0A7F8A4EB0504B0
:1006F00081EA030E52EA03354FEA013100F08880A7
:100700004FEA03334FF0805545EA131343EA12636F
:100710004FEA022245EA111545EA10654FEA002624
:100720000EF000419D4208BF964244F1FD0404F5DD
:10073000407402D25B084FEA3202B61A65EB030539
:100740005B084FEA32024FF480104FF4002CB6EBF6
:10075000020E75EB030E22BFB61A754640EA0C0076
:100760005B084FEA3202B6EB020E75EB030E22BFB6
:10077000B61A754640EA5C005B084FEA3202B6EBF7
:10078000020E75EB030E22BFB61A754640EA9C00B6
:100790005B084FEA3202B6EB020E75EB030E22BF86
:1007A000B61A754640EADC0055EA060E18D04FEA44
:1007B000051545EA16754FEA06164FEAC30343EAE4
:1007C00052734FEAC2025FEA1C1CC0D111F4801FB1
:1007D0000BD141EA00014FF000004FF0004CB6E7AA
:1007E00011F4801F04BF01430020B4F1FD0C88BF49
:1007F000BCF5E06F3FF6AFAEB5EB030C04BFB6EB54
:10080000020C5FEA500C50F1000041EB045170BD46
:100810000EF0004E4EEA113114EB5C04C2BFD4EB73
:100820000C0541EA045170BD41F480114FF0000EF7
:10083000013C90E645EA060E8DE60CEA135594EA73
:100840000C0F08BF95EA0C0F3FF43BAF94EA0C0F76
:100850000AD150EA01347FF434AF95EA0C0F7FF4EB
:1008600025AF104619462CE795EA0C0F06D152EA3F
:1008700003353FF4FDAE1046194622E750EA410623
:1008800018BF52EA43067FF4C5AE50EA41047FF434
:100890000DAF52EA43057FF4EBAE12E74FF0FF3C99
:1008A00006E000BF4FF0010C02E000BF4FF0010C6A
:1008B0004DF804CD4FEA410C7FEA6C5C4FEA430CE3
:1008C00018BF7FEA6C5C1BD001B050EA410C0CBF32
:1008D00052EA430C91EA030F02BF90EA020F002094
:1008E000704710F1000F91EA030F58BF994208BFFB
:1008F00090422CBFD8176FEAE37040F001007047B8
:100900004FEA410C7FEA6C5C02D150EA013C07D10E
:100910004FEA430C7FEA6C5CD6D152EA033CD3D059
:100920005DF8040B704700BF8446104662468C4653
:100930001946634600E000BF01B5FFF7B7FF002886
:1009400048BF10F1000F01BD4DF808EDFFF7F4FFAF
:100950000CBF012000205DF808FB00BF4DF808ED3A
:10096000FFF7EAFF34BF012000205DF808FB00BF5D
:100970004DF808EDFFF7E0FF94BF012000205DF87F
:1009800008FB00BF4DF808EDFFF7CEFF94BF012034
:1009900000205DF808FB00BF4DF808EDFFF7C4FF2D
:1009A00034BF012000205DF808FB00BF4FEA410280
:1009B000B2F1E04324BFB3F5001CDCF1FE5C0DD9BD
:1009C00001F0004C4FEAC0024CEA5070B2F1004F07
:1009D00040EB830008BF20F00100704711F0804F0A
:1009E00021D113F13872BCBF01F00040704741F4CF
:1009F00080114FEA5252C2F11802C2F1200C10FAD3
:100A00000CF320FA02F018BF40F001004FEAC123B6
:100A10004FEAD32303FA0CFC40EA0C0023FA02F35A
:100A20004FEA4303CCE77FEA625307D150EA013330
:100A30001EBF4FF0FE4040F44000704701F0004000
:100A400040F0FE4040F40000704700BF80F00040DE
:100A500002E000BF81F0004142001FBF5FEA410396
:100A600092EA030F7FEA226C7FEA236C6AD04FEA96
:100A70001262D2EB1363C1BFD218414048404140DB
:100A8000B8BF5B42192B88BF704710F0004F40F48D
:100A9000000020F07F4018BF404211F0004F41F4A9
:100AA000000121F07F4118BF494292EA030F3FD075
:100AB000A2F1010241FA03FC10EB0C00C3F1200388
:100AC00001FA03F100F0004302D5494260EB400017
:100AD000B0F5000F13D3B0F1807F06D340084FEA82
:100AE000310102F10102FE2A51D2B1F1004F40EB77
:100AF000C25008BF20F0010040EA030070474900DF
:100B000040EB0000013A28BFB0F5000FEDD2B0FA7B
:100B100080FCACF1080CB2EB0C0200FA0CF0AABF9E
:100B200000EBC25052421843BCBFD040184370473C
:100B300092F0000F81F4000106BF80F40000013242
:100B4000013BB5E74FEA41037FEA226C18BF7FEA19
:100B5000236C21D092EA030F04D092F0000F08BF5B
:100B60000846704790EA010F1CBF0020704712F042
:100B70007F4F04D1400028BF40F00040704712F181
:100B800000723CBF00F50000704700F0004343F0E6
:100B9000FE4040F4000070477FEA226216BF08461C
:100BA0007FEA23630146420206BF5FEA412390EADF
:100BB000010F40F4800070474FF0000304E000BFD5
:100BC00010F0004348BF40425FEA000C08BF704786
:100BD00043F0964301464FF000001CE050EA01024A
:100BE00008BF70474FF000030AE000BF50EA01025F
:100BF00008BF704711F0004302D5404261EB41014C
:100C00005FEA010C02BF84460146002043F0B64370
:100C100008BFA3F18053A3F50003BCFA8CF2083A95
:100C2000A3EBC25310DB01FA02FC634400FA02FC9E
:100C3000C2F12002BCF1004F20FA02F243EB0200A5
:100C400008BF20F00100704702F1200201FA02FC07
:100C5000C2F1200250EA4C0021FA02F243EB0200FA
:100C600008BF20EADC7070474FF0FF0C1CEAD0523E
:100C70001EBF1CEAD15392EA0C0F93EA0C0F6FD0FF
:100C80001A4480EA010C400218BF5FEA41211ED0DD
:100C90004FF0006343EA501043EA5111A0FB0131C9
:100CA0000CF00040B1F5000F3EBF490041EAD3719E
:100CB0005B0040EA010062F17F02FD2A1DD8B3F11A
:100CC000004F40EBC25008BF20F00100704790F089
:100CD000000F0CF0004C08BF49024CEA502040EADB
:100CE00051207F3AC2BFD2F1FF0340EAC2507047A1
:100CF00040F400004FF00003013A5DDC12F1190FDF
:100D0000DCBF00F000407047C2F10002410021FA50
:100D100002F1C2F1200200FA02FC5FEA310040F168
:100D2000000053EA4C0308BF20EADC70704792F0E1
:100D3000000F00F0004C02BF400010F4000F013A19
:100D4000F9D040EA0C0093F0000F01F0004C02BF14
:100D5000490011F4000F013BF9D041EA0C018FE783
:100D60000CEAD15392EA0C0F18BF93EA0C0F0AD089
:100D700030F0004C18BF31F0004CD8D180EA0100AF
:100D800000F00040704790F0000F17BF90F0004F48
:100D9000084691F0000F91F0004F14D092EA0C0F2A
:100DA00001D142020FD193EA0C0F03D14B0218BFBD
:100DB000084608D180EA010000F0004040F0FE4003
:100DC00040F40000704740F0FE4040F4400070479F
:100DD0004FF0FF0C1CEAD0521EBF1CEAD15392EA1E
:100DE0000C0F93EA0C0F69D0A2EB030280EA010C0E
:100DF00049024FEA402037D04FF0805343EA1111A7
:100E000043EA10130CF000408B4238BF5B0042F104
:100E10007D024FF4000C8B4224BF5B1A40EA0C00A9
:100E2000B3EB510F24BFA3EB510340EA5C00B3EBDB
:100E3000910F24BFA3EB910340EA9C00B3EBD10FC9
:100E400024BFA3EBD10340EADC001B0118BF5FEA1B
:100E50001C1CE0D1FD2A3FF650AF8B4240EBC25044
:100E600008BF20F0010070470CF0004C4CEA502005
:100E70007F32C2BFD2F1FF0340EAC250704740F454
:100E800000004FF00003013A37E792F0000F00F046
:100E9000004C02BF400010F4000F013AF9D040EAC4
:100EA0000C0093F0000F01F0004C02BF490011F458
:100EB000000F013BF9D041EA0C0195E70CEAD15350
:100EC00092EA0C0F08D142027FF47DAF93EA0C0F37
:100ED0007FF470AF084676E793EA0C0F04D14B021B
:100EE0003FF44CAF08466EE730F0004C18BF31F0CD
:100EF000004CCAD130F000427FF45CAF31F00043C7
:100F00007FF43CAF5FE700BF4FF0FF3C06E000BF5F
:100F10004FF0010C02E000BF4FF0010C4DF804CD82
:100F20004FEA40024FEA41037FEA226C18BF7FEA92
:100F3000236C11D001B052EA530C18BF90EA010F94
:100F400058BFB2EB030088BFC81738BF6FEAE17023
:100F500018BF40F0010070477FEA226C02D15FEABF
:100F6000402C05D17FEA236CE4D15FEA412CE1D02B
:100F70005DF8040B704700BF844608466146FFE7F2
:100F80000FB5FFF7C9FF002848BF10F1000F0FBDD4
:100F90004DF808EDFFF7F4FF0CBF012000205DF8CD
:100FA00008FB00BF4DF808EDFFF7EAFF34BF012052
:100FB00000205DF808FB00BF4DF808EDFFF7E0FFEB
:100FC00094BF012000205DF808FB00BF4DF808ED3C
:100FD000FFF7D2FF94BF012000205DF808FB00BF9F
:100FE0004DF808EDFFF7C8FF34BF012000205DF881
:100FF00008FB00BF53B94AB9002908BF00281CBF2D
:101000004FF0FF314FF0FF3000F00CB8ADF1080C9D
:101010006DE904CE00F010F8DDF804E0DDE902230C
:1010200004B07047704700BF034611F8012B03F866
:10103000012B002AF9D170472DE9F04786468C46EE
:101040000846089E154674461946002B40F0C2809B
:101050008542B2FA82F245D94AB1C2F1200300FAC0
:1010600002FC2EFA03F3954043EA0C0C94404FEA3D
:10107000154EA8B2BCFBFEF8230C0EFB18CC08FBE7
:1010800000F943EA0C43994528D9EB1808F1FF37DA
:1010900004D2994502D9A8F102072B44A3EB090316
:1010A000A4B2B3FBFEFC0EFB1C330CFB00F044EAC5
:1010B0000344A04214D92C190CF1FF3304D2A042EE
:1010C00002D9ACF102032C44241A43EA07401EB1B2
:1010D000D440002334607360BDE8F0874746DDE705
:1010E0006346F1E792BB431B01214FEA154EAFB2B5
:1010F000B3FBFEFC200C0EFB1C330CFB07F840EA94
:101100000343984562D9EB180CF1FF3004D298459F
:1011100002D9ACF102002B44A3EB0803A4B2B3FB49
:10112000FEFC0EFB1C330CFB07F744EA0344A7420A
:101130004ED92C190CF1FF3304D2A74202D9ACF1DD
:1011400002032C44E41B43EA0040C0E7C2F1200341
:1011500020FA03F1954090402EFA03F303434FEA3F
:10116000154EAFB2B1FBFEFC0EFB1C10190C0CFBB4
:1011700007F841EA0041884504FA02F422D96918C7
:101180000CF1FF3004D2884502D9ACF102002944A9
:10119000A1EB08019BB2B1FBFEFC0EFB1C110CFB8A
:1011A00007F743EA01439F420ED9EB180CF1FF31D8
:1011B00004D29F4202D9ACF102012B44DB1B41EA6D
:1011C000004192E76046E3E76146F7E76046A3E740
:1011D0006346B7E7834206D916B9002108467BE784
:1011E000C6E900E0F9E7B3FA83F78FB9834201D388
:1011F000724508D8BEEB020460EB030301209C4655
:101200001EB9002168E73846FAE7C6E9004CF8E75E
:10121000C7F1200CBB4022FA0CF41C432EFA0CF14F
:1012200020FA0CF3B84001434FEA14490EFA07F5CF
:10123000B3FBF9F81FFA84FE09FB18300B0C08FB0E
:101240000EFA43EA00439A4502FA07F240D9E3183E
:1012500008F1FF3004D29A4502D9A8F102002344D4
:10126000A3EB0A0389B2B3FBF9F809FB183308FBB7
:101270000EFE41EA03418E452CD9611808F1FF3377
:1012800004D28E4502D9A8F10203214443EA00406A
:10129000A0FB0298A1EB0E014145CE46434602D386
:1012A00006D14D4504D2B9EB020E68EB04030138B8
:1012B000002EA6D0B5EB0E0261EB030101FA0CFC87
:1012C00022FA07F34CEA0303F940C6E9003198E734
:1012D0004046C5E74346D9E72DE9F04F0C4685B0B7
:1012E00004F0F8FC6379A27AA679042B014696BF34
:1012F0004548464B50F82330E07902281ED017D8D5
:10130000434D444F002818BF3D46B4F902000096F3
:10131000CDE90150404813F0F4F8E57A002D3AD0B9
:10132000012D64D03D4805B0BDE8F04F13F0E9B899
:101330003B4D364FFF2818BF3D46E6E7394DE4E701
:10134000E36813F9150003EB450BFFF72BF8804614
:1013500089469BF90100FFF725F842464B4601F00C
:1013600063FC052D10D1FFF721FBFFF72DF8324666
:101370003B46FFF781F8FFF719FBFFF725F8024618
:101380000B46504612F0A8F90135A37AAB42D7DCE0
:1013900005B0BDE8F08F1AA7D7E90067DFF888A08D
:1013A000F3E7E36833F9250003EB850BFFF708FC4F
:1013B0000646BBF90200FFF703FC314612F026FC9B
:1013C0000646384613F09DF8052D0BD13046FEF742
:1013D000FBFF42464B46FFF74FF802460B4650468E
:1013E00012F07AF90135A37AAB42DADCD0E70FF2DA
:1013F0001009D9E900890D4FDFF82CA00025F2E78C
:10140000872EDE7913A64C40385D01009C6C0100EC
:10141000BC6C0100A46C0100EE6C0100636D010066
:10142000E16C0100C36C01004A6D0100566D0100C2
:101430002DE9F843D0E90638456903EB08042F3459
:10144000A5420F46164619D8DFF86C80A3FB0801A9
:1014500017A3D3E90023FFF7CDFD0346601BA0FBD4
:10146000080123F07F4412A3D3E90023FFF7C2FD54
:1014700020F07F403C603060BDE8F883DFF83890B2
:101480000BA3D3E90023A5FB0901FFF7B3FD20F06F
:101490007F440A480A2106A3D3E90023E8FB090197
:1014A000FFF7A8FD20F07F403C603060BDE8F88386
:1014B0008D49FD1A0700000000CA9A3B00166BF127
:1014C00070B5234C9DF810E094F846C01CF0020F54
:1014D00036D1460816F0040532D149B363F3830CC4
:1014E000400194F82030A1864FEACE0E0EF0180E7F
:1014F00000F0200040EA0E0023F03803184394F86F
:101500002C3084F82000134884F846C066F30203A8
:1015100084F82C309121A2FB000301FB02310AA3C5
:10152000D3E90023FFF766FDC4E90E00284670BD2D
:1015300094F82C3065F3020384F82C30284670BDF3
:101540000C25284670BD00BF8D49FD1A070000001C
:10155000A00A0020002AE7842DE9F04390F84630E5
:1015600090F82020464D6FF30003044600F12D0152
:10157000C3F3800060F386128DB084F8463084F89F
:10158000202006F0AFF894F82020A38E3D48E461B7
:1015900002F079024FF0000984F820209121A3FB8A
:1015A0000002C4E9059984F8009001FB032132A3ED
:1015B000D3E90023FFF71EFDE26BC4F8049002F1AB
:1015C0000E03984288BF1946A4EB05052E4BC4F8BC
:1015D0000C904FEA95059CBF4A460146A3FB053592
:1015E0003123A2632161A360064606F03DF84F4611
:1015F0000DF12C08CDF8208006940397A38E00F1FE
:101600000E0920489121A3FB000201FB032123695D
:1016100004931E4B07931E4B059302230B9316A3B3
:10162000D3E90023FFF7E6FC104619464FF47A721F
:101630000023FFF7DFFCC5F387050235EDB2CDE9E6
:10164000016003214B462A460097384605F018FFF3
:10165000414606F0CBFD40B994F8463043F0020312
:1016600084F846300DB0BDE8F0830C200DB0BDE825
:10167000F08300BFAFF300808D49FD1A0700000022
:10168000A00A0020002AE784310CC330AD770000A7
:1016900011AA0000000000002DE9F04F0B79092B82
:1016A00093B00C46074600F04E820D2B00F0E98106
:1016B000062B17D0084A0949094840F2471312F08F
:1016C0002DFF002383F31188BFF36F8F0323184688
:1016D00002DF13B0BDE8F08F48620100045F010033
:1016E0007C5E0100D1F808B0DBF808306BB1C44A69
:1016F000C449C548922312F011FF002383F31188D7
:10170000BFF36F8F0323184602DFDBF8008098F8E1
:1017100049301D0754BFD8F85030002340460B9382
:1017200009F0ACFC0230C3B20E93637E2760002543
:1017300065F3C713637694F82130E560002B00F061
:10174000E983CDE90C5501220F92A9462E4694F863
:101750002220910600F03B8294F9232094F8233054
:10176000002AC0F2C881DA0704F1240A0AD50B9ACC
:1017700032B198F8492002F03002202A40F040832C
:1017800004F12A0A980748BF0AF1060A590748BF18
:101790000AF1010A13F0080216BF514611460AF178
:1017A000020A13F0100216BFCDF840A010920AF101
:1017B000030A9A0618D50AF11202002E00F07C8264
:1017C0000B98002800F07882002900F07582497893
:1017D0001192090940460AF093FC119A002840F042
:1017E000EF8394F82330924694F82210580648BFAD
:1017F0000AF1010AC1F3050104F122030131AAEB48
:101800000303DBB2C9B28B429EBFCB1ADAB20B46DE
:1018100094F8211088BF0022994288BFCB1A217901
:101820008CBFDBB200230D2900F02082109A002A21
:1018300000F0268290785178020202F4F8520A43AE
:1018400000F01E82002D40F0CD824009022800F2F7
:10185000688300F0668310980F9D90F9000094F85B
:101860002110002805F00300084400F10900C5F329
:1018700040014FEAC000ACBF1E254FF49675C8402A
:1018800005FB02FA0AEB050100F5967291420F90F2
:10189000C0F03181002E00F0F183B9F1000F00F0AB
:1018A000C183D9F80010B1F8C02013449BB21E2B9D
:1018B000A1F8C030A38304D9A37E13F0010300F084
:1018C00033840C9910980B79027862F305030B713D
:1018D00082780123084652094979934063F3020153
:1018E0004171A37EDB0700F1F083BBF1000F00F034
:1018F000A782B8F1000F00F0378498F8463013F053
:10190000010340F00782CBF80830109BDDF83080EF
:101910001B7898F80500DFF8F49013F0400F14BF1F
:1019200032274FF4FA773A4B07FB0AF7A3FB073746
:10193000BF0C07F12F0305EB4303C8F80830012162
:1019400000F007000BF0EEFC0025636975603122A2
:10195000B260F56098F80520A3F12F080F9BA8EB63
:10196000030802F003030933C2F34002DB00D34053
:10197000D04403F5EA730344A8EB00082548072187
:10198000E3FB09011CA3D3E90023FFF733FBA8EB1A
:10199000070820F07F4018A3D3E900233061A8FB9B
:1019A0000901FFF727FB2A4620F07F47022101208B
:1019B00004F048FC0E9BFF2B30D0CDE900551A46B1
:1019C00023693F3B3B440121284605F0C7FD10F049
:1019D000FD0F23D00A4A10490B4840F20E3312F093
:1019E0009DFD85F31188BFF36F8F0323184602DF37
:1019F00014E000BFAFF300808D49FD1A070000001E
:101A000048620100E46201007C5E010000CA9A3B6A
:101A100083DE1B438C49FD1AC0630100B3493C229D
:101A2000304604F0A9FBB24A2369CDE90726B14A42
:101A3000CDE90526316900970024C21CCDE9034198
:101A4000CDE901443F3BD2B20121204605F018FD0B
:101A500010F0FD0F0DD0A84AA849A94840F21E3346
:101A600012F05CFD84F31188BFF36F8F03231846D7
:101A700002DF01220221104613B0BDE8F04F04F04E
:101A8000E1BBD1F80890D9F83C3073B19A4A9D492E
:101A90009B484FF4947312F041FD002383F31188A7
:101AA000BFF36F8F0323184602DFD9F80050284692
:101AB0000AF0C6FAE368E080284699F80B600D93B7
:101AC0000AF0BEFA637E2760002565F3C7136376CC
:101AD00094F82130E56006F00706002B69D10B93DE
:101AE00098461E46D9F80020B2F8C00000210344F1
:101AF000A383A2F8C0100B9B002B00F0DF8098F8A6
:101B0000493003F03003202B00F0878098F84930EB
:101B10006FF3051388F84930002E6DD0336B002B1E
:101B200000F0008198F84620D10700F1F581DC60D3
:101B30003463B46A002C00F04481304613B0BDE831
:101B4000F04F09F09FBC8B680C931A46674B1668E0
:101B50009E4266D1D6F828B0BBF1000F00F0638337
:101B60003C223146304604F007FB0330C3B20E93EB
:101B7000DBF80050284609F09DFA8046002800F066
:101B8000AE810C9B5A7990F8493002F00702180791
:101B900054BFD8F850300023012A0B9300F0208165
:101BA000022A00F0D380544A5749554840F20513A1
:101BB00085E50430C2B20E9294F822200F96910669
:101BC000AB460B95A8462E460C957FF4C5AD013B60
:101BD000DBB2B9F1000F85D1002E40F0CA80A3839B
:101BE0000B9B4BB198F8493003F03002202A03D008
:101BF0006FF3051388F849302146384606F0DCFAC1
:101C00000D9A2AB1012310681371114606F0D4FA17
:101C100013B0BDE8F04F06F0D5BA002E7FF47EAFCA
:101C2000EAE7304609F046FA8346002800F08A8148
:101C3000D4F808B0DBF808300C93002B00F0F180EA
:101C40000C9B1E68B36A5B450DD02B4A2F492C486C
:101C5000D22312F063FC002383F31188BFF36F8F4C
:101C60000323184602DFFF230E9381E7002A3FF487
:101C7000DDADA079119351460AF080FB119BD5E5AB
:101C8000B9F1000F00F01181D9F80010B1F8C020AF
:101C900000201344A383A1F8C000002D3FF42BAF14
:101CA000002E00F0F180336B002B00F0ED80DC6043
:101CB000346313B0BDE8F08F924695E5002E9BD0BB
:101CC000336B7BB3B8F1000F0DD10B4A10490C48B0
:101CD0004FF44E7312F022FC88F31188BFF36F8F1C
:101CE0000323184602DF336B1CE700BF0C450020BE
:101CF00061B1000019B2000048620100F063010008
:101D00007C5E010028630100045F0100FC620100A9
:101D1000406201000B9B002B40F00B82336B002BC9
:101D200040F0FA80B9F1000F3AD02146384606F06B
:101D30004FFAD9F8003093F896301A077FF5F9AECC
:101D4000D9F83C30002B3FF4F4AEC2E40723657EA3
:101D5000237100212B4661F3C713637694F8213079
:101D60002760E1602BB189460F92C5F380050D9184
:101D7000EDE4B28E13449BB2B386A3830B9B002B7E
:101D800000F0DB8098F8493003F03002202A43D07D
:101D90006FF3051388F84930336B002B7FF4C2AE24
:101DA000984A9949994840F2563312F0B7FB4FF0E0
:101DB000000989F31188BFF36F8F0323184602DFF0
:101DC000B3E7904A924991484FF4587312F0A6FB3A
:101DD00084F31188BFF36F8F0323184602DFACE64C
:101DE0000623B4E7B9F1000F00F0E180D9F8001044
:101DF000B1F8C02013440022A383A1F8C0204FE70C
:101E000094F8201000235246C1F3801140460AF096
:101E100043F994F82330B3E4336B002B7FF482AEA4
:101E2000BEE7784A7B497948CF2312F077FB0C9BB9
:101E300083F31188BFF36F8F0323184602DFFFE699
:101E4000D9F83C309BB1D9F83C300C9A93420ED073
:101E50006C4A71496D4840F2BB2312F05FFB0023CE
:101E600083F31188BFF36F8F0323184602DFD9F87D
:101E7000003093F89630180700F1BD810C9BC9F82B
:101E80003C30F46241E5A3835E4A64495F484FF405
:101E9000FC7312F043FB002383F31188BFF36F8FB1
:101EA0000323184602DF336B01E7002E76D0B28E93
:101EB00013449BB2B386A383002D7FF4F4AE0B9B37
:101EC000002B3FF4FDAE98F8493003F03002202A91
:101ED0003FF424AE6FF3051388F849301EE60C9BDF
:101EE0005B7903F0070381460F930D232846237186
:101EF0000AF0A6F8637EE080002565F3C7136376D9
:101F000094F821302760E560002B3FD00B95A84660
:101F10000D951CE40D9362E69C427FF4C8AEFFF77A
:101F2000D8BBB9F1000F55D0D9F80010B1F8C020D6
:101F30001344A383A1F8C050DDE5336B002B7FF47D
:101F4000C1AE2DE7D4F80890D9F83C300C93002BA3
:101F500048D00C9B1E68B36A4B450DD0294A3049C6
:101F60002A48E12312F0DAFA002383F31188BFF341
:101F70006F8F0323184602DF0C9BD9F800505B7962
:101F800003F007030F93FF230E93AEE70B939846DE
:101F90000D93B9F1000F7FF4A5AD1DE6A383002DCD
:101FA0007FF472AF0B9B002B7FF41CAE24E6002E57
:101FB0003FF469AFB28E13449BB2B386A38372E63B
:101FC0005346314692464046224600F04DF994F879
:101FD000233009E4002E4FD0B28E13449BB2B38657
:101FE000A3836CE7074A0B490848DE2312F096FAF0
:101FF0000C9B83F31188BFF36F8F0323184602DF16
:10200000A7E700BF486201008C6201007C5E01000E
:102010001C630100F46201007C6301003C63010069
:1020200010630100B28E13449BB21E2BB38603D9FA
:10203000A37EDA0740F1A880336B002B00F0848088
:10204000DC600C99B38E10983463A38302780B790B
:1020500062F305030B71827808464979520901231E
:10206000934063F302014171A37EDB073FD4BBF1D0
:10207000000F7FF43EACEBE6A38393E774480C9328
:1020800004F050F80C9B002800F092800D9A8263B7
:1020900090F82020067066F3C71280F82020BBF16C
:1020A000000F14BF5A464A46826200F11C02C0E982
:1020B0000566C66206638386C0610C92B9F1000FA3
:1020C0003FD00D960646FFF7ECBB0C9BC9F83C30A1
:1020D000637E43F0800321466376384606F078F845
:1020E0000C9A13796FF386131371FFF7F2BADBF8CA
:1020F00008308BB10C9A93420ED0564A5649574835
:1021000040F2962312F00AFA002383F31188BFF3FA
:102110006F8F0323184602DF0C9BCBF80830637ED9
:1021200043F080036376DBE7A1F8C0300B9B002B04
:1021300064D098F8493003F03003202B7FF4E6ACEC
:10214000ECE40646CDF83490C6E90B440C99B38E06
:102150001098A38302780B7962F305030B718278E0
:102160000846520949797AE73A4A3D493B4840F2E4
:10217000AD2312F0D3F988F31188BFF36F8F0323D7
:10218000184602DFFFF7B9BB0B9B002B3FF4D5AE1F
:1021900098F8493003F03002202A3FF43DAE69F34D
:1021A000051388F84930336B002B7FF4BBACF7E59F
:1021B000A27ED10703D5627E42F080026276B9F139
:1021C000000F20D0D9F80000B0F8C0201344A3833A
:1021D0000B9B0021A0F8C010002B3FF40DAD98F828
:1021E000493003F03002202A3FF406AD61F30513B5
:1021F00088F8493000E50B9B002B9AD1336B002BFC
:102200007FF460AD91E50B9B002B3FF4F5AC98F8A3
:10221000493003F03002202A3FF4EEAC69F3051395
:1022200088F84930E8E40B4A0E490C48BE2312F006
:1022300075F98BF31188BFF36F8F0323184602DF04
:102240003C223146304603F097FFDBF80030FFDEDA
:102250000845002048620100506301007C5E0100D7
:1022600040620100BC6201002DE9F04F046D94F85A
:102270003E6084F83F601D4681463223062010FBF5
:1022800006306B6823502B7A204403F01F03037140
:102290008DB00F4606EB4606052104EB4606904638
:1022A00004F01CF996F8373000F03F0060F30503A6
:1022B000012886F8373040F2408199F8493094F887
:1022C0009620C3F3010363F3000284F89620D9F843
:1022D0004A30C4F89030B9F84E30A4F89430204613
:1022E000D5F8093040F8203F0AF04AFA2086B5F8C0
:1022F0000D30EA7B84F82620A3842B8AE38597F8A7
:10230000212094F8273062F3020384F82730B5F8CF
:1023100002B0B4F8862040F2E2431FFA8BF603FBCA
:1023200006F642F21071731E01FB0233B3FBF6F3A3
:102330009BB2A4F88830B4F888309BB2062B00F228
:10234000FF800023A4F8843094F89630062262F3CC
:10235000061384F8963095F808A00BF06DF94FEA53
:102360005A1A074650460BF069F93B1806FB03F36F
:102370007B4A7C4903F5742303F23F23A2FB03232A
:102380009B0C63647308963BA3646B7813F0200F77
:102390000CBF1E234FF4967363650023E36799F81F
:1023A0004930022262F3051389F84930C4222046DD
:1023B00003F0E2FED4F8BC300C22C3F80890A3F876
:1023C00022B0D8801A7194F8272083F824A0C2F391
:1023D000020283F82120074694F82700012100F02B
:1023E00007000AF09FFF95F801E02B7894F827C0CA
:1023F00098F82120D8F81410D4F854901EF0400F0B
:102400004FEA0E2E0EF4F85E4EEA030E0CF00303B4
:102410001A4402F10902CCF3400C4FEAC202A1F1C6
:102420002F0522FA0CF209FB0E55A5EB0205A5EBD0
:1024300000050CBF00224FF416121544A5EB01094C
:1024400040F28A22914503D8E28D01323544E2857B
:102450000933DB0023FA0CF303F5EA73DFF8089184
:1024600018444FF0070B414B5946E0FB0931184621
:10247000636CF61A31234FF0000AA360A6FB093201
:10248000CDE90A32C4F804A033A3D3E90023C4F889
:102490000CA0FEF7AFFD364BC4F88C3020F07F4621
:1024A0002DA3D3E90023DDE90A012661FEF7A2FD91
:1024B00006940496D8F810302E4A0792A3F13F08EC
:1024C0002D4B0A9ACDF80CA020F07F44A4FB0331D9
:1024D000D01A0B9A294B05930BFB041140F272336F
:1024E00062EB010108934FF47A720023FEF782FD3C
:1024F00019A3D3E90023CDE90140A5FB0901FEF7AB
:1025000079FD043720F07F40FFB2009043463A4601
:102510000121504604F0B4FF10F0FD0F0DD0184A11
:102520001849194840F2733311F0F8FF8AF3118803
:10253000BFF36F8F0323184602DF0DB0BDE8F08FA5
:10254000B4F88830B4F88420063B9BB29A427FF6F8
:10255000FBAEF7E6AFF300808D49FD1A07000000DF
:1025600083DE1B438C45002000CA9A3B8C49FD1A30
:1025700089F6000029BA00008D49FD1AE5B800006F
:102580007C640100BC6101007C5E01000000000071
:102590002DE9F0418AB002230C4615462C490993D7
:1025A000C42203F0E9FDDFF8AC8009AB06932A4BA7
:1025B0000593002724A3D3E90023061DA5FB0801EA
:1025C000CDE90377FEF716FD034623F07F43029320
:1025D000A4FB08011CA3D3E90023FEF70BFDF6B210
:1025E00020F07F40CDE900703B463246032138465B
:1025F00004F062FF10F0FD0F0CD0099B022B19D1E3
:10260000099B012B14BF6FF00B006FF001000AB0A3
:10261000BDE8F0814FF0FF324FF0FF330F4810F06C
:1026200081F9099B012B14BF38466FF00D000AB0E9
:10263000BDE8F0814FF0FF324FF0FF33074810F054
:1026400071F9DDE7AFF300808D49FD1A0700000046
:102650008C45002000CA9A3B1DBA0000704500203E
:102660002DE9F041C46823796FF300038CB0237126
:102670000F4605460DF0B0FA00200DF0D5FA207C8B
:10268000012100F007000DF0C1FA227C9200252103
:1026900002F01C0208200DF0FFFA237C23F018033F
:1026A0000120237405F04AFE0646002800F08480CD
:1026B00006F120000DF024FB5D4B0B930BA80DF0F1
:1026C000D3FA5C4940F25B600DF08AFB2079C0F3DD
:1026D000410025300AF0E2FD574821460DF03AFA54
:1026E00023799B062ED596200DF0AAFC00231A46CE
:1026F000194618460DF0D8FBD4F800802E684046E5
:102700000AF0ACFD06446A6806F10E0100200DF0E7
:10271000A3FC0DF0C3FD0DF03BFC204608F0BCFC13
:10272000811CC9B2404632460AF0A6FD0546002883
:1027300051D157B120460AF02BFD68BB00200CB0E8
:10274000BDE8F0810DF012FCD6E7E369002BF1D073
:102750003A4907913A49059140F2F31100930891E3
:10276000CDE90377CDE90177069433460122394656
:1027700004F086FE10F0FD0FDCD0324A32493348B7
:102780004FF4FA7311F0CAFE87F31188BFF36F8F0D
:102790000323184602DFCDE72A4A2D492B4840F291
:1027A0000B2311F0BBFE002383F31188BFF36F8F5F
:1027B0000323184602DFC1E7224A264923484FF483
:1027C000C57311F0ABFE86F31188BFF36F8F03233F
:1027D000184602DF6CE71B4A1F491C4840F2E5130C
:1027E00011F09CFE1D4B0721A5FB030301FB0531E6
:1027F0000DA3D3E90023FEF7FDFB19490246194852
:1028000011F08CFE002585F31188BFF36F8F032331
:10281000184602DF144821460DF09CF90DF08CFAA1
:102820006FF08B008BE700BF00CA9A3B00000000EE
:10283000D6BE898E5555550021DD0000D5D9000042
:1028400009DA000048680100BC6101007C5E0100FB
:10285000C85F010094680100045F01008D49FD1A02
:10286000F06801009C680100E1D600000000000053
:102870002DE9F041C46882B005460DF10301204600
:1028800008F018FF9DF80330002B00F081802379B9
:10289000674A6FF386132371002616800DF09CF9AA
:1028A00030460DF0C1F96079012100F007000DF00C
:1028B000ADF962799200FF2102F01C0208200DF0B0
:1028C000EBF9012005F03AFD0646002875D006F127
:1028D00020000DF015FA574B019301A80DF0C4F933
:1028E000554940F25B600DF07BFA207900F03F0023
:1028F0000AF0D4FC214651480DF02CF996200DF039
:102900009FFB627902F007020123104600210DF0BF
:10291000CBFA27682E6838460AF0A0FC06446A689D
:1029200006F10E0100200DF097FB05466079D4F802
:10293000088000F0070001210DF0F0F905446079EE
:1029400000F007000228454426D004280CBF4FF4AD
:10295000BC73282301211D440DF0E2F928440DF039
:1029600057FC0DF09BFC0DF013FB204608F098FE81
:10297000C11C3246C9B238460AF07EFC054658BB37
:1029800020460AF005FC48B9002002B0BDE8F081FD
:1029900021460CF0D5FEBCE71823DBE7284A29497D
:1029A00029484FF4187311F0B9FD85F31188BFF36E
:1029B0006F8F0323184602DFE6E7214A23492248A6
:1029C0004FF4F57311F0AAFD86F31188BFF36F8FF2
:1029D0000323184602DF7AE7194A1D491A4840F2D4
:1029E000412311F09BFD1B4B0721A5FB030301FBBA
:1029F00005310DA3D3E90023FEF7FCFA1649024680
:102A0000164811F08BFD002585F31188BFF36F8FF9
:102A10000323184602DF124821460DF09BF80DF003
:102A20008BF96FF08B00B0E700CA9A3B0000000002
:102A3000DA770020D6BE898E5555550081EA000010
:102A400004690100C85F01007C5E01009468010018
:102A5000045F01008D49FD1AA86901009C6801000E
:102A600019E00000000000002DE9F041C468D4E93D
:102A70000C230E46217B1344002262F38201217352
:102A8000E16A22638B4228BF0B4663635C4B0546B9
:102A90001A700DF0A1F8E07A012100F007000DF0A6
:102AA000B5F8E27A920002F01C02FF2108200DF036
:102AB000F3F8201D0DF0D8F82389A17A40F25B606D
:102AC00043EA01410DF08CF930460AF0E7FB0120A2
:102AD00005F034FC0646002856D006F120000DF023
:102AE0000FF927682E6838460AF0B8FB06446A6872
:102AF00006F10E0100200DF0AFFA80460DF096FBB6
:102B0000636BE07A03F12F02A36B00F00700012151
:102B100003EB42050DF002F945440544E07A00F06C
:102B2000070002281FD004280CBF4FF4BC732823D1
:102B300001211D440DF0F4F828440DF069FB0DF05F
:102B4000ADFB204609F082FA011D3246C9B2384673
:102B50000AF092FB054630BB20460AF019FB20B96B
:102B60000020BDE8F0811823E2E7264A26492748DD
:102B700040F20B2311F0D2FC85F31188BFF36F8F65
:102B80000323184602DFEBE71E4A21491F4840F2A3
:102B9000D51311F0C3FC86F31188BFF36F8F0323A5
:102BA000184602DF99E7174A1A49184840F20123EC
:102BB00011F0B4FC184B0721A5FB030301FB053101
:102BC0000DA3D3E90023FEF715FA14490246144871
:102BD00011F0A4FC002585F31188BFF36F8F032348
:102BE000184602DF0F4821460CF0B4FF0DF0A4F8A0
:102BF0006FF08B00B5E700BF00CA9A3B00000000F1
:102C0000C8850020B4690100C85F01007C5E010036
:102C100094680100045F01008D49FD1A286A0100D3
:102C20009C68010091EF00002DE9F84F174690468F
:102C3000994623F000427B42DFF8E4A13B4342EA9D
:102C4000D373534504460D4609D8464221F000434C
:102C5000064343EAD67656458E46834608D9424611
:102C60004B4620462946FDF751FA04460D4616E02C
:102C700009F1404606F580163E4303D1BDE8F84F02
:102C800000F0D2B84FEAA97606F0020653EA0B0B21
:102C900046EAD17617D1022E05D0032E0AD020465F
:102CA0002946BDE8F88F48A3D3E9002348A1D1E91C
:102CB0000001D8E744A3D3E9002347A1D1E90001EB
:102CC000FDF722FAD1E717430DD1BEF1000F3EA365
:102CD000D3E9002303DA42A1D1E90001F0E742A1E0
:102CE000D1E90001BFE7524524D1934218D1022E09
:102CF00035A3D3E900230BD0032E0DD0012E03D032
:102D00003BA1D1E90001AEE73BA1D1E90001D7E742
:102D10003BA1D1E90001A6E73BA1D1E90001CFE742
:102D2000022EC0D0032EC5D0012E4FF0000448D093
:102D30000025B4E75345C8D09B1AB3F1747F4FEA1E
:102D400023521ADB32A3D3E9002327A1D1E90001E2
:102D5000FDF7DCF904460D46012E21D0022E23D0CA
:102D6000002E9CD02CA3D3E9002320462946FDF752
:102D7000CBF917A3D3E90023A2E7B9F1000F01DAD9
:102D80003C320ADB42464B4620462946FDF79EFC74
:102D900021F0004100F048F8DCE700240025DBE7E3
:102DA00005F100431D467AE71BA3D3E90023204623
:102DB0002946FDF7A9F902460B4605A1D1E9000114
:102DC0007EE74FF000456AE759F3F8C21F6EA50190
:102DD000182D4454FB210940182D4454FB2109C0EF
:102DE000182D4454FB21F9BF182D4454FB21F93F01
:102DF000182D4454FB21E93F182D4454FB21E9BF11
:102E0000D221337F7CD90240D221337F7CD902C0CA
:102E1000075C143326A6913C075C143326A6A13C1C
:102E20000000F07F00000000C34A2DE9F84F21F0B8
:102E30000043934204460D468B4620D9BF4A934235
:102E400001D80CD158B122462B4620462946FDF721
:102E50005DF904460D4620462946BDE8F88FBBF1D2
:102E6000000F97A3D3E9002303DD97A1D1E9000167
:102E7000EDE797A1D1E90001FDF746F9E9E7B04A8E
:102E8000934211D8A2F1DE7293420AD892A3D3E9F9
:102E90000023FDF73BF9AB4B0022FDF77DFD002839
:102EA000D9D14FF0FF3A27E0A74A9342064621F0D6
:102EB000004700F2B880A2F55022934200F29B80B6
:102EC00002463B463946FDF721F99E4B0022FDF7AD
:102ED0001BF9002204460D464FF080433046394628
:102EE000FDF714F902460B4620462946FDF7EEFB96
:102EF0004FF0000A04460D4622462B46204629463E
:102F0000FDF7BAFA02460B4680468946FDF7B4FA49
:102F100073A3D3E9002306460F46FDF7ADFA72A36B
:102F2000D3E90023FDF7F2F832463B46FDF7A4FA59
:102F30006FA3D3E90023FDF7E9F832463B46FDF7DE
:102F40009BFA6DA3D3E90023FDF7E0F832463B4638
:102F5000FDF792FA6AA3D3E90023FDF7D7F83246CA
:102F60003B46FDF789FA68A3D3E90023FDF7CEF8C5
:102F700042464B46FDF780FA65A3D3E9002380461D
:102F8000894630463946FDF777FA63A3D3E9002333
:102F9000FDF7BAF832463B46FDF76EFA60A3D3E977
:102FA0000023FDF7B1F832463B46FDF765FA5EA314
:102FB000D3E90023FDF7A8F832463B46FDF75CFA5B
:102FC0005BA3D3E90023FDF79FF832463B46FDF7AC
:102FD00053FA02460B4640464946FDF797F822460B
:102FE0002B46FDF749FABAF1FF3F02460B4644D1A2
:102FF0002046294640E7534B00223946FDF784F826
:10300000504B04460D46002230463946FDF77EF807
:1030100002460B4620462946FDF758FB4FF0010AB1
:1030200004460D4668E7494A93421BD2484B0022AA
:103030003946FDF769F8464B04460D4600223046F6
:103040003946FDF719FA3F4B0022FDF75FF80246BB
:103050000B4620462946FDF739FB4FF0020A04468D
:103060000D4649E702463B493B460020FDF72EFB53
:103070004FF0030A04460D463EE7374B374E03EB4D
:10308000CA03D3E90023FDF73FF822462B46FDF79C
:103090003BF806EBCA0602460B46D6E90001FDF7EF
:1030A00033F8BBF1000FBCBF024601F100430446F8
:1030B0000D46BCBF14461D46CDE600BFAFF30080F1
:1030C000075C143326A6913C182D4454FB21F93F8C
:1030D000182D4454FB21F9BF9C7500883CE4377ED1
:1030E00011DA22E33AAD903FEB0D76244B7BA93FFA
:1030F000513DD0A0660DB13F6E204CC5CD45B73FC8
:10310000FF8300922449C23F0D5555555555D53F73
:103110002F6C6A2C44B4A2BF9AFDDE522DDEAD3F67
:103120006D9A74AFF2B0B33F711623FEC671BC3F07
:10313000C4EB98999999C93FFFFF0F440000F07FB5
:10314000FFFFDB3F0000F03FFFFFF23F0080034046
:103150000000F83F0000F0BFF85C0100185D0100BE
:1031600070B503788AB004460E4607AD032B20D80D
:10317000DFE803F002191B1D11492846FDF754FF33
:10318000059563780493A3780393E37802932379F6
:10319000019363790093A3790A4A1E21304610F007
:1031A000ADFA0AB070BD0849E7E70849E5E7084904
:1031B000E3E7084A0A21284610F0A0FAE0E700BF3A
:1031C0007C6D0100A56D0100836D01008A6D010019
:1031D000946D01009E6D010010B50B4688B06946E4
:1031E00004461868FFF7BCFF204602F073FD6A46EC
:1031F0000146044811F085F903480FF06FFB08B051
:1032000010BD00BFC86D01003408002070B50C4629
:103210008CB01546064604A92068FFF7A1FFA988CF
:10322000104A286840F6E54311F093F9304602F061
:1032300051FDE27994F90530042A014694F906001B
:1032400096BF094C094A54F82220064C0394AC88D6
:103250000090CDE90124064804AA11F052F90CB0FF
:1032600070BD00BFDC770020385D01009C6C010060
:10327000F86D01002DE9F0479CB004460D461E2272
:10328000002114A812F050FB284614AA2D4911F071
:10329000C5FB20680CA9FFF763FF207B2189E27939
:1032A00094F9063094F90570042896BF264D274EF0
:1032B00055F82060607B042896BF234DDFF88CA072
:1032C00055F820A0608925790B9501F0010CC1F318
:1032D000400EC1F38008C1F3C00900EB8005C1F3C3
:1032E0000011CDE90591AD1014A9CDE90905CDE98D
:1032F0000071CDE9076ACDE903E81548CDF808C0AB
:103300000CA911F0FEF8134A1378C3B96389B3B15D
:1033100003EB830310499B10C3EBC3030B60012332
:1033200013700E4B22791A7022680D4B11681960C8
:103330009188998092799A710A480FF0CFFA1CB05F
:10334000BDE8F0877B3F01004C5D01009C6C0100F3
:10335000506E0100C3840020580D0020C18400205D
:10336000C48400200408002030B50C468BB002A9AC
:1033700005462068FFF7F4FE284602F0ABFC014644
:10338000207AE388042896BF084C094854F82000A6
:1033900003EB83029210CDE90020064802AA11F047
:1033A000B0F805480FF09AFA0BB030BD4C5D010043
:1033B0009C6C0100D66E01001C0800202DE9FF471F
:1033C0006F4811F09EF86F4811F09BF8002001F053
:1033D000D9FC014610B16C4811F093F86B486C4D64
:1033E0006C4FDFF8B4A111F08CF86C4811F089F83B
:1033F0006B4802F057FC6B4811F083F86A4811F0F3
:1034000080F86A48002602F07FFD664811F079F8DE
:10341000B0462E70B146664A2C7887F8009030236B
:10342000CDE9002302965CB9624811F06AF82146A2
:10343000684602F0CBFB0146B0B1534811F061F889
:103440005D4811F05EF85D484FF0FF324FF0FF33FA
:103450000FF068FA044668B101464B4811F051F884
:10346000002004B0BDE8F087484811F04AF8012375
:103470002B70E5E7524811F044F8524811F041F83A
:10348000514B524918689A889B798DF80630504BF9
:1034900000901B788DF8073068464FF42023ADF874
:1034A00004200294039302F069FC014660B336489D
:1034B00011F027F8474811F024F8474BD3F800C023
:1034C0004FF40044414640F2E7304FF47A72002353
:1034D000ECFB0401FDF78EFD02460B463F483B4CDA
:1034E0000FF020FA014698B1274811F00AF83C483D
:1034F00011F007F8206802F0F9FB01460028ACD172
:10350000224810F0FEFF86E7264810F0FAFFD1E7C8
:10351000344810F0F6FF344B34480193CDF800A046
:1035200010F0EFFF6946206802F0BAFD0146E8B1ED
:10353000154810F0E6FF2E4810F0E3FF02F096FB6E
:103540000446B8B10146104810F0DBFF294810F0DE
:10355000D8FF29484FF0FF324FF0FF330FF0E2F968
:10356000014600287FF479AF2448CAE7244810F0C8
:10357000C8FFE0E7234810F0C4FF2C70E6E700BF67
:103580001E6F0100446F0100606F0100716F010048
:10359000C2840020C38400200702050C7A6F01005A
:1035A000B8050020956F01009F6F0100C405002041
:1035B00001016000CA6F0100DC6F010004080020F7
:1035C0000170010027700100C48400205C0D002000
:1035D000C18400204D700100580D00201C080020FF
:1035E0006B700100917001007D710100B6700100E7
:1035F000F17001000B710100340800202E710100F0
:10360000D270010001710100014B1B68184700BF17
:10361000E0050020014B1860704700BFE005002066
:1036200030B585B004460D4610220021684612F0E0
:103630007BF902238DF802302A46044B0193214680
:10364000684610F087F805B030BD00BF09360000AD
:1036500080B505460E46174698460FF0FDFD034619
:1036600012F0E6F9DFF81890044649F800304246B7
:1036700030463946A84754F8090000F025FB00BF42
:10368000080000002DE9F047058B04462807904606
:1036900011D4022905F0070540F0CC80204610F037
:1036A0009DFF78B10138218B042811D8DFE800F0A4
:1036B000C2106D85950001290CBF45F0100545F03D
:1036C0002005258388F31188BFF36F8FBDE8F0874D
:1036D00001F0070AAA4500F0A5800027B9463E463A
:1036E000A368002B00F0BC8041F00801218388F31F
:1036F0001188BFF36F8FA168002900F0BA800D68B0
:10370000002900F0B680D1F80480334652462046A6
:10371000C047002D76D02B6829461D46F0E701F002
:1037200007035A1F012A1BD8002221F00701062B8C
:10373000276889B2C4E9002209D13B4603E0628BC5
:10374000013262831B68002BF9D141F00201218311
:10375000204610F043FF00287AD041F0200176E0A7
:10376000042B0AD121F0070189B22183204610F0F1
:1037700035FF10B141F020012183218B01F0070AB0
:10378000AA454FD00027B946AAE7236921F00701CF
:1037900041F00601062DD3F8009021832DD1B9F117
:1037A000000F3FD041F00801218388F31188BFF357
:1037B0006F8F3A492046C84729E021F00701236965
:1037C00041F0040189B2042DD3F804902183E6D09E
:1037D00000273E464FF0040A82E721F007012369E3
:1037E00041F0050189B2052DD3F808902183D6D088
:1037F00000273E464FF0050A72E700273E464FF08D
:10380000060A6DE72B4687E7B9F1000FD1D1EFF338
:103810001188202383F31288BFF36F8F238B23F04B
:1038200008032383258BEA062ED525F01003238376
:1038300005F007056669218B002EBFF670AF0023E7
:103840002768C4E9003321F0070141F00101218319
:10385000218B01F0070AAA454FF000097FF440AF21
:10386000002F9CD041F00801218388F31188BFF319
:103870006F8F002FC8D03D683946334652462046E8
:1038800010F0D8FE2F46F4E7AB067FF51BAF25F00E
:103890002003238305F0070500E700BF6146010010
:1038A000014B036000207047605D010008B50448CB
:1038B00010F027FEBDE80840024810F022BE00BF0D
:1038C00089710100BE71010030BFFFF7FDBF00BF6D
:1038D0002DE9F0410B4EDFF8308006EB0807CC1BDA
:1038E000054632460949204612F010F8A019424612
:1038F0000021083C12F018F86C6707F10800BDE8D9
:10390000F08100BF0000000004000000C85C01005E
:10391000074A936893F90E10002907DB5269934216
:103920001FBF044A536843F080535360704700BF81
:10393000A077002000ED00E070B5264B15469A6A8E
:1039400012F0100F9A6A14BF1124102412F0080FFD
:103950009A6A18BF1224920706460AD5586B9A6ACB
:10396000140634D519B19A6A22F080029A6213249F
:1039700001E06FF01500174B9A6A12F0010F9A6A76
:1039800018BF142412F0200F9A6A18BF1524D2060B
:1039900002D49B6A9B070AD50E4B5B68190506D5B6
:1039A000314600F08DFA10B180F309880224094BEA
:1039B0009A6A920642BF5A6A22F400525A629A6A7E
:1039C00042F0FF029A6200232B70204670BD6FF018
:1039D0001500CCE700ED00E0134B9A6A12F0007F6F
:1039E0009A6A14BF1E201D2012F0807F9A6A18BFA9
:1039F0001F2012F4002F9A6A18BF212012F4802F82
:103A00009A6A18BF222012F4003F9A6A18BF232036
:103A100012F4803F9A6A6FEA02426FEA12429A6297
:103A200018BF2420704700BF00ED00E010B5194B0F
:103A30000246986A9C6A10F4805F14BF1720162013
:103A400014F4006F9C6A18BF1820A40509D5986B60
:103A5000986A000404D51AB19A6A22F400429A6264
:103A600019200C4B9A6A12F4806F9A6A18BF1A20B8
:103A7000D2050CD49B6A13F4005F18BF1C20054AC2
:103A8000936A43F47F43936200230B7010BD1B20A5
:103A9000F5E700BF00ED00E0F0B5484B5B688BB088
:103AA0000446C3F30803002585F31188BFF36F8F25
:103AB00002F07F40B0F17F4F11D102F00C000828D6
:103AC0000DD010074CBF0C4601250022033B8DF89A
:103AD0000720032B05D8DFE803F0246367602C463A
:103AE000F3E700239DF80720CAB902AE04F12007CE
:103AF00020686168324603C20834BC421646F7D1DA
:103B0000099A002D54D0C2F3080121B96FEA52225C
:103B10006FEA4222099202A9184610F085FE0BB006
:103B2000F0BD264BDA6A9107DBD4DA6A002AD8DBCB
:103B3000DA6A5200D5D55A69A16942F480725A6195
:103B4000BFF34F8FBFF36F8F5A6931F8021C22F415
:103B500080725A61BFF34F8FBFF36F8F4DF60272C1
:103B600091420AD09A6AD2B24AB10DF107020121FC
:103B70002046FFF7E1FE0346B4E72368B2E79A6AFE
:103B800012F47F4F05D00DF107010120FFF74EFF22
:103B9000F1E79B6AB3F5803FA3D3FFF71DFFEAE788
:103BA0000DF107020021E3E70DF107010020EDE729
:103BB00022F4FF7222F00102ACE700BF00ED00E04A
:103BC000044B5A6942F010025A615A6922F0080205
:103BD0005A61704700ED00E0EFF30880EFF30981D0
:103BE00001B57246FFF758FF01BD00BF002080F30A
:103BF0001488BFF36F8F0DF075FE00200D4908602B
:103C0000BFF34F8F0C4880F3088800F02BF820207A
:103C100080F3118809484FF40461401880F3098843
:103C2000EFF314800221084380F31488BFF36F8FF1
:103C300000F00EF994ED00E0009E0020409000207E
:103C40000749D1F890200023C2F307221846934277
:103C500000DB7047C1F89830C1F8A0000133F6E7E7
:103C600000ED00E008B572B6002383F31388FFF778
:103C7000E7FF144B4FF0FF32C3F88020C3F88420D5
:103C8000C3F88820C3F88C20C3F89020C3F8942090
:103C9000C3F89820C3F89C20C3F88021C3F884217E
:103CA000C3F88821C3F88C21C3F89021C3F894216C
:103CB000C3F89821C3F89C2162B6BFF34F8FBFF3BE
:103CC0006F8F08BD00E100E0084B9B6883420BD179
:103CD000EFF3058343B1064B5A6842F080525A60B5
:103CE0005A6A22F400425A6211F007BDA077002000
:103CF00000ED00E0094A93686FF00A01D9670849AE
:103D000098674B6843F080534B60002383F311881E
:103D1000BFF36F8F9368D86F704700BFA077002004
:103D200000ED00E010B50446EFF31183202383F388
:103D30001288BFF36F8F0A4B58699860094B4FF098
:103D400000625A60084B426F1A600022836F8267DC
:103D500083F31188BFF36F8F00F01AF9204610BD6E
:103D6000A077002000ED00E0600D00200B498A687C
:103D70004FF030001044EFF3098C80E8F01F7446D8
:103D80007046FFF7CFFFA64604498A6802F130006B
:103D900090E8F01F8CF3098870470000A07700209E
:103DA0001EF0040F0CBFEFF30880EFF30980816968
:103DB00011F8021C0229FFD001B510F03BFD01BD36
:103DC00040B2002807DB044A4109012300F01F002C
:103DD000834042F82130704700E100E040B2002803
:103DE0000CDB4309064900F01F002033012282400A
:103DF00041F82320BFF34F8FBFF36F8F704700BF91
:103E000000E100E0054B420900F01F0053F82220BA
:103E1000012303FA00F01040704700BF00E100E00A
:103E200040B20028A8BF00F1604001F10101B8BF15
:103E3000064B4FEA4111ACBF00F5614000F00F00A6
:103E4000C9B2B4BF195480F80013704714ED00E0F4
:103E50000B4A08B50B4B22F07F029A60BFF34F8FDD
:103E6000BFF36F8FD3F8882022F47002C3F8882044
:103E70000EF08AFB0FF08EFA00F060F80EF0C8FB2F
:103E80000000000000ED00E042F8203C009B42F8FA
:103E90001C3C0A49019B42F8183C029B42F8143C26
:103EA00021F001014FF0807342F8043C42F8081CF5
:103EB0000023203A02658367704700BF5136000037
:103EC000094A0346906870B113F1160F406E05D091
:103ED000A0F140029A4205D8834203D2814228BF12
:103EE0000020704700207047A077002008B51546D5
:103EF0000B4A0C4B9060426F1A600E4600F048F877
:103F00002C4686F309884FF00000074B984720465F
:103F10004FF000014FF000024FF00003034C204728
:103F2000A0770020600D00205348010051360000AA
:103F3000014B10221A61704700ED00E00448002395
:103F40002021C2180133302B82F80013F9D17047B9
:103F500000E100E008B5EFF30583064A103B02EBF1
:103F6000C30152F8330049688847BDE80840FFF7AD
:103F7000CFBC00BF485B0100024B034A034801214C
:103F800000F076B80000022000000020605D010013
:103F9000426E054B403A1A60044A4021C3E90112BF
:103FA0001846012100F06EB8640D002000000B15CA
:103FB000084AC2F898000B6823F01F03034343F03C
:103FC0001003C2F89C308B6843F00103C2F8A030A4
:103FD000704700BF00ED00E02DE9F043DFF860809E
:103FE00085B00E461F4604464FF00009B14523DA5E
:103FF0006068D8B13FB1411E08421BD11F2819D9B2
:104000002368194216D12368019310F045FCA36878
:1040100003430393D8F89050C5F30725D0B2013D70
:10402000A84207D801A9FFF7C3FF421C09F1010903
:104030000C34DBE76FF01502104605B0BDE8F083E5
:1040400000ED00E0044B0522C3F89420BFF34F8F2E
:10405000BFF36F8F704700BF00ED00E0BFF35F8FCD
:10406000024B0022C3F89420704700BF00ED00E02F
:1040700010B5034C01232278FFF7AEFF207010BD6E
:10408000CB84002008B50B4A00231278FFF7A4FF69
:1040900010F1160F07D0084A0021D2F89030C3F370
:1040A0000723984200DB08BDC2F89800C2F8A010B0
:1040B0000130F2E7CB84002000ED00E02DE9F04371
:1040C000534B544CD3F890302568C3F307239D42DB
:1040D00085B000F29A80FFF7C1FF00200C268542D0
:1040E0001AD14D4C4D4F25706846FFF7D9FBDFF8CC
:1040F0002081DFF82C9106460025AE4213D12378AB
:1041000043490020D1F89020C2F30722934276DB86
:10411000FFF798FF002042E0616806FB0011FFF7FF
:1041200047FF0130DBE7009800EB05114FEA051C63
:10413000CB683B40B3F5000F48D00AD8B3F5001F59
:1041400030D0B3F5800F36D0B3F5801F10D00135D5
:10415000D3E7B3F1807F42D0B3F1007FF7D150F8BD
:104160000C3088684A6810F097FB40F4802009E022
:1041700050F80C3088684A6810F08EFB40F0885088
:1041800040F43020CDE901230390D8F89030207816
:10419000C3F30723013B98422AD96FF0150005B0FD
:1041A000BDE8F08350F80C3088684A6810F074FB62
:1041B00040EA0900E6E750F80C3088684A6810F0D9
:1041C0006BFB40F0E06040F40030DBE750F80C306F
:1041D00088684A6810F060FB40F08270D2E750F8BF
:1041E0000C3088684A6810F057FB40F08870C9E7C7
:1041F00001A9FFF7DDFE237801332370A7E7C1F89B
:104200009830C1F8A00001337CE74FF0FF30C6E7DB
:1042100000ED00E06C5D0100CB8400200000F0FFA9
:104220000000081108B5024B1B689847002008BD24
:10423000700D0020034B044A1860937843F002038A
:1042400093707047700D0020E405002008B5064902
:10425000064821F00701C1F1005202F5003210F0CA
:10426000F6F8002008BD00BF47B20020740D002002
:1042700070B54169867A0B4D044659B1437ADB0724
:1042800006D42C2303FB06535B6A1B689B68984784
:10429000002363612C20214606FB0050BDE87040DE
:1042A00011F0F7B84C080020024B2C2202FB003022
:1042B000704700BF4C080020827A064B2C2101FB7E
:1042C00002339A6A1B7F1B33801A23F00303B0FB6F
:1042D000F3F070474C08002038B5074B827A2C2445
:1042E00004FB02335B6AD3E901240C601568FFF715
:1042F000E3FF04FB005038BD4C0800202DE9F04FCF
:1043000085B005466846039191461C4690469A46FC
:1043100011F050FADDE90067EFF3118B202383F3EE
:104320001288BFF36F8F698B002942D02B8B8B4291
:1043300026D90022002328460EF09EFA0446F8B142
:104340008BF31188BFF36F8F039B002B4FD0324646
:104350003B46684611F052FAA27A2D4B2C2101FB04
:10436000023320465B6A1B6803A91D68DDE9002350
:10437000A847606100283BD12046FFF779FF31E074
:10438000698B4B1E6B838BF31188BFF36F8F2B7F71
:104390002A8BAC6A1B3323F00303521A02FB03443B
:1043A0001B4B1C4AEB1A9B105343A3722B7FE372E7
:1043B000CAE78BF31188BFF36F8F54EA090409D061
:1043C00011F036FB144A154B12589A420ABF884620
:1043D000C846C2464246534628460EF04DFA0446A9
:1043E0000028B1D10024204605B0BDE8F08F6361FC
:1043F000012300252381039B6382E27A65602946BD
:1044000004F1180011F090FA63692582E360EAE78D
:104410004C080020A38B2EBA08000000180C0020C6
:1044200070B50C4C2C2500B970BD037A4668013B71
:10443000DBB20372002BF7D1C3604360837A05FBC4
:1044400003431B6A13B198473046ECE7FFF710FFB0
:10445000FAE700BF4C080020044A0123C2F84035A7
:104460004FF080420020C2F87835704700E00140EC
:1044700020B1034B800143F001031847704700BF90
:10448000F05C010008B5044810F0AAFE00280CBF3B
:104490006FF01200002008BDF85A010038B505463B
:1044A000054810F014FA044620B101210C3010F038
:1044B00069FA2576204638BDA40800200E38012868
:1044C00010B50CD80A4810F002FA044628B10121B0
:1044D0000C3010F057FA01232376204610BD09B1A5
:1044E0000448F0E7BDE810400120FFF7D7BF00BF48
:1044F000D00800204C08002010B5012104460C30E3
:1045000010F05BFA2146034A0078BDE81040002312
:1045100010F0BDBA2C5E010010B5012104460C302C
:1045200010F04BFA2146034A0078BDE810400723FB
:1045300010F0ADBAF45D010038B51C4810F0E0F998
:104540000446002831D0037E012B02D1038A012BBF
:104550000BD8FFF765FF164BD3F8C4302BB3BDE87B
:1045600038401449144810F0D7BF02210C3010F025
:1045700024FA03780E3B012B05460ED80F4A10494A
:10458000104840F6A8330FF0C9FF002383F31188C9
:10459000BFF36F8F0323184602DF28780A4A0323EC
:1045A000214610F074FA2046D3E738BD8405002078
:1045B000C004002004060020000900200E72010043
:1045C0004272010070720100DC5D01002DE9F047CC
:1045D000884616468246002878D0BFF35B8FDFF806
:1045E000F090002359E8004F49E80032002AF9D141
:1045F000BFF35B8F002C69D02046FFF75DFE354D81
:104600000C2303FB005027464388534511D0BFF3CA
:104610005B8F59E8003F49E80072002AF9D1BFF3E7
:104620005B8F002B52D01F463846BDE8F047FFF79E
:10463000F7BEA6420ED0204610F044F904F10C0952
:1046400001212176484610F09DF9328AF1684846EA
:1046500010F0A2F92046FFF72FFE0C2606FB0050B3
:104660004368ABB1B8F1000F12D12046FFF724FE2A
:1046700006FB005001214268D2E90003127A03F0E0
:104680001F06B1405B09DAB100EB830010F0ECF9D2
:104690002046FFF711FE0C2606FB00508368002B16
:1046A000C2D02046FFF708FE704305F80080204680
:1046B000FFF702FE06FB0055A8680EF00FF9B3E7FE
:1046C000C94300EB830010F0F9F9E1E7BDE8F0879A
:1046D00080050020800D002010B5C1E900239DF861
:1046E00008300B720C46FFF7E7FD034B0C2202FB70
:1046F00000335C6010BD00BF800D00202DE9F04745
:104700004FF0FF3206464FF0FF331848884610F04E
:10471000DEF8044638B300F10C0701214FF0000920
:10472000384610F02FF984F818902046FFF7C4FDA2
:104730000F4D4FF00C0A0AFB005046802046FFF751
:10474000BBFD0AFB0050C0F808902046FFF7B4FDFF
:104750000AFB005503213846C5F8049010F016F9FD
:10476000068080F802802046BDE8F08778080020A7
:10477000800D00200138C0B202289ABF014B185C9E
:10478000002070472C73010002289ABF014B185675
:104790000020704729730100034B0146D3F8E40061
:1047A00082689268104700BFC00400202DE9F041E4
:1047B000044600F10C06304610F00FF9B4F81080F2
:1047C000B8F1010F054604D82046BDE8F041FFF7D7
:1047D00027BE3046022110F0F0F80378052B06467C
:1047E00022D00E3B012B21D9114A1249124840F622
:1047F000E4730FF093FE002383F31188BFF36F8FF0
:104800000323184602DF022702230C4A3078214690
:1048100010F03DF9BB07D7D56369A4F8108013FAEF
:1048200085F5E560BDE8F0810327EDE70127EBE7BB
:104830000E7201008D72010070720100CC5D0100EA
:1048400010B50C460EF02CFC237E012B1AD1E36828
:104850001B78052B0AD00E3B012B0AD82046FFF708
:10486000A5FF00240EF030FC204610BD2046FFF7C7
:104870009DFF2146064810F02EF80649064810F024
:104880004BFEEEE72046FFF7CBFD6FF01504E9E79E
:1048900084050020040600200009002008B5044813
:1048A000042110F0E1F8BDE8084000F02FBF00BF80
:1048B00048050020044BBFF35B8F1868BFF35B8F84
:1048C000C0F38000704700BF4805002001480EF08B
:1048D00065B900BFF405002038B502460B46244DEB
:1048E000D5F8CC1009B9002038BD05F1A8000EF0AC
:1048F00019F80028F7D10022002305F1CC000DF0B3
:10490000BBFF044668B91B4A1B491C4840F6B73335
:104910000FF004FE84F31188BFF36F8F0323184652
:1049200002DFD5F8C00020B1FFF77AFD0023C5F8FB
:10493000C03020460FF0FAFFC5F8C0002046FFF750
:104940002BFF98B10E480DF0C9FF2046FFF7B4FCCD
:104950000C4B0C2202FB00301F2140882246FFF73F
:1049600035FE2046FFF75CFDFFF7B0FF0120BBE7F7
:10497000C00400200E720100A672010070720100D6
:1049800068050020800D00202DE9F04F064687B015
:1049900015460C4631B9FFF7B1FE044648B96FF031
:1049A00068007BE0887AFFF77FFC484B834240F049
:1049B000868001220021684610F079FD2046FFF72D
:1049C0007BFCDFF80C910C2303FB0090C0F808D0AF
:1049D00020460FF0ABFF01463E4810F04FFDFFF7B9
:1049E00075FF11F025F83C4B1A583C4B9A4222D1E6
:1049F000DFF8ECA0DFF8ECB0364810F054FD0021F1
:104A000080464FF4A020FFF767FF074688B94FF4B0
:104A1000D4735246594634480FF080FD334831462E
:104A20000FF07CFD87F31188BFF36F8F03231846C7
:104A300002DF4445E0D14FF4A022002368460DF088
:104A400071FF074698B14FF4D773254A2849264885
:104A50000FF064FD27483A4631460FF05FFD002312
:104A600083F31188BFF36F8F0323184602DF2046BC
:104A7000FFF722FC0C23584319F80060BEB1204612
:104A8000093EFFF7CDFC092E0ED8DFE806F01B0D1E
:104A90000D0A050D0D0D0D186FF00B0007B0BDE8E8
:104AA000F08F6FF00C00F9E76FF00400F6E715B136
:104AB0002C600020F2E72046FFF7B2FCF9E76FF028
:104AC0001500EBE76FF06E00E8E700BF7808002004
:104AD000800D00208C05002008000000180C00202C
:104AE0000E720100AA72010070720100B272010020
:104AF000D2720100DB720100F7B5002101AA40F675
:104B00000340FFF741FF0446002869D1019CE36898
:104B10001B789BB900F0FAFDBFF35B8F964B1A68C8
:104B2000BFF35B8F02F00902BFF35B8F53E8001FF6
:104B300043E800200028F9D1BFF35B8F2046FFF740
:104B40006FFC01AA002141F20300FFF71DFF04469C
:104B5000002845D1019A894DD168D1F80100D1F8DA
:104B6000051005F12C0303C31046FFF759FC21463D
:104B700001AA41F20100FFF707FF044680BB01983C
:104B8000C3685A7885F824205A88EA841A7985F807
:104B90002520B3F807202A85B3F805306B85FFF789
:104BA0003FFC214601AA41F20200FFF7EDFE044658
:104BB000B0B9019FFA6805F13406531C41321868F8
:104BC0005968344603C4083393422646F7D1384621
:104BD000FFF726FC95F830305C0604D46FF0120421
:104BE000204603B0F0BD01AA002142F20300FFF706
:104BF000CBFE04460028F3D1019A614BD168D1F86D
:104C00000100D1F8051003C31046FFF709FC95F821
:104C10003030980618D4022140F66D40FFF76EFD43
:104C20000646002800F0A58002210C300FF0AEFEF1
:104C30000123447003702246314640F66D40FFF771
:104C4000A3FE04460028CBD195F85030190712D5A1
:104C500001AA002142F21C00FFF796FE044600283C
:104C6000BED10198C368D3F80120D3F80530C5E957
:104C70002623FFF7D5FB95F8923013F0180F01D1DA
:104C80001A0604D501F0ECF904460028A8D1082141
:104C900042F20100FFF732FD0446002869D00821E6
:104CA0000C300FF073FEF02300224370022797238D
:104CB00007708370C270027142718271C2712146A5
:104CC00042F20100FFF760FE0446002888D1082167
:104CD00040F60140FFF712FD0646002849D00821A2
:104CE0000C300FF053FE8023437020230470847037
:104CF000047144718471C770C3712246314640F615
:104D00000140FFF741FE044600287FF469AF0146E9
:104D100001AA4FF60140FFF737FE044620BB019879
:104D2000FFF77EFB214601AA4FF60240FFF72CFE5B
:104D30000446C8B90198C368B3F80130A5F87530C6
:104D4000FFF76EFB95F875305B070DD501AA21467C
:104D50004FF60340FFF718FE30B90198C3685B783F
:104D600085F87430FFF75CFB03B0BDE8F04000F05D
:104D70006DBA6FF0680433E748050020C0040020D6
:104D80005005002073B5264D0646D5F8E40010F016
:104D900027FA00283CD06FF0020105F188000FF0DF
:104DA0008DFE01210FF060FE10EA010433D11D4B8E
:104DB0001E600A4605F1A80010F079FB05F1CC0051
:104DC00010F031FB184810F0B7FB18491648009452
:104DD0006FF007034FF496620DF0E6FE1449124897
:104DE00010F0B6FBD5F8E400124983681B689847B9
:104DF000044628B93EB9FFF77FFE78B9FFF74EFDAC
:104E0000204602B070BD05F178000DF0C7FEF7E74F
:104E10006FF01204F4E76FF07704F1E70446EFE770
:104E2000C0040020980D002000090020008600200A
:104E3000207301004148000010B5FFF75DFE0446F5
:104E400008B9FFF72BFD044B1B681BB12046BDE8DA
:104E50001040184710BD00BF980D0020F7B5144B47
:104E600093F94F30002B05460C461DDA14B9204645
:104E700003B0F0BD082C01AA4FF0000142F2180067
:104E8000264628BF0826FFF77FFD0028F0D1019FA6
:104E9000F96832460131284610F038FD3846FFF7F0
:104EA000BFFA3544A41BE1E76FF08500E0E700BFDF
:104EB000C004002038B5032104460C300FF07DFDFE
:104EC000E3680578B0F80100197840F63543984258
:104ED0000AD02246FFF77AFB35B104480DF0FEFCFC
:104EE000BDE83840FFF7F2BC38BD00BF68050020C0
:104EF00038B5042104460C300FF05FFD4578017889
:104F000040882246FFF762FB35B104480DF0E6FC0D
:104F1000BDE83840FFF7DABC38BD00BF68050020A7
:104F200070B54FF0FF320D464FF0FF3300210646BB
:104F3000FFF7C4FA044660B90A4A0B490B48132329
:104F40000FF0ECFA84F31188BFF36F8F0323184638
:104F500002DF022104F10C000FF018FD067045700D
:104F6000204670BD2F730100A6720100707201000F
:104F7000F8B50A4DEF7906460024E3B29F4202D805
:104F80006FF0010007E0294630460FF0D2FD0735EB
:104F9000631C08B12046F8BD1C46EEE7C0040020A3
:104FA00070B5134E06223146044610F0C5FCD0B150
:104FB000062142F20500FFF7A1FB0546A8B1062233
:104FC00021460C300FF0E8FC0022294642F2050091
:104FD000FFF7DAFC40B93346226843F81D29A2885E
:104FE000B28001221A77002070BD6FF06800FBE7E5
:104FF000DD04002037B504460D4689B1184928461E
:105000000FF097FD60B9174A2968C4EBC404A318D0
:105010001151AA889A80AA799A71002003B030BDF4
:1050200068460FF0DEFC0028F8D16846FFF7A0FFC5
:105030000028F5DA0B4A00989DF80610C4EBC4046A
:10504000A3181051BDF8040098809971002DE4D088
:1050500012592A609A88AA809B79AB71DDE700BF5C
:10506000FB710100C004002070B5044611B16FF05F
:10507000150070BD80B11C490FF05BFD60B9204682
:10508000FFF776FF002829DA2378012BEFD1A379E7
:1050900003F0C003C02BEAD1144DEB79012B20D0D3
:1050A000BFF35B8FD5F88830BFF35B8FDB0707D486
:1050B000002CDCD00C4920460FF03BFD0028D6D157
:1050C000EE792146731C3046EB71FFF793FF08B968
:1050D0003046CEE7EB79013BEB71CAE76FF0770022
:1050E000C7E76FF00B00C4E7FB710100C0040020AC
:1050F0002DE9F3410446D8B101AA002141F209008B
:10510000FFF742FC054698B9019E1249D6F80C807B
:1051100008F101070622384610F00EFC28B10E49AE
:105120000622384610F008FC30B93046FFF778F90F
:10513000002002B0BDE8F081D8F80130C4F8013099
:10514000BB88A4F8053030462570FFF769F90120C7
:10515000EFE700BF087201000272010007B5684660
:10516000FFF7C6FF044BD87118B169460020FFF75E
:1051700041FF03B05DF804FBC0040020F0B5294DE9
:10518000EE7989B0002E46D195F87630DB0722D52E
:105190006A4631464FF60940FFF7F6FBD8B9DDF80D
:1051A00000C0DCF80C406378012B1E4628BF0126A6
:1051B00073B1A31C02AA123418685968174603C7B2
:1051C0000833A3423A46F7D1186838609B88BB8001
:1051D0006046FFF725F9EE71002416260127EB79CA
:1051E000E0B2834202D8B3B1002012E008AB06FB64
:1051F0000033694653F8182C33F8143CCDF80120DD
:10520000ADF805308DF80070FFF7F4FE013400288A
:10521000E5D009B0F0BD0021084609B0BDE8F04076
:10522000FFF722BFC004002010B50C4649B1064B61
:105230001B780B7000200FF089FC08B90123237044
:1052400010BD6FF01500FBE7C004002010B50A4C3C
:10525000E3790BB1002010BDFFF780FF0028FAD1E1
:10526000E379002BF6D1FFF789FF0028F3D1601C0A
:10527000BDE81040FFF794BEC0040020034B00229D
:1052800099689A801960024B1A72704714060020C0
:10529000CC840020F0B5054687B00F4642F24200AC
:1052A00006211646FFF72AFA0446C0B106210C3043
:1052B0000FF06CFB46800026477005700671467142
:1052C000084A009503A920460623FFF705FA32464F
:1052D000214642F24200FFF757FB07B0F0BD6FF0E6
:1052E0006800FAE74805002008B50246014607486D
:1052F0000FF063FC30B922B905480FF058FC40F3B9
:10530000002008BD6FF07700FBE700BFBC0D002058
:105310004805002038B50546407A0C46FFF72AFAC2
:105320002073A87AFFF726FA607395F90C30A37101
:1053300095F90D306371EB7A2371EB8963812B88CA
:10534000103BDBB20B2B96BF054A0523D35CE37100
:105350002B8883F0100303F01F03238138BD00BFA7
:105360006573010037B50546C379009014308DF898
:1053700004308DF805100FF04CFC074B1C6844B14D
:1053800054F8143C183C13B1694628469847A46960
:10539000F5E703B030BD00BF9C0D002008B5054BFC
:1053A00018460FF004FC143B10F0040F14BF18460D
:1053B000002008BDB80D00202DE9F04788B08E48C8
:1053C000002200230DF0A4F9002840F0A2808B48B1
:1053D0008A4D0FF0ECFB10F0010355D02B1D93E824
:1053E000070008AB03E9070085480FF0E0FBC0F3B6
:1053F000801382480FF0DBFB024600287AD073B19D
:1054000080490C2205A810F097FA00287CD00022D1
:1054100011461046FFF73EFF0446002875D19DF85F
:105420001530190703F0040576D5002D40F09A8059
:1054300028462E46BDF81A3063B1BFF35B8F704B20
:1054400053E8001F41F0800143E80012002AF7D121
:10545000BFF35B8F0DF10301FFF7E6FE0446002862
:1054600053D1002E14BF08210321002D14BF0523A2
:105470000023194442F24100FFF740F90746002893
:105480007BD16FF0680440E05D485F4A0FF08FFB0E
:1054900010F4807F0ED09089D1891269ADF8160082
:1054A0004FF48074ADF81440ADF81810ADF81A3010
:1054B000079299E7554C2068616805AB03C3A06863
:1054C000186092F891304D481E0744BF05238DF8AF
:1054D00015300FF06CFB840706D53023ADF818307B
:1054E0006023ADF816307FE744480FF060FB4007BB
:1054F000F3D479E743B10146FFF7CCFE044620B967
:10550000404B2861C3E9010000243B480DF078F9C5
:10551000204608B0BDE8F087BDF816309DF81400AD
:10552000ADF80530BDF818308DF80400ADF807303F
:10553000D5B101AEBDF81C200AB9BDF81620BDF8E2
:105540001E300BB9BDF818309DF814108DF80C10F2
:10555000ADF80D20ADF80F305EB13078012808D1DC
:1055600003AD67E70026E5E7421E5042504101AE19
:1055700060E74B1E58425841F2E700F10C09032145
:1055800048460FF003FA9DF815809DF8033003702C
:10559000C8F3400382468470437036B101238370A0
:1055A0000522314648460FF0F7F955B19AF8023016
:1055B00043F004038AF802300522294648460FF0DA
:1055C000EBF90022394642F24100FFF7DDF90446CB
:1055D00000289AD1BDF81A2008F001010120FFF738
:1055E00059FE0446002890D108AA12E90700054B8D
:1055F00083E8070088E700BFD80D0020BC0D00201D
:1056000048050020CC0D0020C0040020E05C010013
:105610002DE9F347054635480FF0C9FA1446C2078D
:105620000E46994602D50B895B075CD428460FF0DD
:10563000F1F9002846D0294668460FF0E0F92C4FD2
:105640003B68A3B120460FF0C8F9B4F80480A4F871
:105650000490054623463F68F27996F9051068469E
:10566000B847A368A4F8048013FA85F52560214B98
:10567000C6F800D01B68002B33D01D6805B1083D6B
:1056800053F8082CAAB12F46A3F1080520460FF0C5
:10569000A4F9B4F804A0A4F804902B68804621462D
:1056A00030469847A368A4F804A013FA88F323604F
:1056B0003D46B5B1AF682B688FB1083F002BE5D1EF
:1056C0003D46F7E72B78FF2B04D10B4968460FF0D6
:1056D00080FAB4E729460FF034FA0146F6E7002BCA
:1056E000D4D10023336002B0BDE8F087BC0D0020A8
:1056F000080E0020000E0020FB710100024B00226A
:105700001A60FFF7BBBD00BF080E002010B5094CA2
:1057100044220021204610F007F904F11C000FF08C
:105720000AFE04F130000FF006FEBDE81040FFF75E
:10573000E5BF00BFBC0D0020032838B5054603D1E6
:10574000BDE83840FFF738BEFFF7CEFD044658B934
:10575000064829460FF069FAFFF72EFE044618B1F5
:10576000024829460FF04BFA204638BDBC0D0020F8
:10577000032808B5014602D003480FF040FABDE8FF
:105780000840FFF719BE00BFBC0D002010B5002077
:10579000FFF7EEFF20B10DF0BFFC0020FFF7E8FFA0
:1057A0006FF0800111480FF01BFA10486FF4007180
:1057B0000FF016FA0E4B1B68B3B11C6804B1083C1D
:1057C00053F8043C03B1984774B1A268234642B130
:1057D0005B68A2F10804002BF5D1F6E7BDE81040A4
:1057E00018476368002BF9D110BD00BF48050020A1
:1057F000000E00202DE9F04F00F10C0885B007469F
:1058000040460FF0E2F84A4D064646B349480FF0CD
:10581000CEF9C30707D4464B1B7A03B305B0BDE8E6
:10582000F04FFFF72BBD3B8A172B18D918214046A4
:105830000FF0C3F83A8A90F817A0B0F800905245DC
:10584000C9F3411B044609F010090BD238460FF08A
:1058500039F8B9F1000F02D1354B02221A7205B0A6
:10586000BDE8F08FB9F1000F0FD06946FFF752FD88
:10587000E37D42466946A01CFFF7CAFEE17D404633
:105880000FF093F8013EF6B2BFE795F80890B9F132
:10589000000F05D1BBF1000F18D169462046E5E79E
:1058A000C17AEA7991420BD1811C0722284610F077
:1058B00043F828B9BBF1020F13D1FFF7DFFCDDE796
:1058C000BBF1000FE9D0B9F1010FD7D0BBF1020F46
:1058D000F3D0E27AA11C28460FF07BF9EA7101228D
:1058E0002A72DFF85490B9F80420B9F8061052442F
:1058F0008A4205DD02222A72BBF1010FBED0DCE72D
:105900002A7A022AF8D0F968524648460FF044F83D
:10591000BBF1010FB6D069462046FFF7FBFCB9F892
:1059200004304A466946A01CFFF772FEC5E700BF77
:10593000CC840020BC0D00201406002008B5074BC5
:105940001A89824205D103F114000FF030F9820761
:1059500001D4002008BD1846FCE700BFA40D0020BC
:105960002DE9F843104B1C68064688461746C4B11B
:1059700054F8103C183C93B140460FF02EF8A36841
:10598000B8F8049005464246394630469847D8F85C
:105990000830A8F8049013FA85F5C8F80050A469F7
:1059A000E5E7BDE8F88300BF9C0D0020F0B587B0A7
:1059B000C568FFF7F3FC044620B92B78442B13D1BC
:1059C00007B0F0BD00F11406022130460FF017F9C0
:1059D0000120FFF7CDFE2B78442B05D1304607B0D0
:1059E000BDE8F0400FF015B92E1D30460FF012F84B
:1059F000314640B168460FF002F85CB9B5F80100D5
:105A00000FF0BCF8DCE70FF09CF8014668460FF099
:105A1000E0F8F2E704F11406032130460FF0CDF868
:105A2000F8B9E279EB789A4214D0B5F801000FF09A
:105A3000A5F81F27032130460FF0BFF828B16946AB
:105A400020460FF0C6F8EB78E37139462046FFF7A1
:105A500089FCB5E70722694620460FF06DFF002854
:105A6000E3D12F78002FE5D10121304627740FF0C4
:105A7000DCF8B5F801302381AB896381AB7BA3816E
:105A8000E87AFEF777FE3946A073102202A80FF0DD
:105A90004BFF6389ADF80E300321A37B8DF81030E6
:105AA00030460FF08AF848B1EB78E37120460EF0EB
:105AB000B1FF6946E0B120460EF0A1FFE3798DF811
:105AC0000C300421304602940FF077F80A4B80F036
:105AD00001001D688DF81100002D3FF471AF55F8DD
