:020000040000FA
:10000000009E0020DD2600009D2F0100C926000073
:10001000C9260000C9260000C92600000000000013
:100020000000000000000000000000009128000017
:10003000C9260000000000005D280000C92600005D
:10004000452A000099B50000452A0000452A000015
:10005000452A0000452A0000452A0000452A0000E4
:10006000452A0000452A0000452A0000452A0000D4
:10007000452A0000452A0000452A0000452A0000C4
:10008000452A0000452A0000452A0000452A0000B4
:10009000452A0000452A0000452A0000452A0000A4
:1000A000452A0000452A0000452A0000452A000094
:1000B000452A0000452A0000452A0000452A000084
:1000C000452A0000452A0000452A0000452A000074
:1000D000452A0000452A0000452A0000452A000064
:1000E000452A0000452A0000452A0000452A000054
:1000F000452A0000452A0000452A0000452A000044
:1001000053B94AB9002908BF00281CBF4FF0FF317E
:100110004FF0FF3000F00CB8ADF1080C6DE904CEE3
:1001200000F010F8DDF804E0DDE9022304B07047C8
:10013000704700BF034611F8012B03F8012B002A7A
:10014000F9D170472DE9F04786468C460846089E4F
:10015000154674461946002B40F0C2808542B2FA1B
:1001600082F245D94AB1C2F1200300FA02FC2EFA0C
:1001700003F3954043EA0C0C94404FEA154EA8B2A5
:10018000BCFBFEF8230C0EFB18CC08FB00F943EA7D
:100190000C43994528D9EB1808F1FF3704D299454B
:1001A00002D9A8F102072B44A3EB0903A4B2B3FBC5
:1001B000FEFC0EFB1C330CFB00F044EA0344A0429F
:1001C00014D92C190CF1FF3304D2A04202D9ACF19E
:1001D00002032C44241A43EA07401EB1D4400023F2
:1001E00034607360BDE8F0874746DDE76346F1E7BA
:1001F00092BB431B01214FEA154EAFB2B3FBFEFC8D
:10020000200C0EFB1C330CFB07F840EA0343984517
:1002100062D9EB180CF1FF3004D2984502D9ACF149
:1002200002002B44A3EB0803A4B2B3FBFEFC0EFBBD
:100230001C330CFB07F744EA0344A7424ED92C19A0
:100240000CF1FF3304D2A74202D9ACF102032C44D3
:10025000E41B43EA0040C0E7C2F1200320FA03F1A7
:10026000954090402EFA03F303434FEA154EAFB288
:10027000B1FBFEFC0EFB1C10190C0CFB07F841EA4D
:100280000041884504FA02F422D969180CF1FF30C4
:1002900004D2884502D9ACF102002944A1EB08013F
:1002A0009BB2B1FBFEFC0EFB1C110CFB07F743EAF3
:1002B00001439F420ED9EB180CF1FF3104D29F424B
:1002C00002D9ACF102012B44DB1B41EA004192E769
:1002D0006046E3E76146F7E76046A3E76346B7E7B2
:1002E000834206D916B9002108467BE7C6E900E03B
:1002F000F9E7B3FA83F78FB9834201D3724508D87F
:10030000BEEB020460EB030301209C461EB90021F2
:1003100068E73846FAE7C6E9004CF8E7C7F1200C71
:10032000BB4022FA0CF41C432EFA0CF120FA0CF319
:10033000B84001434FEA14490EFA07F5B3FBF9F848
:100340001FFA84FE09FB18300B0C08FB0EFA43EA77
:1003500000439A4502FA07F240D9E31808F1FF304A
:1003600004D29A4502D9A8F102002344A3EB0A0360
:1003700089B2B3FBF9F809FB183308FB0EFE41EA1A
:1003800003418E452CD9611808F1FF3304D28E4504
:1003900002D9A8F10203214443EA0040A0FB0298DD
:1003A000A1EB0E014145CE46434602D306D14D4551
:1003B00004D2B9EB020E68EB04030138002EA6D07C
:1003C000B5EB0E0261EB030101FA0CFC22FA07F314
:1003D0004CEA0303F940C6E9003198E74046C5E717
:1003E0004346D9E7000000002DE9F843D0E906387C
:1003F000456903EB08042F34A5420F46164619D869
:10040000DFF86C80A3FB080117A3D3E90023FFF7F3
:1004100077FE0346601BA0FB080123F07F4412A374
:10042000D3E90023FFF76CFE20F07F403C60306092
:10043000BDE8F883DFF838900BA3D3E90023A5FBD0
:100440000901FFF75DFE20F07F440A480A2106A358
:10045000D3E90023E8FB0901FFF752FE20F07F40BB
:100460003C603060BDE8F8838D49FD1A070000004C
:1004700000CA9A3B00166BF170B5234C9DF810E052
:1004800094F846C01CF0020F36D1460816F0040559
:1004900032D149B363F3830C400194F82030A18634
:1004A0004FEACE0E0EF0180E00F0200040EA0E00CB
:1004B00023F03803184394F82C3084F820001348B4
:1004C00084F846C066F3020384F82C309121A2FB25
:1004D000000301FB02310AA3D3E90023FFF710FE5A
:1004E000C4E90E00284670BD94F82C3065F3020371
:1004F00084F82C30284670BD0C25284670BD00BFFE
:100500008D49FD1A07000000A00A0020002AE78498
:100510002DE9F04390F8463090F82020464D6FF3D7
:100520000003044600F12D01C3F3800060F386123E
:100530008DB084F8463084F8202005F04BFE94F806
:100540002020A38E3D48E46102F079024FF00009BB
:1005500084F820209121A3FB0002C4E9059984F8C6
:10056000009001FB032132A3D3E90023FFF7C8FD6C
:10057000E26BC4F8049002F10E03984288BF19465A
:10058000A4EB05052E4BC4F80C904FEA95059CBFD3
:100590004A460146A3FB05353123A2632161A360CE
:1005A000064605F0D9FD4F460DF12C08CDF8208008
:1005B00006940397A38E00F10E0920489121A3FB16
:1005C000000201FB0321236904931E4B07931E4B7A
:1005D000059302230B9316A3D3E90023FFF790FDA5
:1005E000104619464FF47A720023FFF789FDC5F3D0
:1005F00087050235EDB2CDE9016003214B462A465D
:100600000097384605F0B4FC414606F067FB40B958
:1006100094F8463043F0020384F846300DB0BDE84C
:10062000F0830C200DB0BDE8F08300BFAFF3008075
:100630008D49FD1A07000000A00A0020002AE78467
:10064000310CC3309D6200000195000000000000E5
:100650002DE9F04F0B79092B93B00C46074600F0BB
:100660004E820D2B00F0E981062B17D0084A09496C
:10067000094840F2471312F001FB002383F311886D
:10068000BFF36F8F0323184602DF13B0BDE8F08F6E
:10069000644901002046010098450100D1F808B0E6
:1006A000DBF808306BB1C44AC449C548922312F044
:1006B000E5FA002383F31188BFF36F8F03231846F5
:1006C00002DFDBF8008098F849301D0754BFD8F8E6
:1006D0005030002340460B9309F048FA0230C3B271
:1006E0000E93637E2760002565F3C713637694F845
:1006F0002130E560002B00F0E983CDE90C550122A3
:100700000F92A9462E4694F82220910600F03B82D3
:1007100094F9232094F82330002AC0F2C881DA0724
:1007200004F1240A0AD50B9A32B198F8492002F054
:100730003002202A40F0408304F12A0A980748BF7B
:100740000AF1060A590748BF0AF1010A13F0080224
:1007500016BF514611460AF1020A13F0100216BFE5
:10076000CDF840A010920AF1030A9A0618D50AF1B2
:100770001202002E00F07C820B98002800F0788294
:10078000002900F0758249781192090940460AF063
:100790002FFA119A002840F0EF8394F82330924604
:1007A00094F82210580648BF0AF1010AC1F3050166
:1007B00004F122030131AAEB0303DBB2C9B28B427D
:1007C0009EBFCB1ADAB20B4694F8211088BF0022E4
:1007D000994288BFCB1A21798CBFDBB200230D2947
:1007E00000F02082109A002A00F02682907851783A
:1007F000020202F4F8520A4300F01E82002D40F07B
:10080000CD824009022800F2688300F066831098C8
:100810000F9D90F9000094F82110002805F00300C6
:10082000084400F10900C5F340014FEAC000ACBF25
:100830001E254FF49675C84005FB02FA0AEB050128
:1008400000F5967291420F90C0F03181002E00F0B9
:10085000F183B9F1000F00F0C183D9F80010B1F8AD
:10086000C02013449BB21E2BA1F8C030A38304D92F
:10087000A37E13F0010300F033840C9910980B79D8
:10088000027862F305030B7182780123084652094E
:100890004979934063F302014171A37EDB0700F1C4
:1008A000F083BBF1000F00F0A782B8F1000F00F059
:1008B000378498F8463013F0010340F00782CBF8F4
:1008C0000830109BDDF830801B7898F80500DFF8C1
:1008D000F49013F0400F14BF32274FF4FA773A4BDD
:1008E00007FB0AF7A3FB0737BF0C07F12F0305EB44
:1008F0004303C8F80830012100F007000BF08AFA22
:100900000025636975603122B260F56098F80520B2
:10091000A3F12F080F9BA8EB030802F00303093390
:10092000C2F34002DB00D340D04403F5EA73034432
:10093000A8EB000825480721E3FB09011CA3D3E924
:100940000023FFF7DDFBA8EB070820F07F4018A38A
:10095000D3E900233061A8FB0901FFF7D1FB2A4648
:1009600020F07F470221012004F0E4F90E9BFF2BC9
:1009700030D0CDE900551A4623693F3B3B44012165
:10098000284605F063FB10F0FD0F23D00A4A1049FA
:100990000B4840F20E3312F071F985F31188BFF362
:1009A0006F8F0323184602DF14E000BFAFF300800F
:1009B0008D49FD1A0700000064490100004A01004A
:1009C0009845010000CA9A3B83DE1B438C49FD1AFF
:1009D000DC4A0100B3493C22304604F045F9B24AF2
:1009E0002369CDE90726B14ACDE90526316900978B
:1009F0000024C21CCDE90341CDE901443F3BD2B202
:100A00000121204605F0B4FA10F0FD0F0DD0A84AE0
:100A1000A849A94840F21E3312F030F984F3118836
:100A2000BFF36F8F0323184602DF01220221104615
:100A300013B0BDE8F04F04F07DB9D1F80890D9F8B3
:100A40003C3073B19A4A9D499B484FF4947312F01D
:100A500015F9002383F31188BFF36F8F0323184622
:100A600002DFD9F8005028460AF062F8E368E08017
:100A7000284699F80B600D930AF05AF8637E2760B8
:100A8000002565F3C713637694F82130E56006F01E
:100A90000706002B69D10B9398461E46D9F8002013
:100AA000B2F8C00000210344A383A2F8C0100B9B3E
:100AB000002B00F0DF8098F8493003F03003202B42
:100AC00000F0878098F849306FF3051388F84930B3
:100AD000002E6DD0336B002B00F0008198F846207B
:100AE000D10700F1F581DC603463B46A002C00F0BA
:100AF0004481304613B0BDE8F04F09F03BBA8B6833
:100B00000C931A46674B16689E4266D1D6F828B0F9
:100B1000BBF1000F00F063833C223146304604F005
:100B2000A3F80330C3B20E93DBF80050284609F057
:100B300039F88046002800F0AE810C9B5A7990F875
:100B4000493002F00702180754BFD8F8503000238C
:100B5000012A0B9300F02081022A00F0D380544A2E
:100B60005749554840F2051385E50430C2B20E924C
:100B700094F822200F969106AB460B95A8462E4678
:100B80000C957FF4C5AD013BDBB2B9F1000F85D107
:100B9000002E40F0CA80A3830B9B4BB198F84930DC
:100BA00003F03002202A03D06FF3051388F8493090
:100BB0002146384606F078F80D9A2AB101231068CC
:100BC0001371114606F070F813B0BDE8F04F06F04F
:100BD00071B8002E7FF47EAFEAE7304608F0E2FFFE
:100BE0008346002800F08A81D4F808B0DBF808308A
:100BF0000C93002B00F0F1800C9B1E68B36A5B45E0
:100C00000DD02B4A2F492C48D22312F037F800235D
:100C100083F31188BFF36F8F0323184602DFFF238E
:100C20000E9381E7002A3FF4DDADA0791193514680
:100C30000AF01CF9119BD5E5B9F1000F00F0118104
:100C4000D9F80010B1F8C02000201344A383A1F804
:100C5000C000002D3FF42BAF002E00F0F180336B6D
:100C6000002B00F0ED80DC60346313B0BDE8F08F42
:100C7000924695E5002E9BD0336B7BB3B8F1000F05
:100C80000DD10B4A10490C484FF44E7311F0F6FF8A
:100C900088F31188BFF36F8F0323184602DF336B8D
:100CA0001CE700BF0C450020519C0000099D00007E
:100CB000644901000C4B010098450100444A0100C1
:100CC00020460100184A01005C4901000B9B002BE3
:100CD00040F00B82336B002B40F0FA80B9F1000F2B
:100CE0003AD02146384605F0EBFFD9F8003093F8AA
:100CF00096301A077FF5F9AED9F83C30002B3FF457
:100D0000F4AEC2E40723657E237100212B4661F314
:100D1000C713637694F821302760E1602BB18946D0
:100D20000F92C5F380050D91EDE4B28E13449BB292
:100D3000B386A3830B9B002B00F0DB8098F849302F
:100D400003F03002202A43D06FF3051388F84930AE
:100D5000336B002B7FF4C2AE984A9949994840F210
:100D6000563311F08BFF4FF0000989F31188BFF360
:100D70006F8F0323184602DFB3E7904A92499148E8
:100D80004FF4587311F07AFF84F31188BFF36F8F1B
:100D90000323184602DFACE60623B4E7B9F1000FDF
:100DA00000F0E180D9F80010B1F8C020134400220F
:100DB000A383A1F8C0204FE794F8201000235246E7
:100DC000C1F38011404609F0DFFE94F82330B3E40C
:100DD000336B002B7FF482AEBEE7784A7B497948BB
:100DE000CF2311F04BFF0C9B83F31188BFF36F8F60
:100DF0000323184602DFFFE6D9F83C309BB1D9F84F
:100E00003C300C9A93420ED06C4A71496D4840F2C6
:100E1000BB2311F033FF002383F31188BFF36F8FDF
:100E20000323184602DFD9F8003093F896301807EC
:100E300000F1BD810C9BC9F83C30F46241E5A3830D
:100E40005E4A64495F484FF4FC7311F017FF0023BA
:100E500083F31188BFF36F8F0323184602DF336BD0
:100E600001E7002E76D0B28E13449BB2B386A383E3
:100E7000002D7FF4F4AE0B9B002B3FF4FDAE98F8F1
:100E8000493003F03002202A3FF424AE6FF30513FB
:100E900088F849301EE60C9B5B7903F00703814616
:100EA0000F930D232846237109F042FE637EE080F4
:100EB000002565F3C713637694F821302760E56059
:100EC000002B3FD00B95A8460D951CE40D9362E6D0
:100ED0009C427FF4C8AEFFF7D8BBB9F1000F55D0E4
:100EE000D9F80010B1F8C0201344A383A1F8C05072
:100EF000DDE5336B002B7FF4C1AE2DE7D4F808900D
:100F0000D9F83C300C93002B48D00C9B1E68B36A78
:100F10004B450DD0294A30492A48E12311F0AEFE55
:100F2000002383F31188BFF36F8F0323184602DF7A
:100F30000C9BD9F800505B7903F007030F93FF2354
:100F40000E93AEE70B9398460D93B9F1000F7FF423
:100F5000A5AD1DE6A383002D7FF472AF0B9B002B84
:100F60007FF41CAE24E6002E3FF469AFB28E13442A
:100F70009BB2B386A38372E65346314692464046FF
:100F8000224600F04DF994F8233009E4002E4FD0AA
:100F9000B28E13449BB2B386A3836CE7074A0B4916
:100FA0000848DE2311F06AFE0C9B83F31188BFF31F
:100FB0006F8F0323184602DFA7E700BF64490100D3
:100FC000A849010098450100384A0100104A010073
:100FD000984A0100584A01002C4A0100B28E13447D
:100FE0009BB21E2BB38603D9A37EDA0740F1A880FB
:100FF000336B002B00F08480DC600C99B38E10986A
:101000003463A38302780B7962F305030B71827852
:101010000846497952090123934063F30201417163
:10102000A37EDB073FD4BBF1000F7FF43EACEBE6C1
:10103000A38393E774480C9303F0ECFD0C9B00280A
:1010400000F092800D9A826390F82020067066F37B
:10105000C71280F82020BBF1000F14BF5A464A4641
:10106000826200F11C02C0E90566C66206638386DF
:10107000C0610C92B9F1000F3FD00D960646FFF704
:10108000ECBB0C9BC9F83C30637E43F080032146E7
:101090006376384605F014FE0C9A13796FF38613C5
:1010A0001371FFF7F2BADBF808308BB10C9A934258
:1010B0000ED0564A5649574840F2962311F0DEFDAD
:1010C000002383F31188BFF36F8F0323184602DFD9
:1010D0000C9BCBF80830637E43F080036376DBE73C
:1010E000A1F8C0300B9B002B64D098F8493003F076
:1010F0003003202B7FF4E6ACECE40646CDF83490C8
:10110000C6E90B440C99B38E1098A38302780B792F
:1011100062F305030B7182780846520949797AE730
:101120003A4A3D493B4840F2AD2311F0A7FD88F310
:101130001188BFF36F8F0323184602DFFFF7B9BB97
:101140000B9B002B3FF4D5AE98F8493003F03002EA
:10115000202A3FF43DAE69F3051388F84930336B1C
:10116000002B7FF4BBACF7E5A27ED10703D5627EEE
:1011700042F080026276B9F1000F20D0D9F8000069
:10118000B0F8C0201344A3830B9B0021A0F8C0102B
:10119000002B3FF40DAD98F8493003F03002202ABF
:1011A0003FF406AD61F3051388F8493000E50B9B69
:1011B000002B9AD1336B002B7FF460AD91E50B9B34
:1011C000002B3FF4F5AC98F8493003F03002202AA8
:1011D0003FF4EEAC69F3051388F84930E8E40B4AB4
:1011E0000E490C48BE2311F049FD8BF31188BFF363
:1011F0006F8F0323184602DF3C223146304603F04E
:1012000033FDDBF80030FFDE0845002064490100B3
:101210006C4A0100984501005C490100D849010071
:101220002DE9F04F046D94F83E6084F83F601D4650
:1012300081463223062010FB06306B6823502B7A40
:10124000204403F01F0303718DB00F4606EB4606E2
:10125000052104EB4606904603F0B8FE96F83730B9
:1012600000F03F0060F30503012886F8373040F2B4
:10127000408199F8493094F89620C3F3010363F351
:10128000000284F89620D9F84A30C4F89030B9F8B2
:101290004E30A4F894302046D5F8093040F8203F6D
:1012A00009F0E6FF2086B5F80D30EA7B84F82620A9
:1012B000A3842B8AE38597F8212094F8273062F3E2
:1012C000020384F82730B5F802B0B4F8862040F263
:1012D000E2431FFA8BF603FB06F642F21071731E0F
:1012E00001FB0233B3FBF6F39BB2A4F88830B4F8E9
:1012F00088309BB2062B00F2FF800023A4F88430D4
:1013000094F89630062262F3061384F8963095F826
:1013100008A00AF009FF4FEA5A1A074650460AF099
:1013200005FF3B1806FB03F37B4A7C4903F5742356
:1013300003F23F23A2FB03239B0C63647308963BD9
:10134000A3646B7813F0200F0CBF1E234FF4967329
:1013500063650023E36799F84930022262F30513BD
:1013600089F84930C422204603F07EFCD4F8BC3012
:101370000C22C3F80890A3F822B0D8801A7194F810
:10138000272083F824A0C2F3020283F82120074615
:1013900094F82700012100F007000AF03BFD95F8C2
:1013A00001E02B7894F827C098F82120D8F8141081
:1013B000D4F854901EF0400F4FEA0E2E0EF4F85E53
:1013C0004EEA030E0CF003031A4402F10902CCF3B7
:1013D000400C4FEAC202A1F12F0522FA0CF209FBE0
:1013E0000E55A5EB0205A5EB00050CBF00224FF43E
:1013F00016121544A5EB010940F28A22914503D843
:10140000E28D01323544E2850933DB0023FA0CF327
:1014100003F5EA73DFF8089118444FF0070B414BCE
:101420005946E0FB09311846636CF61A31234FF038
:10143000000AA360A6FB0932CDE90A32C4F804A071
:1014400033A3D3E90023C4F80CA0FEF759FE364BB2
:10145000C4F88C3020F07F462DA3D3E90023DDE9CA
:101460000A012661FEF74CFE06940496D8F8103067
:101470002E4A0792A3F13F082D4B0A9ACDF80CA0F3
:1014800020F07F44A4FB0331D01A0B9A294B05931B
:101490000BFB041140F2723362EB010108934FF42D
:1014A0007A720023FEF72CFE19A3D3E90023CDE9BD
:1014B0000140A5FB0901FEF723FE043720F07F4021
:1014C000FFB2009043463A460121504604F050FDD9
:1014D00010F0FD0F0DD0184A1849194840F2733327
:1014E00011F0CCFB8AF31188BFF36F8F03231846EA
:1014F00002DF0DB0BDE8F08FB4F88830B4F8842076
:10150000063B9BB29A427FF6FBAEF7E6AFF3008054
:101510008D49FD1A0700000083DE1B438C45002027
:1015200000CA9A3B8C49FD1A79E1000019A5000018
:101530008D49FD1AD5A30000984B0100D848010041
:1015400098450100000000002DE9F0418AB0022317
:101550000C4615462C490993C42203F085FBDFF89D
:10156000AC8009AB06932A4B0593002724A3D3E94B
:101570000023061DA5FB0801CDE90377FEF7C0FD9A
:10158000034623F07F430293A4FB08011CA3D3E985
:101590000023FEF7B5FDF6B220F07F40CDE90070E4
:1015A0003B4632460321384604F0FEFC10F0FD0FA6
:1015B0000CD0099B022B19D1099B012B14BF6FF092
:1015C0000B006FF001000AB0BDE8F0814FF0FF3270
:1015D0004FF0FF330F480FF01DFF099B012B14BF85
:1015E00038466FF00D000AB0BDE8F0814FF0FF32D1
:1015F0004FF0FF3307480FF00DFFDDE7AFF300803A
:101600008D49FD1A070000008C45002000CA9A3B56
:101610000DA50000704500202DE9F041C468237934
:101620006FF300038CB023710F4605460DF04CF8A4
:1016300000200DF071F8207C012100F007000DF072
:101640005DF8227C9200252102F01C0208200DF09A
:101650009BF8237C23F018030120237405F0E6FB9C
:101660000646002800F0848006F120000DF0C0F846
:101670005D4B0B930BA80DF06FF85C4940F25B607B
:101680000DF026F92079C0F3410025300AF07EFBE9
:10169000574821460CF0D6FF23799B062ED596207D
:1016A0000DF046FA00231A46194618460DF074F953
:1016B000D4F800802E6840460AF048FB06446A6869
:1016C00006F10E0100200DF03FFA0DF05FFB0DF06A
:1016D000D7F9204608F058FA811CC9B24046324674
:1016E0000AF042FB0546002851D157B120460AF0C6
:1016F000C7FA68BB00200CB0BDE8F0810DF0AEF970
:10170000D6E7E369002BF1D03A4907913A490591B0
:1017100040F2F31100930891CDE90377CDE9017709
:10172000069433460122394604F022FC10F0FD0FE6
:10173000DCD0324A324933484FF4FA7311F09EFA42
:1017400087F31188BFF36F8F0323184602DFCDE7BD
:101750002A4A2D492B4840F20B2311F08FFA00231F
:1017600083F31188BFF36F8F0323184602DFC1E7AD
:10177000224A264923484FF4C57311F07FFA86F3B5
:101780001188BFF36F8F0323184602DF6CE71B4AF3
:101790001F491C4840F2E51311F070FA1D4B072158
:1017A000A5FB030301FB05310DA3D3E90023FEF7DD
:1017B000A7FC19490246194811F060FA002585F383
:1017C0001188BFF36F8F0323184602DF14482146A8
:1017D0000CF038FF0DF028F86FF08B008BE700BF9E
:1017E00000CA9A3B00000000D6BE898E55555500B0
:1017F00011C80000C5C40000F9C40000644F010016
:10180000D848010098450100E4460100B04F0100AE
:10181000204601008D49FD1A0C500100B84F01000F
:10182000D1C10000000000002DE9F041C46882B081
:1018300005460DF10301204608F0B4FC9DF8033085
:10184000002B00F081802379674A6FF386132371A0
:10185000002616800CF038FF30460CF05DFF6079F2
:10186000012100F007000CF049FF62799200FF218E
:1018700002F01C0208200CF087FF012005F0D6FAC8
:101880000646002875D006F120000CF0B1FF574B3A
:10189000019301A80CF060FF554940F25B600DF028
:1018A00017F8207900F03F000AF070FA21465148FD
:1018B0000CF0C8FE96200DF03BF9627902F00702A9
:1018C0000123104600210DF067F827682E6838467E
:1018D0000AF03CFA06446A6806F10E0100200DF099
:1018E00033F905466079D4F8088000F0070001213B
:1018F0000CF08CFF0544607900F007000228454495
:1019000026D004280CBF4FF4BC73282301211D44AA
:101910000CF07EFF28440DF0F3F90DF037FA0DF0CE
:10192000AFF8204608F034FCC11C3246C9B2384634
:101930000AF01AFA054658BB20460AF0A1F948B940
:10194000002002B0BDE8F08121460CF071FCBCE73C
:101950001823DBE7284A294929484FF4187311F066
:101960008DF985F31188BFF36F8F0323184602DFCB
:10197000E6E7214A234922484FF4F57311F07EF936
:1019800086F31188BFF36F8F0323184602DF7AE7CF
:10199000194A1D491A4840F2412311F06FF91B4BB7
:1019A0000721A5FB030301FB05310DA3D3E90023A8
:1019B000FEF7A6FB16490246164811F05FF900250E
:1019C00085F31188BFF36F8F0323184602DF124897
:1019D00021460CF037FE0CF027FF6FF08B00B0E7CC
:1019E00000CA9A3B00000000DA770020D6BE898E3C
:1019F0005555550071D5000020500100E446010006
:101A000098450100B04F0100204601008D49FD1AA4
:101A1000C4500100B84F010009CB000000000000D5
:101A20002DE9F041C468D4E90C230E46217B134410
:101A3000002262F382012173E16A22638B4228BF94
:101A40000B4663635C4B05461A700CF03DFEE07A72
:101A5000012100F007000CF051FEE27A920002F042
:101A60001C02FF2108200CF08FFE201D0CF074FEDC
:101A70002389A17A40F25B6043EA01410CF028FF20
:101A800030460AF083F9012005F0D0F90646002817
:101A900056D006F120000CF0ABFE27682E683846C1
:101AA0000AF054F906446A6806F10E0100200DF0B0
:101AB0004BF880460DF032F9636BE07A03F12F02A8
:101AC000A36B00F00700012103EB42050CF09EFE22
:101AD00045440544E07A00F0070002281FD004289E
:101AE0000CBF4FF4BC73282301211D440CF090FE61
:101AF00028440DF005F90DF049F9204609F01EF8CB
:101B0000011D3246C9B238460AF02EF9054630BBEF
:101B100020460AF0B5F820B90020BDE8F08118236E
:101B2000E2E7264A2649274840F20B2311F0A6F89F
:101B300085F31188BFF36F8F0323184602DFEBE7AD
:101B40001E4A21491F4840F2D51311F097F886F339
:101B50001188BFF36F8F0323184602DF99E7174AF6
:101B60001A49184840F2012311F088F8184B072150
:101B7000A5FB030301FB05310DA3D3E90023FEF709
:101B8000BFFA14490246144811F078F8002585F38D
:101B90001188BFF36F8F0323184602DF0F482146D9
:101BA0000CF050FD0CF040FE6FF08B00B5E700BF6D
:101BB00000CA9A3B00000000C8850020D0500100F8
:101BC000E446010098450100B04F010020460100A5
:101BD0008D49FD1A44510100B84F010081DA00001F
:101BE00070B503788AB004460E4607AD032B20D8A3
:101BF000DFE803F002191B1D11492846FEF79AFA87
:101C0000059563780493A3780393E378029323798B
:101C1000019363790093A3790A4A1E21304610F09C
:101C2000D3FA0AB070BD0849E7E70849E5E7084973
:101C3000E3E7084A0A21284610F0C6FAE0E700BFA9
:101C400098530100C15301009F530100A6530100A6
:101C5000B0530100BA53010070B50C468CB0154664
:101C6000064604A92068FFF7BBFFA988104A286828
:101C700040F6E54311F01DF8304602F0A3FDE2798D
:101C800094F90530042A014694F9060096BF094CE0
:101C9000094A54F82220064C0394AC880090CDE900
:101CA0000124064804AA10F0DCFF0CB070BD00BF90
:101CB000DC77002058440100E4530100EC5301009C
:101CC00010B50B4688B0694604461868FFF788FFD0
:101CD000204602F077FD6A460146044810F0C1FF35
:101CE00003480FF073FB08B010BD00BF445401005F
:101CF00034080020F0B50D4685B002F063FD6B7925
:101D0000AA7AAE79042B014696BF0F480F4B50F8C4
:101D10002330E879022815D00ED80D4C0D4F00283D
:101D200018BF3C46B5F902000096CDE901400A48CB
:101D300010F097FF05B0F0BD084C044FFF2818BF06
:101D40003C46EFE7064CEDE758440100E453010040
:101D50008C54010074540100BE540100B1540100C0
:101D6000935401002DE9F0479CB004460D461E2215
:101D7000002114A812F088F9284614AA2D4911F060
:101D8000FDF920680CA9FFF72BFF207B2189E27960
:101D900094F9063094F90570042896BF264D274E15
:101DA00055F82060607B042896BF234DDFF88CA097
:101DB00055F820A0608925790B9501F0010CC1F33D
:101DC000400EC1F38008C1F3C00900EB8005C1F3E8
:101DD0000011CDE90591AD1014A9CDE90905CDE9B2
:101DE0000071CDE9076ACDE903E81548CDF808C0D0
:101DF0000CA910F036FF134A1378C3B96389B3B145
:101E000003EB830310499B10C3EBC3030B60012357
:101E100013700E4B22791A7022680D4B11681960ED
:101E20009188998092799A710A480FF0CFFA1CB084
:101E3000BDE8F087DB2601006C440100E45301009B
:101E40001A550100C3840020580D0020C1840020D1
:101E5000C48400200408002030B50C468BB002A9D1
:101E600005462068FFF7BCFE284602F0ABFC0146A1
:101E7000207AE388042896BF084C094854F82000CB
:101E800003EB83029210CDE90020064802AA10F06D
:101E9000E8FE05480FF09AFA0BB030BD6C44010023
:101EA000E4530100A05501001C0800202DE9FF4764
:101EB0006F4810F0D6FE6F4810F0D3FE002001F0FE
:101EC000D9FC014610B16C4810F0CBFE6B486C4D4C
:101ED0006C4FDFF8B4A110F0C4FE6C4810F0C1FEE6
:101EE0006B4802F057FC6B4810F0BBFE6A4810F0DC
:101EF000B8FE6A48002602F07FFD664810F0B1FE89
:101F0000B0462E70B146664A2C7887F80090302390
:101F1000CDE9002302965CB9624810F0A2FE21468A
:101F2000684602F0CBFB0146B0B1534810F099FE71
:101F30005D4810F096FE5D484FF0FF324FF0FF33E2
:101F40000FF068FA044668B101464B4810F089FE6C
:101F5000002004B0BDE8F087484810F082FE01235D
:101F60002B70E5E7524810F07CFE524810F079FEE5
:101F7000514B524918689A889B798DF80630504B1E
:101F800000901B788DF8073068464FF42023ADF899
:101F900004200294039302F069FC014660B33648C2
:101FA00010F05FFE474810F05CFE474BD3F800C0CE
:101FB0004FF40044414640F2E7304FF47A72002378
:101FC000ECFB0401FEF79CF802460B463F483B4CF5
:101FD0000FF020FA014698B1274810F042FE3C4825
:101FE00010F03FFE206802F0F9FB01460028ACD15A
:101FF000224810F036FE86E7264810F032FED1E780
:10200000344810F02EFE344B34480193CDF800A034
:1020100010F027FE6946206802F0BAFD0146E8B1DB
:10202000154810F01EFE2E4810F01BFE02F096FB25
:102030000446B8B10146104810F013FE294810F0CC
:1020400010FE29484FF0FF324FF0FF330FF0E2F956
:10205000014600287FF479AF2448CAE7244810F0ED
:1020600000FEE0E7234810F0FCFD2C70E6E700BF1F
:10207000E85501000E5601002A5601003B560100AA
:10208000C2840020C38400200702050C44560100CE
:10209000B80500205F56010069560100C405002004
:1020A0000101600094560100A656010004080020BA
:1020B000CB560100F1560100C48400205C0D0020C5
:1020C000C184002017570100580D00201C08002073
:1020D000355701005B570100475801008057010048
:1020E000BB570100D557010034080020F857010004
:1020F0009C570100CB570100014B1B68184700BFDC
:10210000E0050020014B1860704700BFE00500208B
:1021100030B585B004460D4610220021684611F006
:10212000B3FF02238DF802302A46044B0193214667
:10213000684610F075F805B030BD00BFF92000000A
:1021400080B505460E46174698460FF0FDFD03463E
:1021500012F01EF8DFF81890044649F800304246A5
:1021600030463946A84754F8090000F025FB00BF67
:10217000080000002DE9F047058B0446280790462B
:1021800011D4022905F0070540F0CC80204610F05C
:10219000D5FD78B10138218B042811D8DFE800F093
:1021A000C2106D85950001290CBF45F0100545F062
:1021B0002005258388F31188BFF36F8FBDE8F08772
:1021C00001F0070AAA4500F0A5800027B9463E465F
:1021D000A368002B00F0BC8041F00801218388F344
:1021E0001188BFF36F8FA168002900F0BA800D68D5
:1021F000002900F0B680D1F80480334652462046CC
:10220000C047002D76D02B6829461D46F0E701F027
:1022100007035A1F012A1BD8002221F00701062BB1
:10222000276889B2C4E9002209D13B4603E0628BEA
:10223000013262831B68002BF9D141F00201218336
:10224000204610F07BFD00287AD041F0200176E096
:10225000042B0AD121F0070189B22183204610F016
:102260006DFD10B141F020012183218B01F0070A9F
:10227000AA454FD00027B946AAE7236921F00701F4
:1022800041F00601062DD3F8009021832DD1B9F13C
:10229000000F3FD041F00801218388F31188BFF37C
:1022A0006F8F3A492046C84729E021F0070123698A
:1022B00041F0040189B2042DD3F804902183E6D0C3
:1022C00000273E464FF0040A82E721F00701236908
:1022D00041F0050189B2052DD3F808902183D6D0AD
:1022E00000273E464FF0050A72E700273E464FF0B2
:1022F000060A6DE72B4687E7B9F1000FD1D1EFF35E
:102300001188202383F31288BFF36F8F238B23F070
:1023100008032383258BEA062ED525F0100323839B
:1023200005F007056669218B002EBFF670AF00230C
:102330002768C4E9003321F0070141F0010121833E
:10234000218B01F0070AAA454FF000097FF440AF46
:10235000002F9CD041F00801218388F31188BFF33E
:102360006F8F002FC8D03D6839463346524620460D
:1023700010F010FD2F46F4E7AB067FF51BAF25F0FC
:102380002003238305F0070500E700BFC12D0100EE
:10239000014B0360002070478044010008B50448E9
:1023A00010F05FFCBDE80840024810F05ABC00BFC6
:1023B000535801008858010030BFFFF7FDBF00BF30
:1023C0002DE9F0410B4EDFF8308006EB0807CC1BFF
:1023D000054632460949204611F048FEA0194246FA
:1023E0000021083C11F050FE6C6707F10800BDE8C1
:1023F000F08100BF0000000004000000284401003C
:10240000074A936893F90E10002907DB526993423B
:102410001FBF044A536843F080535360704700BFA6
:10242000A077002000ED00E070B5264B15469A6AB3
:1024300012F0100F9A6A14BF1124102412F0080F22
:102440009A6A18BF1224920706460AD5586B9A6AF0
:10245000140634D519B19A6A22F080029A621324C4
:1024600001E06FF01500174B9A6A12F0010F9A6A9B
:1024700018BF142412F0200F9A6A18BF1524D20630
:1024800002D49B6A9B070AD50E4B5B68190506D5DB
:10249000314600F08DFA10B180F309880224094B0F
:1024A0009A6A920642BF5A6A22F400525A629A6AA3
:1024B00042F0FF029A6200232B70204670BD6FF03D
:1024C0001500CCE700ED00E0134B9A6A12F0007F94
:1024D0009A6A14BF1E201D2012F0807F9A6A18BFCE
:1024E0001F2012F4002F9A6A18BF212012F4802FA7
:1024F0009A6A18BF222012F4003F9A6A18BF23205C
:1025000012F4803F9A6A6FEA02426FEA12429A62BC
:1025100018BF2420704700BF00ED00E010B5194B34
:102520000246986A9C6A10F4805F14BF1720162038
:1025300014F4006F9C6A18BF1820A40509D5986B85
:10254000986A000404D51AB19A6A22F400429A6289
:1025500019200C4B9A6A12F4806F9A6A18BF1A20DD
:10256000D2050CD49B6A13F4005F18BF1C20054AE7
:10257000936A43F47F43936200230B7010BD1B20CA
:10258000F5E700BF00ED00E0F0B5484B5B688BB0AD
:102590000446C3F30803002585F31188BFF36F8F4A
:1025A00002F07F40B0F17F4F11D102F00C000828FB
:1025B0000DD010074CBF0C4601250022033B8DF8BF
:1025C0000720032B05D8DFE803F0246367602C465F
:1025D000F3E700239DF80720CAB902AE04F12007F3
:1025E00020686168324603C20834BC421646F7D1FF
:1025F000099A002D54D0C2F3080121B96FEA522282
:102600006FEA4222099202A9184610F0BDFC0BB0F5
:10261000F0BD264BDA6A9107DBD4DA6A002AD8DBF0
:10262000DA6A5200D5D55A69A16942F480725A61BA
:10263000BFF34F8FBFF36F8F5A6931F8021C22F43A
:1026400080725A61BFF34F8FBFF36F8F4DF60272E6
:1026500091420AD09A6AD2B24AB10DF10702012121
:102660002046FFF7E1FE0346B4E72368B2E79A6A23
:1026700012F47F4F05D00DF107010120FFF74EFF47
:10268000F1E79B6AB3F5803FA3D3FFF71DFFEAE7AD
:102690000DF107020021E3E70DF107010020EDE74E
:1026A00022F4FF7222F00102ACE700BF00ED00E06F
:1026B000044B5A6942F010025A615A6922F008022A
:1026C0005A61704700ED00E0EFF30880EFF30981F5
:1026D00001B57246FFF758FF01BD00BF002080F32F
:1026E0001488BFF36F8F0DF075FE00200D49086050
:1026F000BFF34F8F0C4880F3088800F02BF82020A0
:1027000080F3118809484FF40461401880F3098868
:10271000EFF314800221084380F31488BFF36F8F16
:1027200000F00EF994ED00E0009E002040900020A3
:102730000749D1F890200023C2F30722184693429C
:1027400000DB7047C1F89830C1F8A0000133F6E70C
:1027500000ED00E008B572B6002383F31388FFF79D
:10276000E7FF144B4FF0FF32C3F88020C3F88420FA
:10277000C3F88820C3F88C20C3F89020C3F89420B5
:10278000C3F89820C3F89C20C3F88021C3F88421A3
:10279000C3F88821C3F88C21C3F89021C3F8942191
:1027A000C3F89821C3F89C2162B6BFF34F8FBFF3E3
:1027B0006F8F08BD00E100E0084B9B6883420BD19E
:1027C000EFF3058343B1064B5A6842F080525A60DA
:1027D0005A6A22F400425A6211F03FBBA0770020EF
:1027E00000ED00E0094A93686FF00A01D9670849D3
:1027F00098674B6843F080534B60002383F3118844
:10280000BFF36F8F9368D86F704700BFA077002029
:1028100000ED00E010B50446EFF31183202383F3AD
:102820001288BFF36F8F0A4B58699860094B4FF0BD
:1028300000625A60084B426F1A600022836F826701
:1028400083F31188BFF36F8F00F01AF9204610BD93
:10285000A077002000ED00E0600D00200B498A68A1
:102860004FF030001044EFF3098C80E8F01F7446FD
:102870007046FFF7CFFFA64604498A6802F1300090
:1028800090E8F01F8CF3098870470000A0770020C3
:102890001EF0040F0CBFEFF30880EFF3098081698D
:1028A00011F8021C0229FFD001B510F073FB01BD25
:1028B00040B2002807DB044A4109012300F01F0051
:1028C000834042F82130704700E100E040B2002828
:1028D0000CDB4309064900F01F002033012282402F
:1028E00041F82320BFF34F8FBFF36F8F704700BFB6
:1028F00000E100E0054B420900F01F0053F82220E0
:10290000012303FA00F01040704700BF00E100E02F
:1029100040B20028A8BF00F1604001F10101B8BF3A
:10292000064B4FEA4111ACBF00F5614000F00F00CB
:10293000C9B2B4BF195480F80013704714ED00E019
:102940000B4A08B50B4B22F07F029A60BFF34F8F02
:10295000BFF36F8FD3F8882022F47002C3F8882069
:102960000EF08AFB0FF08EFA00F060F80EF0C8FB54
:102970000000000000ED00E042F8203C009B42F81F
:102980001C3C0A49019B42F8183C029B42F8143C4B
:1029900021F001014FF0807342F8043C42F8081C1A
:1029A0000023203A02658367704700BF4121000081
:1029B000094A0346906870B113F1160F406E05D0B6
:1029C000A0F140029A4205D8834203D2814228BF37
:1029D0000020704700207047A077002008B51546FA
:1029E0000B4A0C4B9060426F1A600E4600F048F89C
:1029F0002C4686F309884FF00000074B9847204685
:102A00004FF000014FF000024FF00003034C20474D
:102A1000A0770020600D0020B32F010041210000AD
:102A2000014B10221A61704700ED00E004480023BA
:102A30002021C2180133302B82F80013F9D17047DE
:102A400000E100E008B5EFF30583064A103B02EB16
:102A5000C30152F8330049688847BDE80840FFF7D2
:102A6000CFBC00BFA8420100024B034A034801212A
:102A700000F076B800000220000000208044010031
:102A8000426E054B403A1A60044A4021C3E90112E4
:102A90001846012100F06EB8640D002000000B15EF
:102AA000084AC2F898000B6823F01F03034343F061
:102AB0001003C2F89C308B6843F00103C2F8A030C9
:102AC000704700BF00ED00E02DE9F043DFF86080C3
:102AD00085B00E461F4604464FF00009B14523DA83
:102AE0006068D8B13FB1411E08421BD11F2819D9D7
:102AF0002368194216D12368019310F07DFAA36868
:102B000003430393D8F89050C5F30725D0B2013D95
:102B1000A84207D801A9FFF7C3FF421C09F1010928
:102B20000C34DBE76FF01502104605B0BDE8F0830A
:102B300000ED00E0044B0522C3F89420BFF34F8F53
:102B4000BFF36F8F704700BF00ED00E0BFF35F8FF2
:102B5000024B0022C3F89420704700BF00ED00E054
:102B600010B5034C01232278FFF7AEFF207010BD93
:102B7000CB84002008B50B4A00231278FFF7A4FF8E
:102B800010F1160F07D0084A0021D2F89030C3F395
:102B90000723984200DB08BDC2F89800C2F8A010D5
:102BA0000130F2E7CB84002000ED00E02DE9F04396
:102BB000534B544CD3F890302568C3F307239D4200
:102BC00085B000F29A80FFF7C1FF00200C268542F5
:102BD0001AD14D4C4D4F25706846FFF7D9FBDFF8F1
:102BE0002081DFF82C9106460025AE4213D12378D0
:102BF00043490020D1F89020C2F30722934276DBAC
:102C0000FFF798FF002042E0616806FB0011FFF724
:102C100047FF0130DBE7009800EB05114FEA051C88
:102C2000CB683B40B3F5000F48D00AD8B3F5001F7E
:102C300030D0B3F5800F36D0B3F5801F10D00135FA
:102C4000D3E7B3F1807F42D0B3F1007FF7D150F8E2
:102C50000C3088684A6810F0CFF940F4802009E011
:102C600050F80C3088684A6810F0C6F940F0885077
:102C700040F43020CDE901230390D8F8903020783B
:102C8000C3F30723013B98422AD96FF0150005B022
:102C9000BDE8F08350F80C3088684A6810F0ACF951
:102CA00040EA0900E6E750F80C3088684A6810F0FE
:102CB000A3F940F0E06040F40030DBE750F80C305E
:102CC00088684A6810F098F940F08270D2E750F8AE
:102CD0000C3088684A6810F08FF940F08870C9E7B6
:102CE00001A9FFF7DDFE237801332370A7E7C1F8C0
:102CF0009830C1F8A00001337CE74FF0FF30C6E701
:102D000000ED00E08C440100CB8400200000F0FFC7
:102D10000000081108B5024B1B689847002008BD49
:102D2000700D0020034B044A1860937843F00203AF
:102D300093707047700D0020E405002008B5064927
:102D4000064821F00701C1F1005202F500320FF0F0
:102D50002EFF002008BD00BF47B20020740D0020E8
:102D600070B54169867A0B4D044659B1437ADB0749
:102D700006D42C2303FB06535B6A1B689B689847A9
:102D8000002363612C20214606FB0050BDE8704003
:102D900010F02FBF4C080020024B2C2202FB003009
:102DA000704700BF4C080020827A064B2C2101FBA3
:102DB00002339A6A1B7F1B33801A23F00303B0FB94
:102DC000F3F070474C08002038B5074B827A2C246A
:102DD00004FB02335B6AD3E901240C601568FFF73A
:102DE000E3FF04FB005038BD4C0800202DE9F04FF4
:102DF00085B005466846039191461C4690469A4622
:102E000011F088F8DDE90067EFF3118B202383F3DD
:102E10001288BFF36F8F698B002942D02B8B8B42B6
:102E200026D90022002328460EF09EFA0446F8B167
:102E30008BF31188BFF36F8F039B002B4FD032466B
:102E40003B46684611F08AF8A27A2D4B2C2101FBF3
:102E5000023320465B6A1B6803A91D68DDE9002375
:102E6000A847606100283BD12046FFF779FF31E099
:102E7000698B4B1E6B838BF31188BFF36F8F2B7F96
:102E80002A8BAC6A1B3323F00303521A02FB034460
:102E90001B4B1C4AEB1A9B105343A3722B7FE3720C
:102EA000CAE78BF31188BFF36F8F54EA090409D086
:102EB00011F06EF9144A154B12589A420ABF88460F
:102EC000C846C2464246534628460EF04DFA0446CE
:102ED0000028B1D10024204605B0BDE8F08F636121
:102EE000012300252381039B6382E27A65602946E2
:102EF00004F1180011F0C8F863692582E360EAE77D
:102F00004C080020A38B2EBA08000000180C0020EB
:102F100070B50C4C2C2500B970BD037A4668013B96
:102F2000DBB20372002BF7D1C3604360837A05FBE9
:102F300003431B6A13B198473046ECE7FFF710FFD5
:102F4000FAE700BF4C080020044A0123C2F84035CC
:102F50004FF080420020C2F87835704700E0014011
:102F600020B1034B800143F001031847704700BFB5
:102F70005044010008B5044810F0E2FC00280CBFE2
:102F80006FF01200002008BD5842010038B5054618
:102F9000054810F04CF8044620B101210C3010F027
:102FA000A1F82576204638BDA40800200E38012857
:102FB00010B50CD80A4810F03AF8044628B101219F
:102FC0000C3010F08FF801232376204610BD09B194
:102FD0000448F0E7BDE810400120FFF7D7BF00BF6D
:102FE000D00800204C08002010B5012104460C3008
:102FF00010F093F82146034A0078BDE81040002302
:1030000010F0F5B84845010010B5012104460C3018
:1030100010F083F82146034A0078BDE810400723EA
:1030200010F0E5B81045010038B51C4810F018F84C
:103030000446002831D0037E012B02D1038A012BE4
:103040000BD8FFF765FF164BD3F8C4302BB3BDE8A0
:1030500038401449144810F00FBE02210C3010F013
:103060005CF803780E3B012B05460ED80F4A104939
:10307000104840F6A8330FF001FE002383F31188B7
:10308000BFF36F8F0323184602DF28780A4A032311
:10309000214610F0ACF82046D3E738BD8405002067
:1030A000C00400200406002000090020D8580100B8
:1030B0000C5901003A590100F84401002DE9F0478C
:1030C000884616468246002878D0BFF35B8FDFF82B
:1030D000F090002359E8004F49E80032002AF9D166
:1030E000BFF35B8F002C69D02046FFF75DFE354DA6
:1030F0000C2303FB005027464388534511D0BFF3F0
:103100005B8F59E8003F49E80072002AF9D1BFF30C
:103110005B8F002B52D01F463846BDE8F047FFF7C3
:10312000F7BEA6420ED020460FF07CFF04F10C093A
:103130000121217648460FF0D5FF328AF1684846D2
:103140000FF0DAFF2046FFF72FFE0C2606FB00509B
:103150004368ABB1B8F1000F12D12046FFF724FE4F
:1031600006FB005001214268D2E90003127A03F005
:103170001F06B1405B09DAB100EB830010F024F8C0
:103180002046FFF711FE0C2606FB00508368002B3B
:10319000C2D02046FFF708FE704305F800802046A5
:1031A000FFF702FE06FB0055A8680EF00FF9B3E723
:1031B000C94300EB830010F031F8E1E7BDE8F08788
:1031C00080050020800D002010B5C1E900239DF886
:1031D00008300B720C46FFF7E7FD034B0C2202FB95
:1031E00000335C6010BD00BF800D00202DE9F0476A
:1031F0004FF0FF3206464FF0FF33184888460FF075
:1032000016FF044638B300F10C0701214FF0000906
:1032100038460FF067FF84F818902046FFF7C4FD8A
:103220000F4D4FF00C0A0AFB005046802046FFF776
:10323000BBFD0AFB0050C0F808902046FFF7B4FD24
:103240000AFB005503213846C5F804900FF04EFFE5
:10325000068080F802802046BDE8F08778080020CC
:10326000800D00200138C0B202289ABF014B185CC3
:1032700000207047F659010002289ABF014B1856EA
:1032800000207047F3590100034B0146D3F8E400D6
:1032900082689268104700BFC00400202DE9F04109
:1032A000044600F10C0630460FF047FFB4F81080DA
:1032B000B8F1010F054604D82046BDE8F041FFF7FC
:1032C00027BE304602210FF028FF0378052B064663
:1032D00022D00E3B012B21D9114A1249124840F647
:1032E000E4730FF0CBFC002383F31188BFF36F8FDF
:1032F0000323184602DF022702230C4A30782146B6
:103300000FF075FFBB07D7D56369A4F8108013FAD7
:1033100085F5E560BDE8F0810327EDE70127EBE7E0
:10332000D8580100575901003A590100E8440100FA
:1033300010B50C460EF02CFC237E012B1AD1E3684D
:103340001B78052B0AD00E3B012B0AD82046FFF72D
:10335000A5FF00240EF030FC204610BD2046FFF7EC
:103360009DFF214606480FF066FE0649064810F00C
:1033700083FCEEE72046FFF7CBFD6FF01504E9E78D
:1033800084050020040600200009002008B5044838
:1033900004210FF019FFBDE8084000F02FBF00BF67
:1033A00048050020044BBFF35B8F1868BFF35B8FA9
:1033B000C0F38000704700BF4805002001480EF0B0
:1033C00065B900BFF405002038B502460B46244D10
:1033D000D5F8CC1009B9002038BD05F1A8000EF0D1
:1033E00019F80028F7D10022002305F1CC000DF0D8
:1033F000BBFF044668B91B4A1B491C4840F6B7335B
:103400000FF03CFC84F31188BFF36F8F0323184641
:1034100002DFD5F8C00020B1FFF77AFD0023C5F820
:10342000C03020460FF032FEC5F8C0002046FFF73E
:103430002BFF98B10E480DF0C9FF2046FFF7B4FCF2
:103440000C4B0C2202FB00301F2140882246FFF764
:1034500035FE2046FFF75CFDFFF7B0FF0120BBE71C
:10346000C0040020D8580100705901003A590100E9
:1034700068050020800D00202DE9F04F064687B03A
:1034800015460C4631B9FFF7B1FE044648B96FF056
:1034900068007BE0887AFFF77FFC484B834240F06E
:1034A000868001220021684610F0B1FB2046FFF71C
:1034B0007BFCDFF80C910C2303FB0090C0F808D0D4
:1034C00020460FF0E3FD01463E4810F087FBFFF772
:1034D00075FF10F05DFE3C4B1A583C4B9A4222D1CE
:1034E000DFF8ECA0DFF8ECB0364810F08CFB0021E0
:1034F00080464FF4A020FFF767FF074688B94FF4D6
:10350000D4735246594634480FF0B8FB334831461D
:103510000FF0B4FB87F31188BFF36F8F03231846B6
:1035200002DF4445E0D14FF4A022002368460DF0AD
:1035300071FF074698B14FF4D773254A28492648AA
:103540000FF09CFB27483A4631460FF097FB0023CB
:1035500083F31188BFF36F8F0323184602DF2046E1
:10356000FFF722FC0C23584319F80060BEB1204637
:10357000093EFFF7CDFC092E0ED8DFE806F01B0D43
:103580000D0A050D0D0D0D186FF00B0007B0BDE80D
:10359000F08F6FF00C00F9E76FF00400F6E715B15B
:1035A0002C600020F2E72046FFF7B2FCF9E76FF04D
:1035B0001500EBE76FF06E00E8E700BF7808002029
:1035C000800D00208C05002008000000180C002051
:1035D000D8580100745901003A5901007C59010082
:1035E0009C590100A5590100F7B5002101AA40F638
:1035F0000340FFF741FF0446002869D1019CE368BE
:103600001B789BB900F0FAFDBFF35B8F964B1A68ED
:10361000BFF35B8F02F00902BFF35B8F53E8001F1B
:1036200043E800200028F9D1BFF35B8F2046FFF765
:103630006FFC01AA002141F20300FFF71DFF0446C1
:10364000002845D1019A894DD168D1F80100D1F8FF
:10365000051005F12C0303C31046FFF759FC214662
:1036600001AA41F20100FFF707FF044680BB019861
:10367000C3685A7885F824205A88EA841A7985F82C
:103680002520B3F807202A85B3F805306B85FFF7AE
:103690003FFC214601AA41F20200FFF7EDFE04467D
:1036A000B0B9019FFA6805F13406531C413218681D
:1036B0005968344603C4083393422646F7D1384646
:1036C000FFF726FC95F830305C0604D46FF0120446
:1036D000204603B0F0BD01AA002142F20300FFF72B
:1036E000CBFE04460028F3D1019A614BD168D1F892
:1036F0000100D1F8051003C31046FFF709FC95F847
:103700003030980618D4022140F66D40FFF76EFD68
:103710000646002800F0A58002210C300FF0E6FCE0
:103720000123447003702246314640F66D40FFF796
:10373000A3FE04460028CBD195F85030190712D5C6
:1037400001AA002142F21C00FFF796FE0446002861
:10375000BED10198C368D3F80120D3F80530C5E97C
:103760002623FFF7D5FB95F8923013F0180F01D1FF
:103770001A0604D501F0ECF904460028A8D1082166
:1037800042F20100FFF732FD0446002869D008210B
:103790000C300FF0ABFCF02300224370022797237C
:1037A00007708370C270027142718271C2712146CA
:1037B00042F20100FFF760FE0446002888D108218C
:1037C00040F60140FFF712FD0646002849D00821C7
:1037D0000C300FF08BFC8023437020230470847026
:1037E000047144718471C770C3712246314640F63A
:1037F0000140FFF741FE044600287FF469AF01460F
:1038000001AA4FF60140FFF737FE044620BB01989E
:10381000FFF77EFB214601AA4FF60240FFF72CFE80
:103820000446C8B90198C368B3F80130A5F87530EB
:10383000FFF76EFB95F875305B070DD501AA2146A1
:103840004FF60340FFF718FE30B90198C3685B7864
:1038500085F87430FFF75CFB03B0BDE8F04000F082
:103860006DBA6FF0680433E748050020C0040020FB
:103870005005002073B5264D0646D5F8E40010F03B
:103880005FF800283CD06FF0020105F188000FF0CE
:10389000C5FC01210FF098FC10EA010433D11D4B47
:1038A0001E600A4605F1A80010F0B1F905F1CC0040
:1038B00010F069F9184810F0EFF91849164800940B
:1038C0006FF007034FF496620DF0E6FE14491248BC
:1038D00010F0EEF9D5F8E400124983681B689847A8
:1038E000044628B93EB9FFF77FFE78B9FFF74EFDD1
:1038F000204602B070BD05F178000DF0C7FEF7E775
:103900006FF01204F4E76FF07704F1E70446EFE795
:10391000C0040020980D002000090020008600202F
:10392000EA5901003133000010B5FFF75DFE04468F
:1039300008B9FFF72BFD044B1B681BB12046BDE8FF
:103940001040184710BD00BF980D0020F7B5144B6C
:1039500093F94F30002B05460C461DDA14B920466A
:1039600003B0F0BD082C01AA4FF0000142F218008C
:10397000264628BF0826FFF77FFD0028F0D1019FCB
:10398000F96832460131284610F070FB3846FFF7DF
:10399000BFFA3544A41BE1E76FF08500E0E700BF04
:1039A000C004002038B5032104460C300FF0B5FBED
:1039B000E3680578B0F80100197840F6354398427D
:1039C0000AD02246FFF77AFB35B104480DF0FEFC21
:1039D000BDE83840FFF7F2BC38BD00BF68050020E5
:1039E00038B5042104460C300FF097FB4578017878
:1039F00040882246FFF762FB35B104480DF0E6FC33
:103A0000BDE83840FFF7DABC38BD00BF68050020CC
:103A100070B54FF0FF320D464FF0FF3300210646E0
:103A2000FFF7C4FA044660B90A4A0B490B4813234E
:103A30000FF024F984F31188BFF36F8F0323184626
:103A400002DF022104F10C000FF050FB06704570FC
:103A5000204670BDF9590100705901003A59010022
:103A6000F8B50A4DEF7906460024E3B29F4202D82A
:103A70006FF0010007E0294630460FF00AFC0735D9
:103A8000631C08B12046F8BD1C46EEE7C0040020C8
:103A900070B5134E06223146044610F0FDFAD0B13F
:103AA000062142F20500FFF7A1FB0546A8B1062258
:103AB00021460C300FF020FB0022294642F205007F
:103AC000FFF7DAFC40B93346226843F81D29A28883
:103AD000B28001221A77002070BD6FF06800FBE70A
:103AE000DD04002037B504460D4689B11849284643
:103AF0000FF0CFFB60B9174A2968C4EBC404A318C0
:103B00001151AA889A80AA799A71002003B030BD19
:103B100068460FF016FB0028F8D16846FFF7A0FFB3
:103B20000028F5DA0B4A00989DF80610C4EBC4048F
:103B3000A3181051BDF8040098809971002DE4D0AD
:103B400012592A609A88AA809B79AB71DDE700BF81
:103B5000C5580100C004002070B5044611B16FF0D3
:103B6000150070BD80B11C490FF093FB60B9204671
:103B7000FFF776FF002829DA2378012BEFD1A3790C
:103B800003F0C003C02BEAD1144DEB79012B20D0F8
:103B9000BFF35B8FD5F88830BFF35B8FDB0707D4AB
:103BA000002CDCD00C4920460FF073FB0028D6D146
:103BB000EE792146731C3046EB71FFF793FF08B98D
:103BC0003046CEE7EB79013BEB71CAE76FF0770047
:103BD000C7E76FF00B00C4E7C5580100C004002020
:103BE0002DE9F3410446D8B101AA002141F20900B0
:103BF000FFF742FC054698B9019E1249D6F80C80A1
:103C000008F101070622384610F046FA28B10E499D
:103C10000622384610F040FA30B93046FFF778F9FE
:103C2000002002B0BDE8F081D8F80130C4F80130BE
:103C3000BB88A4F8053030462570FFF769F90120EC
:103C4000EFE700BFD2580100CC58010007B5684625
:103C5000FFF7C6FF044BD87118B169460020FFF783
:103C600041FF03B05DF804FBC0040020F0B5294D0E
:103C7000EE7989B0002E46D195F87630DB0722D553
:103C80006A4631464FF60940FFF7F6FBD8B9DDF832
:103C900000C0DCF80C406378012B1E4628BF0126CB
:103CA00073B1A31C02AA123418685968174603C7D7
:103CB0000833A3423A46F7D1186838609B88BB8026
:103CC0006046FFF725F9EE71002416260127EB79EF
:103CD000E0B2834202D8B3B1002012E008AB06FB89
:103CE0000033694653F8182C33F8143CCDF8012002
:103CF000ADF805308DF80070FFF7F4FE01340028B0
:103D0000E5D009B0F0BD0021084609B0BDE8F0409B
:103D1000FFF722BFC004002010B50C4649B1064B86
:103D20001B780B7000200FF0C1FA08B90123237033
:103D300010BD6FF01500FBE7C004002010B50A4C61
:103D4000E3790BB1002010BDFFF780FF0028FAD106
:103D5000E379002BF6D1FFF789FF0028F3D1601C2F
:103D6000BDE81040FFF794BEC0040020034B0022C2
:103D700099689A801960024B1A72704714060020E5
:103D8000CC840020F0B5054687B00F4642F24200D1
:103D900006211646FFF72AFA0446C0B106210C3068
:103DA0000FF0A4F946800026477005700671467131
:103DB000084A009503A920460623FFF705FA324674
:103DC000214642F24200FFF757FB07B0F0BD6FF00B
:103DD0006800FAE74805002008B502460146074892
:103DE0000FF09BFA30B922B905480FF090FA40F372
:103DF000002008BD6FF07700FBE700BFBC0D00207E
:103E00004805002038B50546407A0C46FFF72AFAE7
:103E10002073A87AFFF726FA607395F90C30A37126
:103E200095F90D306371EB7A2371EB8963812B88EF
:103E3000103BDBB20B2B96BF054A0523D35CE37125
:103E40002B8883F0100303F01F03238138BD00BFCC
:103E50002F5A010037B50546C379009014308DF80C
:103E600004308DF805100FF084FA074B1C6844B13C
:103E700054F8143C183C13B1694628469847A46985
:103E8000F5E703B030BD00BF9C0D002008B5054B21
:103E900018460FF03CFA143B10F0040F14BF1846FC
:103EA000002008BDB80D00202DE9F04788B08E48ED
:103EB000002200230DF0A4F9002840F0A2808B48D6
:103EC0008A4D0FF024FA10F0010355D02B1D93E812
:103ED000070008AB03E9070085480FF018FAC0F3A4
:103EE000801382480FF013FA024600287AD073B18B
:103EF00080490C2205A810F0CFF800287CD00022C1
:103F000011461046FFF73EFF0446002875D19DF884
:103F10001530190703F0040576D5002D40F09A807E
:103F200028462E46BDF81A3063B1BFF35B8F704B45
:103F300053E8001F41F0800143E80012002AF7D146
:103F4000BFF35B8F0DF10301FFF7E6FE0446002887
:103F500053D1002E14BF08210321002D14BF0523C7
:103F60000023194442F24100FFF740F907460028B8
:103F70007BD16FF0680440E05D485F4A0FF0C7F9FD
:103F800010F4807F0ED09089D1891269ADF81600A7
:103F90004FF48074ADF81440ADF81810ADF81A3035
:103FA000079299E7554C2068616805AB03C3A06888
:103FB000186092F891304D481E0744BF05238DF8D4
:103FC00015300FF0A4F9840706D53023ADF818306A
:103FD0006023ADF816307FE744480FF098F94007AA
:103FE000F3D479E743B10146FFF7CCFE044620B98C
:103FF000404B2861C3E9010000243B480DF078F9EB
:10400000204608B0BDE8F087BDF816309DF81400D2
:10401000ADF80530BDF818308DF80400ADF8073064
:10402000D5B101AEBDF81C200AB9BDF81620BDF807
:104030001E300BB9BDF818309DF814108DF80C1017
:10404000ADF80D20ADF80F305EB13078012808D101
:1040500003AD67E70026E5E7421E5042504101AE3E
:1040600060E74B1E58425841F2E700F10C0903216A
:1040700048460FF03BF89DF815809DF8033003701B
:10408000C8F3400382468470437036B101238370C5
:104090000522314648460FF02FF855B19AF8023004
:1040A00043F004038AF802300522294648460FF0FF
:1040B00023F80022394642F24100FFF7DDF90446B9
:1040C00000289AD1BDF81A2008F001010120FFF75D
:1040D00059FE0446002890D108AA12E90700054BB2
:1040E00083E8070088E700BFD80D0020BC0D002042
:1040F00048050020CC0D0020C004002040440100F1
:104100002DE9F347054635480FF001F91446C2077B
:104110000E46994602D50B895B075CD428460FF002
:1041200029F8002846D0294668460FF018F82C4F89
:104130003B68A3B120460FF000F8B4F80480A4F85F
:104140000490054623463F68F27996F905106846C3
:10415000B847A368A4F8048013FA85F52560214BBD
:10416000C6F800D01B68002B33D01D6805B1083D90
:1041700053F8082CAAB12F46A3F1080520460EF0EB
:10418000DCFFB4F804A0A4F804902B688046214614
:1041900030469847A368A4F804A013FA88F3236074
:1041A0003D46B5B1AF682B688FB1083F002BE5D114
:1041B0003D46F7E72B78FF2B04D10B4968460FF0FB
:1041C000B8F8B4E729460FF06CF80146F6E7002B83
:1041D000D4D10023336002B0BDE8F087BC0D0020CD
:1041E000080E0020000E0020C5580100024B0022DE
:1041F0001A60FFF7BBBD00BF080E002010B5094CC8
:104200004422002120460FF03FFF04F11C000FF074
:1042100042FC04F130000FF03EFCBDE81040FFF717
:10422000E5BF00BFBC0D0020032838B5054603D10B
:10423000BDE83840FFF738BEFFF7CEFD044658B959
:10424000064829460FF0A1F8FFF72EFE044618B1E4
:10425000024829460FF083F8204638BDBC0D0020E7
:10426000032808B5014602D003480FF078F8BDE8EE
:104270000840FFF719BE00BFBC0D002010B500209C
:10428000FFF7EEFF20B10DF0BFFC0020FFF7E8FFC5
:104290006FF0800111480FF053F810486FF400716F
:1042A0000FF04EF80E4B1B68B3B11C6804B1083C0C
:1042B00053F8043C03B1984774B1A268234642B155
:1042C0005B68A2F10804002BF5D1F6E7BDE81040C9
:1042D00018476368002BF9D110BD00BF48050020C6
:1042E000000E00202DE9F04F00F10C0885B00746C4
:1042F00040460EF01AFF4A4D064646B349480FF0B5
:1043000006F8C30707D4464B1B7A03B305B0BDE8D4
:10431000F04FFFF72BBD3B8A172B18D918214046C9
:104320000EF0FBFE3A8A90F817A0B0F800905245C4
:10433000C9F3411B044609F010090BD238460EF0B0
:1043400071FEB9F1000F02D1354B02221A7205B08D
:10435000BDE8F08FB9F1000F0FD06946FFF752FDAD
:10436000E37D42466946A01CFFF7CAFEE17D404658
:104370000EF0CBFE013EF6B2BFE795F80890B9F11A
:10438000000F05D1BBF1000F18D169462046E5E7C3
:10439000C17AEA7991420BD1811C072228460FF09D
:1043A0007BFE28B9BBF1020F13D1FFF7DFFCDDE77D
:1043B000BBF1000FE9D0B9F1010FD7D0BBF1020F6B
:1043C000F3D0E27AA11C28460EF0B3FFEA71012275
:1043D0002A72DFF85490B9F80420B9F80610524454
:1043E0008A4205DD02222A72BBF1010FBED0DCE752
:1043F0002A7A022AF8D0F968524648460EF07CFE26
:10440000BBF1010FB6D069462046FFF7FBFCB9F8B7
:1044100004304A466946A01CFFF772FEC5E700BF9C
:10442000CC840020BC0D00201406002008B5074BEA
:104430001A89824205D103F114000EF068FF820749
:1044400001D4002008BD1846FCE700BFA40D0020E1
:104450002DE9F843104B1C68064688461746C4B140
:1044600054F8103C183C93B140460EF066FEA36829
:10447000B8F8049005464246394630469847D8F881
:104480000830A8F8049013FA85F5C8F80050A4691C
:10449000E5E7BDE8F88300BF9C0D0020F0B587B0CC
:1044A000C568FFF7F3FC044620B92B78442B13D1E1
:1044B00007B0F0BD00F11406022130460EF04FFFA8
:1044C0000120FFF7CDFE2B78442B05D1304607B0F5
:1044D000BDE8F0400EF04DBF2E1D30460EF04AFEF6
:1044E000314640B168460EF03AFE5CB9B5F80100BD
:1044F0000EF0F4FEDCE70EF0D4FE014668460EF046
:1045000018FFF2E704F11406032130460EF005FF10
:10451000F8B9E279EB789A4214D0B5F801000EF0C0
:10452000DDFE1F27032130460EF0F7FE28B1694655
:1045300020460EF0FEFEEB78E37139462046FFF789
:1045400089FCB5E70722694620460FF0A5FD002843
:10455000E3D12F78002FE5D10121304627740EF0EA
:1045600014FFB5F801302381AB896381AB7BA38154
:10457000E87AFEF777FE3946A073102202A80FF002
:1045800083FD6389ADF80E300321A37B8DF81030D5
:1045900030460EF0C2FE48B1EB78E37120460EF0D3
:1045A000E9FD6946E0B120460EF0D9FDE3798DF8CA
:1045B0000C300421304602940EF0AFFE0A4B80F01E
:1045C00001001D688DF81100002D3FF471AF55F802
:1045D000183C183D13B102A920469847AD69F3E78E
:1045E00020460EF0A6FEE1E79C0D002010B586B037
:1045F00001AA02A90EF028FF58B9074B1C6844B164
:1046000054F8043C183C13B1019802A99847A469D6
:10461000F5E706B010BD00BF9C0D00202DE9F0436A
:1046200000F10C0785B0064638460EF07EFDDFF837
:104630008480DFF88490054615B905B0BDE8F083A5
:1046400040460EF064FEC307F7D5338A082BF4D931
:10465000092138460EF061FD037A328A01339A420D
:104660000446EAD30123ADF80C307F238DF80630E1
:10467000037A034469465B7A8DF80530FF238DF891
:1046800004300023ADF80A3002788DF80720042AA0
:1046900098BF19F80230ADF80830037A3A46013075
:1046A000FFF72EFD217A38460131013D0EF02DFD38
:1046B000EDB2C1E7BC0D00203B5A0100F8B505463C
:1046C00022480EF024FE43070F463CD52A78012AE3
:1046D00003D96FF015042046F8BD6B780F2BF8D87E
:1046E0006888031F9BB243F6FC74A342F1D8A988E3
:1046F0000B1F9BB2A342ECD88842EAD37AB9144884
:10470000002200230CF07CFD04460028E3D1FFF7D3
:1047100063FB044640B10E480CF0EAFDDBE70EF007
:10472000DBFD0028EBD1D4E728686968094E0A4B05
:1047300003C6A868306020461F60FFF775FD044679
:1047400006F12400E8E76FF00A04C4E748050020FA
:10475000EC0D0020C00D0020080E002008B5FFF76A
:1047600045FD0A4B0A4800226FF080011A600EF0E6
:10477000E7FD030604D506486FF400710EF0E0FD76
:10478000BDE808400020FFF76BBD00BF080E002009
:10479000480500200A4B196800F1080231B9816010
:1047A000596839B9C3E90022002070478A4204D011
:1047B0000968F3E70A605A60F6E76FF01000704787
:1047C000000E0020034BC01A034BC0105843C0B268
:1047D000704700BFA40D0020ABAAAAAA38B5224B8F
:1047E00093F891309B06054638D500F1140201215B
:1047F00010460EF092FDA0B1012110460EF08DFD85
:1048000018B96FF01504204638BD28890EF066FDF2
:1048100004460028F7D116212846FFF71BFB002489
:10482000F1E7FFF733FBA8420246F8D1FFF72EFB72
:104830008242E6D10120FFF713FD04460028E2D1B1
:10484000014642F24500FEF7D1FC014648B122463E
:1048500042F24500BDE83840FEF70EBE6FF0850419
:10486000D1E76FF06804CEE7C00400202DE9F843DB
:104870005E4B93F891300F469906054640F1B080A3
:10488000FFF704FB002840F0AE80EB790F2B0AD82D
:10489000AB89B3F5FA7F06D2EB890A3B9BB243F6AC
:1048A000F67293421DD96FF0150417E018223146B5
:1048B0004F48DFF83C810FF0E7FB4E4831460EF0E1
:1048C00064FD0E2142F24400FEF790FC814688B957
:1048D00008F114000EF04DFD6FF068042046BDE8AD
:1048E000F88344480EF013FD10F00106DED06FF09F
:1048F0000B04F3E70E210C300EF0F8FB0E223146CC
:1049000004460FF0C1FBAB68DA0748D5032108F174
:1049100014000EF03AFD237843F001032370AB68D6
:104920009B0707D52378334843F002032370042103
:104930000EF02BFDAB685E0742BF237843F0040303
:104940002370AB68180742BF637B43F001036373B6
:10495000AB68D90642BF637B43F002036373AB6865
:104960009A0642BF637B43F004036373AB685B0644
:1049700042BF637B43F010036373AB89A4F8093033
:10498000EB89A4F80B300022494642F24400FEF7BE
:1049900073FD044650B117480EF0EBFC9EE7294624
:1049A000A01C0EF0C6FCEB796370B8E71148022139
:1049B0000EF0EBFC0120FFF737FC044630B101207C
:1049C000FFF74EFC0A48FFF709FF87E70848C7F8DA
:1049D000008029460EF0ADFCEB7988F807307DE7C2
:1049E0006FF085047AE76FF00F0477E7C0040020CA
:1049F000A40D0020B80D00200A4B196800F1180220
:104A000031B98161596839B9C3E900220020704782
:104A10008A4204D00968F3E70A605A60F6E76FF04B
:104A2000100070479C0D00202DE9F04F804687B0A4
:104A300015460F4629B91378DE0778D5D6780621B2
:104A400026E09378102B1DD81378DC071DD5580766
:104A500018D03C4B5A78012A14D93B4A92F892203C
:104A600051060FD56A78022A04D0012A0AD11A7891
:104A7000520707D5EE78012E04D99B78B34201D3B3
:104A80006B681BB96FF015044DE00226B11DC9B269
:104A900042F25300FEF7AAFB814600284ED000F1F7
:104AA0000C0B062158460EF021FB00230360838087
:104AB000B8F80830038004468770B7B1AB7803714B
:104AC0002B78DB0743BF6B78C370D5F804A0DFF801
:104AD0007CA046715CBF0223C370314658460EF07D
:104AE00005FB627951460FF0C1FA052308F1140263
:104AF00003A948460097FEF767FB02AA494642F21F
:104B00005300FEF7B9FC044668B90298B8F80820CB
:104B1000C368B3F801309A420DD157B12B7888F8A9
:104B20000F30FEF7F5F9204607B0BDE8F08F0226FA
:104B300085E72346F3E76FF00404F2E76FF06804BB
:104B4000F1E700BFBA850020C0040020405A0100F0
:104B50002DE9F341002101AA42F25800FEF78CFC36
:104B6000044670B90198C3685F789D7893F8038014
:104B70001E79FEF7CDF9054B83F802801F70DE70B9
:104B80005D70204602B0BDE8F08100BFBA8500200C
:104B900008B50A46034610B96FF0150008BD002994
:104BA000FAD0094991F89210C9060AD501211430AA
:104BB0000EF041FC0028EFD01846BDE80840FFF792
:104BC00033BF6FF08500E9E7C004002000F1070C57
:104BD0002CF0030C10B4541E1860A4B2ACF80020E2
:104BE000023A93B201FB04F24FF0000C40F802C00D
:104BF00074B103FB011403FB01F22044121B4FF6B6
:104C0000FF7C013B9BB263458050A0EB0100F8D1D3
:104C100010BC70470346006810B102680AB91A60F8
:104C2000704700F1070C2CF0030CD11DBCF800C03C
:104C300021F003010CF1FF3CA1F800C0EFE700BF39
:104C40000B687BB1073323F003031A88013292B259
:104C50000346D1F800C043F807CB23F003031A80C2
:104C6000086070470122F3E7401A90FBF2F080B22F
:104C7000704700BF531E11449BB242B1DB43013861
:104C8000CA1811F8013D00F8013F9142F9D170476F
:104C9000014402E010F8013B1BB98842FAD1002020
:104CA00070470120704700BF10600860704700BF68
:104CB000D2F800C0CCF80000D2F800C0CCF8041044
:104CC00010607047884203D01AB143681360704780
:104CD000002070470B68834209D02AB158681060E1
:104CE0001A680A6018467047002BF9D1FAE70023CA
:104CF000F8E700BF2DE9F041DFF830800C4E0C27BB
:104D000006F130044546221D214628460C3CFFF79B
:104D1000CBFFA642A5F10805F5D1043F3B1DA8F144
:104D20002008A6F13006EBD1BDE8F081880E002006
:104D3000140F002010B403468C469AB101EB4101D8
:104D4000144803EB4304090101EB84010144487A50
:104D50000C7AA04204BF0130087210BC61461846AC
:104D60000AF036B801EB41020A4C120100EB400395
:104D700002EB830323449C7ADA7AA24201D010BC6E
:104D8000704701329A72044B01225A5410BC0AF047
:104D900077B800BF900E00200C0E0020F8B5064634
:104DA0001C460D4602B322786378D21A12F0030231
:104DB0003AD1274F71004FEA450C3144AC44890089
:104DC00001EB0C1101330431DBB27A1860682370F7
:104DD0002146FFF76DFF1F4B0122294630465A55E9
:104DE0000AF04EF80020F8BD0AF034F80028DAD0B6
:104DF000294630460AF00CF80028D4D005EB4502CD
:104E000006EB4601124F6378120102EB81023A442D
:104E10007100907AD27A90424FEA450C0CD02078FB
:104E2000C01A10F00302C8D0012A03D00133DBB24C
:104E30002370D0E71046F8BD2278D21A920702D02C
:104E40000233DBB22370D4E902039847CAE700BFFC
:104E5000900E00200C0E00202DE9F04FDFF8649139
:104E600019F8003089B0002B5AD0DFF85CA13C2241
:104E700004234FF0000B00EB400712FB0033032428
:104E8000CDE904BB09F800B00AEB071703930294BD
:104E90008346B8460023B96A58F8240F079307AA37
:104EA000FFF710FF044607AAB4B1079D2E78697872
:104EB000761A06F00306012E35D02B78591A01F028
:104EC00003010129DBB23DD1D7E90901FFF7FAFE61
:104ED000044607AA002CE8D197F82E3097F82F2027
:104EE0009A4203D087F82F300123049397F82C308F
:104EF00097F82D209A4203D087F82D30012305938F
:104F0000029B5D1EEBB2FF2B0293A7F10C07C0D1F1
:104F1000049AD846DDF814B012B1BBF1000F45D0A9
:104F200009B0BDE8F08F01396970079BD3E902032E
:104F30009847079D2A786978D3B2521A02F0030283
:104F4000012A21D0B86A019300224146FFF7C2FE30
:104F50006C60019B6A786B702B789B1A03F00303DB
:104F6000012B08D0D7E9090107AAFFF7ABFE012EF4
:104F7000044698D10EE0039B6A70294620460AEB4E
:104F80000302FFF795FEEDE7D7E9090107AAFFF74E
:104F900099FE0446029B8BB101235946584609F8F5
:104FA0000B3009F06DFF09B0BDE8F08F5A4641465D
:104FB000404609B0BDE8F04F09F00ABF002C8BD085
:104FC000EAE700BF0C0E0020900E00204B1EDBB263
:104FD00071B1411E00EB030C002011F8013F23B119
:104FE0005A1E01301340C0B2FAD16145F5D1704765
:104FF0000846704732B370B54FF0000E04460E46B7
:10500000F44670464FF0FF35C6F108035FFA8EF1A3
:105010009342A8BF1346615CDBB2314105FA03F647
:1050200021EA060101FA0CF19C44D31A13F0FF02A5
:1050300040EA01005FFA8CFC0EF1010E4FF0000611
:10504000E2D170BD1046704730B5027E0568FF2A78
:1050500018D002EB820302EB43038A4205EB830381
:105060002BD04FF0000C01E091420DD096461A78FB
:105070009C6802EB820302EB4303FF2AA44405EB86
:105080008303F1D1002030BD714519D00FFA8EFE97
:1050900098681B780EEB8E020EEB420EFF2B05F884
:1050A0002E3008D003EB830203EB420305EB8303AE
:1050B0009A6802449A60604430BD96464FF0000CF6
:1050C0001A780276E2E700BFA2EB010C1CF4000F95
:1050D00010B4836844690AD12CF07F4C6344A34226
:1050E0000DD8E41A00234461836010BC7047891A0C
:1050F00021F07F418B4208D95B1AA342F1D91B1BD7
:1051000000244461836010BC70470C44E41AE9E752
:105110002DE9F04F87B0427A036844680293002A71
:1051200000F0F180531EDBB204EBC3038B46039304
:1051300005948246039B5A685E780492BBF1FF0F88
:1051400069D00BEB8B030BEB4303029ACDF804B051
:1051500012F823B04FEA830802EB830400254FF0D6
:10516000FF0C84F800C0DAF800709AF8183007EBEA
:1051700008096345D9F808100FD1BEE0091A06D115
:10518000B9F81E80BEF81EE0F04500F2AC8017F8BA
:105190002220FF2A9C46134609D003EB830203EB2F
:1051A000420207EB820EDEF808008842E6D9BCF125
:1051B000FF0FC9F8081089F8003000F090800FFA4E
:1051C0008CFC0CEB8C020CEB420C019A07F82C20A7
:1051D000FF2B08D003EB830203EB420307EB8307AB
:1051E000BB685B1ABB60A37801336370002DA5D048
:1051F0006B6A4FF000022A70AA7013B1A96A0020EE
:1052000098476368002B99D16B6A2362AB6A63622B
:10521000BBF1FF0F95D1039B049F9A7806EB8603A1
:1052200006EB4303711CB24207EB8305CEB25CD0A0
:105230000399087817F82310B04208BF0026042904
:10524000ECD16A78029902EB820802EB480801EB84
:105250008804012094F801C0A1788C454FEA8808A1
:105260000BD04FF0000207F823206B6AA8700BB137
:10527000A96A9847039B9A78D0E7AB8A01924FF6C8
:10528000FE729342DAF8141007D04FF6FF729B1AA1
:10529000B3FA83F35B0984F82830EB6863602B6909
:1052A000236200226262AB8A4FF6FD70834288BFA0
:1052B0001346A383AB69A361EB69E3602B6A2361A7
:1052C000AB68A36062616A682046FFF7FDFE4FF09D
:1052D0000003E383E37843F00103E3703FE7019ABF
:1052E0008AF8182074E7014661E7039A059991420C
:1052F000A2F1080307D003931CE707F80830019BCD
:105300008AF818306FE707B0BDE8F08F2DE9F04F4D
:10531000467E01238BB08376002E40F0B980037E59
:10532000FF2B834600F0B38009F06EF9DBF81430F0
:10533000DBF81C20DBF80080C01A20F07F4A9BF8C5
:105340001830524594BF00220122FF2B039200F037
:1053500044811FB2B14635463B4632E0039B23B938
:10536000DBF81C304B4540F29980E78B94F82830ED
:105370000137BFB20EF1FF3EE7835FFA8EFE002BCE
:1053800000F08980A38BBB4280F08580E76884F8B9
:1053900002E097B123696069626A0193E37803F0E0
:1053A00001030093DBF81430A9EB0000184420F04F
:1053B0007F404FF6FF730021B847029BFF2B44D07C
:1053C0001BB203EB830203EB420308EB8304A268E6
:1053D00052453AD818F8233094F802E002936378E3
:1053E000A3EB0E03DBB2012BAAEB020A9144E4D13A
:1053F000A669002EB2D1E7680EF1FF3E84F802E004
:10540000002FDAD0E18B626A60690B462169019155
:10541000E17801F001010091DBF81410A9EB000024
:10542000084420F07F400021B847002E4FF00003D1
:10543000E383039B18BF01230393E378002262F305
:105440000003E370029BFF2BBAD12E469BF80B3072
:105450009BF80A209A4208D10132D2B2022A1ABF1E
:105460001646334600238BF80B600BEB83030022B8
:10547000C3F80C90DBF824408BF81A205B4601221D
:1054800004210320A4460BB0BDE8F04F60478676A8
:105490000BB0BDE8F08F84F802E08EE7029BFF2B93
:1054A00079D0DDF808C0A38BE18B606805900CEB28
:1054B0008C0299420CEB420228BFCB1A08EB820205
:1054C0002CBF9BB20B4603FB0003906804938642FB
:1054D0000FFA8CF356D3CDE9065E8446DDF814E06E
:1054E00009910593089116E0002D3FD1E178D3781A
:1054F00001F0010103F00103994233D31378FF2B2C
:105500003CD003EB830203EB420208EB820290687B
:105510008444664532D39369002BEFD0D38B918BB3
:1055200055688B42E0D2002DE8D0BEF1000FE5D0E7
:105530001F468B42E2D3049B07FB05573F1ABB4231
:105540002CBF00270127E378D17803F001054B40F9
:1055500001F00101A94203F0010303D8002BCDD1D2
:10556000002FCBD0DDE9065E099FFFE6BEF1000FFC
:1055700002D05F1ABFB2DCE77746E4E7DDE9065EFA
:10558000059B0899E7680EF1FF3E84F802E0002FC2
:105590003FF417AF37E72E46E5680EF1FF3E84F87B
:1055A00002E0002D3FF452AF2169E38B6069626A2B
:1055B0000191E178039F01F001010091DBF81410E3
:1055C000A9EB0000084420F07F403946A847E37863
:1055D000E78367F30003E37038E7B14636E700BFBF
:1055E000837E002B40F091832DE9F04F437E8FB0F6
:1055F00082460D93002B7BD1837AC27A01214176BA
:105600009A4241690A9100F081830133DBB2022B97
:105610000ABF0D9A1A46134600EB82028372D268C3
:105620000A9B0492134423F07F43436101230C93AC
:105630009AF81830079308F0E7FF9AF80960DAF84B
:1056400000300093731EDAF804500290DBB2002E93
:1056500000F0BD8305EBC3080026FF2303930595E7
:105660000896CDF804A0D8F804B04FF0000A98F8D6
:10567000032098F802900FFA89F101EB810009F1FB
:10568000010301EB40044A45DBB20BEB840561D01A
:1056900098F80010994208BF002388F802301BF8E0
:1056A00024006978042839D901EB810301EB430711
:1056B000009B03EB870608287278B37822D8D21AA9
:1056C00012F0FF022CD106281CD1019BDB7E8B42FD
:1056D00051D00BF824A06B6A85F802A0002BC6D02D
:1056E000A96A0020984798F8032098F80290C2E72A
:1056F000446A0421034601220420A4460FB0BDE8F9
:10570000F04F60470BF824A04FF00103AB706B6AB9
:10571000002BACD0A96A01209847A8E79946AAE7D0
:1057200005281FD16B684BB9AB683BB9EB682BB947
:105730002B691BB96B6933F07F43E3D0012A1CD07E
:10574000019B04215C6A01220846A047012388F8D6
:1057500002900893059A9045A8F1080300F0DE80B6
:10576000984680E7012A00F09B800628E8D1019B3B
:10577000DB7E8B42ADD16968B2E0DDF8049048462B
:10578000FFF762FCB060D9F814C0029B049AA3EB47
:105790000C0323F07F431344984240F2B980C01AAF
:1057A0007368002B56D0AB8A002B53D0013B9AB2C2
:1057B000AA827168F38B884226D901F10109CDF8DC
:1057C00018B009941BE0726ADFF854B2954C934408
:1057D000A34584BF02F1E87202F5D432CE46346AA2
:1057E00094BF8E4602F5A572013BA0EB0E00121B82
:1057F0009BB288427262F38340F2A881AA8A9342E4
:10580000E1D8DDF818B0099C934222D24A1CD6F8A0
:1058100020E00692CDF824B00B94726ADFF800B253
:10582000804C72449344A345894607D8A2F1E8729C
:10583000A2F5D432DDF81890A2F5A57201339BB21F
:105840007262F383AA8A9A424844E6D8DDF824B00B
:105850000B9CB2836B680344B360AA6873691344FA
:105860007361029A61463046FFF72EFCEA68B3691D
:105870001344B3612A6993428CBF9B1A0023B3611E
:10588000AB7D1BB1F27863F30002F270009B039AC8
:1058900003F8272073786A7803920133737018E74E
:1058A00006283FF412AF019F3846FFF7CDFBB378CF
:1058B000B0607370FA7E6B789A427FF40AAF1BF87F
:1058C0002430062B3FF457AF019AFF23D3761BF801
:1058D0002430062B3FF44FAF082B3FF44CAF029916
:1058E000019B5A698B1A1E0209D4049A23F07F4344
:1058F00013440199CA699A4288BFCB61E9E6049BC7
:10590000521A22F07F4293428CBF9B1A0023F0E789
:10591000726913441B1A7361002041E7089EDDF889
:1059200004A0079B9AF818B0BBEB03050C9B18BFAB
:105930000125002B00F01481029B0A9A9B1A23F088
:105940007F49BBF1FF0FDAF80030009300F0AA8026
:10595000002706960595049EB84607E0A378637075
:105960009AF818B0BBF1FF0F00F09A80009B0BEB88
:105970008B050BEB450503EB8504A368B34200F2EE
:105980001182A1786278E08B521ADAF81C108B42EF
:10599000A6EB0306A9EB0309984431BFC91A4FF0DF
:1059A000FF3300218AF81B30CAF81C10A369D2B259
:1059B0000BB1022A15D00023A360009B13F82530F9
:1059C0008AF818306168C9B9002AC7D0012A01D005
:1059D0000028C3D0236A002BC0D0616A01209847F9
:1059E000BCE7002800F0D8800023A360009B13F8D8
:1059F00025308AF8183061680029EBD0B4F81EC051
:105A0000BCF1000F40F0A780B4F81CC0E646481C6B
:105A1000CDE90104D4E908730022704609E000BF13
:105A20005A2B17FF592B177F01388E46441C72449E
:105A300012D0DFF8E0E2B84C3B449E44A645F3D8D0
:105A4000DDF804E0A3F1E8730138A3F5D433441C76
:105A5000A3F5A5737244ECD1029C94F8280063620C
:105A6000002800F06F810A9BA260A4F81EC003EB1F
:105A7000080222F07F42DAF814102046FFF724FBD8
:105A8000009B039A03F825206378CDF80CB001330E
:105A9000DBB263709AF818B0BBF1FF0F7FF466AF0A
:105AA000DDE905560C9B079A039950465A4518BFE5
:105AB0001D46FFF72DFB9AF81830079A934258D0ED
:105AC000002E00F08880FF2B00F09481079AFF2AB7
:105AD00000F08081DAF8002003EB830103EB41033F
