:020000040000FA
:1000000000A00020E5510000AD720100D1510000B8
:10001000D1510000D1510000D1510000000000007A
:1000200000000000000000000000000091530000EC
:10003000D1510000000000005D530000D1510000CC
:100040003D550000E1E000003D5500003D55000039
:100050003D5500003D5500003D5500003D55000058
:100060003D5500003D5500003D5500003D55000048
:100070003D5500003D5500003D5500003D55000038
:100080003D5500003D5500003D5500003D55000028
:100090003D5500003D5500003D5500003D55000018
:1000A0003D5500003D5500003D5500003D55000008
:1000B0003D5500003D5500003D5500003D550000F8
:1000C0003D5500003D5500003D5500003D550000E8
:1000D0003D5500003D5500003D5500003D550000D8
:1000E0003D5500003D5500003D5500003D550000C8
:1000F0003D5500003D5500003D5500003D550000B8
:1001000001F0FF01102A2BDB10F0070F08D010F8C8
:10011000013B013A8B422DD010F0070F42B3F6D1CC
:10012000F0B441EA012141EA014122F007047FF0E5
:1001300000070023F0E80256083C85EA010586EA3C
:10014000010685FA47F5A3FA87F586FA47F6A5FA78
:1001500087F68EB9EED1F0BC01F0FF0102F0070284
:1001600032B110F8013B013A83EA010313B1F8D12F
:100170000020704701387047002D06BF3546033810
:10018000073815F0010F07D1013015F4807F02BF49
:10019000013015F4C03F0130F0BC0138704700BF9A
:1001A00081F0004102E000BF83F0004330B54FEA28
:1001B00041044FEA430594EA050F08BF90EA020F95
:1001C0001FBF54EA000C55EA020C7FEA645C7FEA28
:1001D000655C00F0E2804FEA5454D4EB5555B8BF4B
:1001E0006D420CDD2C4480EA020281EA030382EABC
:1001F000000083EA010180EA020281EA0303362D4E
:1002000088BF30BD11F0004F4FEA01314FF4801C20
:100210004CEA113102D0404261EB410113F0004F32
:100220004FEA03334CEA133302D0524263EB4303E9
:1002300094EA050F00F0A780A4F10104D5F1200E87
:100240000DDB02FA0EFC22FA05F2801841F10001E2
:1002500003FA0EF2801843FA05F359410EE0A5F1B6
:1002600020050EF1200E012A03FA0EFC28BF4CF0E7
:10027000020C43FA05F3C01851EBE37101F000459D
:1002800007D54FF0000EDCF1000C7EEB00006EEBAA
:100290000101B1F5801F1BD3B1F5001F0CD3490834
:1002A0005FEA30004FEA3C0C04F101044FEA44528B
:1002B00012F5800F80F09A80BCF1004F08BF5FEA12
:1002C000500C50F1000041EB045141EA050130BDF2
:1002D0005FEA4C0C404141EB0101013C28BFB1F504
:1002E000801FE9D291F0000F04BF01460020B1FA4F
:1002F00081F308BF2033A3F10B03B3F120020CDA22
:100300000C3208DD02F1140CC2F10C0201FA0CF0FF
:1003100021FA02F10CE002F11402D8BFC2F1200C64
:1003200001FA02F120FA0CFCDCBF41EA0C0190401A
:10033000E41AA2BF01EB0451294330BD6FEA040463
:100340001F3C1CDA0C340EDC04F11404C4F120024E
:1003500020FA04F001FA02F340EA030021FA04F360
:1003600045EA030130BDC4F10C04C4F1200220FAB7
:1003700002F001FA04F340EA0300294630BD21FAF5
:1003800004F0294630BD94F0000F83F4801306BFBB
:1003900081F480110134013D4EE77FEA645C18BFAF
:1003A0007FEA655C29D094EA050F08BF90EA020F46
:1003B00005D054EA000C04BF1946104630BD91EA3E
:1003C000030F1EBF0021002030BD5FEA545C05D141
:1003D0004000494128BF41F0004130BD14F5800480
:1003E0003CBF01F5801130BD01F0004545F0FE41F4
:1003F00041F470014FF0000030BD7FEA645C1ABF29
:10040000194610467FEA655C1CBF0B46024650EA5F
:10041000013406BF52EA033591EA030F41F400218B
:1004200030BD00BF90F0000F04BF0021704730B511
:100430004FF4806404F132044FF000054FF00001E6
:1004400050E700BF90F0000F04BF0021704730B5A7
:100450004FF4806404F1320410F0004548BF40427C
:100460004FF000013EE700BF42004FEAE2014FEAD1
:1004700031014FEA02701FBF12F07F4393F07F4FAC
:1004800081F06051704732F07F4208BF704793F0AF
:100490007F4F04BF41F40021704730B54FF46074C2
:1004A00001F0004521F000411CE700BF50EA0102C5
:1004B00008BF704730B54FF000050AE050EA01026E
:1004C00008BF704730B511F0004502D5404261EBDE
:1004D00041014FF4806404F132045FEA915C3FF41F
:1004E000D8AE4FF003025FEADC0C18BF03325FEABC
:1004F000DC0C18BF033202EBDC02C2F1200300FA6D
:1005000003FC20FA02F001FA03FE40EA0E0021FA91
:1005100002F11444BDE600BF70B54FF0FF0C4CF47F
:10052000E06C1CEA11541DBF1CEA135594EA0C0F31
:1005300095EA0C0F00F0DEF82C4481EA030621EA6C
:100540004C5123EA4C5350EA013518BF52EA0335A7
:1005500041F4801143F4801338D0A0FB02CE4FF059
:100560000005E1FB02E506F00042E0FB03E54FF089
:100570000006E1FB03569CF0000F18BF4EF0010E81
:10058000A4F1FF04B6F5007F64F5407404D25FEA7D
:100590004E0E6D4146EB060642EAC62141EA555130
:1005A0004FEAC52040EA5E504FEACE2EB4F1FD0C72
:1005B00088BFBCF5E06F1ED8BEF1004F08BF5FEAF0
:1005C000500E50F1000041EB045170BD06F00046A2
:1005D00046EA010140EA020081EA0301B4EB5C044F
:1005E000C2BFD4EB0C0541EA045170BD41F4801147
:1005F0004FF0000E013C00F3AB8014F1360FDEBF6C
:10060000002001F0004170BDC4F10004203C35DA47
:100610000C341BDC04F11404C4F1200500FA05F3CA
:1006200020FA04F001FA05F240EA020001F000426B
:1006300021F0004110EBD37021FA04F642EB0601E1
:100640005EEA430E08BF20EAD37070BDC4F10C040B
:10065000C4F1200500FA04F320FA05F001FA04F2CF
:1006600040EA020001F0004110EBD37041F10001BB
:100670005EEA430E08BF20EAD37070BDC4F12005C6
:1006800000FA05F24EEA020E20FA04F301FA05F22E
:1006900043EA020321FA04F001F0004121FA04F2D6
:1006A00020EA020000EBD3705EEA430E08BF20EAA6
:1006B000D37070BD94F0000F0FD101F000464000E0
:1006C00041EB010111F4801F08BF013CF7D041EA62
:1006D000060195F0000F18BF704703F00046520066
:1006E00043EB030313F4801F08BF013DF7D043EA37
:1006F0000603704794EA0C0F0CEA135518BF95EAED
:100700000C0F0CD050EA410618BF52EA4306D1D173
:1007100081EA030101F000414FF0000070BD50EA92
:10072000410606BF1046194652EA430619D094EA1C
:100730000C0F02D150EA013613D195EA0C0F05D106
:1007400052EA03361CBF104619460AD181EA03015A
:1007500001F0004141F0FE4141F470014FF0000012
:1007600070BD41F0FE4141F4780170BD70B54FF0AD
:10077000FF0C4CF4E06C1CEA11541DBF1CEA13552D
:1007800094EA0C0F95EA0C0F00F0A7F8A4EB05040F
:1007900081EA030E52EA03354FEA013100F0888006
:1007A0004FEA03334FF0805545EA131343EA1263CF
:1007B0004FEA022245EA111545EA10654FEA002684
:1007C0000EF000419D4208BF964244F1FD0404F53D
:1007D000407402D25B084FEA3202B61A65EB030599
:1007E0005B084FEA32024FF480104FF4002CB6EB56
:1007F000020E75EB030E22BFB61A754640EA0C00D6
:100800005B084FEA3202B6EB020E75EB030E22BF15
:10081000B61A754640EA5C005B084FEA3202B6EB56
:10082000020E75EB030E22BFB61A754640EA9C0015
:100830005B084FEA3202B6EB020E75EB030E22BFE5
:10084000B61A754640EADC0055EA060E18D04FEAA3
:10085000051545EA16754FEA06164FEAC30343EA43
:1008600052734FEAC2025FEA1C1CC0D111F4801F10
:100870000BD141EA00014FF000004FF0004CB6E709
:1008800011F4801F04BF01430020B4F1FD0C88BFA8
:10089000BCF5E06F3FF6AFAEB5EB030C04BFB6EBB3
:1008A000020C5FEA500C50F1000041EB045170BDA6
:1008B0000EF0004E4EEA113114EB5C04C2BFD4EBD3
:1008C0000C0541EA045170BD41F480114FF0000E57
:1008D000013C90E645EA060E8DE60CEA135594EAD3
:1008E0000C0F08BF95EA0C0F3FF43BAF94EA0C0FD6
:1008F0000AD150EA01347FF434AF95EA0C0F7FF44B
:1009000025AF104619462CE795EA0C0F06D152EA9E
:1009100003353FF4FDAE1046194622E750EA410682
:1009200018BF52EA43067FF4C5AE50EA41047FF493
:100930000DAF52EA43057FF4EBAE12E74FF0FF3CF8
:1009400006E000BF4FF0010C02E000BF4FF0010CC9
:100950004DF804CD4FEA410C7FEA6C5C4FEA430C42
:1009600018BF7FEA6C5C1BD001B050EA410C0CBF91
:1009700052EA430C91EA030F02BF90EA020F0020F3
:10098000704710F1000F91EA030F58BF994208BF5A
:1009900090422CBFD8176FEAE37040F00100704717
:1009A0004FEA410C7FEA6C5C02D150EA013C07D16E
:1009B0004FEA430C7FEA6C5CD6D152EA033CD3D0B9
:1009C0005DF8040B704700BF8446104662468C46B3
:1009D0001946634600E000BF01B5FFF7B7FF0028E6
:1009E00048BF10F1000F01BD4DF808EDFFF7F4FF0F
:1009F0000CBF012000205DF808FB00BF4DF808ED9A
:100A0000FFF7EAFF34BF012000205DF808FB00BFBC
:100A10004DF808EDFFF7E0FF94BF012000205DF8DE
:100A200008FB00BF4DF808EDFFF7CEFF94BF012093
:100A300000205DF808FB00BF4DF808EDFFF7C4FF8C
:100A400034BF012000205DF808FB00BF4FEA410CD5
:100A50007FEA6C5C02D150EA013C0AD14FEA430CB8
:100A60007FEA6C5C02D152EA033C02D14FF00000F5
:100A700070474FF0010070474FEA410212F5001233
:100A800015D211D56FF47873B3EB625212D94FEAD5
:100A9000C12343F0004343EA505311F0004F23FABF
:100AA00002F018BF404270474FF00000704750EA14
:100AB000013005D111F0004008BF6FF000407047D1
:100AC0004FF00000704700BF4FEA4102B2F1E0432F
:100AD00024BFB3F5001CDCF1FE5C0DD901F0004C25
:100AE0004FEAC0024CEA5070B2F1004F40EB830075
:100AF00008BF20F00100704711F0804F21D113F1A1
:100B00003872BCBF01F00040704741F480114FEAD9
:100B10005252C2F11802C2F1200C10FA0CF320FA62
:100B200002F018BF40F001004FEAC1234FEAD3237F
:100B300003FA0CFC40EA0C0023FA02F34FEA4303E9
:100B4000CCE77FEA625307D150EA01331EBF4FF072
:100B5000FE4040F44000704701F0004040F0FE408D
:100B600040F40000704700BF80F0004002E000BF8A
:100B700081F0004142001FBF5FEA410392EA030F88
:100B80007FEA226C7FEA236C6AD04FEA1262D2EBD2
:100B90001363C1BFD218414048404140B8BF5B42D7
:100BA000192B88BF704710F0004F40F4000020F070
:100BB0007F4018BF404211F0004F41F4000121F086
:100BC0007F4118BF494292EA030F3FD0A2F10102D0
:100BD00041FA03FC10EB0C00C3F1200301FA03F10E
:100BE00000F0004302D5494260EB4000B0F5000F31
:100BF00013D3B0F1807F06D340084FEA310102F1F0
:100C00000102FE2A51D2B1F1004F40EBC25008BFA1
:100C100020F0010040EA03007047490040EB00006B
:100C2000013A28BFB0F5000FEDD2B0FA80FCACF16C
:100C3000080CB2EB0C0200FA0CF0AABF00EBC25099
:100C400052421843BCBFD0401843704792F0000F87
:100C500081F4000106BF80F400000132013BB5E7DA
:100C60004FEA41037FEA226C18BF7FEA236C21D050
:100C700092EA030F04D092F0000F08BF08467047B5
:100C800090EA010F1CBF0020704712F07F4F04D183
:100C9000400028BF40F00040704712F100723CBF96
:100CA00000F50000704700F0004343F0FE4040F4C0
:100CB000000070477FEA226216BF08467FEA23637E
:100CC0000146420206BF5FEA412390EA010F40F469
:100CD000800070474FF0000304E000BF10F00043B5
:100CE00048BF40425FEA000C08BF704743F096439C
:100CF00001464FF000001CE050EA010208BF7047B7
:100D00004FF000030AE000BF50EA010208BF70473D
:100D100011F0004302D5404261EB41015FEA010C52
:100D200002BF84460146002043F0B64308BFA3F14A
:100D30008053A3F50003BCFA8CF2083AA3EBC2532C
:100D400010DB01FA02FC634400FA02FCC2F120024B
:100D5000BCF1004F20FA02F243EB020008BF20F082
:100D60000100704702F1200201FA02FCC2F12002E8
:100D700050EA4C0021FA02F243EB020008BF20EADD
:100D8000DC7070474FF0FF0C1CEAD0521EBF1CEA0B
:100D9000D15392EA0C0F93EA0C0F6FD01A4480EAF9
:100DA000010C400218BF5FEA41211ED04FF00063E2
:100DB00043EA501043EA5111A0FB01310CF000400E
:100DC000B1F5000F3EBF490041EAD3715B0040EA34
:100DD000010062F17F02FD2A1DD8B3F1004F40EB04
:100DE000C25008BF20F00100704790F0000F0CF0D7
:100DF000004C08BF49024CEA502040EA51207F3A9B
:100E0000C2BFD2F1FF0340EAC250704740F4000075
:100E10004FF00003013A5DDC12F1190FDCBF00F066
:100E200000407047C2F10002410021FA02F1C2F114
:100E3000200200FA02FC5FEA310040F1000053EAB0
:100E40004C0308BF20EADC70704792F0000F00F0FE
:100E5000004C02BF400010F4000F013AF9D040EA04
:100E60000C0093F0000F01F0004C02BF490011F498
:100E7000000F013BF9D041EA0C018FE70CEAD15396
:100E800092EA0C0F18BF93EA0C0F0AD030F0004C16
:100E900018BF31F0004CD8D180EA010000F00040CA
:100EA000704790F0000F17BF90F0004F084691F088
:100EB000000F91F0004F14D092EA0C0F01D14202C2
:100EC0000FD193EA0C0F03D14B0218BF084608D18B
:100ED00080EA010000F0004040F0FE4040F40000D5
:100EE000704740F0FE4040F4400070474FF0FF0C68
:100EF0001CEAD0521EBF1CEAD15392EA0C0F93EAAF
:100F00000C0F69D0A2EB030280EA010C49024FEA00
:100F1000402037D04FF0805343EA111143EA1013B9
:100F20000CF000408B4238BF5B0042F17D024FF471
:100F3000000C8B4224BF5B1A40EA0C00B3EB510F4C
:100F400024BFA3EB510340EA5C00B3EB910F24BF35
:100F5000A3EB910340EA9C00B3EBD10F24BFA3EBBA
:100F6000D10340EADC001B0118BF5FEA1C1CE0D182
:100F7000FD2A3FF650AF8B4240EBC25008BF20F035
:100F8000010070470CF0004C4CEA50207F32C2BF89
:100F9000D2F1FF0340EAC250704740F400004FF026
:100FA0000003013A37E792F0000F00F0004C02BF57
:100FB000400010F4000F013AF9D040EA0C0093F021
:100FC000000F01F0004C02BF490011F4000F013B7B
:100FD000F9D041EA0C0195E70CEAD15392EA0C0FE3
:100FE00008D142027FF47DAF93EA0C0F7FF470AF1B
:100FF000084676E793EA0C0F04D14B023FF44CAF5E
:1010000008466EE730F0004C18BF31F0004CCAD1F2
:1010100030F000427FF45CAF31F000437FF43CAF2E
:101020005FE700BF4FF0FF3C06E000BF4FF0010C50
:1010300002E000BF4FF0010C4DF804CD4FEA400232
:101040004FEA41037FEA226C18BF7FEA236C11D07C
:1010500001B052EA530C18BF90EA010F58BFB2EB2F
:10106000030088BFC81738BF6FEAE17018BF40F0AF
:10107000010070477FEA226C02D15FEA402C05D163
:101080007FEA236CE4D15FEA412CE1D05DF8040BE8
:10109000704700BF844608466146FFE70FB5FFF77B
:1010A000C9FF002848BF10F1000F0FBD4DF808ED33
:1010B000FFF7F4FF0CBF012000205DF808FB00BF24
:1010C0004DF808EDFFF7EAFF34BF012000205DF87E
:1010D00008FB00BF4DF808EDFFF7E0FF94BF0120CB
:1010E00000205DF808FB00BF4DF808EDFFF7D2FFC8
:1010F00094BF012000205DF808FB00BF4DF808ED0B
:10110000FFF7C8FF34BF012000205DF808FB00BFD7
:101110004FEA40024FEA41037FEA226C02D15FEAC4
:10112000402C08D17FEA236C02D15FEA412C02D126
:101130004FF0000070474FF00100704753B94AB9B3
:10114000002908BF00281CBF4FF0FF314FF0FF30CF
:1011500000F00CB8ADF1080C6DE904CE00F010F809
:10116000DDF804E0DDE9022304B07047704700BFFA
:10117000034613F8012B002AFBD1181A01387047D7
:101180002DE9F04786468C460846089E154674466B
:101190001946002B40F0C2808542B2FA82F245D94E
:1011A0004AB1C2F1200300FA02FC2EFA03F3954083
:1011B00043EA0C0C94404FEA154EA8B2BCFBFEF873
:1011C000230C0EFB18CC08FB00F943EA0C439945AD
:1011D00028D9EB1808F1FF3704D2994502D9A8F1B4
:1011E00002072B44A3EB0903A4B2B3FBFEFC0EFBE6
:1011F0001C330CFB00F044EA0344A04214D92C1920
:101200000CF1FF3304D2A04202D9ACF102032C440A
:10121000241A43EA07401EB1D440002334607360AF
:10122000BDE8F0874746DDE76346F1E792BB431B25
:1012300001214FEA154EAFB2B3FBFEFC200C0EFBB2
:101240001C330CFB07F840EA0343984562D9EB18BE
:101250000CF1FF3004D2984502D9ACF102002B44C6
:10126000A3EB0803A4B2B3FBFEFC0EFB1C330CFB88
:1012700007F744EA0344A7424ED92C190CF1FF3377
:1012800004D2A74202D9ACF102032C44E41B43EA86
:101290000040C0E7C2F1200320FA03F195409040DE
:1012A0002EFA03F303434FEA154EAFB2B1FBFEFC37
:1012B0000EFB1C10190C0CFB07F841EA0041884595
:1012C00004FA02F422D969180CF1FF3004D28845DF
:1012D00002D9ACF102002944A1EB08019BB2B1FB99
:1012E000FEFC0EFB1C110CFB07F743EA01439F4277
:1012F0000ED9EB180CF1FF3104D29F4202D9ACF1A8
:1013000002012B44DB1B41EA004192E76046E3E720
:101310006146F7E76046A3E76346B7E7834206D92D
:1013200016B9002108467BE7C6E900E0F9E7B3FA01
:1013300083F78FB9834201D3724508D8BEEB02040C
:1013400060EB030301209C461EB9002168E7384684
:10135000FAE7C6E9004CF8E7C7F1200CBB4022FAD7
:101360000CF41C432EFA0CF120FA0CF3B8400143A4
:101370004FEA14490EFA07F5B3FBF9F81FFA84FE99
:1013800009FB18300B0C08FB0EFA43EA00439A45A0
:1013900002FA07F240D9E31808F1FF3004D29A4567
:1013A00002D9A8F102002344A3EB0A0389B2B3FBDC
:1013B000F9F809FB183308FB0EFE41EA03418E459C
:1013C0002CD9611808F1FF3304D28E4502D9A8F157
:1013D0000203214443EA0040A0FB0298A1EB0E0166
:1013E0004145CE46434602D306D14D4504D2B9EB22
:1013F000020E68EB04030138002EA6D0B5EB0E02F6
:1014000061EB030101FA0CFC22FA07F34CEA030337
:10141000F940C6E9003198E74046C5E74346D9E7B9
:101420002DE9F04F0E468BB004AF05F06FFF7379D6
:10143000B27AB579042B014696BF9148914B50F88A
:101440002330F079022800F0948000F28B808E4CDB
:10145000DFF838C2002818BF6446B6F902000095CC
:10146000CDE901408A4815F056FDF47A002C40F091
:10147000D38096F80A90C7F814D0A9F108084FEA6B
:101480008803DA1D22F00702ADEB020D23F00703FB
:1014900004ADADEB030DA9F1090A0DF1100BF368D2
:1014A0003B611A1918577A60FFF718FC7A68B86020
:1014B00092F90100FFF712FC0234B96816F08DFFB3
:1014C000102C3B69EBD103F110040026B04504F168
:1014D000020450DC0026B24563DC00250024AA4546
:1014E00000F39280B9F1050FA9F106004FEA9000D0
:1014F00098BF0020FFF7F2FB01462046FFF7F6FCFD
:101500000446FEF7B1FF02460B466248624D14F0F6
:101510001DFB624B20461968FFF734FC296804461E
:101520000846FFF727FB5E4B1968FFF72BFC0146C7
:101530002046FFF7DBFC13F0F9FB5A4BD7F814D029
:1015400018605949FFF71EFC2968FFF7CFFCFEF72A
:101550008BFF02460B46554814F0F8FA1C37BD467F
:10156000BDE8F08F524CDFF81CC1FF2818BF64465D
:1015700073E7504C71E714F9020CFEF763FF024663
:101580000B46C7E9022314F9010CFEF75BFFD7E90C
:10159000022316F020FFFFF797FA45F826000136E0
:1015A00094E72B4629685868FFF7E2FA3A4BD3F8DC
:1015B0000080414604350446FFF7A0FD40B1414696
:1015C0004046FFF7D7FA01462046FFF7D1FA044616
:1015D00008F100402146FFF791FD40B141464046E9
:1015E000FFF7C8FA01462046FFF7C4FA04464BF855
:1015F00026402046FEF738FF02460B462E4831466D
:1016000014F0A4FA013666E75BF825102046FFF7D0
:10161000B1FA0435044662E7012C22D0274815F0C0
:101620007AFC9BE7F36833F9240003EB840BFFF7A4
:1016300055FB0546BBF90200FFF750FB294616F0A3
:10164000CCFEFEF711FF42464B46FEF765FF024611
:101650000B46504614F07AFA0134B37AA342E1DC27
:101660007CE70FF21409D9E90089DFF854A00024BF
:10167000F3E700BFAFF30080872EDE7913A64C405E
:10168000F88F0100E09F010000A00100E89F010029
:1016900032A00100A4A00100E4050020E005002024
:1016A0006C0F0020680F002000003443B3A001003D
:1016B00025A0010007A001008EA00100DEA001000E
:1016C000C6A00100000000002DE9F843D0E906386B
:1016D000456903EB08042F34A5420F46164619D876
:1016E000DFF86C80A3FB080117A3D3E90023FFF701
:1016F00025FD0346601BA0FB080123F07F4412A3D5
:10170000D3E90023FFF71AFD20F07F403C603060F2
:10171000BDE8F883DFF838900BA3D3E90023A5FBDD
:101720000901FFF70BFD20F07F440A480A2106A3B8
:10173000D3E90023E8FB0901FFF700FD20F07F401B
:101740003C603060BDE8F8838D49FD1A0700000059
:1017500000CA9A3B00166BF170B5234C9DF810E05F
:1017600094F846C01CF0020F36D1460816F0040566
:1017700032D149B363F3830C400194F82030A18641
:101780004FEACE0E0EF0180E00F0200040EA0E00D8
:1017900023F03803184394F82C3084F820001348C1
:1017A00084F846C066F3020384F82C309121A2FB32
:1017B000000301FB02310AA3D3E90023FFF7BEFCBB
:1017C000C4E90E00284670BD94F82C3065F302037E
:1017D00084F82C30284670BD0C25284670BD00BF0B
:1017E0008D49FD1A07000000A80C0020002AE7849C
:1017F0002DE9F04390F8463090F82020464D6FF3E5
:101800000003044600F12D01C3F3800060F386124B
:101810008DB084F8463084F8202007F07FFA94F8E1
:101820002020A38E3D48E46102F079024FF00009C8
:1018300084F820209121A3FB0002C4E9059984F8D3
:10184000009001FB032132A3D3E90023FFF776FCCC
:10185000E26BC4F8049002F10E03984288BF194667
:10186000A4EB05052E4BC4F80C904FEA95059CBFE0
:101870004A460146A3FB05353123A2632161A360DB
:10188000064607F00DFA4F460DF12C08CDF82080E2
:1018900006940397A38E00F10E0920489121A3FB23
:1018A000000201FB0321236904931E4B07931E4B87
:1018B000059302230B9316A3D3E90023FFF73EFC05
:1018C000104619464FF47A720023FFF737FCC5F330
:1018D00087050235EDB2CDE9016003214B462A466A
:1018E0000097384607F0E8F8414607F09BFF40B9FB
:1018F00094F8463043F0020384F846300DB0BDE85A
:10190000F0830C200DB0BDE8F08300BFAFF3008082
:101910008D49FD1A07000000A80C0020002AE7846A
:10192000310CC330E58D000049C00000000000000C
:101930002DE9F04F0B79092B93B00C46074600F0C8
:101940004E820D2B00F0E981062B17D0084A094979
:10195000094840F2471315F019FB002383F311885F
:10196000BFF36F8F0323184602DF13B0BDE8F08F7B
:1019700004950100C091010038910100D1F808B030
:10198000DBF808306BB1C44AC449C548922315F04E
:10199000FDFA002383F31188BFF36F8F03231846EA
:1019A00002DFDBF8008098F849301D0754BFD8F8F3
:1019B0005030002340460B930AF07CFE0230C3B245
:1019C0000E93637E2760002565F3C713637694F852
:1019D0002130E560002B00F0E983CDE90C550122B0
:1019E0000F92A9462E4694F82220910600F03B82E1
:1019F00094F9232094F82330002AC0F2C881DA0732
:101A000004F1240A0AD50B9A32B198F8492002F061
:101A10003002202A40F0408304F12A0A980748BF88
:101A20000AF1060A590748BF0AF1010A13F0080231
:101A300016BF514611460AF1020A13F0100216BFF2
:101A4000CDF840A010920AF1030A9A0618D50AF1BF
:101A50001202002E00F07C820B98002800F07882A1
:101A6000002900F0758249781192090940460BF06F
:101A700063FE119A002840F0EF8394F823309246D9
:101A800094F82210580648BF0AF1010AC1F3050173
:101A900004F122030131AAEB0303DBB2C9B28B428A
:101AA0009EBFCB1ADAB20B4694F8211088BF0022F1
:101AB000994288BFCB1A21798CBFDBB200230D2954
:101AC00000F02082109A002A00F026829078517847
:101AD000020202F4F8520A4300F01E82002D40F088
:101AE000CD824009022800F2688300F066831098D6
:101AF0000F9D90F9000094F82110002805F00300D4
:101B0000084400F10900C5F340014FEAC000ACBF32
:101B10001E254FF49675C84005FB02FA0AEB050135
:101B200000F5967291420F90C0F03181002E00F0C6
:101B3000F183B9F1000F00F0C183D9F80010B1F8BA
:101B4000C02013449BB21E2BA1F8C030A38304D93C
:101B5000A37E13F0010300F033840C9910980B79E5
:101B6000027862F305030B7182780123084652095B
:101B70004979934063F302014171A37EDB0700F1D1
:101B8000F083BBF1000F00F0A782B8F1000F00F066
:101B9000378498F8463013F0010340F00782CBF801
:101BA0000830109BDDF830801B7898F80500DFF8CE
:101BB000F49013F0400F14BF32274FF4FA773A4BEA
:101BC00007FB0AF7A3FB0737BF0C07F12F0305EB51
:101BD0004303C8F80830012100F007000CF0BEFEF6
:101BE0000025636975603122B260F56098F80520C0
:101BF000A3F12F080F9BA8EB030802F0030309339E
:101C0000C2F34002DB00D340D04403F5EA7303443F
:101C1000A8EB000825480721E3FB09011CA3D3E931
:101C20000023FFF78BFAA8EB070820F07F4018A3EA
:101C3000D3E900233061A8FB0901FFF77FFA2A46A8
:101C400020F07F470221012005F018FE0E9BFF2B9C
:101C500030D0CDE900551A4623693F3B3B44012172
:101C6000284606F097FF10F0FD0F23D00A4A1049CE
:101C70000B4840F20E3315F089F985F31188BFF354
:101C80006F8F0323184602DF14E000BFAFF300801C
:101C90008D49FD1A0700000004950100A095010080
:101CA0003891010000CA9A3B83DE1B438C49FD1A20
:101CB0007C960100B3493C22304605F079FDB24ADA
:101CC0002369CDE90726B14ACDE905263169009798
:101CD0000024C21CCDE90341CDE901443F3BD2B20F
:101CE0000121204606F0E8FE10F0FD0F0DD0A84AB5
:101CF000A849A94840F21E3315F048F984F3118829
:101D0000BFF36F8F0323184602DF01220221104622
:101D100013B0BDE8F04F05F0B1BDD1F80890D9F887
:101D20003C3073B19A4A9D499B484FF4947315F027
:101D30002DF9002383F31188BFF36F8F0323184617
:101D400002DFD9F8005028460BF096FCE368E080EB
:101D5000284699F80B600D930BF08EFC637E27608C
:101D6000002565F3C713637694F82130E56006F02B
:101D70000706002B69D10B9398461E46D9F8002020
:101D8000B2F8C00000210344A383A2F8C0100B9B4B
:101D9000002B00F0DF8098F8493003F03003202B4F
:101DA00000F0878098F849306FF3051388F84930C0
:101DB000002E6DD0336B002B00F0008198F8462088
:101DC000D10700F1F581DC603463B46A002C00F0C7
:101DD0004481304613B0BDE8F04F0AF06FBE8B6807
:101DE0000C931A46674B16689E4266D1D6F828B007
:101DF000BBF1000F00F063833C223146304605F012
:101E0000D7FC0330C3B20E93DBF8005028460AF02B
:101E10006DFC8046002800F0AE810C9B5A7990F84A
:101E2000493002F00702180754BFD8F85030002399
:101E3000012A0B9300F02081022A00F0D380544A3B
:101E40005749554840F2051385E50430C2B20E9259
:101E500094F822200F969106AB460B95A8462E4685
:101E60000C957FF4C5AD013BDBB2B9F1000F85D114
:101E7000002E40F0CA80A3830B9B4BB198F84930E9
:101E800003F03002202A03D06FF3051388F849309D
:101E90002146384607F0ACFC0D9A2AB101231068A0
:101EA0001371114607F0A4FC13B0BDE8F04F07F022
:101EB000A5BC002E7FF47EAFEAE730460AF016FCA0
:101EC0008346002800F08A81D4F808B0DBF8083097
:101ED0000C93002B00F0F1800C9B1E68B36A5B45ED
:101EE0000DD02B4A2F492C48D22315F04FF8002350
:101EF00083F31188BFF36F8F0323184602DFFF239C
:101F00000E9381E7002A3FF4DDADA079119351468D
:101F10000BF050FD119BD5E5B9F1000F00F01181D8
:101F2000D9F80010B1F8C02000201344A383A1F811
:101F3000C000002D3FF42BAF002E00F0F180336B7A
:101F4000002B00F0ED80DC60346313B0BDE8F08F4F
:101F5000924695E5002E9BD0336B7BB3B8F1000F12
:101F60000DD10B4A10490C484FF44E7315F00EF882
:101F700088F31188BFF36F8F0323184602DF336B9A
:101F80001CE700BF0C47002099C7000051C80000A3
:101F900004950100AC96010038910100E495010020
:101FA000C0910100B8950100FC9401000B9B002B2F
:101FB00040F00B82336B002B40F0FA80B9F1000F38
:101FC0003AD02146384607F01FFCD9F8003093F884
:101FD00096301A077FF5F9AED9F83C30002B3FF464
:101FE000F4AEC2E40723657E237100212B4661F322
:101FF000C713637694F821302760E1602BB18946DE
:102000000F92C5F380050D91EDE4B28E13449BB29F
:10201000B386A3830B9B002B00F0DB8098F849303C
:1020200003F03002202A43D06FF3051388F84930BB
:10203000336B002B7FF4C2AE984A9949994840F21D
:10204000563314F0A3FF4FF0000989F31188BFF352
:102050006F8F0323184602DFB3E7904A92499148F5
:102060004FF4587314F092FF84F31188BFF36F8F0D
:102070000323184602DFACE60623B4E7B9F1000FEC
:1020800000F0E180D9F80010B1F8C020134400221C
:10209000A383A1F8C0204FE794F8201000235246F4
:1020A000C1F3801140460BF013FB94F82330B3E4E6
:1020B000336B002B7FF482AEBEE7784A7B497948C8
:1020C000CF2314F063FF0C9B83F31188BFF36F8F52
:1020D0000323184602DFFFE6D9F83C309BB1D9F85C
:1020E0003C300C9A93420ED06C4A71496D4840F2D4
:1020F000BB2314F04BFF002383F31188BFF36F8FD2
:102100000323184602DFD9F8003093F896301807F9
:1021100000F1BD810C9BC9F83C30F46241E5A3831A
:102120005E4A64495F484FF4FC7314F02FFF0023AC
:1021300083F31188BFF36F8F0323184602DF336BDD
:1021400001E7002E76D0B28E13449BB2B386A383F0
:10215000002D7FF4F4AE0B9B002B3FF4FDAE98F8FE
:10216000493003F03002202A3FF424AE6FF3051308
:1021700088F849301EE60C9B5B7903F00703814623
:102180000F930D23284623710BF076FA637EE080CF
:10219000002565F3C713637694F821302760E56066
:1021A000002B3FD00B95A8460D951CE40D9362E6DD
:1021B0009C427FF4C8AEFFF7D8BBB9F1000F55D0F1
:1021C000D9F80010B1F8C0201344A383A1F8C0507F
:1021D000DDE5336B002B7FF4C1AE2DE7D4F808901A
:1021E000D9F83C300C93002B48D00C9B1E68B36A86
:1021F0004B450DD0294A30492A48E12314F0C6FE48
:10220000002383F31188BFF36F8F0323184602DF87
:102210000C9BD9F800505B7903F007030F93FF2361
:102220000E93AEE70B9398460D93B9F1000F7FF430
:10223000A5AD1DE6A383002D7FF472AF0B9B002B91
:102240007FF41CAE24E6002E3FF469AFB28E134437
:102250009BB2B386A38372E653463146924640460C
:10226000224600F04DF994F8233009E4002E4FD0B7
:10227000B28E13449BB2B386A3836CE7074A0B4923
:102280000848DE2314F082FE0C9B83F31188BFF311
:102290006F8F0323184602DFA7E700BF04950100F4
:1022A0004895010038910100D8950100B0950100D2
:1022B00038960100F8950100CC950100B28E1344C8
:1022C0009BB21E2BB38603D9A37EDA0740F1A88008
:1022D000336B002B00F08480DC600C99B38E109877
:1022E0003463A38302780B7962F305030B71827860
:1022F0000846497952090123934063F30201417171
:10230000A37EDB073FD4BBF1000F7FF43EACEBE6CE
:10231000A38393E774480C9305F020FA0C9B0028E4
:1023200000F092800D9A826390F82020067066F388
:10233000C71280F82020BBF1000F14BF5A464A464E
:10234000826200F11C02C0E90566C66206638386EC
:10235000C0610C92B9F1000F3FD00D960646FFF711
:10236000ECBB0C9BC9F83C30637E43F080032146F4
:102370006376384607F048FA0C9A13796FF38613A0
:102380001371FFF7F2BADBF808308BB10C9A934265
:102390000ED0564A5649574840F2962314F0F6FD9F
:1023A000002383F31188BFF36F8F0323184602DFE6
:1023B0000C9BCBF80830637E43F080036376DBE749
:1023C000A1F8C0300B9B002B64D098F8493003F083
:1023D0003003202B7FF4E6ACECE40646CDF83490D5
:1023E000C6E90B440C99B38E1098A38302780B793D
:1023F00062F305030B7182780846520949797AE73E
:102400003A4A3D493B4840F2AD2314F0BFFD88F302
:102410001188BFF36F8F0323184602DFFFF7B9BBA4
:102420000B9B002B3FF4D5AE98F8493003F03002F7
:10243000202A3FF43DAE69F3051388F84930336B29
:10244000002B7FF4BBACF7E5A27ED10703D5627EFB
:1024500042F080026276B9F1000F20D0D9F8000076
:10246000B0F8C0201344A3830B9B0021A0F8C01038
:10247000002B3FF40DAD98F8493003F03002202ACC
:102480003FF406AD61F3051388F8493000E50B9B76
:10249000002B9AD1336B002B7FF460AD91E50B9B41
:1024A000002B3FF4F5AC98F8493003F03002202AB5
:1024B0003FF4EEAC69F3051388F84930E8E40B4AC1
:1024C0000E490C48BE2314F061FD8BF31188BFF355
:1024D0006F8F0323184602DF3C223146304605F059
:1024E00067F9DBF80030FFDE0847002004950100A3
:1024F0000C96010038910100FC94010078950100D0
:102500002DE9F04F046D94F83E6084F83F601D465D
:1025100081463223062010FB06306B6823502B7A4D
:10252000204403F01F0303718DB00F4606EB4606EF
:10253000052104EB4606904605F0ECFA96F8373094
:1025400000F03F0060F30503012886F8373040F2C1
:10255000408199F8493094F89620C3F3010363F35E
:10256000000284F89620D9F84A30C4F89030B9F8BF
:102570004E30A4F894302046D5F8093040F8203F7A
:102580000BF01AFC2086B5F80D30EA7B84F8262083
:10259000A3842B8AE38597F8212094F8273062F3EF
:1025A000020384F82730B5F802B0B4F8862040F270
:1025B000E2431FFA8BF603FB06F642F21071731E1C
:1025C00001FB0233B3FBF6F39BB2A4F88830B4F8F6
:1025D00088309BB2062B00F2FF800023A4F88430E1
:1025E00094F89630062262F3061384F8963095F834
:1025F00008A00CF03DFB4FEA5A1A074650460CF073
:1026000039FB3B1806FB03F37B4A7C4903F5742333
:1026100003F23F23A2FB03239B0C63647308963BE6
:10262000A3646B7813F0200F0CBF1E234FF4967336
:1026300063650023E36799F84930022262F30513CA
:1026400089F84930C422204605F0B2F8D4F8BC30ED
:102650000C22C3F80890A3F822B0D8801A7194F81D
:10266000272083F824A0C2F3020283F82120074622
:1026700094F82700012100F007000CF06FF995F89D
:1026800001E02B7894F827C098F82120D8F814108E
:10269000D4F854901EF0400F4FEA0E2E0EF4F85E60
:1026A0004EEA030E0CF003031A4402F10902CCF3C4
:1026B000400C4FEAC202A1F12F0522FA0CF209FBED
:1026C0000E55A5EB0205A5EB00050CBF00224FF44B
:1026D00016121544A5EB010940F28A22914503D850
:1026E000E28D01323544E2850933DB0023FA0CF335
:1026F00003F5EA73DFF8089118444FF0070B414BDC
:102700005946E0FB09311846636CF61A31234FF045
:10271000000AA360A6FB0932CDE90A32C4F804A07E
:1027200033A3D3E90023C4F80CA0FEF707FD364B12
:10273000C4F88C3020F07F462DA3D3E90023DDE9D7
:102740000A012661FEF7FAFC06940496D8F81030C8
:102750002E4A0792A3F13F082D4B0A9ACDF80CA000
:1027600020F07F44A4FB0331D01A0B9A294B059328
:102770000BFB041140F2723362EB010108934FF43A
:102780007A720023FEF7DAFC19A3D3E90023CDE91E
:102790000140A5FB0901FEF7D1FC043720F07F4082
:1027A000FFB2009043463A460121504606F084F9B4
:1027B00010F0FD0F0DD0184A1849194840F2733334
:1027C00014F0E4FB8AF31188BFF36F8F03231846DC
:1027D00002DF0DB0BDE8F08FB4F88830B4F8842083
:1027E000063B9BB29A427FF6FBAEF7E6AFF3008062
:1027F0008D49FD1A0700000083DE1B438C47002033
:1028000000CA9A3B8C49FD1AC10C010061D000003E
:102810008D49FD1A1DCF0000389701007894010002
:1028200038910100000000002DE9F0418AB0022338
:102830000C4615462C490993C42204F0B9FFDFF871
:10284000AC8009AB06932A4B0593002724A3D3E958
:102850000023061DA5FB0801CDE90377FEF76EFCFA
:10286000034623F07F430293A4FB08011CA3D3E992
:102870000023FEF763FCF6B220F07F40CDE9007044
:102880003B4632460321384606F032F910F0FD0F80
:102890000CD0099B022B19D1099B012B14BF6FF09F
:1028A0000B006FF001000AB0BDE8F0814FF0FF327D
:1028B0004FF0FF330F4811F06DFB099B012B14BF44
:1028C00038466FF00D000AB0BDE8F0814FF0FF32DE
:1028D0004FF0FF33074811F05DFBDDE7AFF30080F9
:1028E0008D49FD1A070000008C47002000CA9A3B62
:1028F00055D00000704700202DE9F041C4682379CD
:102900006FF300038CB023710F4605460EF080FC78
:1029100000200EF0A5FC207C012100F007000EF045
:1029200091FC227C9200252102F01C0208200EF06E
:10293000CFFC237C23F018030120237407F01AF83E
:102940000646002800F0848006F120000EF0F4FC1A
:102950005D4B0B930BA80EF0A3FC5C4940F25B604F
:102960000EF05AFD2079C0F3410025300BF0B2FF84
:10297000574821460EF00AFC23799B062ED5962057
:102980000EF07AFE00231A46194618460EF0A8FDEE
:10299000D4F800802E6840460BF07CFF06446A683D
:1029A00006F10E0100200EF073FE0EF093FF0EF004
:1029B0000BFE204609F08CFE811CC9B2404632460F
:1029C0000BF076FF0546002851D157B120460BF099
:1029D000FBFE68BB00200CB0BDE8F0810EF0E2FD0C
:1029E000D6E7E369002BF1D03A4907913A490591BE
:1029F00040F2F31100930891CDE90377CDE9017717
:102A0000069433460122394606F056F810F0FD0FC1
:102A1000DCD0324A324933484FF4FA7314F0B6FA34
:102A200087F31188BFF36F8F0323184602DFCDE7CA
:102A30002A4A2D492B4840F20B2314F0A7FA002311
:102A400083F31188BFF36F8F0323184602DFC1E7BA
:102A5000224A264923484FF4C57314F097FA86F3A7
:102A60001188BFF36F8F0323184602DF6CE71B4A00
:102A70001F491C4840F2E51314F088FA1D4B07214A
:102A8000A5FB030301FB05310DA3D3E90023FEF7EA
:102A900055FB19490246194814F078FA002585F3C8
:102AA0001188BFF36F8F0323184602DF14482146B5
:102AB0000EF06CFB0EF05CFC6FF08B008BE700BF40
:102AC00000CA9A3B00000000D6BE898E55555500BD
:102AD00059F300000DF0000041F00000049B0100DC
:102AE000789401003891010084920100509B01000C
:102AF000C09101008D49FD1AAC9B0100589B01005B
:102B000019ED0000000000002DE9F041C46882B01A
:102B100005460DF1030120460AF0E8F89DF8033060
:102B2000002B00F081802379674A6FF386132371AD
:102B3000002616800EF06CFB30460EF091FB60799B
:102B4000012100F007000EF07DFB62799200FF2169
:102B500002F01C0208200EF0BBFB012006F00AFF69
:102B60000646002875D006F120000EF0E5FB574B15
:102B7000019301A80EF094FB554940F25B600EF002
:102B80004BFC207900F03F000BF0A4FE2146514899
:102B90000EF0FCFA96200EF06FFD627902F007024B
:102BA0000123104600210EF09BFC27682E68384652
:102BB0000BF070FE06446A6806F10E0100200EF06C
:102BC00067FD05466079D4F8088000F00700012110
:102BD0000EF0C0FB0544607900F007000228454470
:102BE00026D004280CBF4FF4BC73282301211D44B8
:102BF0000EF0B2FB28440EF027FE0EF06BFE0EF036
:102C0000E3FC20460AF068F8C11C3246C9B23846D7
:102C10000BF04EFE054658BB20460BF0D5FD48B9DB
:102C2000002002B0BDE8F08121460EF0A5F8BCE717
:102C30001823DBE7284A294929484FF4187314F070
:102C4000A5F985F31188BFF36F8F0323184602DFC0
:102C5000E6E7214A234922484FF4F57314F096F928
:102C600086F31188BFF36F8F0323184602DF7AE7DC
:102C7000194A1D491A4840F2412314F087F91B4BA9
:102C80000721A5FB030301FB05310DA3D3E90023B5
:102C9000FEF754FA16490246164814F077F9002553
:102CA00085F31188BFF36F8F0323184602DF1248A4
:102CB00021460EF06BFA0EF05BFB6FF08B00B0E775
:102CC00000CA9A3B00000000E6790020D6BE898E3B
:102CD00055555500B9000100C09B010084920100C8
:102CE00038910100509B0100C09101008D49FD1AEF
:102CF000649C0100589B010051F600000000000098
:102D00002DE9F041C468D4E90C230E46217B13441D
:102D1000002262F382012173E16A22638B4228BFA1
:102D20000B4663635C4B05461A700EF071FAE07A4D
:102D3000012100F007000EF085FAE27A920002F01D
:102D40001C02FF2108200EF0C3FA201D0EF0A8FA85
:102D50002389A17A40F25B6043EA01410EF05CFBFB
:102D600030460BF0B7FD012006F004FE06460028B1
:102D700056D006F120000EF0DFFA27682E6838469C
:102D80000BF088FD06446A6806F10E0100200EF083
:102D90007FFC80460EF066FD636BE07A03F12F0244
:102DA000A36B00F00700012103EB42050EF0D2FAFD
:102DB00045440544E07A00F0070002281FD00428AB
:102DC0000CBF4FF4BC73282301211D440EF0C4FA3C
:102DD00028440EF039FD0EF07DFD20460AF052FC2D
:102DE000011D3246C9B238460BF062FD054630BBC4
:102DF00020460BF0E9FC20B90020BDE8F081182343
:102E0000E2E7264A2649274840F20B2314F0BEF891
:102E100085F31188BFF36F8F0323184602DFEBE7BA
:102E20001E4A21491F4840F2D51314F0AFF886F32B
:102E30001188BFF36F8F0323184602DF99E7174A03
:102E40001A49184840F2012314F0A0F8184B072142
:102E5000A5FB030301FB05310DA3D3E90023FEF716
:102E60006DF914490246144814F090F8002585F3D2
:102E70001188BFF36F8F0323184602DF0F482146E6
:102E80000EF084F90EF074FA6FF08B00B5E700BF16
:102E900000CA9A3B00000000D4870020709C01000B
:102EA0008492010038910100509B0100C091010003
:102EB0008D49FD1AE49C0100589B0100C9050100E1
:102EC0002DE9F84F17469046994623F000427B4281
:102ED000DFF884A13B4342EAD373534504460D46D1
:102EE00009D8464221F00043064343EAD6765645C8
:102EF0008E46834608D942464B4620462946FDF772
:102F000055F904460D4616E009F1404606F58016CF
:102F10003E4303D1BDE8F84F00F0A6B84FEAA976CA
:102F200006F0020653EA0B0B46EAD17607D1022ED1
:102F300064D0032E66D020462946BDE8F88F17439B
:102F400006D1BEF1000F68DA37A5D5E90045F2E7F2
:102F500052450FD1934206F1FF3607D1022E55D8C4
:102F60003E4B03EBC603D3E90045E4E7022E51D8FC
:102F70003B4BF6E75345E4D09B1AB3F1747F4FEA1D
:102F8000235221DAB9F1000F01DA3C3220DB42464C
:102F90004B4620462946FDF7E9FB15F070FA00F094
:102FA00063F804460D46012E15D0022E17D0002ED0
:102FB000C1D01FA3D3E9002320462946FDF7F4F82A
:102FC0001DA3D3E9002316E01DA5D5E90045EAE7D6
:102FD00000240025E7E705F100431D46ABE714A3F5
:102FE000D3E9002320462946FDF7DEF802460B46CA
:102FF00011A1D1E90001FDF7D7F882E70EA5D5E9C7
:10300000004598E710A5D5E9004594E710A5D5E956
:10301000004590E7002400258DE709A5D5E9004586
:1030200089E700BFAFF30080182D4454FB21F9BF9E
:10303000075C143326A6A13C182D4454FB210940FB
:10304000182D4454FB21F93F182D4454FB2109C08D
:10305000182D4454FB21E93F0000F07FB08E0100A1
:10306000988E0100000000002DE9F84FBC4B21F0C4
:1030700000469E4204460D468B4618D9B94B9E42E7
:1030800001D809D140B122462B4620462946FDF7FA
:103090008DF804460D4606E0BBF1000F40F3238196
:1030A00093A5D5E9004520462946BDE8F88FAE4BEB
:1030B0009E4211D8A3F1DE739E420AD88EA3D3E9B3
:1030C0000023FDF773F8A94B0022FDF7B5FC00289B
:1030D000E9D14FF0FF3A27E015F0D1F9A44B9E4219
:1030E00004460D4600F2B880A3F550239E4200F23C
:1030F0009C8002460B46FDF759F89C4B0022FDF7D9
:1031000053F8002206460F464FF0804320462946DA
:10311000FDF74CF802460B4630463946FDF726FBD4
:103120004FF0000A04460D4622462B46204629460B
:10313000FDF7F2F902460B4680468946FDF7ECF9A9
:103140006FA3D3E9002306460F46FDF7E5F96EA30A
:10315000D3E90023FDF72AF832463B46FDF7DCF9B8
:103160006BA3D3E90023FDF721F832463B46FDF778
:10317000D3F969A3D3E90023FDF718F832463B469B
:10318000FDF7CAF966A3D3E90023FDF70FF832462D
:103190003B46FDF7C1F964A3D3E90023FDF706F828
:1031A00042464B46FDF7B8F961A3D3E900238046B8
:1031B000894630463946FDF7AFF95FA3D3E90023CE
:1031C000FCF7F2FF32463B46FDF7A6F95CA3D3E9D4
:1031D0000023FCF7E9FF32463B46FDF79DF95AA371
:1031E000D3E90023FCF7E0FF32463B46FDF794F9B4
:1031F00057A3D3E90023FCF7D7FF32463B46FDF740
:103200008BF902460B4640464946FCF7CFFF224663
:103210002B46FDF781F9BAF1FF3F02460B4644D138
:1032200020462946FCF7C0FF33E7504B0022FCF74D
:10323000BBFF4E4B06460F46002220462946FCF7B0
:10324000B5FF02460B4630463946FDF78FFA4FF080
:10325000010A04460D4667E7464B9E421AD2464B8A
:103260000022FCF7A1FF444B06460F4600222046F1
:103270002946FDF751F93D4B0022FCF797FF024626
:103280000B4630463946FDF771FA4FF0020A044604
:103290000D4649E702460B4600203849FDF766FA1D
:1032A0004FF0030A04460D463EE7354B354E03EB1F
:1032B000CA03D3E90023FCF777FF22462B46FCF72D
:1032C00073FF06EBCA0602460B46D6E90001FCF77F
:1032D0006BFFBBF1000F04460D46BFF6E4AE01F1F3
:1032E00000431D46DFE61CA5D5E90045DBE600BF2F
:1032F000182D4454FB21F93F9C7500883CE4377E2F
:1033000011DA22E33AAD903FEB0D76244B7BA93FD7
:10331000513DD0A0660DB13F6E204CC5CD45B73FA5
:10332000FF8300922449C23F0D5555555555D53F51
:103330002F6C6A2C44B4A2BF9AFDDE522DDEAD3F45
:103340006D9A74AFF2B0B33F711623FEC671BC3FE5
:10335000C4EB98999999C93F182D4454FB21F9BFA2
:10336000FFFF0F440000F07FFFFFDB3F0000F03F56
:10337000FFFFF23F008003400000F83F0000F0BF75
:10338000C88E0100E88E01002DE9F04F476A97B022
:1033900014461D46CDE90445239E83467FB910207F
:1033A00011F0C4FF0246CBF8240020B9A24BEA2159
:1033B000A24813F0D7F9C0E901770760C760DBF8CE
:1033C0002430196859B15A684A60012393408B60D0
:1033D000584612F0F3FCDBF8243000221A602B1E52
:1033E000B9BF23F00043059300233360059F944B3E
:1033F000BCBF01223260BB4319D1229A42F20F7343
:103400001360C7F31303234300F0E285249B53B9F1
:103410008C4B21E08C4B08930833249A1360089856
:1034200017B0BDE8F08F874B08930333F5E7DDE96C
:103430000423CDE90C23DDE90C0100220023FDF774
:10344000D3FA804650B1229A01231360249B13B112
:10345000249A7E4B13607E4B0893E0E714AB0193F4
:1034600015AB00935846DDE90C2312F027FFC7F394
:103470000A560390002E7AD00D9BCDF84C80C3F3F2
:103480001303DDE90C0143F07F5343F44013A6F22C
:10349000FF36194600226F4BFCF786FE60A3D3E986
:1034A0000023FDF739F860A3D3E90023FCF77EFE83
:1034B000044630460D46FCF7C5FF5DA3D3E9002363
:1034C000FDF72AF802460B4620462946FCF76EFE19
:1034D00004460D46FDF7D0FA002207460023204699
:1034E0002946FDF78BFA40B13846FCF7ABFF224680
:1034F0002B46FDF779FA00B9013F162F54D8564BE9
:1035000003EBC703D3E90023DDE90C01FDF776FAED
:1035100000284BD0013F00231293149B9B1B5A1E83
:1035200045BFC3F101030693002300230A9254BF51
:1035300006930A93002F3BDB0A9B0F973B440A93A9
:1035400000230B93209B092B00F28A80052BC4BF1C
:10355000043B2093209BA3F10203CCBF0024012451
:10356000032B00F28880DFE803F02B383657DDE9C3
:1035700014631E4406F23243202BC1BFC3F1400343
:103580009F4006F2124324FA03F3D6BFC3F120038F
:1035900047EA030004FA03F0FCF744FF0122A1F11B
:1035A000F873013E139274E70123B5E71290B4E774
:1035B000069BDB1B06937B420B9300230F93C1E713
:1035C00000230E93219B002B58DC0123099399467D
:1035D0001A4621920CE00123F3E700230E93219B6E
:1035E000FB1803F1010909934B46012BB8BF0123D6
:1035F000DBF824000021042202F114059D4241D988
:103600004160584612F09AFB089000283DD1134BB8
:1036100002464FF4D571CBE60123DFE7AFF300801C
:1036200061436F63A787D23FB3C8608B288AC63FC8
:10363000FB799F501344D33F4EA8010065A80100B9
:103640000000F07F4AA8010041A80100D6A50100B2
:10365000D5A501000000F83F308F0100D9A8010076
:103660000124002320930E944FF0FF3309939946D1
:1036700000221223ADE701230E93F5E7219B099366
:103680009946B5E701315200B6E7DBF82430089AD5
:103690001A60B9F10E0F6FD8002C6DD0002F36DDF7
:1036A000A14B07F00F0203EBC203D3E90034F80586
:1036B000CDE910344FEA271417D59C4BDDE90C01F6
:1036C000D3E90823FDF752F8CDE9040104F00F0413
:1036D0004FF00308954D5CB9DDE91023DDE90401E5
:1036E000FDF744F8CDE904012BE04FF00208F1E7C3
:1036F000E10709D5DDE91001D5E90023FCF70CFF4E
:10370000CDE9100108F1010864100835E3E700F085
:1037100007817C42844B854D04F00F0203EBC2030A
:10372000D3E90023DDE90C01FCF7F6FECDE9040145
:10373000241100234FF00208002C40F0E580002BFC
:10374000D0D1129BDDE90445002B00F04C81784B71
:10375000002220462946FDF751F9002800F0438158
:10376000B9F1000F00F03F81099B002B00F3E480CA
:10377000DDE90C34CDE90434159B002B02DB0E2F60
:1037800040F342820E9A002A40F067820B9CDDF8DB
:1037900018800025B8F1000F0DD00A9B002B0ADD20
:1037A0004345069AA8BF4346D21A06920A9AA8EB46
:1037B0000308D31A0A930B9B0BB30E9B002B00F04C
:1037C000A682002C00F0A18229462246584612F01B
:1037D0001DFC039A01460546584612F06DFB0399FD
:1037E0000646584612F0EAFA0B9B1B1B0B9300F09F
:1037F00091820B9A3146584612F008FC0390012141
:10380000584612F043FB0F9B0446002B00F08482C5
:103810001A460146584612F0F9FB209B012B04463C
:1038200003DC049B002B00F07C820026236904EB60
:103830008303186915F02FF80F96C0F120000A9B3A
:10384000184410F01F0000F09182C0F12003042BF7
:1038500040F38182069BC0F11C00034406930A9B3F
:10386000034480440A93069B002B05DD03991A4606
:10387000584612F025FC03900A9B002B05DD2146DB
:103880001A46584612F01CFC0446129B002B00F00E
:1038900076820398214615F04DF8002880F26F8259
:1038A000002303990A22584612F0AAFA0E9B0390AD
:1038B0007E1E002B00F05C82002329460A22584617
:1038C00012F09EFA099B002B054603DC209B022B7D
:1038D00000F35E82B8F1000F05DD294642465846E6
:1038E00012F0EEFB05460F9B002B00F0D0826968BA
:1038F000584612F023FA0746002840F07F820D4B0D
:10390000024640F2EA2153E5E20706D5D5E9002355
:10391000FCF702FE08F101080123641008350BE7EB
:103920004FF002080DE700BF308F0100088F010043
:103930000000F03FD9A801002046AD4B00222946E7
:10394000FCF7EAFDCDE90401099C7E1E08F101089F
:103950004046FCF777FDDDE90423FCF7DDFDA54BD0
:103960000022FCF723FCA1F15073CDE91001119363
:10397000002C3BD1DDE904019F4B0022FCF714FC35
:1039800002460B46CDE90423DDE91023FDF754F888
:10399000002840F05781DDE9102101F10043DDE905
:1039A0000401FDF72BF800283FF4E2AE0024254681
:1039B000219BDDF820A0DE434FF000082146584649
:1039C00012F0FCF9002D00F0A980B8F1000F05D02D
:1039D000A84503D04146584612F0F0F9294658460A
:1039E00012F0ECF99AE03E464C46B1E7834B03EB0C
:1039F000C40353E90201089B1C440E9B002B4AD0D0
:103A000002460B4600207E49FCF7B0FEDDE910239C
:103A1000FCF7CAFBCDE91001DDF820A0DDE90401C7
:103A2000FDF72AF80546FCF70DFD02460B46DDE9D9
:103A30000401FCF7B9FB3035CDE9040102460B4621
:103A40000AF8015BDDE91001FCF7F6FF002865D1FB
:103A5000DDE904236B490020FCF7A6FB02460B4678
:103A6000DDE91001FCF7E8FF002840F00D81A245D8
:103A700000F0EA80DDE910015D4B0022FCF74CFD0F
:103A80005B4BCDE910010022DDE90401FCF744FDA8
:103A9000CDE90401C2E7DDE91023FCF73DFDCDE9E6
:103AA0001001DDF820A0A046DDE90401FCF7E4FFE9
:103AB0000546FCF7C7FC02460B46DDE90401FCF7AE
:103AC00073FB30350AF8015B02460B46A245CDE98F
:103AD00004234FF0000223D1494BDDE91001FCF72C
:103AE00065FB02460B46DDE90401FCF7A5FF002853
:103AF00040F0CA80DDE9102341490020FCF754FB67
:103B000002460B46DDE90401FCF778FF70B1C246BE
:103B100008F1FF381AF8013C302BF8D0374655E051
:103B2000334BFCF7F9FCCDE90401BDE7DDE90C34CA
:103B3000CDE90434159B002BFFF628AE0E2F3FF77E
:103B400025AE2E4B03EBC703D3E90034CDE9063491
:103B5000219B002B02DAB9F1000F64D0DDE90445A6
:103B6000DDF820A0DDE9062320462946FCF7FEFD0E
:103B7000FCF782FF0646FCF765FCDDE90623FCF74F
:103B8000CBFC02460B462046294606F13004FCF7E2
:103B90000BFB0AF8014B089CAAEB0404A145024662
:103BA0000B4640F08280FCF701FBDDE9062304466A
:103BB0000D46FCF741FF002865D1DDE906232046CC
:103BC0002946FCF711FF08B1F3075CD40399584666
:103BD00012F0F4F800238AF80030229B01371F60AE
:103BE000249B002B3FF41BACC3F800A017E400BFDC
:103BF0000000244000001C4000001440308F0100F1
:103C00000000E03F0000F03FA24B03EBC703D3E905
:103C10000034CDE90634219B002B9FDAB9F1000F67
:103C20009CDC7FF4C3AE9C4B0022DDE90601FCF76F
:103C300073FCDDE90423FCF7F5FE044600287FF45D
:103C4000B5AE3E462546B4E0DDE90C34CDE904349A
:103C5000159B002B01DB0E2FD6DD209A012A36DCC6
:103C6000139A82B303F233430B9CDDF81880069A53
:103C70001A4406920A9A01211A4458460A9212F0EE
:103C800005F9054686E53E4653469A4613F8012D4A
:103C9000392A06D1089A9A42F7D10899302201367A
:103CA0000A701A7801321A7038E77C4B0022FCF750
:103CB00033FC0022002304460D46FCF795FE002845
:103CC0003FF450AF82E7149BC3F13603CCE70B9B64
:103CD00009F1FF34A34208DBB9F1000FA3EB0404A0
:103CE0000EDBDDF818804B46C1E70B9B0F9A0B9457
:103CF000E31A1A44DDF818800F924B460024B6E709
:103D0000069BA3EB09080023B1E7039E71E50B9A1C
:103D1000039970E5039672E5209B012B17DC049B49
:103D2000ABB9059BC3F313039BB9059B23F0004676
:103D3000360D360536B1069B013306930A9B0133D7
:103D40000A9301260F9B002B7FF470AD0F96012084
:103D500075E50026F6E73FF486AD069A1C331A4453
:103D600006920A9A1A4498440A927CE50346F4E7BC
:103D7000099B002B2BDC209B022B09DC27E0B9F1EF
:103D8000000F1DDC209B022B1ADDCDF824903E464F
:103D9000099B002B7FF40CAE21460522584612F0F9
:103DA0002FF801460446039814F0C4FD00287FF75D
:103DB000FFADDDF820A031230AF8013B0136FBE519
:103DC0000E9BCDF824903E46002B7FF483AD089FD8
:103DD0000398214614F0A2FC00F1300907F8019B7A
:103DE000089B099AFB1A9A4240F3CB80039900235F
:103DF0000A22584612F004F80390E9E72A690232D1
:103E0000920005F10C010C3014F050FB01223946F0
:103E1000584612F055F9089B03F1010ADDE9082321
:103E200013440A93049B03F00103A8460B93054631
:103E30000AF1FF3321460398069314F06FFC4146C4
:103E4000099000F13009039814F074FD2A462146C8
:103E50000746584612F0A0F9C268014602B3584618
:103E600011F0ACFF002F3ADA03990122584612F004
:103E700027F92146039014F05DFD002803DC29D1C9
:103E800019F0010F26D0B9F1390F1DD132E02846C3
:103E9000C1E700BF308F0100000014400000244043
:103EA0000E90039814F046FD0E990C90584611F0B0
:103EB00085FF0C9A5ABB209B53B90B9B43B9B9F1B0
:103EC000390F17D0002F05DD099B03F1310901E0FF
:103ED000002F2ADADDF818A00AF8019B6EE5209B76
:103EE0003B4304D1049B03F00103002BBCD0B9F188
:103EF000390F36D1069F392307F8013BBA46013FF7
:103F00001AF8013C392B5BD001333B7056E5002F8A
:103F100006DB209B3B4306D1049B03F0010313B94E
:103F2000002AA1DCD6E7002AE1DC0A9B0AF8019C02
:103F3000534557462FD0039900230A22584611F0C3
:103F40005FFFA84503904FF000034FF00A0241467F
:103F500058460BD111F054FF804605460AF1010A7C
:103F600066E7DDF818A009F10109B5E711F048FF8F
:103F70002946804600230A22584611F041FF054693
:103F8000ECE7099B002BC8BF1F46089BD8BF012741
:103F90001F444FF0000803990122584612F090F890
:103FA0002146039014F0C6FC0028A7DC02D119F0CA
:103FB000010FA3D1BA4617F8013D302BFAD0FDE42A
:103FC000089BBB429AD1089A312301361370F5E45D
:103FD000249B002B7FF41EAA014BFFF73DBA00BFC4
:103FE00041A8010070B503788AB004460E4607ADBB
:103FF000032B20D8DFE803F002191B1D11492846C6
:1040000014F078FB059563780493A3780393E37821
:1040100002932379019363790093A3790A4A1E21BD
:10402000304612F085FF0AB070BD0849E7E708493D
:10403000E5E70849E3E7084A0A21284612F078FF35
:10404000E0E700BFF7A0010020A10100FEA00100F1
:1040500005A101000FA1010019A1010010B50B4637
:1040600088B0694604461868FFF7BCFF204603F095
:104070004DF96A460146044812F04DFF03480FF01F
:1040800065FF08B010BD00BF43A10100400A002039
:1040900070B50C468CB01546064604A92068FFF79B
:1040A000A1FFA988104A286840F6E54312F089FF6D
:1040B000304603F02BF9E27994F90530042A0146E1
:1040C00094F9060096BF094C094A54F82220064C80
:1040D0000394AC880090CDE90124064804AA12F0AC
:1040E0001AFF0CB070BD00BFE8790020F88F010006
:1040F000E09F010073A1010030B591B004460D4668
:104100001E22002108A814F0DFF908AA1249284647
:1041100013F0E9F920686946FFF764FF0F4A137846
:10412000C3B96389B3B103EB83030D499B10C3EBA0
:10413000C3030B60012313700A4B22791A702268A3
:10414000094B116819609188998092799A71074892
:104150000FF0FCFE11B030BD6B690100CF8600206E
:10416000600F0020CD860020D0860020100A00209D
:1041700030B50C468BB002A905462068FFF732FF28
:10418000284603F0C3F80146207AE388042896BF46
:10419000084C094854F8200003EB83029210CDE943
:1041A0000020064802AA12F0B6FE05480FF0CEFE27
:1041B0000BB030BD0C900100E09F0100CBA10100CD
:1041C000280A00202DE9FF47734B4FF07C511868F7
:1041D000FCF7D8FD714B1860714812F09CFE7148D5
:1041E00012F099FE002002F0E9F8014610B16E4885
:1041F00012F091FE6D486E4D6E4FDFF8BCA112F0CB
:104200008AFE6E4812F087FE6D4803F067F86D482D
:1042100012F081FE6C4812F07EFE6C48002603F01E
:104220008FF9684812F077FEB0462E70B146684AA2
:104230002C7887F800903023CDE9002302965CB9F2
:10424000644812F068FE2146684602F0DBFF014632
:10425000B0B1554812F05FFE5F4812F05CFE5F4857
:104260004FF0FF324FF0FF330FF094FE044668B179
:1042700001464D4812F04FFE002004B0BDE8F08723
:104280004A4812F048FE01232B70E5E7544812F02B
:1042900042FE544812F03FFE534B544918689A8826
:1042A0009B798DF80630524B00901B788DF80730C3
:1042B00068464FF42023ADF804200294039303F0E2
:1042C00079F8014660B3384812F025FE494812F0EB
:1042D00022FE494BD3F800C04FF40044414640F25F
:1042E000E7304FF47A720023ECFB0401FCF726FF61
:1042F00002460B4641483D4C0FF04CFE014698B13A
:10430000294812F008FE3E4812F005FE206803F02E
:1043100009F801460028ACD1244812F0FCFD86E7DC
:10432000284812F0F8FDD1E7364812F0F4FD364B7C
:1043300036480193CDF800A012F0EDFD69462068E3
:1043400003F0CAF90146E8B1174812F0E4FD30481D
:1043500012F0E1FD02F0A6FF0446B8B10146124892
:1043600012F0D9FD2B4812F0D6FD2B484FF0FF324A
:104370004FF0FF330FF00EFE014600287FF479AFB7
:104380002648CAE7264812F0C6FDE0E7254812F0A5
:10439000C2FD2C70E6E700BFE00500206C0F002096
:1043A00013A2010039A2010055A2010066A201007A
:1043B000CE860020CF860020070205046FA20100F0
:1043C000B80500208AA2010094A20100C4050020C3
:1043D00001016000BFA20100D1A20100100A00206B
:1043E000F6A201001CA30100D0860020640F00206B
:1043F000CD86002042A30100600F0020280A002083
:1044000060A3010086A3010072A40100ABA3010018
:10441000E6A3010000A40100400A002023A401003B
:10442000C7A30100F6A30100014B1B68184700BF9A
:10443000E8050020014B1860704700BFE805002028
:1044400007B50B46002102460091034800F080F8B2
:1044500003B05DF804FB00BF2944000030B587B00D
:104460000025CDE903010446009503A905480595FB
:1044700000F06EF8DDE904309842B8BF255407B06B
:1044800030BD00BFF36E0100F0B5094E0168024671
:104490000A2700200B4601311C78355D6D0701D4D9
:1044A0001360F0BD07FB0043A3F13000F2E700BF4B
:1044B0000FA701002DE9F84F15469A46D378234AF5
:1044C00012F803B06F2B81460F460BF0030B2BD075
:1044D00026D8582B0CBF10260A26DDF82880324635
:1044E000002348463946FCF729FE092A08F1FF381F
:1044F000D4B21ED83034B145E4B277F1000788F861
:10450000004001D3D04511D82B789B0605D5082E45
:1045100015D1AB7843F00803AB704046BDE8F88F87
:1045200003F0F703702BD5E70826D6E781460F4640
:10453000D5E7BBF1010F0CBF37345734DBE7102E42
:10454000EBD1AB7843F01003E6E700BF0FA7010003
:104550002DE9F04F97B08A46039016461C46002579
:10456000307808B9284656E325280AD0039B5146DF
:1045700098470028C0F24F83731C01350493049EB2
:10458000EEE71822002110A813F09EFF7378252B68
:1045900000F0A3800023711C98469E469C46184656
:1045A0000F4611F8012B2B2A00F0C68000F2BD80C7
:1045B000202A00F0C480232A00F0C4802BB19DF88B
:1045C000483043F040038DF84830B8F1000F05D073
:1045D0009DF8483043F020038DF84830BEF1000FBD
:1045E00005D09DF8483043F010038DF84830BCF1F9
:1045F000000F05D09DF8483043F008038DF848308F
:1046000028B19DF8483043F004038DF848309DF8F8
:10461000483003F04401442903D16FF386138DF829
:1046200048309DF84830099743F080032A2A8DF8D6
:10463000483040F08C809DF8493043F001038DF8FC
:1046400049307B1C1A782E2A9DF849200CBF012185
:10465000002161F341028DF849200CD15A1C0992C6
:104660005A782A2A40F083809DF8492042F00402BB
:104670008DF8492002331A786C2A00F0A48000F2E9
:104680008680682A00F08C806A2A00F0A5804C2A77
:1046900000F0AA801A4612F8013B0492782B9DF88C
:1046A00049208DF84B3000F217816D2B00F2A98064
:1046B000692B00F21181572B00F2BE80412B03D0F1
:1046C000453B022B00F208819DF84A30042262F338
:1046D00002038DF84A300123CAE08DF84B30B31C39
:1046E00004939DF84930D90740F1FD8054F8048BBC
:1046F000B8F1000F07DA9DF8482042F004028DF867
:104700004820C8F100085A0740F1F68054F804BB6D
:10471000BBF1000F80F2F5809DF849306FF3410343
:104720008DF849304FF0FF3BEBE02D2A0DD0302AB9
:104730007FF444AF012333E74FF0010C30E74FF033
:10474000010E2DE74FF001082AE7012028E709A80C
:10475000FFF79AFE099BBB423FF474AF9DF84820D7
:104760001390C00F60F341028DF848206AE709A852
:10477000FFF78AFE9DF848301490C3F3400242EAE6
:10478000D07262F341038DF84830099B73E7742AB5
:1047900026D07A2A7FF47EAF9DF8492006210CE0CE
:1047A0005A78682A9DF8492006D1012161F3C60292
:1047B0008DF8492002336DE7022161F3C6028DF8BE
:1047C0004920013366E75A786C2A9DF8492001D1C7
:1047D0000421EBE70321F0E79DF849200521ECE7F0
:1047E0009DF849200721E8E7BDF8482022F4F0426F
:1047F00022F0020242F4804242F00202ADF8482068
:10480000DFE76E3BD9B201238B4040F282410B427D
:1048100038D113F0240F52D1DF075DD59DF84A300F
:10482000032161F302038DF84A3002F07803A3F10B
:104830004000434243411BE0A3F15801C9B20120AB
:1048400000FA01F111F4624F7FF43EAF40F6010728
:1048500039421DD111F4043F3ED09DF84A3060F337
:10486000020302F07802402A8DF84A3034D0002347
:104870009DF84820C2F340010B4363F341028DF8D9
:1048800048202EE79DF84A30022161F30203E8E751
:104890009DF84A10022002F0780260F30201402ADB
:1048A0008DF84A1002BF9DF8481041F001018DF8C3
:1048B0004810632BDBD1131E18BF0123D8E79DF8E6
:1048C0004A30032161F3020312F0780F8DF84A3069
:1048D00014BF01230023CBE79DF8483043F00103C8
:1048E0008DF84830C3E79DF94820002AB4BFDDF8B1
:1048F0004C804FF0FF3806E79F077FF513AFDDF8D8
:1049000050B09DF849100023CDE913339DF84A308B
:1049100003F00703012BC1F3C30132D1CB1E042BDB
:1049200004D8DFE803F02045452020002368012952
:104930004FEAE372CDE910321BD19DF94030DA170E
:10494000CDE9103204349DF8483013F003074FD0FE
:10495000049B03983246514612F001FB0028C0F236
:104960005A8105440BE654F8043BDA17CDE91032BE
:10497000E9E70229E6D11AB243F3C033CDE91023A7
:10498000E0E7022B24D1CB1E042B04D8DFE803F090
:10499000181010181800012954F8043B4FF00002B9
:1049A00014D00229CDE91032CDD19BB21093CAE7C1
:1049B000073424F00704F4E80223CDE91023C2E70A
:1049C00054F8043B109300231193BCE7DBB2CDE70E
:1049D000042B08D1073424F00704D4E90023083459
:1049E000CDE91023AFE7032BADD154F8043BDDE74D
:1049F0009DF84B0078283FF6C2AD62281ED82528C6
:104A000050D058287FF4BBAD0DF13E030093DDE993
:104A100010010AAB12AAFFF74DFDBBF1000F814652
:104A200080F2C280B9F1000F3FF4A9AD0DF13E064E
:104A3000A6EB0903002F7BD0013379E063381528FA
:104A40003FF69DAD01A252F820F000BF1F4B0000C1
:104A50007D4B00007F4500007F4500007F45000042
:104A60007F4500007D4B00007F4500007F45000032
:104A70007F4500007F450000CB4B0000A34B0000AA
:104A8000DD4A00007F4500007F450000B54A000078
:104A90007F450000A34B00007F4500007F450000DC
:104AA000A34B0000039B514698470028C0F2B380F7
:104AB000013564E5BBF1000FDDF840900ADB594693
:104AC000484613F01FFEB9F1000F3FF458AD09EB53
:104AD000000620E04846FCF74BFBF8E7109800285A
:104AE00000F087800DF13E060AAB009612AA002165
:104AF000FFF7E0FCBDF84A3003F0EF0343F4F04366
:104B000043F01003BBF1000F8146ADF84A304ADA9A
:104B100000283FF434ADA6EB0903002708E0109B02
:104B20008DF8283000270DF129060DF12809012301
:104B30009DF84A1011F01002069260D00233139AC9
:104B4000059213444A0644BF14995B18B8F1000F4C
:104B50006EDDA8EB03089DF848305807C3F3800BBF
:104B600066D459065AD53FB1039B514638469847FB
:104B7000002850DB01355F46302350E01E075CBF44
:104B8000C3F300135F01DDE9102348BF2B27002B7F
:104B9000BFF63AAF524263EB4303CDE910232D2712
:104BA00032E7002730E700279DF848100DF13E035B
:104BB000A3EB09036FF386119B458DF848107FF630
:104BC00031AFABEB030313932CE7109B07293FF6A0
:104BD000D6ACDFE801F00C04060C08080C0C1D70C4
:104BE000CDE41D80CBE4EA17C3E90052C7E41D60A1
:104BF000C5E4314E0746A6F10509052398E70807E5
:104C000048BF01339BE7184607935146039B9847DB
:104C10000028079B04DA17B0BDE8F08F2023C346B5
:104C2000594600290BF1FF3BEDDC45446D1AD8468F
:104C300037B1039B5146384698470028EBDB0135D6
:104C40009DF84A30DA0601D41B0706D5039B51466E
:104C5000302098470028DEDB0135069B3BB19DF8EC
:104C60004B00039B514698470028D4DB0135059F34
:104C70002F4406E0039B5146302098470028CADBAA
:104C800001357B1B002BF5DC039833464A46514621
:104C900012F065F90028BEDB0544A844A8EB050323
:104CA000002B7FF76CAC039B5146202098470028CF
:104CB000B1DB0135F2E700BF7BA401002DE9F0472D
:104CC000058B04462807904611D4022905F00705F4
:104CD00040F0CC80204612F0B9F978B10138218B30
:104CE000042811D8DFE800F0C2106D859500012975
:104CF0000CBF45F0100545F02005258388F3118889
:104D0000BFF36F8FBDE8F08701F0070AAA4500F0F6
:104D1000A5800027B9463E46A368002B00F0BC8062
:104D200041F00801218388F31188BFF36F8FA168D8
:104D3000002900F0BA800D68002900F0B680D1F893
:104D40000480334652462046C047002D76D02B685B
:104D500029461D46F0E701F007035A1F012A1BD818
:104D6000002221F00701062B276889B2C4E900223E
:104D700009D13B4603E0628B013262831B68002B42
:104D8000F9D141F002012183204612F05FF9002899
:104D90007AD041F0200176E0042B0AD121F00701FE
:104DA00089B22183204612F051F910B141F020015F
:104DB0002183218B01F0070AAA454FD00027B9466D
:104DC000AAE7236921F0070141F00601062DD3F877
:104DD000009021832DD1B9F1000F3FD041F008019F
:104DE000218388F31188BFF36F8F3A492046C84763
:104DF00029E021F00701236941F0040189B2042D63
:104E0000D3F804902183E6D000273E464FF0040AF1
:104E100082E721F00701236941F0050189B2052DE0
:104E2000D3F808902183D6D000273E464FF0050ADC
:104E300072E700273E464FF0060A6DE72B4687E7EC
:104E4000B9F1000FD1D1EFF31188202383F3128839
:104E5000BFF36F8F238B23F008032383258BEA0690
:104E60002ED525F01003238305F007056669218BF5
:104E7000002EBFF670AF00232768C4E9003321F08D
:104E8000070141F001012183218B01F0070AAA45A6
:104E90004FF000097FF440AF002F9CD041F0080193
:104EA000218388F31188BFF36F8F002FC8D03D682E
:104EB000394633465246204612F0F4F82F46F4E7BE
:104EC000AB067FF51BAF25F02003238305F0070514
:104ED00000E700BFD1700100014B03600020704764
:104EE0002090010008B5044812F015F8BDE808400C
:104EF000024812F010B800BF7CA40100B1A4010068
:104F000030BFFFF7FDBF00BF074A936893F90E104B
:104F1000002907DB526993421FBF044A536843F0DC
:104F200080535360704700BFA079002000ED00E07F
:104F300070B5264B15469A6A12F0100F9A6A14BF84
:104F40001124102412F0080F9A6A18BF1224920735
:104F500006460AD5586B9A6A140634D519B19A6A6E
:104F600022F080029A62132401E06FF01500174BC3
:104F70009A6A12F0010F9A6A18BF142412F0200FD7
:104F80009A6A18BF1524D20602D49B6A9B070AD5D9
:104F90000E4B5B68190506D5314600F089FA10B151
:104FA00080F309880224094B9A6A920642BF5A6A22
:104FB00022F400525A629A6A42F0FF029A62002377
:104FC0002B70204670BD6FF01500CCE700ED00E0BF
:104FD000134B9A6A12F0007F9A6A14BF1E201D209C
:104FE00012F0807F9A6A18BF1F2012F4002F9A6A6D
:104FF00018BF212012F4802F9A6A18BF222012F4C1
:10500000003F9A6A18BF232012F4803F9A6A6FEA21
:1050100002426FEA12429A6218BF2420704700BF12
:1050200000ED00E010B5194B0246986A9C6A10F436
:10503000805F14BF1720162014F4006F9C6A18BFFD
:105040001820A40509D5986B986A000404D51AB1F4
:105050009A6A22F400429A6219200C4B9A6A12F45E
:10506000806F9A6A18BF1A20D2050CD49B6A13F479
:10507000005F18BF1C20054A936A43F47F43936284
:1050800000230B7010BD1B20F5E700BF00ED00E012
:10509000F0B5484B5B688BB00446C3F308030025AA
:1050A00085F31188BFF36F8F02F07F40B0F17F4F1F
:1050B00011D102F00C0008280DD010074CBF0C468F
:1050C00001250022033B8DF80720032B05D8DFE8DC
:1050D00003F0246367602C46F3E700239DF8072064
:1050E000CAB902AE04F1200720686168324603C2E3
:1050F0000834BC421646F7D1099A002D54D0C2F3A9
:10510000080121B96FEA52226FEA4222099202A9EC
:10511000184612F0C1F80BB0F0BD264BDA6A9107C1
:10512000DBD4DA6A002AD8DBDA6A5200D5D55A69AC
:10513000A16942F480725A61BFF34F8FBFF36F8F42
:105140005A6931F8021C22F480725A61BFF34F8F02
:10515000BFF36F8F4DF6027291420AD09A6AD2B2B3
:105160004AB10DF1070201212046FFF7E1FE034697
:10517000B4E72368B2E79A6A12F47F4F05D00DF1C5
:1051800007010120FFF74EFFF1E79B6AB3F5803F6F
:10519000A3D3FFF71DFFEAE70DF107020021E3E7C4
:1051A0000DF107010020EDE722F4FF7222F0010269
:1051B000ACE700BF00ED00E0044B5A6942F010027A
:1051C0005A615A6922F008025A61704700ED00E006
:1051D000EFF30880EFF3098101B57246FFF758FF3E
:1051E00001BD00BF002080F31488BFF36F8F0DF066
:1051F000ABFE00200D490860BFF34F8F0C4880F3D1
:10520000088800F02BF8202080F3118809484FF41B
:105210000461401880F30988EFF3148002210843E9
:1052200080F31488BFF36F8F00F00AF994ED00E06B
:1052300000A00020409200200749D1F890200023D0
:10524000C2F307221846934200DB7047C1F898303A
:10525000C1F8A0000133F6E700ED00E008B572B632
:10526000002383F31388FFF7E7FF144B4FF0FF325F
:10527000C3F88020C3F88420C3F88820C3F88C20AA
:10528000C3F89020C3F89420C3F89820C3F89C205A
:10529000C3F88021C3F88421C3F88821C3F88C2186
:1052A000C3F89021C3F89421C3F89821C3F89C2136
:1052B00062B6BFF34F8FBFF36F8F08BD00E100E010
:1052C000084B9B6883420BD1EFF3058343B1064B38
:1052D0005A6842F080525A605A6A22F400425A6276
:1052E00012F070BFA079002000ED00E0094A936839
:1052F0006FF00A01D967084998674B6843F08053FB
:105300004B60002383F31188BFF36F8F9368D86FCE
:10531000704700BFA079002000ED00E010B5044602
:10532000EFF31183202383F31288BFF36F8F094BB0
:1053300058699860084B4FF000625A600022836FF2
:10534000826783F31188BFF36F8F00F015F9204651
:1053500010BD00BFA079002000ED00E00B498A6875
:105360004FF030001044EFF3098C80E8F01F7446D2
:105370007046FFF7D3FFA64604498A6802F1300061
:1053800090E8F01F8CF3098870470000A079002096
:105390001EF0040F0CBFEFF30880EFF30980816962
:1053A00011F8021C0229FFD001B511F07BFF01BDED
:1053B00040B2002807DB044A4109012300F01F0026
:1053C000834042F82130704700E100E040B20028FD
:1053D0000CDB4309064900F01F0020330122824004
:1053E00041F82320BFF34F8FBFF36F8F704700BF8B
:1053F00000E100E0054B420900F01F0053F82220B5
:10540000012303FA00F01040704700BF00E100E004
:1054100040B20028A8BF00F1604001F10101B8BF0F
:10542000064B4FEA4111ACBF00F5614000F00F00A0
:10543000C9B2B4BF195480F80013704714ED00E0EE
:105440000B4A08B50B4B22F07F029A60BFF34F8FD7
:10545000BFF36F8FD3F8882022F47002C3F888203E
:105460000EF0CAFB0FF0C0FA00F05CF80EF008FC7A
:105470000000000000ED00E042F8203C009B42F8F4
:105480001C3C0A49019B42F8183C029B42F8143C20
:1054900021F001014FF0807342F8043C42F8081CEF
:1054A0000023203A02658367704700BF4B6F0100FD
:1054B000094A0346906870B113F1160F806E05D04B
:1054C000A0F140029A4205D8834203D2814228BF0C
:1054D0000020704700207047A079002008B50B4BD2
:1054E0000E461546986000F047F82C4686F309886A
:1054F0004FF00000064B984720464FF000014FF058
:1055000000024FF00003034C204700BFA0790020A9
:10551000C37201004B6F0100014B10221A617047EA
:1055200000ED00E0044800232021C2180133302B95
:1055300082F80013F9D1704700E100E008B5EFF3FD
:105540000583064A103B02EBC30152F83300496859
:105550008847BDE80840FFF7D7BC00BFF08C0100CA
:10556000024B034A0348012100F076B800000220F4
:105570000000002020900100826E054B403A1A6026
:10558000044A4021C3E901121846012100F06EB817
:10559000700F002000000B15084AC2F898000B6835
:1055A00023F01F03034343F01003C2F89C308B68C1
:1055B00043F00103C2F8A030704700BF00ED00E0E7
:1055C0002DE9F043DFF8608085B00E461F460446A3
:1055D0004FF00009B14523DA6068D8B13FB1411EF0
:1055E00008421BD11F2819D92368194216D12368F4
:1055F000019311F089FEA36803430393D8F89050F8
:10560000C5F30725D0B2013DA84207D801A9FFF78D
:10561000C3FF421C09F101090C34DBE76FF01502EE
:10562000104605B0BDE8F08300ED00E0044B052214
:10563000C3F89420BFF34F8FBFF36F8F704700BF45
:1056400000ED00E0BFF35F8F024B0022C3F894200F
:10565000704700BF00ED00E010B5034C0123227835
:10566000FFF7AEFF207010BDD786002008B50B4AAB
:1056700000231278FFF7A4FF10F1160F07D0084A95
:105680000021D2F89030C3F30723984200DB08BD15
:10569000C2F89800C2F8A0100130F2E7D7860020C7
:1056A00000ED00E02DE9F043534B544CD3F890301B
:1056B0002568C3F307239D4285B000F29A80FFF767
:1056C000C1FF00200C2685421AD14D4C4D4F25704C
:1056D0006846FFF701FCDFF82081DFF82C910646D1
:1056E0000025AE4213D1237843490020D1F8902001
:1056F000C2F30722934276DBFFF798FF002042E0D7
:10570000616806FB0011FFF747FF0130DBE70098F7
:1057100000EB05114FEA051CCB683B40B3F5000FC9
:1057200048D00AD8B3F5001F30D0B3F5800F36D07B
:10573000B3F5801F10D00135D3E7B3F1807F42D09D
:10574000B3F1007FF7D150F80C3088684A6811F047
:10575000DBFD40F4802009E050F80C3088684A688E
:1057600011F0D2FD40F0885040F43020CDE9012303
:105770000390D8F890302078C3F30723013B984278
:105780002AD96FF0150005B0BDE8F08350F80C3051
:1057900088684A6811F0B8FD40EA0900E6E750F869
:1057A0000C3088684A6811F0AFFD40F0E06040F4CA
:1057B0000030DBE750F80C3088684A6811F0A4FD2F
:1057C00040F08270D2E750F80C3088684A6811F0D7
:1057D0009BFD40F08870C9E701A9FFF7DDFE237843
:1057E00001332370A7E7C1F89830C1F8A000013356
:1057F0007CE74FF0FF30C6E700ED00E02C900100A1
:10580000D78600200000F0FF00000811014B18604F
:10581000704700BFF0050020F8B5084F06460D465A
:105820000024AC4208DA3B6898470A28305504F156
:10583000010401D00D28F4D12046F8BDEC0500206C
:10584000F8B50A4F0D46461EC0F10104A3199D424A
:1058500001DC2846F8BD73780A2B02D13B680D2085
:1058600098473B6816F8010F9847EFE7F0050020CE
:1058700010B5074C2368C2180648C0F1005101F565
:1058800000318A423ABF2260C0184FF0FF3010BD8D
:105890007C0F002040B4002008B5054811F03BFB08
:1058A000002383F31188BFF36F8F0423184602DFB0
:1058B000EEA4010070B54169867A0B4D044659B1DA
:1058C000437ADB0706D42C2303FB06535B6A1B6871
:1058D0009B689847002363612C20214606FB0050FB
:1058E000BDE8704012F03ABB580A0020024B2C224F
:1058F00002FB0030704700BF580A0020827A064B36
:105900002C2101FB02339A6A1B7F1B33801A23F080
:105910000303B0FBF3F07047580A002038B5074B7B
:10592000827A2C2404FB02335B6AD3E901240C60E5
:105930001568FFF7E3FF04FB005038BD580A00204C
:105940002DE9F04F85B005466846039190461C4608
:1059500091469B4612F093FCDDE90067EFF3118A54
:10596000202383F31288BFF36F8F6B8B002B42D001
:105970002A8B9A4226D90022002328460EF0B4FA38
:105980000446F8B18AF31188BFF36F8F039B002B95
:105990004ED032463B46684612F095FCA27A2D4B1B
:1059A0002C2101FB023320465B6A1B6803A91D689A
:1059B000DDE90023A847606100283AD12046FFF7BF
:1059C00079FF2AE0698B4B1E6B838AF31188BFF342
:1059D0006F8F2B7F2A8BAC6A1B3323F00303521A81
:1059E00002FB03441B4B1C4AEB1A9B105343A3724C
:1059F0002B7FE372CAE78AF31188BFF36F8F54EAF3
:105A000008040FD14FF00009CB464A465B462846B2
:105A10000EF06AFA04460028B8D10024204605B0EA
:105A2000BDE8F08F0EF042FF0C4B8342EDD1E9E769
:105A30006361012300252381039B6382E27A656011
:105A4000294604F1180012F03FFD63692582E360E6
:105A5000E4E700BF580A0020A38B2EBA200E0020D6
:105A600070B50C4C2C2500B970BD037A4668013B1B
:105A7000DBB20372002BF7D1C3604360837A05FB6E
:105A800003431B6A13B198473046ECE7FFF712FF58
:105A9000FAE700BF580A0020044A0123C2F8403543
:105AA0004FF080420020C2F87835704700E0014096
:105AB00020B1034B800143F001031847704700BF3A
:105AC000908E010008B5044812F0EFF800280CBFD2
:105AD0006FF01200002008BDA08C010038B505460B
