:1000000000160020A9080000DB3D00009508000054
:100010009508000095080000950800000000000009
:100020000000000000000000000000005D0A000069
:100030009508000000000000290A00009508000053
:10004000E90B0000E90B0000E90B0000E90B0000E0
:10005000E90B0000E90B0000E90B0000E90B0000D0
:10006000E90B0000E90B0000E90B0000E90B0000C0
:10007000E90B0000E90B0000E90B0000E90B0000B0
:10008000E90B0000E90B0000E90B0000E90B0000A0
:10009000E90B0000E90B0000E90B0000E90B000090
:1000A000E90B0000E90B0000E90B0000E90B000080
:1000B000E90B0000E90B0000E90B0000E90B000070
:1000C000E90B0000E90B0000E90B0000E90B000060
:1000D000E90B0000E90B0000E90B0000E90B000050
:1000E000E90B0000E90B0000E90B0000E90B000040
:1000F000E90B0000E90B0000E90B0000E90B000030
:100100002DE9F0475E4D284603F094FC30B929688C
:100110005C4803F073FD0020BDE8F0875A484FF4B7
:10012000803103F04AFC074630B12A680B230146B0
:10013000564803F063FDEEE7284603F07BFC10B958
:1001400029685348E5E753484FF4803103F035FC04
:10015000044618B12A680C230146E9E74E4E306880
:1001600048B103F067FC3368D8B91A684B48214698
:1001700003F044FD34604A4F386858B103F05AFC2C
:100180003B68804600BB1A684648214603F036FDAE
:10019000C7F800803A4803F04DFC40BB296842484C
:1001A000B7E7002BE7D04FF40031304603F005FCF1
:1001B00004460028DFD032683379126801463B4894
:1001C00003F01CFD3760D6E7002BE3D04FF400317D
:1001D000384603F0F2FB01460028DBD03A683B7951
:1001E0001268334803F00AFD00233B60D2E74FF466
:1001F0000031304803F0E1FB014618B111232A68B1
:100200002D4896E71E4803F015FC0028C6D04FF491
:1002100000312A4803F0D1FB014608B11323EEE771
:100220002748DFF85C80DFF87090DFF888A003F0E3
:10023000E5FC0B21404603F0D5FB0C21054640466A
:1002400003F0D0FB336804464BB1002D07DB294691
:10025000484603F0DBFB2946504603F0D7FB3B68DA
:100260004BB1002C07DB0E48214603F0CFFB1348AF
:10027000214603F0CBFB0021212002F03DFFD8E70F
:100280007C4600007C49000050480000A349000063
:10029000CC49000048480000C8040020F349000091
:1002A000C00400204F4A0000AB4A00001A4A000078
:1002B000764A000040480000D24A0000384800005A
:1002C0000A4B0000014B1B68184700BFD0040020F8
:1002D000014B1860704700BFD004002030B585B0D6
:1002E00004460D4610220021684604F01DF9022341
:1002F0008DF802302A46044B01932146684603F0EC
:10030000FFF805B030BD00BFC502000080B505464E
:100310000E461746984602F00DFF034604F070F9AA
:10032000DFF81890044649F8003042463046394616
:10033000A84754F8090000F025FB00BF08000000A2
:100340002DE9F047058B04462807904611D4022971
:1003500005F0070540F0CC80204603F05CFC78B146
:100360000138218B042811D8DFE800F0C2106D8518
:10037000950001290CBF45F0100545F020052583A7
:1003800088F31188BFF36F8FBDE8F08701F0070A8B
:10039000AA4500F0A5800027B9463E46A368002B79
:1003A00000F0BC8041F00801218388F31188BFF37D
:1003B0006F8FA168002900F0BA800D68002900F055
:1003C000B680D1F80480334652462046C047002DFF
:1003D00076D02B6829461D46F0E701F007035A1F27
:1003E000012A1BD8002221F00701062B276889B2B9
:1003F000C4E9002209D13B4603E0628B01326283EB
:100400001B68002BF9D141F002012183204603F043
:1004100002FC00287AD041F0200176E0042B0AD1BA
:1004200021F0070189B22183204603F0F4FB10B1CB
:1004300041F020012183218B01F0070AAA454FD00A
:100440000027B946AAE7236921F0070141F0060118
:10045000062DD3F8009021832DD1B9F1000F3FD0A4
:1004600041F00801218388F31188BFF36F8F3A4967
:100470002046C84729E021F00701236941F0040123
:1004800089B2042DD3F804902183E6D000273E469C
:100490004FF0040A82E721F00701236941F00501CA
:1004A00089B2052DD3F808902183D6D000273E4687
:1004B0004FF0050A72E700273E464FF0060A6DE747
:1004C0002B4687E7B9F1000FD1D1EFF31188202334
:1004D00083F31288BFF36F8F238B23F008032383EA
:1004E000258BEA062ED525F01003238305F007059A
:1004F0006669218B002EBFF670AF00232768C4E920
:10050000003321F0070141F001012183218B01F02B
:10051000070AAA454FF000097FF440AF002F9CD096
:1005200041F00801218388F31188BFF36F8F002FFA
:10053000C8D03D68394633465246204603F097FB03
:100540002F46F4E7AB067FF51BAF25F0200323838E
:1005500005F0070500E700BF9B3C0000014B03606E
:10056000002070475848000008B5044803F046FBD7
:10057000BDE80840024803F041BB00BF1D4B00002E
:10058000524B000030BFFFF7FDBF00BF2DE9F04127
:100590000B4EDFF8308006EB0807CC1B05463246D1
:1005A0000949204603F0B2FFA01942460021083C49
:1005B00003F0BAFF2C6707F10800BDE8F08100BF27
:1005C000000000000400000024480000074A93686F
:1005D00093F90E10002907DB526993421FBF044AAA
:1005E000536843F080535360704700BFF00700200A
:1005F00000ED00E070B5264B15469A6A12F0100F18
:100600009A6A14BF1124102412F0080F9A6A18BFB6
:100610001224920706460AD5586B9A6A140634D5F6
:1006200019B19A6A22F080029A62132401E06FF0F5
:100630001500174B9A6A12F0010F9A6A18BF14241A
:1006400012F0200F9A6A18BF1524D20602D49B6AB2
:100650009B070AD50E4B5B68190506D5314600F09D
:1006600079FA10B180F309880224094B9A6A92063C
:1006700042BF5A6A22F400525A629A6A42F0FF025A
:100680009A6200232B70204670BD6FF01500CCE7F6
:1006900000ED00E0134B9A6A12F0007F9A6A14BFD3
:1006A0001E201D2012F0807F9A6A18BF1F2012F4AE
:1006B000002F9A6A18BF212012F4802F9A6A18BF5F
:1006C000222012F4003F9A6A18BF232012F4803FC0
:1006D0009A6A6FEA02426FEA12429A6218BF2420B5
:1006E000704700BF00ED00E010B5194B0246986A54
:1006F0009C6A10F4805F14BF1720162014F4006F5A
:100700009C6A18BF1820A40509D5986B986A000444
:1007100004D51AB19A6A22F400429A6219200C4B4D
:100720009A6A12F4806F9A6A18BF1A20D2050CD404
:100730009B6A13F4005F18BF1C20054A936A43F4B8
:100740007F43936200230B7010BD1B20F5E700BFB1
:1007500000ED00E0F0B5484B5B688BB00446C3F396
:100760000803002585F31188BFF36F8F02F07F40E7
:10077000B0F17F4F11D102F00C0008280DD0100706
:100780004CBF0C4601250022033B8DF80720032BAC
:1007900005D8DFE803F0246367602C46F3E7002305
:1007A0009DF80720CAB902AE04F1200720686168ED
:1007B000324603C20834BC421646F7D1099A002DCE
:1007C00054D0C2F3080121B96FEA52226FEA4222E3
:1007D000099202A9184603F0F6FA0BB0F0BD264BB9
:1007E000DA6A9107DBD4DA6A002AD8DBDA6A5200C7
:1007F000D5D55A69A16942F480725A61BFF34F8F0F
:10080000BFF36F8F5A6931F8021C22F480725A616B
:10081000BFF34F8FBFF36F8F4DF6027291420AD034
:100820009A6AD2B24AB10DF1070201212046FFF7C0
:10083000E1FE0346B4E72368B2E79A6A12F47F4FF9
:1008400005D00DF107010120FFF74EFFF1E79B6A8C
:10085000B3F5803FA3D3FFF71DFFEAE70DF10702D1
:100860000021E3E70DF107010020EDE722F4FF721C
:1008700022F00102ACE700BF00ED00E0044B5A6932
:1008800042F010025A615A6922F008025A61704718
:1008900000ED00E0EFF30880EFF3098101B5724647
:1008A000FFF758FF01BD00BF002080F31488BFF39D
:1008B0006F8F01F047FA00200D490860BFF34F8F9A
:1008C0000C4880F3088800F02BF8202080F3118872
:1008D00009484FF40461401880F30988EFF314804D
:1008E0000221084380F31488BFF36F8F00F0FAF8F9
:1008F00094ED00E000160020400800200749D1F8E0
:1009000090200023C2F307221846934200DB704771
:10091000C1F89830C1F8A0000133F6E700ED00E01F
:1009200008B572B6002383F31388FFF7E7FF144B73
:100930004FF0FF32C3F88020C3F88420C3F888202A
:10094000C3F88C20C3F89020C3F89420C3F89820F3
:10095000C3F89C20C3F88021C3F88421C3F8882100
:10096000C3F88C21C3F89021C3F89421C3F89821CF
:10097000C3F89C2162B6BFF34F8FBFF36F8F08BDE2
:1009800000E100E0084B9B6883420BD1EFF3058345
:1009900043B1064B5A6842F080525A605A6A22F4B8
:1009A00000425A6203F077BDF007002000ED00E03E
:1009B000094A93686FF00A019967084958674B68BC
:1009C00043F080534B60002383F31188BFF36F8F94
:1009D0009368986F704700BFF007002000ED00E0BB
:1009E00010B50446EFF31183202383F31288BFF37D
:1009F0006F8F0A4B58699860094B4FF000625A603C
:100A0000084B026F1A600022436F426783F311881C
:100A1000BFF36F8F00F006F9204610BDF0070020ED
:100A200000ED00E0300700200B498A684FF03000ED
:100A30001044EFF3098C80E8F01F74467046FFF70E
:100A4000CFFFA64604498A6802F1300090E8F01F03
:100A50008CF3098870470000F00700201EF0040F97
:100A60000CBFEFF30880EFF30980816911F8021CD5
:100A70000229FFD001B503F0ACF901BD40B2002856
:100A800007DB044A4109012300F01F00834042F8BC
:100A90002130704700E100E0054B420900F01F00E3
:100AA00053F82220012303FA00F01040704700BFE2
:100AB00000E100E040B20028A8BF00F1604001F171
:100AC0000101B8BF064B4FEA4111ACBF00F56140D0
:100AD00000F00F00C9B2B4BF195480F8001370477A
:100AE00014ED00E00B4A08B50B4B22F07F029A6030
:100AF000BFF34F8FBFF36F8FD3F8882022F47002BB
:100B0000C3F8882001F070FF02F0A0FB00F060F84D
:100B100001F0AEFF0000000000ED00E042F8203CD4
:100B2000009B42F81C3C0A49019B42F8183C029B7E
:100B300042F8143C21F001014FF0807342F8043C6C
:100B400042F8081C0023203A02654367704700BF43
:100B50000D030000094A0346906870B113F1160FA7
:100B6000006E05D0A0F140029A4205D8834203D21C
:100B7000814228BF0020704700207047F007002006
:100B800008B515460B4A0C4B9060026F1A600E4672
:100B900000F048F82C4686F309884FF00000074B18
:100BA000984720464FF000014FF000024FF000033D
:100BB000034C2047F007002030070020F13D0000E3
:100BC0000D030000014B10221A61704700ED00E098
:100BD000044800232021C2180133302B82F800136F
:100BE000F9D1704700E100E008B5EFF30583064A4C
:100BF000103B02EBC30152F8330049688847BDE857
:100C00000840FFF7E3BC00BFA4460000024B034AC4
:100C10000348012100F076B8000002200000002007
:100C200058480000026E054B403A1A60044A4021C1
:100C3000C3E901121846012100F06EB83407002004
:100C400000000B15084AC2F898000B6823F01F0338
:100C5000034343F01003C2F89C308B6843F0010358
:100C6000C2F8A030704700BF00ED00E02DE9F0436E
:100C7000DFF8608085B00E461F4604464FF000093D
:100C8000B14523DA6068D8B13FB1411E08421BD19B
:100C90001F2819D92368194216D12368019303F03C
:100CA000CAF8A36803430393D8F89050C5F3072507
:100CB000D0B2013DA84207D801A9FFF7C3FF421CEB
:100CC00009F101090C34DBE76FF01502104605B09D
:100CD000BDE8F08300ED00E0044B0522C3F894204A
:100CE000BFF34F8FBFF36F8F704700BF00ED00E081
:100CF000BFF35F8F024B0022C3F89420704700BF00
:100D000000ED00E010B5034C01232278FFF7AEFFA1
:100D1000207010BD2008002008B50B4A002312786F
:100D2000FFF7A4FF10F1160F07D0084A0021D2F8F0
:100D30009030C3F30723984200DB08BDC2F8980047
:100D4000C2F8A0100130F2E72008002000ED00E01A
:100D50002DE9F043534B544CD3F890302568C3F33E
:100D600007239D4285B000F29A80FFF7C1FF002063
:100D70000C2685421AD14D4C4D4F25706846FFF721
:100D8000EDFBDFF82081DFF82C9106460025AE420E
:100D900013D1237843490020D1F89020C2F30722D1
:100DA000934276DBFFF798FF002042E0616806FB84
:100DB0000011FFF747FF0130DBE7009800EB05115A
:100DC0004FEA051CCB683B40B3F5000F48D00AD86A
:100DD000B3F5001F30D0B3F5800F36D0B3F5801FC8
:100DE00010D00135D3E7B3F1807F42D0B3F1007F5B
:100DF000F7D150F80C3088684A6803F01CF840F4CA
:100E0000802009E050F80C3088684A6803F013F835
:100E100040F0885040F43020CDE901230390D8F809
:100E200090302078C3F30723013B98422AD96FF012
:100E3000150005B0BDE8F08350F80C3088684A68AA
:100E400002F0F9FF40EA0900E6E750F80C30886844
:100E50004A6802F0F0FF40F0E06040F40030DBE769
:100E600050F80C3088684A6802F0E5FF40F0827064
:100E7000D2E750F80C3088684A6802F0DCFF40F096
:100E80008870C9E701A9FFF7DDFE237801332370DD
:100E9000A7E7C1F89830C1F8A00001337CE74FF014
:100EA000FF30C6E700ED00E06448000020080020A5
:100EB0000000F0FF0000081108B5024B1B689847BE
:100EC000002008BD40070020034B044A18609378B7
:100ED00043F002039370704740070020D4040020C1
:100EE00008B50649064821F00701C1F1005202F594
:100EF000003202F029FE002008BD00BF4716002086
:100F000044070020044A0123C2F840354FF08042D4
:100F10000020C2F87835704700E0014020B1034B53
:100F2000800143F001031847704700BF30480000BC
:100F3000084B70B5C31A0D4607499B100446594328
:100F40000648402202F095FF2B4601462046BDE8A8
:100F50007040184764070020B76DDBB654460000A8
:100F600073B50C4C0C4A4023041B00930D460B46F2
:100F70000A49A41061430646094802F0A6FF011E73
:100F800005DA30462B4602B0BDE87040184702B083
:100F900070BD00BF64070020353F0000B76DDBB6B1
:100FA0005446000010B5EFF31184202383F3128818
:100FB000BFF36F8F074A136823F00201DB0711604C
:100FC00002D4012003F0F0F884F31188BFF36F8F8F
:100FD00010BD00BFB4070020002270B501210446F7
:100FE0001046FFF767FD0F4800F09CFF0E4B98423C
:100FF00015D100F0A7FF26690C49304602F05AFED1
:1010000000280BDB012535642469084904F11C0024
:1010100002F050FE002801DBE564002070BD6FF097
:101020000400FBE7291100000000AD0B844800001C
:101030001FB500220123CDE90223094ACDF800D0D3
:101040006B46CDF804D002F06EFF002805DB4FF4AC
:1010500080420023684601F09DFD05B05DF804FB69
:10106000533F000030B4104B0C2202FB003301460A
:101070000020D3E90E529863EFF31180202484F30B
:101080001288BFF36F8F1C6C04F0C00444F002049C
:101090001C6480F31188BFF36F8F1DB12B4603488A
:1010A00030BC184730BC704764070020544600002D
:1010B00010B4EFF31182202383F31288BFF36F8FF4
:1010C0001748016841F002040460C80707D482F39E
:1010D0001188BFF36F8F012010BC00F045BF4FF0A7
:1010E0008041D1F80C04D1F80C14C907EFD5EFF307
:1010F000118083F31288BFF36F8F0A490B6C03F0E2
:10110000C00343F002030B6480F31188BFF36F8FB9
:1011100082F31188BFF36F8F002010BCFFF7A2BFCE
:10112000B40700206407002010B1012804D07047E4
:10113000034B1B6C5B0701D1FFF794BF704700BFE7
:10114000640700202DE9F0413849BFF35B8F074663
:10115000012251E8003F41E800200028F9D1BFF307
:101160005B8F33B9324933484B60CB608A6002F001
:10117000B4FD7B1E012B2BD8012F07D14FF08043EC
:10118000D3F81C3403F00303012B21D003F0D8F86B
:101190000546F8B9284B1B78E3B14FF08043022293
:1011A000C3F808230646DFF894804FF08044D4F853
:1011B0001824D4F81834D20315D503F00303012BF7
:1011C00001D0012F0FD155B386F31188BFF36F8F74
:1011D000BDE8F081EFF31186202383F31288BFF37B
:1011E0006F8F0125DFE7ADB1304602F015FED4F870
:1011F0001835002BDBD1D4F80421002AD7D0C4F84D
:101200000431D4F804310123C4F81835C8F880310A
:10121000A360CCE70021212001F06EFFE7E74FF04B
:1012200080430222C3F80423D2E700BF60070020F6
:1012300050070020800700202308002000E100E084
:1012400008B5074803F03EF838B10648FFF73CFE02
:101250000448FFF73DF8002008BD6FF01200FBE7DF
:1012600090460000691200000A2838B5074D044670
:1012700004D1AB680D215B6828469847AB680348EA
:101280005B68E1B29847204638BD00BF9046000039
:10129000F0B54068057B01F01F0444EA4514056978
:1012A00087B0002D64D0B2F5001F00F1100506D103
:1012B0002146284602F0F8FF002007B0F0BD01AE3D
:1012C0000027B2F5800F0197776039D1B3F1007F25
:1012D00014BF052304238DF804300023CDE90463F3
:1012E0000393836823FA01F111F001011AD1B2F1DD
:1012F000A07F17D104F01F03620903F5E0732AD021
:10130000012A3BD11F4A52F82330DB070AD40DF1E2
:10131000030632462146284601F002F91A4B98424C
:101320001CD0029603AA2146284600F0BBFF174BAB
:10133000984220D101222146284601F055F9BBE709
:10134000B3F1C06F05D0B3F1007F14BF01230223B6
:10135000C1E70323BFE74FF0A042D4E73146284658
:1013600001F03CF9094B9842DBD06FF00B00A4E789
:101370006FF08500A1E76FF015009EE751F823306C
:10138000FFDE00BF000300500400AD0B0000AD0BFA
:1013900038B545682B69B3B11035284601F00EF910
:1013A000044680B90146284601F0D4F8084B98421B
:1013B0000BD108492246284601F0ACF82246052107
:1013C0000620FFF777FB002038BD6FF00400FBE735
:1013D0000000AD0BD9130000420970B5034602D0DE
:1013E000012A17D070BD0D4E326951680029F9D01D
:1013F00003F01F0301250C689D400029F2D08A6884
:101400002A4002D04B68304698472CB123682146C9
:101410001C46F2E7024EE7E72346F8E77C46000069
:10142000684600002DE9F043466840F20635D006D4
:10143000337B87B002EA050554BFC2F34010032096
:1014400001F01F07B5F5837F144647EA43178DF86F
:10145000030045D00FD8062D18D007D8B5B1022DFE
:1014600040D06FF0150007B0BDE8F083B5F5807F80
:10147000F7D101250AE040F20222954234D0B5F5B9
:10148000407F33D0B5F5007FEBD102250123220345
:1014900003FA01F12CD57368C3F80815326982BBD1
:1014A00007F01F037F0929D0012F77D13E4A02EBB5
:1014B000830284F48033D2F80017C3F30043C4F3EB
:1014C000404444EA430421F4E16144EA800421F009
:1014D000070144EA05230B43C2F800370020C2E7A6
:1014E0000725D3E70425D1E70525CFE70325CDE779
:1014F000630344BF7368C3F80C15CFE74FF0A042F5
:10150000D5E710360DF102023946304601F008F8F1
:1015100014F4403F80460CD13946304602F0C2FEFA
:10152000224B9845DAD19DF80210304601F050F870
:10153000D4E701AB4FF0000903AA39463046CDE9A4
:101540000439CDE90199CDF80C9000F0ABFE174BB2
:10155000984286D114F4003315D09DF803308DF8ED
:101560000E3084F48034C4F300444B4603AA394659
:1015700030468DF80C508DF80D4000F04DFF0B4BB0
:101580009842CDD06DE7CDE9043303AA0DF10303F2
:1015900039463046039300F085FEF0E703F5E0732B
:1015A00052F82330FFDE00BF000300500000AD0BF7
:1015B000036803F01F025B09026004D0012B03489B
:1015C00018BF002070474FF0A04070470003005044
:1015D0002DE9F04FDFF86091DFF860A185B0154686
:1015E000834600EB810140F2FF18594503D10020EA
:1015F00005B0BDE8F08FDBF800305804C3F3C32218
:10160000C3F3080400F191801B0E19F802704445E1
:1016100008BF4FF0FF34192B00F28A80DFE803F097
:101620000D141A1D20261D888888883663888888AE
:10163000888888888888667C7F82C5F80C45621C0B
:101640005ED10BF1040BD0E7C5F81445631CF8D04C
:1016500000265FE0C5F80845F1E7C5F81045F5E755
:10166000661CC5F80845ECD0002604E0601CC5F8EF
:101670000C45E6D0012603A80394FFF799FF039BCE
:10168000012202FA03F3C0F80C3508E0C5F808455A
:10169000002FDBD1631CD4D0002632460627DBF8AE
:1016A0000030019303F40040002818BF002203A873
:1016B000009218BF01260394FFF77AFF039C019B59
:1016C000009A00EB8400C3F3412CD0F800473B02A2
:1016D00043EA8C03134304EA0A04234343EA460320
:1016E000C0F80037ADE7C5F80C45D1E7C5F860454F
:1016F000621CDBF80030A4D0C3F30043002BB9D048
:1017000003A80394FFF754FF039B012606FA03F393
:10171000C0F808353246C2E7C5F86445E8E7C5F8C1
:101720006845E5E7C5F86C45E2E76FF015005FE74F
:101730006FF085005CE700BFBA4B0000F0F8FCFFDB
:101740002DE9F041044647680D4602F0F9FD4FF0DF
:10175000200888B9264B1B7873B16426606802F0B4
:101760007DFCF0B9012002F0B7FC013EF6D100216A
:10177000212001F0C1FCF0E7EFF31186314688F338
:101780001288BFF36F8F606802F068FCA8B986F317
:101790001188BFF36F8FEFE786F31188BFF36F8F68
:1017A000E5E7EFF31186314688F31288BFF36F8FB8
:1017B000606802F053FC0028EED0FB691D7063687E
:1017C000FA691B680020C3F844250122C3F84825A4
:1017D000C3F82001D3F82041C3F85801D3F85801C9
:1017E0009A6081F31188BFF36F8FBDE8F08100BF6D
:1017F00023080020F7B50546002201210220FFF74B
:1018000059F90220FFF73AF96B6818681A69C0F8AD
:101810002425997D5A7D0A43198B1B7D0B43134365
:10182000C0F86C356E68D6E9004313F0010348D068
:101830002F6907F1080002F05BFC304B98425AD147
:10184000387A04F10C0204F5907102F047FC387A02
:10185000012707FA00F000F05FFB0823C4F8003509
:10186000F369C4F844350023C4F84835A760D4F8B8
:101870005831002BFBD00021C4F800156B68DC68E0
:1018800001AA204602F0BDFB002805DB019B22686F
:1018900019791868FFF79CFE6A6813680821C3F875
:1018A0000015117A51B9126AC3F834250122C3F820
:1018B0003825C3F81011D3F810111A60002003B0B6
:1018C000F0BD0822C4F80025F269C4F84425C4F824
:1018D00048350123A360D4F82031002BFBD000232E
:1018E000C4F82031D4F820310123E3604FF4807331
:1018F000C4F80433BBE76FF00400E0E70000AD0B71
:1019000070B5012383400E4ABFF35B8FDC4352E87E
:10191000001F01EA040542E80056002EF7D1BFF38C
:101920005B8F4FF4803282400648C0F80823BFF333
:101930005F8FBFF36F8F0B4214BF0120002070BD7B
:10194000E00700200010014070B40E49D1E90034D6
:10195000D01AC31844F1000422F07F46C1E90034D4
:10196000A6F50013B3F5400F09D2074B1B681A0AFE
:101970001B069C19054B42F10005C3E9004570BCEC
:1019800001F03EBD80050020E4070020880500200E
:1019900011B3BFF35B8F0123104A834052E800CF9D
:1019A0004CEA030C42E800C10029F7D1BFF35B8F7A
:1019B0000B4A4FF480338340C2F80433094BBFF322
:1019C0005B8F1B68BFF35B8FC340DB0742BF064BD7
:1019D0004FF40032C3F80021704700BFE007002039
:1019E00000100140DC07002000E100E00D4B18680A
:1019F000010A0006BFF35F8F0B4BD3F804351818AC
:101A000041F10001B3F5801F0AD2084BD3E900234E
:101A1000904271EB030303D210F1807041F1000199
:101A2000704700BFE4070020001001408805002037
:101A30002DE9F04F85B016461F469DF840A004469C
:101A4000FFF75EFF0190FFF7D1FFB04271EB070394
:101A500054D23E4B301A67EB0101984271F10001FC
:101A60004FD23B4B03EB0413D3E902239F4208BF41
:101A700096425ED037494FF4803804F1500508FA99
:101A800004F8AD00C1F848832046ADB202F017FB60
:101A900026F07F4B05F1804504F5A87305F58835E0
:101AA000DC464FF003090293029A2CF07F4341F881
:101AB0002230C1F84483D1F80435274A6FF0020080
:101AC000C01A604420F07F40904232D9286868B143
:101AD000D1F804350393A3EB0B0020F07F40B0F561
:101AE000000F26D9204602F0EAFA039BBAF1000F54
:101AF00007D109EB030C09F10109D5E7BAF1000F91
:101B000009D06FF0150520460199FFF741FF2846DF
:101B100005B0BDE8F08F0123104ABFF35B8FA340EF
:101B200052E8000F184342E800010029F8D1BFF342
:101B30005B8F07490E98230101EB0412C8500F9BDD
:101B40005360C2E902670025DDE700BF01008000A5
:101B50007005002000100140FDFF7F00DC07002021
:101B60007FB51C4C1C4BC4F80833C4F848331B4BDE
:101B700000254FF0FF304FF0FF31C4F80855C3E99E
:101B800002014FF48033C4F80433154B02264FF49E
:101B900000320121C4F804631120C3F880212A46D1
:101BA000FEF788FF1120FEF769FF0E4A0123A360AC
:101BB000236013600C4B0D4A0093CDE901550023BF
:101BC0002846FFF735FF3046FFF7BCFA284604B039
:101BD00070BD00BF0010014003000F007005002021
:101BE00000E100E0E007002049190000FFFF7F004E
:101BF0002DE9F7432F4CD4F8043399070BD5D4F8CB
:101C0000043143B12C4A0023C4F80431D4F8043120
:101C1000136801331360D4F80433DA0329D5BFF312
:101C20005B8F264B53E8002F22F0010143E80010A0
:101C30000028F7D1BFF35B8FD30702D4D4F840312B
:101C4000BBB10025C4F84051D4F84031FFF7CEFEB7
:101C5000EFF31182202383F31288BFF36F8F184BA9
:101C6000D3E90267B042B94106D282F31188BFF3CB
:101C70006F8F03B0BDE8F0834FF0FF384FF0FF39AE
:101C8000C3E90289D3E900101D604FF48033C4F822
:101C90004833C4F84051D4F8403182F31188BFF37F
:101CA0006F8F0029E5D0009032463B462846884792
:101CB000DFE700BF00100140E4070020DC07002040
:101CC0007005002030B5431C124C85B005D084420D
:101CD000A8BF0446012CB8BF0124FFF787FE0E4BB6
:101CE0000C4DD3E90013401AB0F5000F10D22218A2
:101CF000AA4228BF2A4652184FF000000749009117
:101D0000CDE9010043F10003FFF792FE05B030BDBD
:101D10002A46F0E7FFFF7F008005002049190000F8
:101D200008B5FFF763FE024B1B68C01A08BD00BF71
:101D300080050020024AD2F80034002BFBD0704707
:101D400000E0014010B54FF08053D3F830210D2A48
:101D500055D14FF080410022C1F80C21C1F810216B
:101D6000C1F83825464AD3F80404C2F82005D3F850
:101D70000804C2F82405D3F80C04C2F82805D3F8E7
:101D80001004C2F82C05D3F81404C2F83005D3F8B7
:101D90001804C2F83405D3F81C04C2F84005D3F87F
:101DA0002004C2F84405D3F82404C2F84805D3F847
:101DB0002804C2F84C05D3F82C04C2F85005D3F817
:101DC0003004C2F85405D3F83404C2F86005D3F8DF
:101DD0003804C2F86405D3F83C04C2F86805D3F8A7
:101DE0004004C2F86C05D3F84434C2F87035D1F819
:101DF0000034DB0709D56FF00103C1F800344FF060
:101E00008053D3F830310D2B0CD14FF08053D3F8E1
:101E100034313BB14FF01023D3F808224FF0804308
:101E2000C3F858254FF01023D3F80022002A03DB13
:101E3000D3F80432002B22DA124901234FF010208C
:101E4000C1F804351224FFF775FFC0F80042FFF710
:101E500071FFC0F80442FFF76DFF0023C1F804359D
:101E6000FFF768FFBFF34F8F0749084BCA6802F4BA
:101E7000E0621343CB60BFF34F8F00BFFDE710BD9F
:101E800000C0004000E0014000ED00E00400FA0561
:101E900030B50468CCB1BFF35B8FB4FA84F3C3F1FF
:101EA0001F03DBB201229A4024EA020250E8005FDD
:101EB000A54204D140E8002CBCF1000FF6D1BFF3DD
:101EC0005B8FE6D102480B7030BD0248FCE700BFD3
:101ED0000000AD0B0200AD0B10B50368CB40DB0773
:101EE00014D401238B400268BFF35B8F43EA0201E5
:101EF00050E8004F944204D140E8001CBCF1000FB0
:101F0000F6D1BFF35B8FEED1014810BD0148FCE76D
:101F10000000AD0B0400AD0B014BC3F80405704786
:101F200000F00140044B1A7922B9012218601A719D
:101F30000248704702487047E80700200000AD0BD8
:101F40000C00AD0B08B5074B1B682BB10020FEF74A
:101F5000A3FD08B9FEF792FD4FF080430022C3F8BD
:101F6000182508BDE807002010B510B1012843D09E
:101F700010BD4FF08043D3F81814D3F81824C803C9
:101F800021D502F00303012B04D013B1002002F08D
:101F9000B1F800234FF080420220C2F81835082221
:101FA0004FF4827303F180430021196002F18042F3
:101FB0001C6801241460154A12680AB34FF080436C
:101FC000C3F80403D4E7D3F81424D107E1D5D3F838
:101FD0001C249207DAD40D4A12681AB10222C3F8FF
:101FE0000423C5E7D3F80421002AFBD00022C3F85C
:101FF0000421D3F80431BBE700224FF48073D1E70A
:102000001A68002AFCD019601B68B1E7E8070020B5
:1020100010B54FF08043D3F8002152B10020C3F82F
:102020000001D3F800210122C3F80823104B1B68DC
:1020300098474FF08043D3F8042172B10022C3F8CF
:102040000421D3F80421D3F81824D3F818249207D4
:1020500004D10122C3F818259A6010BD0222C3F8EA
:102060000823034BBDE810401B680120184700BF40
:10207000E8070020036803F01F025B09026004D038
:10208000012B034818BF002070474FF0A040704755
:1020900000030050034A430900F01F00D35C1844BA
:1020A000C0B27047D04B000070B50546FFF7F2FF95
:1020B0000C4C08300E4634F81030DA0508D5C3F35E
:1020C000432304EBC302284654F833305268984740
:1020D000A3682BB1E26831462846BDE87040184736
:1020E00070BD00BFE404002008B5FFF7D3FF034B29
:1020F000083033F81000400B08BD00BFE404002096
:1021000008B5FFF7C7FF034B083033F81000C0F3E2
:10211000400008BDE404002008B5FFF7BBFF034BF7
:10212000083033F81000C0F3401008BDE40400206C
:10213000034611F0010010B5CCB20DD1A207C4F3D3
:10214000400012D5094AD2F820055860C2F820058F
:10215000003818BF012008E04FF0A041D1F8202539
:102160001A60C1F82025002AE8D010BD00030050F5
:1021700010B5FFF78FFF124A083032F81030D9053A
:102180001CD5C3F3432123F4F85322F8103002F195
:102190000E04002034F8023F13F4807F03D0C3F311
:1021A000432399420AD001302A28F3D1002342F870
:1021B00031300448BDE81040FFF78EBE10BD00BFAF
:1021C000E404002050050020F0B505460020044638
:1021D000012607468C420BD1114BD3F87C2132B13A
:1021E0000022C3F87C21D3F87C3140F00040F0BDE0
:1021F000E3B29B0003F580729B0806FA03F31D42CD
:102200000BD002F1804202F5C042D2F800C0BCF10E
:10221000000F02D01760126818430134DAE700BFDC
:1022200000600040F7B506460846FFF733FF194F38
:1022300000F108050C4637F81530DB0727D5304686
:1022400002F00CF82046FFF767FF40B12046FFF789
:102250004BFF316800F5A270002341F82030204682
:10226000FFF786FF002301A827F815300194FFF738
:1022700001FF019B00EB8300074BD0F800271340C0
:1022800043F00203C0F80037044803B0F0BD04482F
:10229000FBE700BFE4040020F0F8FCFF0000AD0BFA
:1022A0000400AD0B2DE9FF41164680460846FFF7B6
:1022B000F1FE0D463168044609B32846FFF720FFBA
:1022C00018B12846FFF728FF10BB0023CDE90033E3
:1022D0008DF80E308DF80F300DF10F020B462846A9
:1022E0000DF10E0101F062FF474A04F1080132F8D6
:1022F000113023F0020343F0010322F81130736818
:1023000063B328461F785968FFF7FAFE10B1D1B1C0
:102310003E4826E03C4A04F1080032F8103023F031
:102320002003DB04DB0C22F8103061B1032FEFD85F
:102330007168496891F800C0D8F80010A7B90CF589
:10234000A27C41F82C70304A04F1080132F81130B7
:1023500023F01C0343EA870322F81130B3684BBB18
:102360002B4804B0BDE8F08101EB8C0143EA4C330B
:10237000D1F810E52EF0030EC1F810E5D8F80010E2
:1023800001EB8C0E43F02003DEF8101522F810301C
:1023900021F44F3121F44071CEF810152902DEF8F6
:1023A000108501F47C5141EA074141EA0801CEF869
:1023B0001015C8E7D3E900672846FFF7D9FE002EBD
:1023C000CED0114DD5E90023964203D19F4201D1D1
:1023D000002209E00F480DF10F01FFF759FD0C4BEA
:1023E0009842BED19DF80F2045F8326005EBC2033C
:1023F00008345F6035F8143043EA422343F48073B5
:1024000025F81430ACE700BFE40400200400AD0B55
:102410000000AD0B500500202DE9F0430C4685B0BF
:102420008046204611461E46FFF734FE054629B376
:102430002046FFF765FE18B92046FFF76DFE18BB72
:10244000314F05F1080937F8193013F01C0F02D08D
:102450004B78012B18D001238DF80F300023CDE9E4
:1024600000134A1C8B1C20460DF10F0101F09EFE4B
:1024700037F8193043F0030327F81930002E41D004
:102480002046FFF73DFE18B9204805B0BDE8F083AF
:1024900096F800C0D8F800301B4F0CF5A27200214E
:1024A00043F8221005F1080237F8121021F020013C
:1024B000C904C90C27F8121075781DB3D8F80000AC
:1024C000B67800EB8C002D04D0F8103523F4991366
:1024D00023F4F853C0F81035230203F47C5305F4B9
:1024E00040353605D0F810E52B4306F4801641EA56
:1024F0004C31334341F0200143EA0E0327F8121018
:10250000C0F810350248C0E7E40400200400AD0B19
:102510000000AD0B014BC3E902127047E404002038
:1025200010B508461446FFF7F7FD50B10846FFF70F
:10253000B1FD054B083033F8103004485B0B2370B5
:1025400010BD0348FCE700BFE40400200000AD0B11
:102550000400AD0B70B5164D95F8744006462CBBC3
:102560002146542205F1100001F0DEFF30686E6E46
:1025700021468E420ED10023C0F87C31D0F87C3148
:1025800040F30730FEF77AFA01230A4885F87430E1
:10259000EB6670BDCBB29B0003F580727C2B08BF4D
:1025A000845001F1010108BF8358E2E70248F0E7D7
:1025B000E40400200000AD0B0C00AD0B034B93F8BE
:1025C0007400003818BF0120704700BFE4040020E9
:1025D0000148FFF781BC00BF4C0500200148FFF710
:1025E00057BC00BF4C05002073B503681646D3F8EE
:1025F0000423002AA8BF4FF000420546A8BFC3F835
:10260000042308460C46FFF787FD00B30846FFF792
:1026100077FD0146D8B92046FFF766FD04B2A40055
:1026200004F5807203462868815029688258214445
:10263000D1F8102542F00102C1F810252EB1296809
:10264000012202FA03F3C1F8043302B070BD204640
:10265000FFF720FD0F4B083033F81030C3F382032F
:10266000042B12D0052B12D001A80194FFF702FD14
:10267000019AD0F81035D34003F00103991C20468D
:1026800002B0BDE8704001F0DABD0321F7E7022196
:10269000F5E700BFE40400202DE9F04F694BDFF8B7
:1026A000A881D3F80403D8F86410C0B289B040F010
:1026B0000040FFF789FD051E2FDAC24600235AF8B5
:1026C000701F06A8CDE90633FFF732FD5F4B01937B
:1026D0000DF118094FF0000B019A12F8013B01921D
:1026E000DA0803F007031AF8022022FA03F3DA07E4
:1026F0001CD409F10409BBF1000F14D0D8F8641000
:102700004FF00040FFF760FDD8F8701006A8FFF703
:102710000FFD0028DAD125F000450124002D79D1E4
:1027200009B0BDE8F08F4FF0010BD5E7484B5B4493
:102730000293D9F800100029DBD0029B91FAA1F195
:102740001C78B1FA81F141EA44142046FFF7A2FC5B
:102750000830059438F81070C808BB0819F8002034
:10276000039301F00701012303FA01F122EA0102B8
:1027700009F8002005A8FFF77DFC059A039B02F5E8
:10278000E072C7F3820650F822205B073746C2F397
:10279000014224D520463946D6B2FFF785FC05A86C
:1027A0000594FFF767FC059B03F5E07350F82330B1
:1027B000C3F301439E4207D10021204601F03FFDB3
:1027C0003146204601F03BFD05A80594FFF752FC79
:1027D000059B012202FA03F3C0F82035A9E7022A7B
:1027E0000CD10321204601F02AFD06F00503012B40
:1027F000EAD139462046FFF757FCE5E7022120469B
:10280000039201F01CFD032EF3D0039A032ADBD1BF
:10281000022EEDE795FAA5F3B3FA83F304FA03F277
:102820009B0003F1804303F5C04325EA0205D3F87A
:102830001005D3F81015C0F30520C1F30141FFF7CF
:1028400033FC6BE700600040E4040020E04B000034
:10285000E04B000001460148FFF71ABB5C05002071
:1028600008B5144BA8220021184601F05DFE032292
:10287000026111494261114A8161C2614FF4806273
:102880000262002282624262C26201660C494166B3
:102890001021816603460267C2664267BFF35F8FFD
:1028A000084911F8010D98540132102AF9D1BFF3EB
:1028B0005F8F08BD10040020E24B000010000020D4
:1028C00000000020FB4B000038B5EFF311852023FA
:1028D00083F31288BFF36F8F064B9C6801F005FDF0
:1028E00085F31188BFF36F8F2046BDE83840FEF7AF
:1028F00049B800BFF007002038B5094B53F8204015
:10290000013053F82050A54200D838BD636823B188
:10291000204601F0EDFC0834F5E723689847FAE714
:102920006449000070B52B4B2B4C2C4D012286B016
:1029300003201A70FFF7E0FFFDF716FE01F0F4FC2C
:102940000420FFF7D9FF2646AE4204F1300410D32D
:1029500000F014FB204C224EAC4226D300F022FBA8
:10296000FDF7CEFB1F4A137B23F00103137306B060
:1029700070BD54F80C3C059354F8103C049354F883
:10298000143C039354F8183C029354F81C3C0193F4
:1029900054F8203C009354E90A2354E90C0100F058
:1029A0001FF954F8303C5E65CDE7D4E90A23B3F152
:1029B000FF3F08BFB2F1FF3F05D052EA0301206894
:1029C00003D101F0C3FC3034C6E73146183000F0C3
:1029D0009DFCF8E72308002024480000244800005C
:1029E000594400001006002008B50348034A00219E
:1029F000121A01F095FC08BD70050020280800207F
:102A000070B5002386B00122CDE90423134E144D86
:102A100001930F22CDE902321249142303FB005522
:102A200006EBC01604464FF4C07000FB04110E4BB9
:102A300000954FF4A072304600F0D2F8737B0B4A39
:102A4000EE6023F0040373734FF4046304FB033359
:102A500013442C746B6006B070BD00BF900500205D
:102A6000F0070020801000202B43000040080020C9
:102A7000BFB50020FFF740FF2C4B83F308882C4D97
:102A80002C4E6B692C4F43F400736B610024E023E0
:102A900085F82230EC772C766C76AC7685F8204081
:102AA0006B6A43F4E0236B6285F82340FDF7E6FE92
:102AB000FEF788F84FF0FF33AB62EB62FEF748F9A0
:102AC000FEF7A4F81D4BB36040F201129A81C3E9EE
:102AD0001844DC6601F0F5FB0120FFF70DFF022032
:102AE000174DFFF709FF00F07DFA164B756105934E
:102AF000012315490094CDE903434FF480623B461E
:102B0000CDE90144284600F06BF86A7B064622F0C6
:102B1000040228466A7301F055FC2046FFF770FF57
:102B20003A4631462846FEF72BF800BF80100020B9
:102B300000ED00E0F00700202529000090060020AD
:102B400010060020FC4B00000012002038B504469F
:102B5000EFF31185202383F31288BFF36F8F01F009
:102B60007FFC48B10022826701F02CFC294608480E
:102B7000BDE8384000F0BEB9D4E902329A4218BF2D
:102B80000133A36085F31188BFF36F8F38BD00BF99
:102B90002408002013B5EFF31181202484F3128858
:102BA000BFF36F8F846844B1013C846081F3118866
:102BB000BFF36F8F002002B010BD52EA030406D1AC
:102BC00081F31188BFF36F8F6FF00F00F3E7CDE94A
:102BD00000230246014800F061F9ECE724080020D8
:102BE0002DE9F043073285B022F007020E461F465A
:102BF0001099017300F158037F32C0E9163304467F
:102C0000002322F03F020421836041733F2A0F9882
:102C1000A073C4E90633E37306F14009A2F140084A
:102C200005D883F31188BFF36F8F084602DFB5180C
:102C300029462046FDF7AAFC07300E9B20F007002E
:102C4000A066C4E9189802930D9B01932D1A0C9B62
:102C500000932A463B4631462046FDF75FFF00239E
:102C60006365044B9B6803B1DB6EE366284605B0E1
:102C7000BDE8F083F007002038B50D4D2B4653F822
:102C8000184F9C4200D004B9EC68AB6838B95A7B45
:102C9000D20604D1A26912B9DA897F2A05D89C42EA
:102CA00002D0204600F07AFA23466B6138BD00BF9F
:102CB000F007002008B590F90D20437B002A01465B
:102CC00004DA03F07F03437301F042FB044B98687E
:102CD000431A58425841BDE80840FFF7CDBF00BF36
:102CE000F007002070B490F90D30427B002B29DBF7
:102CF000D30627D183692BBB134962F07F0242734D
:102D00000A4652F8184F944218BF2346CC6923B99B
:102D1000C0E900242060C8610CE090F90E5093F9DE
:102D20000E60B5420AD0AE4208DD5A68C0E90032F2
:102D30001060586070BC0020FFF79EBF9C42E7D037
:102D40001B68E4E770BC7047F00700202DE9F041F4
:102D5000002A427B0E460CBF102108211142044676
:102D60000FD141EA0203D20918D1437308291BD0BD
:102D70000120FFF781FFBFF35F8F637B23F06003C8
:102D80006373274B9B68A34243D1EFF30583002B6A
:102D90003FD13046BDE8F041FDF70ABE03F07F03A6
:102DA000437301F0D5FAE1E7A36813B1204601F0BF
:102DB000D7FA04F1180001F090FBA56D04F1580753
:102DC000AF4211D04FF0000875B1284601F0C8FAA3
:102DD00005F1180001F081FBC5F878802846FFF75F
:102DE00081FFA56DAF42EFD10D4DAB689C42BFD1C5
:102DF000EFF30583002BBBD00120FFF73DFF094B0C
:102E0000AB6040F201129A810022C3E91822DA660F
:102E1000B1E786F31188BFF36F8FBDE8F08100BF83
:102E2000F00700209006002070B590F90D20437B3C
:102E3000002A014604DA03F07F03437301F088FAA5
:102E40004B7B154A63F07F0310464B7350F8183FD5
:102E5000D469834208BF002323B9C1E9000421607B
:102E6000D1610CE091F90E5093F90E60B5420ED08D
:102E7000AE420CDD5868C1E90030016059609068CD
:102E8000431A5842BDE870405841FFF7F5BE9C42D6
:102E9000E3D01B68E0E700BFF0070020F8B5124B55
:102EA0000C461146114A98681060DDE90676EFF38A
:102EB0001182202282F31288BFF36F8F9D6828460B
:102EC00001F058FAB6F1FF3F08BFB7F1FF3F06D057
:102ED00007493A46334605F1180000F017FA204634
:102EE000BDE8F840FDF764BDF007002010080020A1
:102EF0005944000049B9EFF3058030B9054B5A69D0
:102F00009B689A4201D0FDF753BD81F31188BFF34E
:102F10006F8F7047F007002010B5EFF31184202267
:102F200082F31288BFF36F8F427B510704D484F37E
:102F30001188BFF36F8F10BD22F004024273FFF7B8
:102F4000D1FE21460248BDE81040FFF7D3BF00BFC5
:102F500024080020034648B9EFF3058232B9064A37
:102F600051699268914201D0FDF722BD83F3118827
:102F7000BFF36F8F704700BFF0070020EFF31181A0
:102F8000202383F31288BFF36F8F054B9A68D37B9E
:102F9000013BD37381F31188BFF36F8F704700BF7C
:102FA000F007002038B5EFF31185202484F3128850
:102FB000BFF36F8F0A4B9A68D37B0133D373002022
:102FC000FFF75AFE85F31188BFF36F8FEFF311807F
:102FD00084F31288BFF36F8FBDE83840FFF7BABFA4
:102FE000F0070020024B03F11802C3E906227047E4
:102FF000F0070020F8B5EFF31185202383F3128842
:10300000BFF36F8F19498868437B03F07F034373D5
:1030100001F09EF98B685A7B084662F07F025A7372
:1030200050F8182FCC69824208BF002222B9C3E9A8
:1030300000042360CB610CE093F90E6092F90E70EE
:10304000BE420ED0B7420CDD5168C3E900210B60CF
:1030500053600120FFF710FE2846BDE8F840FDF759
:10306000A7BCA242E3D01268E0E700BFF00700204F
:1030700050EA01032DE9F04105460E4603D1FFF762
:10308000B9FF00202BE0831C71F1FF3329DB01F035
:1030900039FA2C18EFF31188202383F31288BFF339
:1030A0006F8F124F124BB8681860FFF703FEB868B5
:1030B00010492A463346183000F028F9BA68537B85
:1030C00043F0100353734046FDF772FC01F01AFA07
:1030D000201A63EB0303012873F10003D1DBBDE881
:1030E000F0816FF00104241AD4E700BFF00700203C
:1030F0001008002059440000B1F1FF3F08BFB0F1B3
:10310000FF3F08B506D10A4B986801F06AF94FF005
:10311000FF3008BDFFF7ACFF4FF47A7147F6FF733D
:103120000022C0FB0132D80B40EA4240F1E700BF69
:10313000F0070020014B9868704700BFF00700209F
:10314000044BC01A044BC0105843044B01221A54BC
:10315000704700BF10070020ABAAAAAA24080020CD
:10316000C3897F2B12D80A4B1B6863B1094B90F9B6
:103170000E201B689A4209DB437BDB0606D1064B17
:10318000C31A18BF012303F0010070470023FAE7B8
:1031900018080020140800209005002070B50E4B80
:1031A0000E4C1E7C06EB460304EBC304054620468A
:1031B00001F093F90A4B002228469A55FFF7D0FFF9
:1031C00048B1084B08491A68013A2046D317BDE8B0
:1031D000704000F09BB870BDF00700201007002081
:1031E00024080020180800204131000038B5EFF312
:1031F0001185202383F31288BFF36F8F104B114A80
:103200009C681068A04206D1FFF7C8FF85F31188BB
:10321000BFF36F8F38BD00211B7C11600A4AD35C5D
:10322000002BF3D02046FFF79BFF0028EED0637BF6
:10323000DB0602D12046FFF7F7FD2046E4E700BF9A
:10324000F0070020100800202408002008B50648D8
:10325000064A0749121A01F065F8BDE80840054A18
:103260000549064801F05EB8C00400207005002042
:10327000184C000000000000104C0000C0040020AA
:10328000034B1B680BB9FEF74BBD0020704700BF16
:103290001C08002030B570B10B4B5B6898420AD017
:1032A000036843B1D3E90421D0E90445121941EB85
:1032B0000501C3E90421D0E9003213605A600023FC
:1032C000C0E9003330BD00BF6005002010B50E4BD3
:1032D0001C689C4204D1FFF7D3FF6FF0004010BD83
:1032E000FFF7CEFF002CF8D0D4E904321B1A62EBB2
:1032F000E072B3F1004F72F10001EEDA002AACBFC8
:1033000018460020EBE700BF60050020B3F1FF3F47
:1033100008BFB2F1FF3FF8B504461D4616465ED021
:103320008160EFF31187202383F31288BFF36F8F3F
:10333000013275F1FF3324DA2E49D1E900206FF014
:1033400001039B1A4FF0FF3262EB00009E1B60EB03
:103350000500012E70F1000301DA01260020C4E906
:103360000460254ED6F800C07568B44508BF4FF01C
:10337000000CBCF1000F0DD1C4E900652C60746035
:103380001CE0FFF77DFF013645F10005361845EBDF
:10339000E070E4E7DCE90420D4E90431934271EB06
:1033A000000E1DDAD21ADCF8043060EB0100CCE923
:1033B0000420C4E900C31C60CCF804403368B34265
:1033C00009D09C4207D10D4B1C6824B9FFF77EFF42
:1033D0002146FEF777FC87F31188BFF36F8FF8BDA6
:1033E0009B1A61EB0001AC45C4E90431C4D0DCF8A0
:1033F00000C0BEE728070020600500201C08002050
:103400002DE9F84FEFF3118C202383F31288BFF3DB
:103410006F8FDFF8B0A0DFF8B0902C4FC9F8000034
:10342000DAF800000024504508BF00200025D7E945
:103430000021D9F80030E04678B3D0E9046C4FEAB7
:10344000E37EB3427EEB0C0B05DAF61A6CEB0E044E
:10345000C0E9046421E0B21841EBE671C0E904451B
:10346000C7E90021FFF716FF88F31188BFF36F8FBC
:1034700083689847EFF31188202383F31288BFF302
:103480006F8FD9F80030DAF800009B1B5045C44616
:10349000C9F80030CBD1D7E900219A1841EBE3738A
:1034A0000024C7E90023C9F80040FFF70FFF2146B9
:1034B000FEF708FC88F31188BFF36F8FBDE8F84F63
:1034C000FFF794BE600500201C080020280700209C
:1034D00010B5EFF31184202383F31288BFF36F8FAD
:1034E000FFF7CEFE054A0346D2E90001181841EB6A
:1034F000E37184F31188BFF36F8F10BD280700209C
:103500002DE9F04F8DB043680293837815469A07F2
:10351000804640F10D8100240E78002E00F00A81D3
:10352000252E0BD04B1C03930134029B41463046A1
:1035300098470028C0F2F6800399EDE74E788B1C7F
:10354000252E0393F0D00027B946BB46BBF11F0FD1
:1035500038D8A6F12003102B0AD8DFE803F02A0997
:1035600009300909092109090928092D09091F003C
:10357000A6F13003092B33D92A2E37D11BF0400F87
:1035800055F8043B40F08280002BA7BF4BF0200B86
:103590009946C3F100094BF0280B01E04BF0010BF9
:1035A000039B13F8016B0393002ECFD130E04BF057
:1035B000020B4BF0040BF3E74BF0080BF0E74BF07A
:1035C000100BEDE7BBF17F0F19D8A6F13003092BE3
:1035D000D2D81BF0400F03D00A2101FB0737DFE7E9
:1035E0000A2101FB09394BF0200BD9E72E2E06D119
:1035F0001BF0400F40F09E804BF0400BD0E76C2E4C
:1036000031D02BD8682E36D06A2E3CD04C2E3AD0F2
:10361000002F46F02003B8BF2BF04002A3F1650154
:10362000BCBF1FFA82FB0027022901D9612B2FD1D1
:10363000073525F00705DFF8ACA2083507271BF092
:10364000080F66D00AEB070B56465E4563D1A4EB24
:103650000A0A06EB0A02A9EB07096FE1742E9FD054
:103660007A2E9DD0D4E71BF0800F18BF4BF4007B5F
:103670004BF0800B94E71BF4807F18BF4BF4007B6A
:103680004BF4807B8CE74BF4207B89E71F4687E770
:10369000A6F16301122900F2F080DFE811F01300B7
:1036A0004F00EE00EE00EE00EE004F00EE00EE00E8
:1036B000EE00EE00EE00FE00E900EE00EE001B0062
:1036C000EE00AF0055F8043B8DF8183001270DF1DE
:1036D000180AB4E755F804AB834BBAF1000F08BFE2
:1036E0009A461BF0400F14BF39464FF0FF31504649
:1036F00000F022FF0746A2E7029B414620209847A0
:1037000000280FDB013EB742F6D34C44A41BB14660
:1037100098E74E46F7E716F8010B029B414698479B
:10372000002892DA98F8023043F0040388F8023057
:103730004FF0FF3420460DB0BDE8F08F1BF0800F36
:1037400034D01BF4007F2CD0073525F00705AA469E
:1037500069685AF8080B2BF010050029ADB237DA6A
:10376000404261EB410145F480650DF1180B0A23DD
:103770005A4600F0EDFEA0EB0B0301936B0662D5F9
:10378000019B25F001019F4289B240F3A180002EE8
:1037900000F0998015F0100240F09C80BB460D4669
:1037A00023E0AA465AF8040BC117D4E7AA461BF433
:1037B000807F5AF8041B01D10846F5E71BF4007F0F
:1037C00015BF48B208B241F3C01141F3C031C2E79E
:1037D00050EA0103C9D11BF0400FC6D0002FC4D15D
:1037E0002BF0110295B2BB46019740F2064115EA53
:1037F00001021CBF0BF1010B00222CE02BF0100288
:103800001FFA82FB0A231BF0800C49D01BF40071C5
:103810001DBF073525F00705AA46AA461ABF5AF864
:10382000080B69685AF8040B50EA010545D12BF0E2
:1038300016051BF0400FADB242D0002F40D12BF047
:10384000170295B2019715F0100248D0019B002E87
:1038500042D103F1010B29075AD4EB0706D5D9450C
:103860006FDD0199A9EB0B035F18CB465B4649E07E
:103870004BF0100B10237826C5E7782B04D1C6F146
:10388000780343F01003BEE7029B4146252098478A
:103890000028FFF647AF023447E608230026B2E7C8
:1038A000AA461BF480715AF8040BBDD01BF40071BA
:1038B0001ABFC0B2614680B2B6E72BF0060295B2DD
:1038C0000DF1180B54E725F01105ADB2BB468CE79E
:1038D0000D46B8E73B460D4603F1020BBBE7DDF8AA
:1038E00004B082E7084C0000014C0000CDE904322E
:1038F0004146029B202098470028FFF613AF049B07
:10390000059A01339945F1DCA4EB0B01CC189B46D9
:103910000AB3029B4146302098470028FFF602AFC9
:103920008EB901342744019B391B994224DC1D4682
:103930005DBB019AA9EB0B092244554614469144FC
:1039400035E0019F92E7023441463046029B98479A
:103950000028E7DAE6E640F206410D42E2D015F033
:10396000020F14BF2B20202015F4806F04F10104F6
:10397000414618BF2D20E9E7029B41463020984779
:10398000002804F10104CEDACCE606AB013D414645
:10399000585D029B98470028CADAC3E6029B41465D
:1039A00020209847002804F10104FFF6BBAEA9EBE4
:1039B0000403002BF2DCBFE5704770B403460C46ED
:1039C000DA88006819792243056986682B68012422
:1039D0008C4012F0010F14BF2343A3432B603368C4
:1039E00070BC184737B50C460569836801A95B6848
:1039F000984748B9019B2A685A40012303FA04F109
:103A00000A4214BF1846002003B030BD03460A46E0
:103A100000681979012303FA01F103691B6819424F
:103A200003D022B183681B6903E0002AFAD08368BF
:103A3000DB68184700F046BC836800EBC101B3F5B2
:103A4000004F2CBF51F8220031F81200704700EBF4
:103A5000C1018068B0F5004F2CBF41F8223021F839
:103A60001230704708B50122FFF7E6FFD04008BDCD
:103A70008368B3F5004F00EBC10108D34B681AB15E
:103A800043F001034B60704723F00103FAE74B88D2
:103A90001AB143F001034B80704723F00103FAE7AA
:103AA00053000122FFF7D3BFB0F5004F34BF04230A
:103AB0000823481C0833A0EBD300B0FA80F0C0F113
:103AC0001F0070472DE9F0410D4686680446FFF758
:103AD000C9FFB6F5004F014601D3012832D0304668
:103AE000FFF7E2FF04EB80010E6996B9E36801225B
:103AF00082401343E36002220D612B462946204693
:103B0000FFF7A5FF032229462046BDE8F041FFF755
:103B10009EBF022231462046FFF78EFF294603460C
:103B200007462046FFF793FF0322334629462046E7
:103B3000FFF78DFF39462B462046FFF788FF02220C
:103B40003146E1E7BDE8F081B2F5802F2CBF0823B4
:103B50000423D21A2DE9F0418C18CD1D25F007055C
:103B600024F00704641B0026E40805602146AC60CD
:103B7000EE602046FFF798FF421D9200013002F1EF
:103B800007074FEAD707A2F110023146B8BF324605
:103B900005F1100000F0C8FC3A4631462846FFF710
:103BA0007FFF3346324631462846FFF750FFA4EBED
:103BB0000708284631460122FFF75AFF4246394698
:103BC000FFF76EFF3B46324639462846FFF73FFF78
:103BD00021462846FFF764FF4346324621462846E1
:103BE000FFF735FF214628460122FFF741FF3946FE
:103BF000BDE8F041FFF766BF002070470FB407B57E
:103C000004A951F8040B0191FCF768FB03B05DF8BF
:103C100004EB04B07047038B13F0070305D103686E
:103C2000002B0CBF002003207047022B05D1408BD6
:103C3000B0FA80F0400980007047012B05D103687D
:103C4000002B0CBF0020052070470020704710B5E6
:103C50000C4600B111B96FF0150010BD081D00F041
:103C600093F80028F9D1A368032BF6D9F3E72DE9DF
:103C7000F0410D4607461946281D90461E4600F0A5
:103C800094F8044638B13346424629463846A4469D
:103C9000BDE8F0416047BDE8F08110B4EFF3118258
:103CA000202484F31288BFF36F8F416110BC01217F
:103CB000FCF746BB38B50C46054658B151B10B6808
:103CC00043B14B6833B11C22002100F02DFC2C6164
:103CD000002038BD6FF01500FBE770B505460E46B5
:103CE000FFF7B5FF041E14DBEFF31182202383F3EB
:103CF0001288BFF36F8F6B8B2C8B4FF6FF718B424B
:103D000004F0070407D182F31188BFF36F8F6FF0BF
:103D10000A04204670BD022C0CD101336B8382F360
:103D20001188BFF36F8F0023224631462846FFF7E4
:103D30009EFFEEE7062C14D8DFE804F004131313FB
:103D4000041A0400002333606B683BB9C5E90066C0
:103D5000ACB902212846FCF7F3FADAE71E606E6080
:103D6000F6E782F31188BFF36F8F6FF00404D0E79A
:103D700082F31188BFF36F8F6FF08504C9E782F378
:103D80001188BFF36F8FC4E7034658B1426802F051
:103D90000302012A03D0032A04D1026812B10020D1
:103DA000986070476FF0150070474268816002F0BC
:103DB0000302032A4FF0000203460CBF00681046BE
:103DC0005A6070477047012801D1EFF30583FEF771
:103DD0007BBD01460068FFF7F6BF08B5FCF7D2FBD4
:103DE000BDE80840FCF7F2BB00210120FFF7EBBF64
:103DF00061B662B680F31188BFF36F8F704772B6F9
:103E0000002383F31188BFF36F8FBFF34F8F30BF51
:103E100062B6BFF36F8F704772B6002383F31188C9
:103E2000BFF36F8FBFF34F8F20BF80F31188BFF3B5
:103E30006F8F62B67047202809D9B0F1004F08D8BB
:103E40000138B0FA80F0C0F11F0040007047082030
:103E500070473E20704708B5FDF72EF8002008BDDA
:103E60000369C9B20C2201FB0233186C00F0070091
:103E7000704770B5C9B20369EFF31185202484F34C
:103E80001288BFF36F8F0C2606FB0134246C14F0EC
:103E9000C00408D0A24206D085F31188BFF36F8F0B
:103EA0004FF0FF3070BD06FB013301221A6485F329
:103EB0001188BFF36F8F436803EBC1035B689847BA
:103EC0000020EFE78022FFF7D4BFF8B5069F046912
:103ED000C9B2EFF31186202585F31288BFF36F8FE7
:103EE0000C2505FB0144256C05F0070CBCF1010F06
:103EF0000CD1276486F31188BFF36F8FC4E90E23BA
:103F0000436853F8313098470020F8BD05F0C005EC
:103F1000AF4286F31188BFF36F8F0CBF6FF077004D
:103F20004FF0FF30F1E713B580240094FFF7CDFF89
:103F300002B010BD10B40069CBB21C2403FB040016
:103F4000002110BC10470020FEF70EB8002000F042
:103F50002BB91046FEF7FABD43685B68D3F81035FD
:103F60000B600020704743685B6802EA010021EAA9
:103F70000201C3F80805C3F80C1500207047436818
:103F80005B680020C3F80815704743685B68002031
:103F9000C3F80C15704743685A68D2F8043521EA13
:103FA00003000B40C2F80805C2F80C35002070472A
:103FB00010B503695868F8B1884219D19C6808683F
:103FC0005860A14200D19860002008602AB15A6868
:103FD0000A609A68596002B99960002010E0814235
:103FE00006D10868206098688142EDD19C60EBE7BB
:103FF000044600680028F2D1002AE8D16FF01500CD
:1040000010BD30B543681360057A446804EBC504FD
:10401000A34202D36FF0010030BD5C798C4201D025
:104020000833F0E70020F7E743681B68D3F8800403
:10403000C3F88004704742681368D3F8100150B188
:10404000126A002012780A70C3F81001D3F8102108
:1040500001221A6070474FF0FF3070470268034634
:10406000D2F8580140B95B68DB0706D4D2F82001CA
:10407000003818BF012070470120704743681B6853
:10408000D3F80423D20517D5D3F82021A2B1EFF33A
:104090001182202181F31288BFF36F8FD3F8201192
:1040A00031B10021C3F82011D3F820110121D960CA
:1040B00082F31188BFF36F8FD3F85831704700F146
:1040C00050039B009BB203F1804303F58833002229
:1040D0001A601B687047004700F0EFB8C00000F19D
:1040E000804000F5F830C0F81015C0F8142570476E
:1040F000FEF7B0BBF7B5044618B1012824D003B0D1
:10410000F0BD4FF080430222C3F808230122DA6099
:10411000C3F80401D3F80431064601238DF80730B3
:1041200042F210754FF08047DCB1012CE7D1D7F88F
:104130000C3403F480338EBB002BE0D00120FFF75A
:10414000CBFF013DF3D1DAE74FF080430022C3F803
:1041500008035860C3F80021D3F800310DF10706B9
:10416000DBE7D7F8183403F480333EB9002BC6D010
:104170000120FFF7B1FF013DF3D1C0E7D7F81824C4
:1041800002F003023260002BB9D09DF8070001282D
:10419000B5D1FFF7A1FF013DC6D1B0E7D7F80C2498
:1041A00002F001023270EEE7FFF7A4BFF7B501900D
:1041B00001A8DDE9084716461D46FDF75BFF019B98
:1041C000B6F1000C18BF4FF0010C00EB83000B1E82
:1041D00018BF0123002D43EA4C0314BF4FF00C0C11
:1041E0004FF0000C002C43EA0C0314BF4FF4E06CBA
:1041F0004FF0000C002F43EA0C03D0F8002714BF47
:104200004FF4403C4FF0000C43EA0C0322EA030356
:1042100001B109780EB13678760019430DB12D78C9
:10422000AD0031430CB12478240229430FB13F780B
:104230003F040C433C43C0F8004703B0F0BD1FB53A
:104240000DF10F03019300238DF80F1000931A4610
:104250001946FFF7ABFF05B05DF804FB38B505461E
:1042600008460C46FDF758FFB0B10846FDF748FF79
:1042700090B90846FDF738FF2A6801238340C2F849
:1042800008332A6803B202EB8303D3F8102522F027
:104290000302C3F8102538BD20460021BDE8384090
:1042A000FFF7CDBFFDF7BEBFFFF7D8BFFEF7D8BA07
:1042B00008B5FFF7FBFF002008BD08B1FCF72EBED4
:1042C0007047704740B1C368587810F001001EBFB6
:1042D0001878B0FA80F040097047EFF3118320237B
:1042E00083F31288BFF36F8FFEE708B5FFF7F5FF82
:1042F00010B5D0E9003433B90020E268537843F0B8
:104300000103537010BD204698470028F4D00028C0
:10431000B8BF4042E368FF28A8BFFF201870ECE751
:1043200000F002B900F0F2B8704708B52024EFF3AE
:10433000118384F31288BFF36F8FFFF760FDF6E7F8
:10434000EFF30580003818BF01207047FEF7E4BD89
:10435000D0E9003213605A600023C0E9003370478F
:1043600008B5FFF7F5FF437B23F0020343730023F7
:10437000836008BD38B504460D46FEF79BFC637BA1
:1043800043F002036373E5B1A5602B689D4209D138
:104390006B68C4E900531C606C6012E06A689A4262
:1043A000F6D01B68002BF3D094F90E2093F90E1071
:1043B0008A42F3D09142F1DD5A68C4E900321460B8
:1043C0005C6038BD10B5EFF31184202383F31288AD
:1043D000BFF36F8FFEF786FC84F31188BFF36F8FF6
:1043E00010BD10B50446183000F077F8EFF31181D6
:1043F000202383F31288BFF36F8F627B12F01002C9
:1044000004D081F31188BFF36F8F10BD2046BDE843
:104410001040FEF79BBC38B50446EFF3118520230E
:1044200083F31288BFF36F8F437B13F0280F0BD1F8
:1044300083680BB1FFF794FF637B51B903F0FB0373
:1044400063732046FEF74EFC85F31188BFF36F8F30
:1044500038BD03F0EB03F3E701211838FFF7DBBFAA
:1044600038B5EFF31185202383F31288BFF36F8FE4
:104470000468A0420DD034B12046FFF771FF04F16B
:10448000180000F02AF885F31188BFF36F8F2046DB
:1044900038BD0024F7E7EFF31181202282F3128860
:1044A000BFF36F8F027BD2070CD581F31188BFF366
:1044B0006F8F002383F31188BFF36F8F0423184697
:1044C00002DF7047437B1B0704D581F31188BFF3DC
:1044D0006F8F70470122FEF739BC10B5EFF31184DE
:1044E000202282F31288BFF36F8F03683BB1FEF77F
:1044F000D1FE002084F31188BFF36F8F10BD6FF0E1
:104500001500F7E708B5FEF7E3FF08BD0A4491423E
:1045100000F1FF3300D1704710B511F8014B03F8DB
:10452000014F9142F9D110BD02440346934200D19C
:10453000704703F8011BF9E710B5024601448A42AF
:10454000134603D01C780132002CF8D1181A10BD84
:10455000F0B5C3F137070446FFB203F01F0310465E
:10456000082BE6B233D0102B3ED06508A40844EAED
:10457000817445EAC1752D194FEA910242EB51024F
:10458000290941EA02716D1842EB1212290A41EA27
:1045900002616D1842EB1222290C41EA02416D18AA
:1045A00042EB1242AD1842F10002EC0844EA4274B8
:1045B000D10804EB8402A6EB4205EDB2092D0CD91B
:1045C0000134A5F10A0541F10001EDB212E0E40861
:1045D00044EA417406F00705C908303554EA01027F
:1045E00000F8015BBCD1F0BD240944EA017406F077
:1045F0000F050909092D84BFED19EDB2EDE70000A3
:0C460000014800687047000030070020EF
:10460C00050F000000000000D90F00005446000008
:10461C00B142000000000000911300007C46000035
:10462C009113000068460000F5170000904600004A
:10463C004112000000000000611B0000000000009F
:08464C00E10E00000000000077
:104654008F4B000090480000A0480000680500202F
:10466400640700209E4B0000BC480000EC4800009A
:104674006A050020B8070020AC4B0000D4480000B5
:10468400EC4800006C050020C4070020C24B000069
:1046940010490000584900006E050020D007002092
:1046A40011200000D740000000000000E93D000098
:1046B400904600007D40000000000000E93D00003D
:1046C40000000000E93D000000000000E93D00009A
:1046D40099260000D740000000000000E93D0000DA
:1046E40000000000E93D000000000000E93D00007A
:1046F40000000000E93D000000000000E93D00006A
:1047040000000000E93D000000000000E93D000059
:1047140000000000E93D000000000000E93D000049
:1047240000000000E93D000000000000F11B000053
:1047340000000000E93D000000000000E93D000029
:1047440000000000E93D000000000000E93D000019
:1047540000000000E93D000000000000E93D000009
:1047640000000000E93D000000000000E93D0000F9
:1047740000000000E93D000000000000E93D0000E9
:1047840000000000E93D000000000000E93D0000D9
:1047940000000000E93D000000000000E93D0000C9
:1047A40000000000E93D000000000000E93D0000B9
:1047B40000000000E93D000000000000E93D0000A9
:1047C40000000000E93D000000000000E93D000099
:1047D40000000000E93D000000000000E93D000089
:1047E40000000000E93D000000000000E93D000079
:1047F40000000000E93D000000000000E93D000069
:1048040000000000E93D000000000000E93D000058
:1048140000000000E93D000000000000E93D000048
:104830000338FDD8704700007C46000013000000DC
:104840007C460000110000007C4600000C001100B6
:104850007C4600000B001100C00400200000000096
:1048600000000B06020000006C4800000000000081
:10487000804B00002400020700000020884B00004D
:1048800020000B11610F0000310F0000000000003C
:10489000B1100000A50F0000473F00004D3F000091
:1048A00031100000C53E0000273F0000000000005E
:1048B000613E00000000000000000000FF03000057
:1048C00000030050000000000100000000600040F4
:1048D00000000000FFFFFFFF00000050000000008C
:1048E00000000000006000400000000025140000EF
:1048F000593F0000673F00007F3F00008B3F0000F2
:10490000973F000091120000B13F0000000000003E
:1049100000200040010000000000000034490000B9
:104920000000D60100000000000000002208002066
:104930002108002000200040404900000100000044
:1049400048490000040000000600000005000002C5
:104950000806000107060003374000004117000069
:10496000294000000C4600000C46000044460000B0
:104970004C46000054460000544600004572726FD9
:10498000723A20627574746F6E3020646576696364
:1049900065202573206973206E6F742072656164D1
:1049A000790A004572726F722025643A2066616947
:1049B0006C656420746F20636F6E666967757265DD
:1049C0002025732070696E2025640A004572726F7D
:1049D000723A20627574746F6E3120646576696313
:1049E00065202573206973206E6F74207265616481
:1049F000790A004572726F722025643A204C454452
:104A00003020646576696365202573206973206EA4
:104A10006F742072656164790A004572726F72204A
:104A200025643A206661696C656420746F20636F49
:104A30006E666967757265204C4544302064657602
:104A40006963652025732070696E2025640A00451E
:104A500072726F722025643A204C4544312064659F
:104A600076696365202573206973206E6F742072E8
:104A7000656164790A004572726F722025643A207C
:104A80006661696C656420746F20636F6E66696728
:104A9000757265204C4544312064657669636520F4
:104AA00025732070696E2025640A004572726F724A
:104AB0003A206770696F5F35762064657669636553
:104AC000202573206973206E6F742072656164798C
:104AD0000A004572726F722025643A206661696C23
:104AE000656420746F20636F6E66696775726520F8
:104AF0006770696F5F357620646576696365202528
:104B0000732070696E2025640A00507265737320EB
:104B100074686520627574746F6E730A002A2A2A9D
:104B200020426F6F74696E67206E524620436F6E2D
:104B30006E6563742053444B2076322E392E302D0F
:104B4000373738376232363439383430202A2A2A17
:104B50000A002A2A2A205573696E67205A657068F0
:104B60007972204F532076332E372E39392D316606
:104B700038663364633239313432202A2A2A0A00F3
:104B8000464C4153485F30005352414D5F30006303
:104B90006C6F636B403430303030303030006770D1
:104BA000696F403530303030333030006770696FB6
:104BB0004035303030303030300000010203040521
:104BC0000607756172744034303030323030300056
:104BD00000202A2A2A2A2A2A2A2A2A2A2A2A2A2A69
:104BE00000015465726D696E616C00000000000088
:104BF0000054545220524547474553006D61696E39
:104C000000286E756C6C29002A666C6F61742A002E
:104C18007C4600000E0001007C4600000D000100EB
:104C2800F93B000000000000573E000000000000B3
:104C3800000000000000000000000000000000006C
:104C4800000000000000000000000000000000005C
:104C5800000000000000000000000000000000004C
:104C6800000000000000000000000000000000003C
:104C7800000000000000000000000000000000002C
:104C8800000000000000000000000000000000001C
:104C9800000000000000000008000000FF00000005
:104CA800000000000300000000000000FFFF0F00EC
:084CB8006005002060050020EA
:084CC0000000000000000000EC
:044CC80015E015E0FE
:04000003000008A948
:00000001FF
