:020000040000FA
:1000000040A00020C9470000F3620100B54700008E
:10001000B5470000B5470000B547000000000000EC
:100020000000000000000000000000007549000012
:10003000B54700000000000041490000B54700003E
:10004000214B0000C5D60000214B0000214B0000D1
:10005000214B0000214B0000214B0000214B0000F0
:10006000214B0000214B0000214B0000214B0000E0
:10007000214B0000214B0000214B0000214B0000D0
:10008000214B0000214B0000214B0000214B0000C0
:10009000214B0000214B0000214B0000214B0000B0
:1000A000214B0000214B0000214B0000214B0000A0
:1000B000214B0000214B0000214B0000214B000090
:1000C000214B0000214B0000214B0000214B000080
:1000D000214B0000214B0000214B0000214B000070
:1000E000214B0000214B0000214B0000214B000060
:1000F000214B0000214B0000214B0000214B000050
:1001000001F0FF01102A2BDB10F0070F08D010F8C8
:10011000013B013A8B422DD010F0070F42B3F6D1CC
:10012000F0B441EA012141EA014122F007047FF0E5
:1001300000070023F0E80256083C85EA010586EA3C
:10014000010685FA47F5A3FA87F586FA47F6A5FA78
:1001500087F68EB9EED1F0BC01F0FF0102F0070284
:1001600032B110F8013B013A83EA010313B1F8D12F
:100170000020704701387047002D06BF3546033810
:10018000073815F0010F07D1013015F4807F02BF49
:10019000013015F4C03F0130F0BC0138704700BF9A
:1001A00081F0004102E000BF83F0004330B54FEA28
:1001B00041044FEA430594EA050F08BF90EA020F95
:1001C0001FBF54EA000C55EA020C7FEA645C7FEA28
:1001D000655C00F0E2804FEA5454D4EB5555B8BF4B
:1001E0006D420CDD2C4480EA020281EA030382EABC
:1001F000000083EA010180EA020281EA0303362D4E
:1002000088BF30BD11F0004F4FEA01314FF4801C20
:100210004CEA113102D0404261EB410113F0004F32
:100220004FEA03334CEA133302D0524263EB4303E9
:1002300094EA050F00F0A780A4F10104D5F1200E87
:100240000DDB02FA0EFC22FA05F2801841F10001E2
:1002500003FA0EF2801843FA05F359410EE0A5F1B6
:1002600020050EF1200E012A03FA0EFC28BF4CF0E7
:10027000020C43FA05F3C01851EBE37101F000459D
:1002800007D54FF0000EDCF1000C7EEB00006EEBAA
:100290000101B1F5801F1BD3B1F5001F0CD3490834
:1002A0005FEA30004FEA3C0C04F101044FEA44528B
:1002B00012F5800F80F09A80BCF1004F08BF5FEA12
:1002C000500C50F1000041EB045141EA050130BDF2
:1002D0005FEA4C0C404141EB0101013C28BFB1F504
:1002E000801FE9D291F0000F04BF01460020B1FA4F
:1002F00081F308BF2033A3F10B03B3F120020CDA22
:100300000C3208DD02F1140CC2F10C0201FA0CF0FF
:1003100021FA02F10CE002F11402D8BFC2F1200C64
:1003200001FA02F120FA0CFCDCBF41EA0C0190401A
:10033000E41AA2BF01EB0451294330BD6FEA040463
:100340001F3C1CDA0C340EDC04F11404C4F120024E
:1003500020FA04F001FA02F340EA030021FA04F360
:1003600045EA030130BDC4F10C04C4F1200220FAB7
:1003700002F001FA04F340EA0300294630BD21FAF5
:1003800004F0294630BD94F0000F83F4801306BFBB
:1003900081F480110134013D4EE77FEA645C18BFAF
:1003A0007FEA655C29D094EA050F08BF90EA020F46
:1003B00005D054EA000C04BF1946104630BD91EA3E
:1003C000030F1EBF0021002030BD5FEA545C05D141
:1003D0004000494128BF41F0004130BD14F5800480
:1003E0003CBF01F5801130BD01F0004545F0FE41F4
:1003F00041F470014FF0000030BD7FEA645C1ABF29
:10040000194610467FEA655C1CBF0B46024650EA5F
:10041000013406BF52EA033591EA030F41F400218B
:1004200030BD00BF90F0000F04BF0021704730B511
:100430004FF4806404F132044FF000054FF00001E6
:1004400050E700BF90F0000F04BF0021704730B5A7
:100450004FF4806404F1320410F0004548BF40427C
:100460004FF000013EE700BF42004FEAE2014FEAD1
:1004700031014FEA02701FBF12F07F4393F07F4FAC
:1004800081F06051704732F07F4208BF704793F0AF
:100490007F4F04BF41F40021704730B54FF46074C2
:1004A00001F0004521F000411CE700BF50EA0102C5
:1004B00008BF704730B54FF000050AE050EA01026E
:1004C00008BF704730B511F0004502D5404261EBDE
:1004D00041014FF4806404F132045FEA915C3FF41F
:1004E000D8AE4FF003025FEADC0C18BF03325FEABC
:1004F000DC0C18BF033202EBDC02C2F1200300FA6D
:1005000003FC20FA02F001FA03FE40EA0E0021FA91
:1005100002F11444BDE600BF70B54FF0FF0C4CF47F
:10052000E06C1CEA11541DBF1CEA135594EA0C0F31
:1005300095EA0C0F00F0DEF82C4481EA030621EA6C
:100540004C5123EA4C5350EA013518BF52EA0335A7
:1005500041F4801143F4801338D0A0FB02CE4FF059
:100560000005E1FB02E506F00042E0FB03E54FF089
:100570000006E1FB03569CF0000F18BF4EF0010E81
:10058000A4F1FF04B6F5007F64F5407404D25FEA7D
:100590004E0E6D4146EB060642EAC62141EA555130
:1005A0004FEAC52040EA5E504FEACE2EB4F1FD0C72
:1005B00088BFBCF5E06F1ED8BEF1004F08BF5FEAF0
:1005C000500E50F1000041EB045170BD06F00046A2
:1005D00046EA010140EA020081EA0301B4EB5C044F
:1005E000C2BFD4EB0C0541EA045170BD41F4801147
:1005F0004FF0000E013C00F3AB8014F1360FDEBF6C
:10060000002001F0004170BDC4F10004203C35DA47
:100610000C341BDC04F11404C4F1200500FA05F3CA
:1006200020FA04F001FA05F240EA020001F000426B
:1006300021F0004110EBD37021FA04F642EB0601E1
:100640005EEA430E08BF20EAD37070BDC4F10C040B
:10065000C4F1200500FA04F320FA05F001FA04F2CF
:1006600040EA020001F0004110EBD37041F10001BB
:100670005EEA430E08BF20EAD37070BDC4F12005C6
:1006800000FA05F24EEA020E20FA04F301FA05F22E
:1006900043EA020321FA04F001F0004121FA04F2D6
:1006A00020EA020000EBD3705EEA430E08BF20EAA6
:1006B000D37070BD94F0000F0FD101F000464000E0
:1006C00041EB010111F4801F08BF013CF7D041EA62
:1006D000060195F0000F18BF704703F00046520066
:1006E00043EB030313F4801F08BF013DF7D043EA37
:1006F0000603704794EA0C0F0CEA135518BF95EAED
:100700000C0F0CD050EA410618BF52EA4306D1D173
:1007100081EA030101F000414FF0000070BD50EA92
:10072000410606BF1046194652EA430619D094EA1C
:100730000C0F02D150EA013613D195EA0C0F05D106
:1007400052EA03361CBF104619460AD181EA03015A
:1007500001F0004141F0FE4141F470014FF0000012
:1007600070BD41F0FE4141F4780170BD70B54FF0AD
:10077000FF0C4CF4E06C1CEA11541DBF1CEA13552D
:1007800094EA0C0F95EA0C0F00F0A7F8A4EB05040F
:1007900081EA030E52EA03354FEA013100F0888006
:1007A0004FEA03334FF0805545EA131343EA1263CF
:1007B0004FEA022245EA111545EA10654FEA002684
:1007C0000EF000419D4208BF964244F1FD0404F53D
:1007D000407402D25B084FEA3202B61A65EB030599
:1007E0005B084FEA32024FF480104FF4002CB6EB56
:1007F000020E75EB030E22BFB61A754640EA0C00D6
:100800005B084FEA3202B6EB020E75EB030E22BF15
:10081000B61A754640EA5C005B084FEA3202B6EB56
:10082000020E75EB030E22BFB61A754640EA9C0015
:100830005B084FEA3202B6EB020E75EB030E22BFE5
:10084000B61A754640EADC0055EA060E18D04FEAA3
:10085000051545EA16754FEA06164FEAC30343EA43
:1008600052734FEAC2025FEA1C1CC0D111F4801F10
:100870000BD141EA00014FF000004FF0004CB6E709
:1008800011F4801F04BF01430020B4F1FD0C88BFA8
:10089000BCF5E06F3FF6AFAEB5EB030C04BFB6EBB3
:1008A000020C5FEA500C50F1000041EB045170BDA6
:1008B0000EF0004E4EEA113114EB5C04C2BFD4EBD3
:1008C0000C0541EA045170BD41F480114FF0000E57
:1008D000013C90E645EA060E8DE60CEA135594EAD3
:1008E0000C0F08BF95EA0C0F3FF43BAF94EA0C0FD6
:1008F0000AD150EA01347FF434AF95EA0C0F7FF44B
:1009000025AF104619462CE795EA0C0F06D152EA9E
:1009100003353FF4FDAE1046194622E750EA410682
:1009200018BF52EA43067FF4C5AE50EA41047FF493
:100930000DAF52EA43057FF4EBAE12E74FF0FF3CF8
:1009400006E000BF4FF0010C02E000BF4FF0010CC9
:100950004DF804CD4FEA410C7FEA6C5C4FEA430C42
:1009600018BF7FEA6C5C1BD001B050EA410C0CBF91
:1009700052EA430C91EA030F02BF90EA020F0020F3
:10098000704710F1000F91EA030F58BF994208BF5A
:1009900090422CBFD8176FEAE37040F00100704717
:1009A0004FEA410C7FEA6C5C02D150EA013C07D16E
:1009B0004FEA430C7FEA6C5CD6D152EA033CD3D0B9
:1009C0005DF8040B704700BF8446104662468C46B3
:1009D0001946634600E000BF01B5FFF7B7FF0028E6
:1009E00048BF10F1000F01BD4DF808EDFFF7F4FF0F
:1009F0000CBF012000205DF808FB00BF4DF808ED9A
:100A0000FFF7EAFF34BF012000205DF808FB00BFBC
:100A10004DF808EDFFF7E0FF94BF012000205DF8DE
:100A200008FB00BF4DF808EDFFF7CEFF94BF012093
:100A300000205DF808FB00BF4DF808EDFFF7C4FF8C
:100A400034BF012000205DF808FB00BF4FEA410CD5
:100A50007FEA6C5C02D150EA013C0AD14FEA430CB8
:100A60007FEA6C5C02D152EA033C02D14FF00000F5
:100A700070474FF0010070474FEA410212F5001233
:100A800015D211D56FF47873B3EB625212D94FEAD5
:100A9000C12343F0004343EA505311F0004F23FABF
:100AA00002F018BF404270474FF00000704750EA14
:100AB000013005D111F0004008BF6FF000407047D1
:100AC0004FF00000704700BF53B94AB9002908BF72
:100AD00000281CBF4FF0FF314FF0FF3000F00CB882
:100AE000ADF1080C6DE904CE00F010F8DDF804E07B
:100AF000DDE9022304B07047704700BF034613F8D6
:100B0000012B002AFBD1181A013870472DE9F04754
:100B100086468C460846089E154674461946002BA4
:100B200040F0C2808542B2FA82F245D94AB1C2F1A0
:100B3000200300FA02FC2EFA03F3954043EA0C0C62
:100B400094404FEA154EA8B2BCFBFEF8230C0EFBF6
:100B500018CC08FB00F943EA0C43994528D9EB1857
:100B600008F1FF3704D2994502D9A8F102072B44B6
:100B7000A3EB0903A4B2B3FBFEFC0EFB1C330CFB7E
:100B800000F044EA0344A04214D92C190CF1FF33BD
:100B900004D2A04202D9ACF102032C44241A43EA45
:100BA00007401EB1D440002334607360BDE8F08775
:100BB0004746DDE76346F1E792BB431B01214FEA5D
:100BC000154EAFB2B3FBFEFC200C0EFB1C330CFB2E
:100BD00007F840EA0343984562D9EB180CF1FF305F
:100BE00004D2984502D9ACF102002B44A3EB0803D0
:100BF000A4B2B3FBFEFC0EFB1C330CFB07F744EA6C
:100C00000344A7424ED92C190CF1FF3304D2A7425A
:100C100002D9ACF102032C44E41B43EA0040C0E7D4
:100C2000C2F1200320FA03F1954090402EFA03F31D
:100C300003434FEA154EAFB2B1FBFEFC0EFB1C1096
:100C4000190C0CFB07F841EA0041884504FA02F44C
:100C500022D969180CF1FF3004D2884502D9ACF1D1
:100C600002002944A1EB08019BB2B1FBFEFC0EFB84
:100C70001C110CFB07F743EA01439F420ED9EB1806
:100C80000CF1FF3104D29F4202D9ACF102012B4496
:100C9000DB1B41EA004192E76046E3E76146F7E784
:100CA0006046A3E76346B7E7834206D916B9002139
:100CB00008467BE7C6E900E0F9E7B3FA83F78FB9A6
:100CC000834201D3724508D8BEEB020460EB0303F4
:100CD00001209C461EB9002168E73846FAE7C6E9BC
:100CE000004CF8E7C7F1200CBB4022FA0CF41C437F
:100CF0002EFA0CF120FA0CF3B84001434FEA1449E4
:100D00000EFA07F5B3FBF9F81FFA84FE09FB183059
:100D10000B0C08FB0EFA43EA00439A4502FA07F26D
:100D200040D9E31808F1FF3004D29A4502D9A8F15E
:100D300002002344A3EB0A0389B2B3FBF9F809FBD1
:100D4000183308FB0EFE41EA03418E452CD9611889
:100D500008F1FF3304D28E4502D9A8F102032144E1
:100D600043EA0040A0FB0298A1EB0E014145CE46AC
:100D7000434602D306D14D4504D2B9EB020E68EBCF
:100D800004030138002EA6D0B5EB0E0261EB03017F
:100D900001FA0CFC22FA07F34CEA0303F940C6E916
:100DA000003198E74046C5E74346D9E70000000018
:100DB0002DE9F843D0E90638456903EB08042F34E0
:100DC000A5420F46164619D8DFF86C80A3FB080130
:100DD00017A3D3E90023FFF777FE0346601BA0FBB0
:100DE000080123F07F4412A3D3E90023FFF76CFE30
:100DF00020F07F403C603060BDE8F883DFF8389039
:100E00000BA3D3E90023A5FB0901FFF75DFE20F04A
:100E10007F440A480A2106A3D3E90023E8FB09011D
:100E2000FFF752FE20F07F403C603060BDE8F88361
:100E30008D49FD1A0700000000CA9A3B00166BF1AD
:100E400070B5234C9DF810E094F846C01CF0020FDA
:100E500036D1460816F0040532D149B363F3830C4A
:100E6000400194F82030A1864FEACE0E0EF0180E05
:100E700000F0200040EA0E0023F03803184394F8F5
:100E80002C3084F82000134884F846C066F302032F
:100E900084F82C309121A2FB000301FB02310AA34C
:100EA000D3E90023FFF710FEC4E90E00284670BD09
:100EB00094F82C3065F3020384F82C30284670BD7A
:100EC0000C25284670BD00BF8D49FD1A07000000A3
:100ED000C00C0020002AE7842DE9F04390F846304A
:100EE00090F82020464D6FF30003044600F12D01D9
:100EF000C3F3800060F386128DB084F8463084F826
:100F0000202007F0FDF994F82020A38E3D48E461ED
:100F100002F079024FF0000984F820209121A3FB10
:100F20000002C4E9059984F8009001FB032132A373
:100F3000D3E90023FFF7C8FDE26BC4F8049002F187
:100F40000E03984288BF1946A4EB05052E4BC4F842
:100F50000C904FEA95059CBF4A460146A3FB053518
:100F60003123A2632161A360064607F08BF94F4647
:100F70000DF12C08CDF8208006940397A38E00F184
:100F80000E0920489121A3FB000201FB03212369E4
:100F900004931E4B07931E4B059302230B9316A33A
:100FA000D3E90023FFF790FD104619464FF47A72FB
:100FB0000023FFF789FDC5F387050235EDB2CDE9C2
:100FC000016003214B462A460097384607F066F831
:100FD000414607F019FF40B994F8463043F0020348
:100FE00084F846300DB0BDE8F0830C200DB0BDE8AC
:100FF000F08300BFAFF300808D49FD1A07000000A9
:10100000C00C0020002AE784310CC330C9830000E3
:101010002DB60000000000002DE9F04F0B79092BE0
:1010200093B00C46074600F04E820D2B00F0E9818C
:10103000062B17D0084A0949094840F2471314F013
:10104000C8FF002383F31188BFF36F8F0323184673
:1010500002DF13B0BDE8F08F34840100F08001009E
:1010600068800100D1F808B0DBF808306BB1C44AE1
:10107000C449C548922314F0ACFF002383F31188C0
:10108000BFF36F8F0323184602DFDBF8008098F868
:1010900049301D0754BFD8F85030002340460B9309
:1010A0000AF0FAFD0230C3B20E93637E276000257A
:1010B00065F3C713637694F82130E560002B00F0E8
:1010C000E983CDE90C5501220F92A9462E4694F8EA
:1010D0002220910600F03B8294F9232094F82330DB
:1010E000002AC0F2C881DA0704F1240A0AD50B9A53
:1010F00032B198F8492002F03002202A40F04083B3
:1011000004F12A0A980748BF0AF1060A590748BF9E
:101110000AF1010A13F0080216BF514611460AF1FE
:10112000020A13F0100216BFCDF840A010920AF187
:10113000030A9A0618D50AF11202002E00F07C82EA
:101140000B98002800F07882002900F07582497819
:101150001192090940460BF0E1FD119A002840F078
:10116000EF8394F82330924694F82210580648BF33
:101170000AF1010AC1F3050104F122030131AAEBCE
:101180000303DBB2C9B28B429EBFCB1ADAB20B4665
:1011900094F8211088BF0022994288BFCB1A217988
:1011A0008CBFDBB200230D2900F02082109A002AA8
:1011B00000F0268290785178020202F4F8520A4335
:1011C00000F01E82002D40F0CD824009022800F27E
:1011D000688300F0668310980F9D90F9000094F8E2
:1011E0002110002805F00300084400F10900C5F3B0
:1011F00040014FEAC000ACBF1E254FF49675C840B1
:1012000005FB02FA0AEB050100F5967291420F9078
:10121000C0F03181002E00F0F183B9F1000F00F031
:10122000C183D9F80010B1F8C02013449BB21E2B23
:10123000A1F8C030A38304D9A37E13F0010300F00A
:1012400033840C9910980B79027862F305030B71C3
:1012500082780123084652094979934063F30201D9
:101260004171A37EDB0700F1F083BBF1000F00F0BA
:10127000A782B8F1000F00F0378498F8463013F0D9
:10128000010340F00782CBF80830109BDDF8308076
:101290001B7898F80500DFF8F49013F0400F14BFA6
:1012A00032274FF4FA773A4B07FB0AF7A3FB0737CD
:1012B000BF0C07F12F0305EB4303C8F808300121E9
:1012C00000F007000CF03CFE0025636975603122D8
:1012D000B260F56098F80520A3F12F080F9BA8EBEA
:1012E000030802F003030933C2F34002DB00D340DA
:1012F000D04403F5EA730344A8EB0008254807210E
:10130000E3FB09011CA3D3E90023FFF7DDFBA8EBF6
:10131000070820F07F4018A3D3E900233061A8FB21
:101320000901FFF7D1FB2A4620F07F470221012067
:1013300005F096FD0E9BFF2B30D0CDE900551A46E7
:1013400023693F3B3B440121284606F015FF10F07E
:10135000FD0F23D00A4A10490B4840F20E3314F017
:1013600038FE85F31188BFF36F8F0323184602DF21
:1013700014E000BFAFF300808D49FD1A07000000A4
:1013800034840100D08401006880010000CA9A3BC7
:1013900083DE1B438C49FD1AAC850100B3493C2216
:1013A000304605F0F7FCB24A2369CDE90726B14A79
:1013B000CDE90526316900970024C21CCDE903411F
:1013C000CDE901443F3BD2B20121204606F066FE42
:1013D00010F0FD0F0DD0A84AA849A94840F21E33CD
:1013E00014F0F7FD84F31188BFF36F8F03231846C1
:1013F00002DF01220221104613B0BDE8F04F05F0D4
:101400002FBDD1F80890D9F83C3073B19A4A9D4964
:101410009B484FF4947314F0DCFD002383F3118890
:10142000BFF36F8F0323184602DFD9F80050284618
:101430000BF014FCE368E080284699F80B600D93EC
:101440000BF00CFC637E2760002565F3C713637601
:1014500094F82130E56006F00706002B69D10B9364
:1014600098461E46D9F80020B2F8C0000021034477
:10147000A383A2F8C0100B9B002B00F0DF8098F82C
:10148000493003F03003202B00F0878098F8493072
:101490006FF3051388F84930002E6DD0336B002BA5
:1014A00000F0008198F84620D10700F1F581DC605A
:1014B0003463B46A002C00F04481304613B0BDE8B8
:1014C000F04F0AF0EDBD8B680C931A46674B166817
:1014D0009E4266D1D6F828B0BBF1000F00F06383BE
:1014E0003C223146304605F055FC0330C3B20E9322
:1014F000DBF8005028460AF0EBFB8046002800F09D
:10150000AE810C9B5A7990F8493002F00702180717
:1015100054BFD8F850300023012A0B9300F02081EB
:10152000022A00F0D380544A5749554840F2051327
:1015300085E50430C2B20E9294F822200F969106EF
:10154000AB460B95A8462E460C957FF4C5AD013BE6
:10155000DBB2B9F1000F85D1002E40F0CA80A38321
:101560000B9B4BB198F8493003F03002202A03D08E
:101570006FF3051388F849302146384607F02AFCF6
:101580000D9A2AB1012310681371114607F022FC4D
:1015900013B0BDE8F04F07F023BC002E7FF47EAF00
:1015A000EAE730460AF094FB8346002800F08A817F
:1015B000D4F808B0DBF808300C93002B00F0F18071
:1015C0000C9B1E68B36A5B450DD02B4A2F492C48F3
:1015D000D22314F0FEFC002383F31188BFF36F8F36
:1015E0000323184602DFFF230E9381E7002A3FF40E
:1015F000DDADA079119351460BF0CEFC119BD5E5E2
:10160000B9F1000F00F01181D9F80010B1F8C02035
:1016100000201344A383A1F8C000002D3FF42BAF9A
:10162000002E00F0F180336B002B00F0ED80DC60C9
:10163000346313B0BDE8F08F924695E5002E9BD041
:10164000336B7BB3B8F1000F0DD10B4A10490C4836
:101650004FF44E7314F0BDFC88F31188BFF36F8F05
:101660000323184602DF336B1CE700BF404700200E
:101670007DBD000035BE000034840100DC85010022
:101680006880010014850100F0800100E8840100F9
:101690002C8401000B9B002B40F00B82336B002B42
:1016A00040F0FA80B9F1000F3AD02146384607F0F1
:1016B0009DFBD9F8003093F896301A077FF5F9AE04
:1016C000D9F83C30002B3FF4F4AEC2E40723657E2A
:1016D000237100212B4661F3C713637694F8213000
:1016E0002760E1602BB189460F92C5F380050D910B
:1016F000EDE4B28E13449BB2B386A3830B9B002B05
:1017000000F0DB8098F8493003F03002202A43D003
:101710006FF3051388F84930336B002B7FF4C2AEAA
:10172000984A9949994840F2563314F052FC4FF0C8
:10173000000989F31188BFF36F8F0323184602DF76
:10174000B3E7904A924991484FF4587314F041FC22
:1017500084F31188BFF36F8F0323184602DFACE6D2
:101760000623B4E7B9F1000F00F0E180D9F80010CA
:10177000B1F8C02013440022A383A1F8C0204FE792
:1017800094F8201000235246C1F3801140460BF01C
:1017900091FA94F82330B3E4336B002B7FF482AEDC
:1017A000BEE7784A7B497948CF2314F012FC0C9BA2
:1017B00083F31188BFF36F8F0323184602DFFFE620
:1017C000D9F83C309BB1D9F83C300C9A93420ED0FA
:1017D0006C4A71496D4840F2BB2314F0FAFB0023B8
:1017E00083F31188BFF36F8F0323184602DFD9F804
:1017F000003093F89630180700F1BD810C9BC9F8B2
:101800003C30F46241E5A3835E4A64495F484FF48B
:10181000FC7314F0DEFB002383F31188BFF36F8F9A
:101820000323184602DF336B01E7002E76D0B28E19
:1018300013449BB2B386A383002D7FF4F4AE0B9BBD
:10184000002B3FF4FDAE98F8493003F03002202A17
:101850003FF424AE6FF3051388F849301EE60C9B65
:101860005B7903F0070381460F930D23284623710C
:101870000BF0F4F9637EE080002565F3C71363760F
:1018800094F821302760E560002B3FD00B95A846E7
:101890000D951CE40D9362E69C427FF4C8AEFFF701
:1018A000D8BBB9F1000F55D0D9F80010B1F8C0205D
:1018B0001344A383A1F8C050DDE5336B002B7FF404
:1018C000C1AE2DE7D4F80890D9F83C300C93002B2A
:1018D00048D00C9B1E68B36A4B450DD0294A30494D
:1018E0002A48E12314F075FB002383F31188BFF32A
:1018F0006F8F0323184602DF0C9BD9F800505B79E9
:1019000003F007030F93FF230E93AEE70B93984664
:101910000D93B9F1000F7FF4A5AD1DE6A383002D53
:101920007FF472AF0B9B002B7FF41CAE24E6002EDD
:101930003FF469AFB28E13449BB2B386A38372E6C1
:101940005346314692464046224600F04DF994F8FF
:10195000233009E4002E4FD0B28E13449BB2B386DD
:10196000A3836CE7074A0B490848DE2314F031FBD8
:101970000C9B83F31188BFF36F8F0323184602DF9C
:10198000A7E700BF3484010078840100688001006B
:1019900008850100E08401006885010028850100B8
:1019A000FC840100B28E13449BB21E2BB38603D974
:1019B000A37EDA0740F1A880336B002B00F084800F
:1019C000DC600C99B38E10983463A38302780B7992
:1019D00062F305030B7182780846497952090123A5
:1019E000934063F302014171A37EDB073FD4BBF157
:1019F000000F7FF43EACEBE6A38393E774480C93AF
:101A000005F09EF90C9B002800F092800D9A8263ED
:101A100090F82020067066F3C71280F82020BBF1F2
:101A2000000F14BF5A464A46826200F11C02C0E908
:101A30000566C66206638386C0610C92B9F1000F29
:101A40003FD00D960646FFF7ECBB0C9BC9F83C3027
:101A5000637E43F0800321466376384607F0C6F97B
:101A60000C9A13796FF386131371FFF7F2BADBF850
:101A700008308BB10C9A93420ED0564A56495748BB
:101A800040F2962314F0A5FA002383F31188BFF3E4
:101A90006F8F0323184602DF0C9BCBF80830637E60
:101AA00043F080036376DBE7A1F8C0300B9B002B8B
:101AB00064D098F8493003F03003202B7FF4E6AC73
:101AC000ECE40646CDF83490C6E90B440C99B38E8D
:101AD0001098A38302780B7962F305030B71827867
:101AE0000846520949797AE73A4A3D493B4840F26B
:101AF000AD2314F06EFA88F31188BFF36F8F0323C0
:101B0000184602DFFFF7B9BB0B9B002B3FF4D5AEA5
:101B100098F8493003F03002202A3FF43DAE69F3D3
:101B2000051388F84930336B002B7FF4BBACF7E525
:101B3000A27ED10703D5627E42F080026276B9F1BF
:101B4000000F20D0D9F80000B0F8C0201344A383C0
:101B50000B9B0021A0F8C010002B3FF40DAD98F8AE
:101B6000493003F03002202A3FF406AD61F305133B
:101B700088F8493000E50B9B002B9AD1336B002B82
:101B80007FF460AD91E50B9B002B3FF4F5AC98F82A
:101B9000493003F03002202A3FF4EEAC69F305131C
:101BA00088F84930E8E40B4A0E490C48BE2314F08B
:101BB00010FA8BF31188BFF36F8F0323184602DFEF
:101BC0003C223146304605F0E5F8DBF80030FFDE18
:101BD0003C470020348401003C85010068800100FE
:101BE0002C840100A88401002DE9F04F046D94F8C5
:101BF0003E6084F83F601D4681463223062010FB7C
:101C000006306B6823502B7A204403F01F030371C6
:101C10008DB00F4606EB4606052104EB46069046BE
:101C200005F06AFA96F8373000F03F0060F30503DC
:101C3000012886F8373040F2408199F8493094F80D
:101C40009620C3F3010363F3000284F89620D9F8C9
:101C50004A30C4F89030B9F84E30A4F89430204699
:101C6000D5F8093040F8203F0BF098FB2086B5F8F6
:101C70000D30EA7B84F82620A3842B8AE38597F82D
:101C8000212094F8273062F3020384F82730B5F856
:101C900002B0B4F8862040F2E2431FFA8BF603FB51
:101CA00006F642F21071731E01FB0233B3FBF6F32A
:101CB0009BB2A4F88830B4F888309BB2062B00F2AF
:101CC000FF800023A4F8843094F89630062262F353
:101CD000061384F8963095F808A00CF0BBFA4FEA8A
:101CE0005A1A074650460CF0B7FA3B1806FB03F3A6
:101CF0007B4A7C4903F5742303F23F23A2FB0323B1
:101D00009B0C63647308963BA3646B7813F0200FFD
:101D10000CBF1E234FF4967363650023E36799F8A5
:101D20004930022262F3051389F84930C422204663
:101D300005F030F8D4F8BC300C22C3F80890A3F8B2
:101D400022B0D8801A7194F8272083F824A0C2F317
:101D5000020283F82120074694F82700012100F0B1
:101D600007000CF0EDF895F801E02B7894F827C007
:101D700098F82120D8F81410D4F854901EF0400F91
:101D80004FEA0E2E0EF4F85E4EEA030E0CF003033B
:101D90001A4402F10902CCF3400C4FEAC202A1F14D
:101DA0002F0522FA0CF209FB0E55A5EB0205A5EB57
:101DB00000050CBF00224FF416121544A5EB0109D3
:101DC00040F28A22914503D8E28D01323544E28502
:101DD0000933DB0023FA0CF303F5EA73DFF808910B
:101DE00018444FF0070B414B5946E0FB09311846A8
:101DF000636CF61A31234FF0000AA360A6FB093288
:101E0000CDE90A32C4F804A033A3D3E90023C4F80F
:101E10000CA0FEF759FE364BC4F88C3020F07F46FC
:101E20002DA3D3E90023DDE90A012661FEF74CFE6C
:101E300006940496D8F810302E4A0792A3F13F0872
:101E40002D4B0A9ACDF80CA020F07F44A4FB03315F
:101E5000D01A0B9A294B05930BFB041140F27233F5
:101E600062EB010108934FF47A720023FEF72CFE17
:101E700019A3D3E90023CDE90140A5FB0901FEF731
:101E800023FE043720F07F40FFB2009043463A46DD
:101E90000121504606F002F910F0FD0F0DD0184A4E
:101EA0001849194840F2733314F093F88AF31188F3
:101EB000BFF36F8F0323184602DF0DB0BDE8F08F2C
:101EC000B4F88830B4F88420063B9BB29A427FF67F
:101ED000FBAEF7E6AFF300808D49FD1A0700000066
:101EE00083DE1B43C047002000CA9A3B8C49FD1A81
:101EF000A502010045C600008D49FD1A01C500007C
:101F000068860100A88301006880010000000000CD
:101F10002DE9F0418AB002230C4615462C4909935D
:101F2000C42204F037FFDFF8AC8009AB06932A4BDC
:101F30000593002724A3D3E90023061DA5FB080170
:101F4000CDE90377FEF7C0FD034623F07F430293FC
:101F5000A4FB08011CA3D3E90023FEF7B5FDF6B2EC
:101F600020F07F40CDE900703B46324603213846E1
:101F700006F0B0F810F0FD0F0CD0099B022B19D120
:101F8000099B012B14BF6FF00B006FF001000AB02A
:101F9000BDE8F0814FF0FF324FF0FF330F4811F0F2
:101FA000DFFA099B012B14BF38466FF00D000AB011
:101FB000BDE8F0814FF0FF324FF0FF33074811F0DA
:101FC000CFFADDE7AFF300808D49FD1A070000006E
:101FD000C047002000CA9A3B39C60000A447002031
:101FE0002DE9F041C46823796FF300038CB02371AD
:101FF0000F4605460EF0FEFB00200EF023FC207C71
:10200000012100F007000EF00FFC227C9200252138
:1020100002F01C0208200EF04DFC237C23F0180374
:102020000120237406F098FF0646002800F0848003
:1020300006F120000EF072FC5D4B0B930BA80EF026
:1020400021FC5C4940F25B600EF0D8FC2079C0F3C3
:10205000410025300BF030FF574821460EF088FB39
:1020600023799B062ED596200EF0F8FD00231A4604
:10207000194618460EF026FDD4F800802E6840461A
:102080000BF0FAFE06446A6806F10E0100200EF01D
:10209000F1FD0EF011FF0EF089FD204609F00AFE59
:1020A000811CC9B2404632460BF0F4FE05460028BA
:1020B00051D157B120460BF079FE68BB00200CB01F
:1020C000BDE8F0810EF060FDD6E7E369002BF1D0AA
:1020D0003A4907913A49059140F2F311009308916A
:1020E000CDE90377CDE901770694334601223946DD
:1020F00005F0D4FF10F0FD0FDCD0324A32493348EE
:102100004FF4FA7313F065FF87F31188BFF36F8FF5
:102110000323184602DFCDE72A4A2D492B4840F217
:102120000B2313F056FF002383F31188BFF36F8F47
:102130000323184602DFC1E7224A264923484FF409
:10214000C57313F046FF86F31188BFF36F8F032327
:10215000184602DF6CE71B4A1F491C4840F2E51392
:1021600013F037FF1D4B0721A5FB030301FB0531CE
:102170000DA3D3E90023FEF7A7FC1949024619482D
:1021800013F027FF002585F31188BFF36F8F03231A
:10219000184602DF144821460EF0EAFA0EF0DAFB88
:1021A0006FF08B008BE700BF00CA9A3B0000000075
:1021B000D6BE898E555555003DE90000F1E5000079
:1021C00025E60000348A0100A88301006880010030
:1021D000B4810100808A0100F08001008D49FD1A60
:1021E000DC8A0100888A0100FDE200000000000096
:1021F0002DE9F041C46882B005460DF10301204687
:102200000AF066F89DF80330002B00F081802379F6
:10221000674A6FF386132371002616800EF0EAFAE0
:1022200030460EF00FFB6079012100F007000EF040
:10223000FBFA62799200FF2102F01C0208200EF0E6
:1022400039FB012006F088FE0646002875D006F10D
:1022500020000EF063FB574B019301A80EF012FB18
:10226000554940F25B600EF0C9FB207900F03F0059
:102270000BF022FE214651480EF07AFA96200EF01D
:10228000EDFC627902F007020123104600210EF0F6
:1022900019FC27682E6838460BF0EEFD06446A6884
:1022A00006F10E0100200EF0E5FC05466079D4F839
:1022B000088000F0070001210EF03EFB0544607924
:1022C00000F007000228454426D004280CBF4FF434
:1022D000BC73282301211D440EF030FB28440EF06E
:1022E000A5FD0EF0E9FD0EF061FC204609F0E6FFC9
:1022F000C11C3246C9B238460BF0CCFD054658BB6E
:1023000020460BF053FD48B9002002B0BDE8F08133
:1023100021460EF023F8BCE71823DBE7284A2949B9
:1023200029484FF4187313F054FE85F31188BFF356
:102330006F8F0323184602DFE6E7214A234922482C
:102340004FF4F57313F045FE86F31188BFF36F8FDA
:102350000323184602DF7AE7194A1D491A4840F25A
:10236000412313F036FE1B4B0721A5FB030301FBA2
:1023700005310DA3D3E90023FEF7A6FB164902465B
:10238000164813F026FE002585F31188BFF36F8FE2
:102390000323184602DF124821460EF0E9F90EF039
:1023A000D9FA6FF08B00B0E700CA9A3B000000003A
:1023B0001A7A0020D6BE898E555555009DF600002C
:1023C000F08A0100B481010068800100808A010068
:1023D000F08001008D49FD1A948B0100888A01006C
:1023E00035EC0000000000002DE9F041C468D4E99C
:1023F0000C230E46217B1344002262F382012173D9
:10240000E16A22638B4228BF0B4663635C4B05463F
:102410001A700EF0EFF9E07A012100F007000EF0DB
:1024200003FAE27A920002F01C02FF2108200EF06B
:1024300041FA201D0EF026FA2389A17A40F25B6052
:1024400043EA01410EF0DAFA30460BF035FD012087
:1024500006F082FD0646002856D006F120000EF058
:102460005DFA27682E6838460BF006FD06446A6858
:1024700006F10E0100200EF0FDFB80460EF0E4FC9C
:10248000636BE07A03F12F02A36B00F007000121D8
:1024900003EB42050EF050FA45440544E07A00F0A3
:1024A000070002281FD004280CBF4FF4BC73282358
:1024B00001211D440EF042FA28440EF0B7FC0EF044
:1024C000FBFC20460AF0D0FB011D3246C9B238465B
:1024D0000BF0E0FC054630BB20460BF067FC20B952
:1024E0000020BDE8F0811823E2E7264A2649274864
:1024F00040F20B2313F06DFD85F31188BFF36F8F4E
:102500000323184602DFEBE71E4A21491F4840F229
:10251000D51313F05EFD86F31188BFF36F8F03238D
:10252000184602DF99E7174A1A49184840F2012372
:1025300013F04FFD184B0721A5FB030301FB0531E9
:102540000DA3D3E90023FEF7BFFA1449024614484D
:1025500013F03FFD002585F31188BFF36F8F032330
:10256000184602DF0F4821460EF002F90EF0F2F98C
:102570006FF08B00B5E700BF00CA9A3B0000000077
:1025800008880020A08B0100B48101006880010050
:10259000808A0100F08001008D49FD1A148C010031
:1025A000888A0100ADFB00002DE9F04F476A97B023
:1025B00014461D46CDE90445239E83467FB910206D
:1025C00011F09AFE0246CBF8240020B9A24BEA2172
:1025D000A24812F0D9FDC0E901770760C760DBF8B7
:1025E0002430196859B15A684A60012393408B60BE
:1025F000584612F0F1FADBF8243000221A602B1E44
:10260000B9BF23F00043059300233360059F944B2B
:10261000BCBF01223260BB4319D1229A42F20F7330
:102620001360C7F31303234300F0E285249B53B9DF
:102630008C4B21E08C4B08930833249A1360089844
:1026400017B0BDE8F08F874B08930333F5E7DDE95A
:102650000423CDE90C23DDE90C0100220023FEF761
:10266000C3F9804650B1229A01231360249B13B111
:10267000249A7E4B13607E4B0893E0E714AB0193E2
:1026800015AB00935846DDE90C2312F025FDC7F386
:102690000A560390002E7AD00D9BCDF84C80C3F3E0
:1026A0001303DDE90C0143F07F5343F44013A6F21A
:1026B000FF36194600226F4BFDF776FD60A3D3E984
:1026C0000023FDF729FF60A3D3E90023FDF76EFD8A
:1026D000044630460D46FDF7B5FE5DA3D3E9002361
:1026E000FDF71AFF02460B4620462946FDF75EFD20
:1026F00004460D46FEF7C0F9002207460023204697
:102700002946FEF77BF940B13846FDF79BFE22468D
:102710002B46FEF769F900B9013F162F54D8564BE6
:1027200003EBC703D3E90023DDE90C01FEF766F9EB
:1027300000284BD0013F00231293149B9B1B5A1E71
:1027400045BFC3F101030693002300230A9254BF3F
:1027500006930A93002F3BDB0A9B0F973B440A9397
:1027600000230B93209B092B00F28A80052BC4BF0A
:10277000043B2093209BA3F10203CCBF002401243F
:10278000032B00F28880DFE803F02B383657DDE9B1
:1027900014631E4406F23243202BC1BFC3F1400331
:1027A0009F4006F2124324FA03F3D6BFC3F120037D
:1027B00047EA030004FA03F0FDF734FE0122A1F119
:1027C000F873013E139274E70123B5E71290B4E762
:1027D000069BDB1B06937B420B9300230F93C1E701
:1027E00000230E93219B002B58DC0123099399466B
:1027F0001A4621920CE00123F3E700230E93219B5C
:10280000FB1803F1010909934B46012BB8BF0123C3
:10281000DBF824000021042202F114059D4241D975
:102820004160584612F098F9089000283DD1134BAA
:1028300002464FF4D571CBE60123DFE7AFF300800A
:1028400061436F63A787D23FB3C8608B288AC63FB6
:10285000FB799F501344D33F489901005F990100D1
:102860000000F07F449901003B990100D0960100DF
:10287000CF9601000000F83F507E0100D39901007F
:102880000124002320930E944FF0FF3309939946BF
:1028900000221223ADE701230E93F5E7219B099354
:1028A0009946B5E701315200B6E7DBF82430089AC3
:1028B0001A60B9F10E0F6FD8002C6DD0002F36DDE5
:1028C000A14B07F00F0203EBC203D3E90034F80574
:1028D000CDE910344FEA271417D59C4BDDE90C01E4
:1028E000D3E90823FDF742FFCDE9040104F00F040A
:1028F0004FF00308954D5CB9DDE91023DDE90401D3
:10290000FDF734FFCDE904012BE04FF00208F1E7B9
:10291000E10709D5DDE91001D5E90023FDF7FCFD4C
:10292000CDE9100108F1010864100835E3E700F073
:1029300007817C42844B854D04F00F0203EBC203F8
:10294000D3E90023DDE90C01FDF7E6FDCDE9040143
:10295000241100234FF00208002C40F0E580002BEA
:10296000D0D1129BDDE90445002B00F04C81784B5F
:10297000002220462946FEF741F8002800F0438156
:10298000B9F1000F00F03F81099B002B00F3E480B8
:10299000DDE90C34CDE90434159B002B02DB0E2F4E
:1029A00040F342820E9A002A40F067820B9CDDF8C9
:1029B00018800025B8F1000F0DD00A9B002B0ADD0E
:1029C0004345069AA8BF4346D21A06920A9AA8EB34
:1029D0000308D31A0A930B9B0BB30E9B002B00F03A
:1029E000A682002C00F0A18229462246584612F009
:1029F0001BFA039A01460546584612F06BF90399F3
:102A00000646584612F0E8F80B9B1B1B0B9300F090
:102A100091820B9A3146584612F006FA0390012132
:102A2000584612F041F90F9B0446002B00F08482B7
:102A30001A460146584612F0F7F9209B012B04462E
:102A400003DC049B002B00F07C820026236904EB4E
:102A50008303186914F0B0FE0F96C0F120000A9BA2
:102A6000184410F01F0000F09182C0F12003042BE5
:102A700040F38182069BC0F11C00034406930A9B2D
:102A8000034480440A93069B002B05DD03991A46F4
:102A9000584612F023FA03900A9B002B05DD2146CD
:102AA0001A46584612F01AFA0446129B002B00F000
:102AB00076820398214614F0CEFE002880F26F82C1
:102AC000002303990A22584612F0A8F80E9B03909F
:102AD0007E1E002B00F05C82002329460A22584605
:102AE00012F09CF8099B002B054603DC209B022B6F
:102AF00000F35E82B8F1000F05DD294642465846D4
:102B000012F0ECF905460F9B002B00F0D0826968AB
:102B1000584612F021F80746002840F07F820D4BFE
:102B2000024640F2EA2153E5E20706D5D5E9002343
:102B3000FDF7F2FC08F101080123641008350BE7EA
:102B40004FF002080DE700BF507E0100287E010013
:102B50000000F03FD39901002046AD4B00222946EA
:102B6000FDF7DAFCCDE90401099C7E1E08F101089D
:102B70004046FDF767FCDDE90423FDF7CDFCA54BDE
:102B80000022FDF713FBA1F15073CDE91001119361
:102B9000002C3BD1DDE904019F4B0022FDF704FB33
:102BA00002460B46CDE90423DDE91023FDF744FF7F
:102BB000002840F05781DDE9102101F10043DDE9F3
:102BC0000401FDF71BFF00283FF4E2AE0024254678
:102BD000219BDDF820A0DE434FF000082146584637
:102BE00011F0FAFF002D00F0A980B8F1000F05D018
:102BF000A84503D04146584611F0EEFF29465846F5
:102C000011F0EAFF9AE03E464C46B1E7834B03EBF6
:102C1000C40353E90201089B1C440E9B002B4AD0BD
:102C200002460B4600207E49FDF7A0FDDDE910239A
:102C3000FDF7BAFACDE91001DDF820A0DDE90401C5
:102C4000FDF71AFF0546FDF7FDFB02460B46DDE9E1
:102C50000401FDF7A9FA3035CDE9040102460B461F
:102C60000AF8015BDDE91001FDF7E6FE002865D1F9
:102C7000DDE904236B490020FDF796FA02460B4676
:102C8000DDE91001FDF7D8FE002840F00D81A245D6
:102C900000F0EA80DDE910015D4B0022FDF73CFC0D
:102CA0005B4BCDE910010022DDE90401FDF734FCA6
:102CB000CDE90401C2E7DDE91023FDF72DFCCDE9E4
:102CC0001001DDF820A0A046DDE90401FDF7D4FEE7
:102CD0000546FDF7B7FB02460B46DDE90401FDF7AB
:102CE00063FA30350AF8015B02460B46A245CDE98E
:102CF00004234FF0000223D1494BDDE91001FDF719
:102D000055FA02460B46DDE90401FDF795FE002861
:102D100040F0CA80DDE9102341490020FDF744FA64
:102D200002460B46DDE90401FDF768FE70B1C246BC
:102D300008F1FF381AF8013C302BF8D0374655E03F
:102D4000334BFDF7E9FBCDE90401BDE7DDE90C34C8
:102D5000CDE90434159B002BFFF628AE0E2F3FF76C
:102D600025AE2E4B03EBC703D3E90034CDE906347F
:102D7000219B002B02DAB9F1000F64D0DDE9044594
:102D8000DDF820A0DDE9062320462946FDF7EEFC0C
:102D9000FDF772FE0646FDF755FBDDE90623FDF75C
:102DA000BBFB02460B462046294606F13004FDF7E0
:102DB000FBF90AF8014B089CAAEB0404A145024662
:102DC0000B4640F08280FDF7F1F9DDE90623044669
:102DD0000D46FDF731FE002865D1DDE906232046CA
:102DE0002946FDF701FE08B1F3075CD40399584664
:102DF00011F0F2FE00238AF80030229B01371F6099
:102E0000249B002B3FF41BACC3F800A017E400BFC9
:102E10000000244000001C4000001440507E0100CF
:102E20000000E03F0000F03FA24B03EBC703D3E9F3
:102E30000034CDE90634219B002B9FDAB9F1000F55
:102E40009CDC7FF4C3AE9C4B0022DDE90601FDF75C
:102E500063FBDDE90423FDF7E5FD044600287FF46C
:102E6000B5AE3E462546B4E0DDE90C34CDE9043488
:102E7000159B002B01DB0E2FD6DD209A012A36DCB4
:102E8000139A82B303F233430B9CDDF81880069A41
:102E90001A4406920A9A01211A4458460A9211F0DD
:102EA00003FF054686E53E4653469A4613F8012D34
:102EB000392A06D1089A9A42F7D108993022013668
:102EC0000A701A7801321A7038E77C4B0022FDF73D
:102ED00023FB0022002304460D46FDF785FD002854
:102EE0003FF450AF82E7149BC3F13603CCE70B9B52
:102EF00009F1FF34A34208DBB9F1000FA3EB04048E
:102F00000EDBDDF818804B46C1E70B9B0F9A0B9444
:102F1000E31A1A44DDF818800F924B460024B6E7F6
:102F2000069BA3EB09080023B1E7039E71E50B9A0A
:102F3000039970E5039672E5209B012B17DC049B37
:102F4000ABB9059BC3F313039BB9059B23F0004664
:102F5000360D360536B1069B013306930A9B0133C5
:102F60000A9301260F9B002B7FF470AD0F96012072
:102F700075E50026F6E73FF486AD069A1C331A4441
:102F800006920A9A1A4498440A927CE50346F4E7AA
:102F9000099B002B2BDC209B022B09DC27E0B9F1DD
:102FA000000F1DDC209B022B1ADDCDF824903E463D
:102FB000099B002B7FF40CAE21460522584611F0E8
:102FC0002DFE01460446039814F045FC00287FF7C7
:102FD000FFADDDF820A031230AF8013B0136FBE507
:102FE0000E9BCDF824903E46002B7FF483AD089FC6
:102FF0000398214614F058FB00F1300907F8019BB3
:10300000089B099AFB1A9A4240F3CB80039900234C
:103010000A22584611F002FE0390E9E72A690232BB
:10302000920005F10C010C3014F006FA0122394629
:10303000584611F053FF089B03F1010ADDE908230C
:1030400013440A93049B03F00103A8460B9305461F
:103050000AF1FF3321460398069314F025FB4146FD
:10306000099000F13009039814F0F5FB2A46214637
:103070000746584611F09EFFC268014602B3584603
:1030800011F0AAFD002F3ADA03990122584611F0F7
:1030900025FF2146039014F0DEFB002803DC29D134
:1030A00019F0010F26D0B9F1390F1DD132E02846B1
:1030B000C1E700BF507E0100000014400000244022
:1030C0000E90039814F0C7FB0E990C90584611F01F
:1030D00083FD0C9A5ABB209B53B90B9B43B9B9F1A2
:1030E000390F17D0002F05DD099B03F1310901E0ED
:1030F000002F2ADADDF818A00AF8019B6EE5209B64
:103100003B4304D1049B03F00103002BBCD0B9F175
:10311000390F36D1069F392307F8013BBA46013FE4
:103120001AF8013C392B5BD001333B7056E5002F78
:1031300006DB209B3B4306D1049B03F0010313B93C
:10314000002AA1DCD6E7002AE1DC0A9B0AF8019CF0
:10315000534557462FD0039900230A22584611F0B1
:103160005DFDA84503904FF000034FF00A02414671
:1031700058460BD111F052FD804605460AF1010A6E
:1031800066E7DDF818A009F10109B5E711F046FD81
:103190002946804600230A22584611F03FFD054685
:1031A000ECE7099B002BC8BF1F46089BD8BF01272F
:1031B0001F444FF0000803990122584611F08EFE7B
:1031C0002146039014F047FB0028A7DC02D119F038
:1031D000010FA3D1BA4617F8013D302BFAD0FDE418
:1031E000089BBB429AD1089A312301361370F5E44B
:1031F000249B002B7FF41EAA014BFFF73DBA00BFB2
:103200003B99010070B503788AB004460E4607ADBD
:10321000032B20D8DFE803F002191B1D11492846B3
:1032200014F02EFA059563780493A3780393E3785A
:1032300002932379019363790093A3790A4A1E21AB
:10324000304612F098FE0AB070BD0849E7E7084919
:10325000E5E70849E3E7084A0A21284612F08BFE11
:10326000E0E700BFD88E0100018F0100DF8E010072
:10327000E68E0100F08E0100FA8E010070B50C465A
:103280008CB01546064604A92068FFF7BBFFA98845
:10329000104A286840F6E54312F0B6FE304603F0C7
:1032A00027FBE27994F90530042A014694F90600D7
:1032B00096BF094C094A54F82220064C0394AC8866
:1032C0000090CDE90124064804AA12F047FE0CB094
:1032D00070BD00BF1C7A0020187F0100248F010000
:1032E0002C8F010010B50B4688B06946044618685B
:1032F000FFF788FF204603F0FBFA6A4601460448C0
:1033000012F02CFE034810F007F908B010BD00BF02
:10331000848F0100580A0020F0B50C4685B003F0F8
:10332000E7FA6379A27AA679042B014696BF14487E
:10333000144B50F82330E07902281CD015D8124DD8
:10334000124F002818BF3D46B4F902000096CDE99F
:1033500001500F4812F002FEE37A012B0DD90D48FF
:1033600005B0BDE8F04012F0F9BD0B4D054FFF2848
:1033700018BF3D46E8E7094DE6E705B0F0BD00BFE0
:10338000187F0100248F0100CC8F0100B48F010051
:10339000FE8F01005A900100F18F0100D38F0100D0
:1033A00030B591B004460D461E22002108A814F045
:1033B00051F808AA1249284613F0B6F82068694661
:1033C000FFF720FF0F4A1378C3B96389B3B103EB4A
:1033D00083030D499B10C3EBC3030B6001231370E0
:1033E0000A4B22791A702268094B1168196091887A
:1033F000998092799A71074810F08EF811B030BD1B
:103400003F59010003870020780F0020018700202A
:1034100004870020280A002030B50C468BB002A992
:1034200005462068FFF7EEFE284603F061FA0146E4
:10343000207AE388042896BF084C094854F82000F5
:1034400003EB83029210CDE90020064802AA12F095
:1034500085FD054810F060F80BB030BD2C7F0100F1
:10346000248F010073900100400A002010B5294B01
:103470001C68CCB90121284812F09BFA2748214644
:1034800012F097FA2648002112F093FA25480021FD
:1034900012F08FFA2146244812F08BFA0021BDE881
:1034A0001040224812F085BA012C01D10021E2E738
:1034B000022C15D11848002112F07BFA1748002180
:1034C00012F077FA1648012112F073FA002115481C
:1034D00012F06FFA0021144812F06BFA0121DEE7B6
:1034E000032C11D10C48002112F063FA0B48002183
:1034F00012F05FFA0A48002112F05BFA0121094834
:1035000012F057FA0121E6E7BDE81040084812F032
:1035100025BD00BFA00F0020F8050020F005002009
:10352000E8050020E0050020487F0100407F010001
:10353000BB90010008B5074B07481A68032A02F13F
:10354000010108BF0021196012F008FDBDE8084024
:10355000FFF78CBFA00F0020CE90010008B5074BED
:1035600007481A68002A02F1FF3108BF03211960D9
:1035700012F0F4FCBDE80840FFF778BFA00F002070
:10358000CE9001002DE9FF479E4D286860B112F0F2
:10359000D4F92B68064600283ED100241A689A48C0
:1035A000214612F0DBFC2E60984D286858B112F0CD
:1035B000C4F92B680646002840D11A689448214671
:1035C00012F0CCFC2E60934D286858B112F0B5F97A
:1035D0002B680646002843D11A688F48214612F00E
:1035E000BDFC2E608D4D286858B112F0A6F92B68ED
:1035F0000646002846D11A688948214612F0AEFCDA
:103600002E60884C204612F098F900284BD1216892
:10361000854812F0A3FC50E0002BC5D0284612F0DC
:10362000A3F904460028BFD02A682B791268014606
:103630007E4812F093FC00232B60B5E7002BC2D02C
:10364000284612F091F904460028BCD02A682B794C
:1036500012680146764812F081FC00232B60B2E725
:10366000002BBFD0284612F07FF904460028B9D0BD
:103670002A682B79126801466E4812F06FFC00230D
:103680002B60AFE7002BBCD0284612F06DF9014645
:103690000028B6D02A682B791268674812F05EFCC1
:1036A00000232B60ADE7654812F05EF9014630B1AA
:1036B00011232268624812F051FC002014E02046D9
:1036C00012F03BF90028A2D05E4812F04DF90146F5
:1036D00008B11323EDE75C4D20462C6012F02DF964
:1036E00028B95A4812F03AFC04B0BDE8F087584AAD
:1036F00028680C2112F007F90028F2D128680C2163
:1037000012F039F90028ECD15249534B28684B602C
:10371000524D4FF480538B6012F045F920462C60D7
:1037200012F00BF908B94E48DCE7494A28680B212A
:1037300012F0E9F80028F6D128680B2112F01BF9E5
:103740000028F0D14749484B4B6028684FF400638C
:103750008B6012F028F9454812F000FC444812F042
:10376000FDFB002002F01CF9014610B1414812F0A7
:10377000F5FB4148414D424FDFF808A112F0EEFB46
:10378000414812F0EBFB414803F09AF8404812F030
:10379000E5FB404812F0E2FB3F48002603F0C2F987
:1037A0003B4812F0DBFBB0462E70B1463B4A2C780A
:1037B00087F800903023CDE9002302965CB93848A1
:1037C00012F0CCFB2146684603F00EF8014690B19A
:1037D000284812F0C3FB334812F0C0FB32484FF0C8
:1037E000FF324FF0FF330FF0BBFE044600285DD0E0
:1037F000014620480DE7204812F0B0FB01232B7052
:10380000E9E700BFF8050020E0900100F005002086
:103810003C910100E805002098910100E00500209E
:10382000F5910100187C01005192010007910100FF
:1038300063910100C09101001C920100487F0100CA
:1038400078920100407F01009C0F0020B09201009F
:10385000110001008C0F002035350000980F00206A
:10386000DE920100800F00205D3500000D93010005
:10387000339301004F930100609301000287002001
:10388000038700200702050469930100B8050020A2
:10389000849301008E930100C405002001016000A3
:1038A000B9930100CB930100280A0020424812F08E
:1038B00055FB424812F052FB414B424918689A8826
:1038C0009B798DF80630404B00901B788DF80730BF
:1038D00068464FF42023ADF804200294039303F0CC
:1038E0005BF8014668B3394812F038FB384812F0EB
:1038F00035FB384BD3F800C04FF40044414640F24A
:10390000E7304FF47A720023ECFB0401FDF7DCF89A
:1039100002460B4630482B4C0FF022FE0146A0B168
:103920002A4812F01BFB2D4812F018FB206802F009
:10393000EBFF014600287FF45CAF294812F00EFB34
:1039400034E7284812F00AFBD0E7274812F006FBBC
:10395000264B27480193CDF800A012F0FFFA6946E4
:10396000206803F0ABF90146E8B1184812F0F6FA06
:10397000204812F0F3FA02F087FF0446B8B101467E
:10398000124812F0EBFA1C4812F0E8FA1B484FF00C
:10399000FF324FF0FF330FF0E3FD014600287FF4C4
:1039A00028AF1748CAE7174812F0D8FAE0E71648D8
:1039B00012F0D4FA2C70E6E7F0930100169401009F
:1039C000048700207C0F0020018700204F93010016
:1039D0003C940100780F0020400A00205A94010016
:1039E0006093010084930100809401006C950100B4
:1039F000A5940100E0940100FA940100580A002007
:103A00001D950100C1940100F0940100014B1B6859
:103A1000184700BF00060020014B1860704700BF28
:103A20000006002007B50B4600210246009103481E
:103A300000F080F803B05DF804FB00BF0D3A000011
:103A400030B587B00025CDE903010446009503A9F0
:103A50000548059500F06EF8DDE904309842B8BFDE
:103A6000255407B030BD00BF395F0100F0B5094EE5
:103A7000016802460A2700200B4601311C78355D9B
:103A80006D0701D41360F0BD07FB0043A3F13000C4
:103A9000F2E700BF099801002DE9F84F15469A4654
:103AA000D378234A12F803B06F2B81460F460BF0F0
:103AB000030B2BD026D8582B0CBF10260A26DDF876
:103AC00028803246002348463946FCF7FDFF092A84
:103AD00008F1FF38D4B21ED83034B145E4B277F1E2
:103AE000000788F8004001D3D04511D82B789B06F9
:103AF00005D5082E15D1AB7843F00803AB704046CE
:103B0000BDE8F88F03F0F703702BD5E70826D6E75A
:103B100081460F46D5E7BBF1010F0CBF3734573450
:103B2000DBE7102EEBD1AB7843F01003E6E700BFE4
:103B3000099801002DE9F04F97B08A460390164688
:103B40001C460025307808B9284656E325280AD0B7
:103B5000039B514698470028C0F24F83731C0135E0
:103B60000493049EEEE71822002110A813F072FCC3
:103B70007378252B00F0A3800023711C98469E4685
:103B80009C4618460F4611F8012B2B2A00F0C680E0
:103B900000F2BD80202A00F0C480232A00F0C480F7
:103BA0002BB19DF8483043F040038DF84830B8F110
:103BB000000F05D09DF8483043F020038DF84830C1
:103BC000BEF1000F05D09DF8483043F010038DF88A
:103BD0004830BCF1000F05D09DF8483043F0080391
:103BE0008DF8483028B19DF8483043F004038DF833
:103BF00048309DF8483003F04401442903D16FF365
:103C000086138DF848309DF84830099743F08003BB
:103C10002A2A8DF8483040F08C809DF8493043F0D6
:103C200001038DF849307B1C1A782E2A9DF8492013
:103C30000CBF0121002161F341028DF849200CD114
:103C40005A1C09925A782A2A40F083809DF849200C
:103C500042F004028DF8492002331A786C2A00F0F1
:103C6000A48000F28680682A00F08C806A2A00F026
:103C7000A5804C2A00F0AA801A4612F8013B049253
:103C8000782B9DF849208DF84B3000F217816D2B71
:103C900000F2A980692B00F21181572B00F2BE803F
:103CA000412B03D0453B022B00F208819DF84A309E
:103CB000042262F302038DF84A300123CAE08DF832
:103CC0004B30B31C04939DF84930D90740F1FD8077
:103CD00054F8048BB8F1000F07DA9DF8482042F041
:103CE00004028DF84820C8F100085A0740F1F68018
:103CF00054F804BBBBF1000F80F2F5809DF8493009
:103D00006FF341038DF849304FF0FF3BEBE02D2A74
:103D10000DD0302A7FF444AF012333E74FF0010C7C
:103D200030E74FF0010E2DE74FF001082AE70120A0
:103D300028E709A8FFF79AFE099BBB423FF474AF3E
:103D40009DF848201390C00F60F341028DF8482081
:103D50006AE709A8FFF78AFE9DF848301490C3F37C
:103D6000400242EAD07262F341038DF84830099B69
:103D700073E7742A26D07A2A7FF47EAF9DF8492013
:103D800006210CE05A78682A9DF8492006D10121C5
:103D900061F3C6028DF8492002336DE7022161F319
:103DA000C6028DF84920013366E75A786C2A9DF8DF
:103DB000492001D10421EBE70321F0E79DF84920D8
:103DC0000521ECE79DF849200721E8E7BDF84820E8
:103DD00022F4F04222F0020242F4804242F0020257
:103DE000ADF84820DFE76E3BD9B201238B4040F2AB
:103DF00082410B4238D113F0240F52D1DF075DD539
:103E00009DF84A30032161F302038DF84A3002F035
:103E10007803A3F14000434243411BE0A3F1580162
:103E2000C9B2012000FA01F111F4624F7FF43EAFF4
:103E300040F6010739421DD111F4043F3ED09DF8F0
:103E40004A3060F3020302F07802402A8DF84A30CB
:103E500034D000239DF84820C2F340010B4363F3A4
:103E600041028DF848202EE79DF84A30022161F387
:103E70000203E8E79DF84A10022002F0780260F39E
:103E80000201402A8DF84A1002BF9DF8481041F007
:103E900001018DF84810632BDBD1131E18BF0123DD
:103EA000D8E79DF84A30032161F3020312F0780F3E
:103EB0008DF84A3014BF01230023CBE79DF848302A
:103EC00043F001038DF84830C3E79DF94820002AEC
:103ED000B4BFDDF84C804FF0FF3806E79F077FF551
:103EE00013AFDDF850B09DF849100023CDE913332E
:103EF0009DF84A3003F00703012BC1F3C30132D10F
:103F0000CB1E042B04D8DFE803F020454520200019
:103F1000236801294FEAE372CDE910321BD19DF9E4
:103F20004030DA17CDE9103204349DF8483013F0F0
:103F300003074FD0049B03983246514612F032F8E3
:103F40000028C0F25A8105440BE654F8043BDA1706
:103F5000CDE91032E9E70229E6D11AB243F3C033C2
:103F6000CDE91023E0E7022B24D1CB1E042B04D88B
:103F7000DFE803F0181010181800012954F8043B6A
:103F80004FF0000214D00229CDE91032CDD19BB2FE
:103F90001093CAE7073424F00704F4E80223CDE9BC
:103FA0001023C2E754F8043B109300231193BCE79D
:103FB000DBB2CDE7042B08D1073424F00704D4E9A1
:103FC00000230834CDE91023AFE7032BADD154F81B
:103FD000043BDDE79DF84B0078283FF6C2AD622830
:103FE0001ED8252850D058287FF4BBAD0DF13E03D4
:103FF0000093DDE910010AAB12AAFFF74DFDBBF1FA
:10400000000F814680F2C280B9F1000F3FF4A9ADE4
:104010000DF13E06A6EB0903002F7BD0013379E0BA
:10402000633815283FF69DAD01A252F820F000BF7D
:104030000341000061410000633B0000633B00005E
:10404000633B0000633B000061410000633B0000F4
:10405000633B0000633B0000633B0000AF41000096
:1040600087410000C1400000633B0000633B00004B
:1040700099400000633B000087410000633B000063
:10408000633B000087410000039B5146984700288E
:10409000C0F2B380013564E5BBF1000FDDF840905C
:1040A0000ADB5946484613F0F3FAB9F1000F3FF422
:1040B00058AD09EB000620E04846FCF71FFDF8E785
:1040C0001098002800F087800DF13E060AAB00969C
:1040D00012AA0021FFF7E0FCBDF84A3003F0EF031D
:1040E00043F4F04343F01003BBF1000F8146ADF8F9
:1040F0004A304ADA00283FF434ADA6EB0903002722
:1041000008E0109B8DF8283000270DF129060DF1ED
:10411000280901239DF84A1011F01002069260D080
:104120000233139A059213444A0644BF14995B184C
:10413000B8F1000F6EDDA8EB03089DF84830580772
:10414000C3F3800B66D459065AD53FB1039B514641
:1041500038469847002850DB01355F46302350E051
:104160001E075CBFC3F300135F01DDE9102348BFE6
:104170002B27002BBFF63AAF524263EB4303CDE946
:1041800010232D2732E7002730E700279DF848103D
:104190000DF13E03A3EB09036FF386119B458DF8E8
:1041A00048107FF631AFABEB030313932CE7109B62
:1041B00007293FF6D6ACDFE801F00C04060C08082E
:1041C0000C0C1D70CDE41D80CBE4EA17C3E900524E
:1041D000C7E41D60C5E4314E0746A6F10509052375
:1041E00098E7080748BF01339BE7184607935146F5
:1041F000039B98470028079B04DA17B0BDE8F08FAF
:104200002023C346594600290BF1FF3BEDDC454412
:104210006D1AD84637B1039B514638469847002857
:10422000EBDB01359DF84A30DA0601D41B0706D5D1
:10423000039B5146302098470028DEDB0135069B62
:104240003BB19DF84B00039B514698470028D4DBB7
:104250000135059F2F4406E0039B514630209847C7
:104260000028CADB01357B1B002BF5DC03983346A5
:104270004A46514611F096FE0028BEDB0544A8448C
:10428000A8EB0503002B7FF76CAC039B5146202065
:1042900098470028B1DB0135F2E700BF75950100B2
:1042A0002DE9F047058B04462807904611D40229D2
:1042B00005F0070540F0CC80204611F0EAFE78B109
:1042C0000138218B042811D8DFE800F0C2106D8579
:1042D000950001290CBF45F0100545F02005258308
:1042E00088F31188BFF36F8FBDE8F08701F0070AEC
:1042F000AA4500F0A5800027B9463E46A368002BDA
:1043000000F0BC8041F00801218388F31188BFF3DD
:104310006F8FA168002900F0BA800D68002900F0B5
:10432000B680D1F80480334652462046C047002D5F
:1043300076D02B6829461D46F0E701F007035A1F87
:10434000012A1BD8002221F00701062B276889B219
:10435000C4E9002209D13B4603E0628B013262834B
:104360001B68002BF9D141F002012183204611F096
:1043700090FE00287AD041F0200176E0042B0AD18B
:1043800021F0070189B22183204611F082FE10B18D
:1043900041F020012183218B01F0070AAA454FD06B
:1043A0000027B946AAE7236921F0070141F0060179
:1043B000062DD3F8009021832DD1B9F1000F3FD005
:1043C00041F00801218388F31188BFF36F8F3A49C8
:1043D0002046C84729E021F00701236941F0040184
:1043E00089B2042DD3F804902183E6D000273E46FD
:1043F0004FF0040A82E721F00701236941F005012B
:1044000089B2052DD3F808902183D6D000273E46E7
:104410004FF0050A72E700273E464FF0060A6DE7A7
:104420002B4687E7B9F1000FD1D1EFF31188202394
:1044300083F31288BFF36F8F238B23F0080323834A
:10444000258BEA062ED525F01003238305F00705FA
:104450006669218B002EBFF670AF00232768C4E980
:10446000003321F0070141F001012183218B01F08C
:10447000070AAA454FF000097FF440AF002F9CD0F7
:1044800041F00801218388F31188BFF36F8F002F5B
:10449000C8D03D68394633465246204611F025FEC5
:1044A0002F46F4E7AB067FF51BAF25F020032383EF
:1044B00005F0070500E700BF17610100014B03602D
:1044C00000207047507F010008B5044811F046FDF8
:1044D000BDE80840024811F041BD00BF76950100DB
:1044E000AB95010030BFFFF7FDBF00BF074A9368DF
:1044F00093F90E10002907DB526993421FBF044A4B
:10450000536843F080535360704700BFD479002054
:1045100000ED00E070B5264B15469A6A12F0100FB8
:104520009A6A14BF1124102412F0080F9A6A18BF57
:104530001224920706460AD5586B9A6A140634D597
:1045400019B19A6A22F080029A62132401E06FF096
:104550001500174B9A6A12F0010F9A6A18BF1424BB
:1045600012F0200F9A6A18BF1524D20602D49B6A53
:104570009B070AD50E4B5B68190506D5314600F03E
:1045800089FA10B180F309880224094B9A6A9206CD
:1045900042BF5A6A22F400525A629A6A42F0FF02FB
:1045A0009A6200232B70204670BD6FF01500CCE797
:1045B00000ED00E0134B9A6A12F0007F9A6A14BF74
:1045C0001E201D2012F0807F9A6A18BF1F2012F44F
:1045D000002F9A6A18BF212012F4802F9A6A18BF00
:1045E000222012F4003F9A6A18BF232012F4803F61
:1045F0009A6A6FEA02426FEA12429A6218BF242056
:10460000704700BF00ED00E010B5194B0246986AF4
:104610009C6A10F4805F14BF1720162014F4006FFA
:104620009C6A18BF1820A40509D5986B986A0004E5
:1046300004D51AB19A6A22F400429A6219200C4BEE
:104640009A6A12F4806F9A6A18BF1A20D2050CD4A5
:104650009B6A13F4005F18BF1C20054A936A43F459
:104660007F43936200230B7010BD1B20F5E700BF52
:1046700000ED00E0F0B5484B5B688BB00446C3F337
:104680000803002585F31188BFF36F8F02F07F4088
:10469000B0F17F4F11D102F00C0008280DD01007A7
:1046A0004CBF0C4601250022033B8DF80720032B4D
:1046B00005D8DFE803F0246367602C46F3E70023A6
:1046C0009DF80720CAB902AE04F12007206861688E
:1046D000324603C20834BC421646F7D1099A002D6F
:1046E00054D0C2F3080121B96FEA52226FEA422284
:1046F000099202A9184611F0F2FD0BB0F0BD264B4D
:10470000DA6A9107DBD4DA6A002AD8DBDA6A520067
:10471000D5D55A69A16942F480725A61BFF34F8FAF
:10472000BFF36F8F5A6931F8021C22F480725A610C
:10473000BFF34F8FBFF36F8F4DF6027291420AD0D5
:104740009A6AD2B24AB10DF1070201212046FFF761
:10475000E1FE0346B4E72368B2E79A6A12F47F4F9A
:1047600005D00DF107010120FFF74EFFF1E79B6A2D
:10477000B3F5803FA3D3FFF71DFFEAE70DF1070272
:104780000021E3E70DF107010020EDE722F4FF72BD
:1047900022F00102ACE700BF00ED00E0044B5A69D3
:1047A00042F010025A615A6922F008025A617047B9
:1047B00000ED00E0EFF30880EFF3098101B57246E8
:1047C000FFF758FF01BD00BF002080F31488BFF33E
:1047D0006F8F0DF0A5FE00200D490860BFF34F8FCD
:1047E0000C4880F3088800F02BF8202080F3118813
:1047F00009484FF40461401880F30988EFF31480EE
:104800000221084380F31488BFF36F8F00F00AF988
:1048100094ED00E040A00020809200200749D1F8EC
:1048200090200023C2F307221846934200DB704712
:10483000C1F89830C1F8A0000133F6E700ED00E0C0
:1048400008B572B6002383F31388FFF7E7FF144B14
:104850004FF0FF32C3F88020C3F88420C3F88820CB
:10486000C3F88C20C3F89020C3F89420C3F8982094
:10487000C3F89C20C3F88021C3F88421C3F88821A1
:10488000C3F88C21C3F89021C3F89421C3F8982170
:10489000C3F89C2162B6BFF34F8FBFF36F8F08BD83
:1048A00000E100E0084B9B6883420BD1EFF30583E6
:1048B00043B1064B5A6842F080525A605A6A22F459
:1048C00000425A6212F09FBCD479002000ED00E053
:1048D000094A93686FF00A01D967084998674B68DD
:1048E00043F080534B60002383F31188BFF36F8F35
:1048F0009368D86F704700BFD479002000ED00E0C6
:1049000010B50446EFF31183202383F31288BFF31D
:104910006F8F094B58699860084B4FF000625A60DE
:104920000022836F826783F31188BFF36F8F00F0DB
:1049300015F9204610BD00BFD479002000ED00E03D
:104940000B498A684FF030001044EFF3098C80E87F
:10495000F01F74467046FFF7D3FFA64604498A68E5
:1049600002F1300090E8F01F8CF3098870470000D6
:10497000D47900201EF0040F0CBFEFF30880EFF392
:104980000980816911F8021C0229FFD001B511F0DC
:10499000ACFC01BD40B2002807DB044A41090123F9
:1049A00000F01F00834042F82130704700E100E032
:1049B00040B200280CDB4309064900F01F002033F9
:1049C0000122824041F82320BFF34F8FBFF36F8F46
:1049D000704700BF00E100E0054B420900F01F00F6
:1049E00053F82220012303FA00F01040704700BF63
:1049F00000E100E040B20028A8BF00F1604001F1F2
:104A00000101B8BF064B4FEA4111ACBF00F5614050
:104A100000F00F00C9B2B4BF195480F800137047FA
:104A200014ED00E00B4A08B50B4B22F07F029A60B0
:104A3000BFF34F8FBFF36F8FD3F8882022F470023B
:104A4000C3F888200EF0BEFB0FF0B4FA00F05CF85B
:104A50000EF0FCFB0000000000ED00E042F8203CFE
:104A6000009B42F81C3C0A49019B42F8183C029BFF
:104A700042F8143C21F001014FF0807342F8043CED
:104A800042F8081C0023203A02658367704700BF84
:104A9000915F0100094A0346906870B113F1160F47
:104AA000806E05D0A0F140029A4205D8834203D21D
:104AB000814228BF0020704700207047D479002031
:104AC00008B50B4B0E461546986000F047F82C468B
:104AD00086F309884FF00000064B984720464FF0B8
:104AE00000014FF000024FF00003034C204700BFCD
:104AF000D479002009630100915F0100014B10226D
:104B00001A61704700ED00E0044800232021C2181C
:104B10000133302B82F80013F9D1704700E100E037
:104B200008B5EFF30583064A103B02EBC30152F8C8
:104B3000330049688847BDE80840FFF7D7BC00BF8D
:104B40007C7C0100024B034A0348012100F076B847
:104B50000000022000000020507F0100826E054B03
:104B6000403A1A60044A4021C3E901121846012163
:104B700000F06EB8A40F002000000B15084AC2F820
:104B800098000B6823F01F03034343F01003C2F89F
:104B90009C308B6843F00103C2F8A030704700BF1F
:104BA00000ED00E02DE9F043DFF8608085B00E46AF
:104BB0001F4604464FF00009B14523DA6068D8B1BA
:104BC0003FB1411E08421BD11F2819D92368194241
:104BD00016D12368019311F0BAFBA3680343039332
:104BE000D8F89050C5F30725D0B2013DA84207D8A8
:104BF00001A9FFF7C3FF421C09F101090C34DBE7EF
:104C00006FF01502104605B0BDE8F08300ED00E03E
:104C1000044B0522C3F89420BFF34F8FBFF36F8F6F
:104C2000704700BF00ED00E0BFF35F8F024B002232
:104C3000C3F89420704700BF00ED00E010B5034CAE
:104C400001232278FFF7AEFF207010BD0B870020F4
:104C500008B50B4A00231278FFF7A4FF10F1160FD6
:104C600007D0084A0021D2F89030C3F307239842B6
:104C700000DB08BDC2F89800C2F8A0100130F2E7CE
:104C80000B87002000ED00E02DE9F043534B544C1E
:104C9000D3F890302568C3F307239D4285B000F216
:104CA0009A80FFF7C1FF00200C2685421AD14D4C97
:104CB0004D4F25706846FFF701FCDFF82081DFF8D3
:104CC0002C9106460025AE4213D12378434900209B
:104CD000D1F89020C2F30722934276DBFFF798FFCA
:104CE000002042E0616806FB0011FFF747FF01303A
:104CF000DBE7009800EB05114FEA051CCB683B4051
:104D0000B3F5000F48D00AD8B3F5001F30D0B3F583
:104D1000800F36D0B3F5801F10D00135D3E7B3F143
:104D2000807F42D0B3F1007FF7D150F80C30886813
:104D30004A6811F00CFB40F4802009E050F80C3078
:104D400088684A6811F003FB40F0885040F4302036
:104D5000CDE901230390D8F890302078C3F30723DE
:104D6000013B98422AD96FF0150005B0BDE8F083E9
:104D700050F80C3088684A6811F0E9FA40EA0900F6
:104D8000E6E750F80C3088684A6811F0E0FA40F025
:104D9000E06040F40030DBE750F80C3088684A6887
:104DA00011F0D5FA40F08270D2E750F80C308868E4
:104DB0004A6811F0CCFA40F08870C9E701A9FFF702
:104DC000DDFE237801332370A7E7C1F89830C1F8DE
:104DD000A00001337CE74FF0FF30C6E700ED00E0B4
:104DE0005C7F01000B8700200000F0FF000008112D
:104DF000014B1860704700BF08060020F8B5084F47
:104E000006460D460024AC4208DA3B6898470A285B
:104E1000305504F1010401D00D28F4D12046F8BD2D
:104E200004060020F8B50A4F0D46461EC0F10104E5
:104E3000A3199D4201DC2846F8BD73780A2B02D1E4
:104E40003B680D2098473B6816F8010F9847EFE73D
:104E50000806002010B5074C2368C2180648C0F1A8
:104E6000005101F500318A423ABF2260C0184FF06C
:104E7000FF3010BDB00F002080B4002008B50548F9
:104E800011F06CF8002383F31188BFF36F8F0423B4
:104E9000184602DFE895010070B54169867A0B4D2E
:104EA000044659B1437ADB0706D42C2303FB06538F
:104EB0005B6A1B689B689847002363612C2021462E
:104EC00006FB0050BDE8704012F069B8700A00207F
:104ED000024B2C2202FB0030704700BF700A0020FA
:104EE000827A064B2C2101FB02339A6A1B7F1B330B
:104EF000801A23F00303B0FBF3F07047700A002020
:104F000038B5074B827A2C2404FB02335B6AD3E961
:104F100001240C601568FFF7E3FF04FB005038BD67
:104F2000700A00202DE9F04F85B0054668460391D0
:104F300090461C4691469B4612F0C2F9DDE9006797
:104F4000EFF3118A202383F31288BFF36F8F6B8BEB
:104F5000002B42D02A8B9A4226D9002200232846D1
:104F60000EF0A8FA0446F8B18AF31188BFF36F8FE8
:104F7000039B002B4ED032463B46684612F0C4F9E4
:104F8000A27A2D4B2C2101FB023320465B6A1B6861
:104F900003A91D68DDE90023A847606100283AD114
:104FA0002046FFF779FF2AE0698B4B1E6B838AF35B
:104FB0001188BFF36F8F2B7F2A8BAC6A1B3323F0D2
:104FC0000303521A02FB03441B4B1C4AEB1A9B10AF
:104FD0005343A3722B7FE372CAE78AF31188BFF3AE
:104FE0006F8F54EA08040FD14FF00009CB464A46B0
:104FF0005B4628460EF05EFA04460028B8D100242D
:10500000204605B0BDE8F08F0EF036FF0C4B834212
:10501000EDD1E9E76361012300252381039B6382CE
:10502000E27A6560294604F1180012F013FA636908
:105030002582E360E4E700BF700A0020A38B2EBA4C
:10504000380E002070B50C4C2C2500B970BD037AC9
:105050004668013BDBB20372002BF7D1C3604360AB
:10506000837A05FB03431B6A13B198473046ECE78C
:10507000FFF712FFFAE700BF700A0020044A01237D
:10508000C2F840354FF080420020C2F878357047B2
:1050900000E0014020B1034B800143F001031847B9
:1050A000704700BF207E010008B5044811F01EFEC5
:1050B00000280CBF6FF01200002008BD2C7C0100FE
:1050C00038B50546054811F088F9044620B101219C
:1050D0000C3011F0DDF92576204638BDC80A0020D5
:1050E0000E38012810B50CD80A4811F076F904469C
:1050F00028B101210C3011F0CBF901232376204691
:1051000010BD09B10448F0E7BDE810400120FFF7E9
:10511000D7BF00BFF40A0020700A002010B501219B
:1051200004460C3011F0CFF92146034A0078BDE85F
:105130001040002311F031BA1880010010B5012190
:1051400004460C3011F0BFF92146034A0078BDE84F
:105150001040072311F021BAE07F010038B51C4848
:1051600011F054F90446002831D0037E012B02D1FE
:10517000038A012B0BD8FFF765FF164BD3F8C43019
:105180002BB3BDE838401449144811F04BBF02213D
:105190000C3011F098F903780E3B012B05460ED820
:1051A0000F4A1049104840F6A83310F012FF0023B0
:1051B00083F31188BFF36F8F0323184602DF28782B
:1051C0000A4A0323214611F0E8F92046D3E738BD07
:1051D00084050020C00400201C060020200B0020B5
:1051E000049601003896010066960100C87F010010
:1051F0002DE9F047884616468246002878D0BFF34E
:105200005B8FDFF8F090002359E8004F49E8003247
:10521000002AF9D1BFF35B8F002C69D02046FFF73D
:105220005FFE354D0C2303FB005027464388534552
:1052300011D0BFF35B8F59E8003F49E80072002AA4
:10524000F9D1BFF35B8F002B52D01F463846BDE823
:10525000F047FFF7F7BEA6420ED0204611F0B8F88F
:1052600004F10C0901212176484611F011F9328A26
:10527000F168484611F016F92046FFF731FE0C267A
:1052800006FB00504368ABB1B8F1000F12D12046C5
:10529000FFF726FE06FB005001214268D2E9000319
:1052A000127A03F01F06B1405B09DAB100EB83000C
:1052B00011F060F92046FFF713FE0C2606FB0050A4
:1052C0008368002BC2D02046FFF70AFE704305F822
:1052D00000802046FFF704FE06FB0055A8680EF08C
:1052E0001BF9B3E7C94300EB830011F06DF9E1E767
:1052F000BDE8F08780050020B40F002010B5C1E99B
:1053000000239DF808300B720C46FFF7E9FD034BB4
:105310000C2202FB00335C6010BD00BFB40F002004
:105320002DE9F0474FF0FF3206464FF0FF331848A3
:10533000884611F052F8044638B300F10C070121F9
:105340004FF00009384611F0A3F884F81890204671
:10535000FFF7C6FD0F4D4FF00C0A0AFB00504680C8
:105360002046FFF7BDFD0AFB0050C0F8089020461C
:10537000FFF7B6FD0AFB005503213846C5F8049037
:1053800011F08AF8068080F802802046BDE8F08798
:105390009C0A0020B40F00200138C0B202289ABF36
:1053A000014B185C002070472297010002289ABF29
:1053B000014B1856002070471F970100034B014610
:1053C000D3F8E40082689268104700BFC004002050
:1053D0002DE9F041044600F10C06304611F083F847
:1053E000B4F81080B8F1010F054604D82046BDE896
:1053F000F041FFF727BE3046022111F064F8037830
:10540000052B064622D00E3B012B21D9114A124909
:10541000124840F6E47310F0DCFD002383F311889A
:10542000BFF36F8F0323184602DF022702230C4AC3
:105430003078214611F0B1F8BB07D7D56369A4F8DD
:10544000108013FA85F5E560BDE8F0810327EDE7EC
:105450000127EBE7049601008396010066960100A0
:10546000B87F010010B50C460EF02AFC237E012BFC
:105470001AD1E3681B78052B0AD00E3B012B0AD802
:105480002046FFF7A5FF00240EF02EFC204610BD9D
:105490002046FFF79DFF2146064810F0A2FF06496F
:1054A000064811F0BFFDEEE72046FFF7CBFD6FF099
:1054B0001504E9E7840500201C060020200B0020CD
:1054C00008B50448042111F055F8BDE8084000F083
:1054D0002BBF00BF48050020044BBFF35B8F18684B
:1054E000BFF35B8FC0F38000704700BF480500200A
:1054F00001480EF071B900BF0C06002038B5024615
:105500000B46244DD5F8CC1009B9002038BD05F163
:10551000A8000EF025F80028F7D10022002305F19D
:10552000CC000DF0C7FF044668B91B4A1B491C4854
:1055300040F6B73310F04DFD84F31188BFF36F8F41
:105540000323184602DFD5F8C00020B1FFF77AFD2B
:105550000023C5F8C030204610F06EFFC5F8C0002B
:105560002046FFF72BFF98B10E480DF0D5FF2046DF
:10557000FFF7B6FC0C4B0C2202FB00301F214088C9
:105580002246FFF735FE2046FFF75CFDFFF7B0FF30
:105590000120BBE7C0040020049601009C96010096
:1055A0006696010068050020B40F00202DE9F04F39
:1055B000064687B015460C4631B9FFF7B1FE0446E2
:1055C00048B96FF0680079E0887AFFF781FC474BB3
:1055D000834240F0848001220021684611F0EDFCF6
:1055E0002046FFF77DFCDFF808910C2303FB0090B9
:1055F000C0F808D0204610F01FFF01463D4811F0CA
:10560000C3FCFFF775FF0EF037FC3B4B834222D102
:10561000DFF8E8A0DFF8E8B0364811F0CAFC002156
:1056200080464FF4A020FFF769FF074688B94FF482
:10563000D47352465946334810F0CBFC32483146B9
:1056400010F0C7FC87F31188BFF36F8F0323184650
:1056500002DF4445E0D14FF4A022002368460DF05C
:105660007FFF074698B14FF4D773244A274925484E
:1056700010F0AFFC26483A46314610F0AAFC002351
:1056800083F31188BFF36F8F0323184602DF204690
:10569000FFF726FC0C23584319F80060BEB12046E2
:1056A000093EFFF7CFFC092E0ED8DFE806F01B0DF0
:1056B0000D0A050D0D0D0D186FF00B0007B0BDE8BC
:1056C000F08F6FF00C00F9E76FF00400F6E715B10A
:1056D0002C600020F2E72046FFF7B4FCF9E76FF0FA
:1056E0001500EBE76FF06E00E8E700BF9C0A0020B2
:1056F000B40F00208C050020380E00200496010015
:10570000A096010066960100A8960100C8960100C7
:10571000D1960100F7B5002101AA40F60340FFF73A
:1057200045FF0446002869D1019CE3681B789BB9BA
:1057300000F0FAFDBFF35B8F964B1A68BFF35B8FE7
:1057400002F00902BFF35B8F53E8001F43E800201B
:105750000028F9D1BFF35B8F2046FFF773FC01AA45
:10576000002141F20300FFF721FF0446002845D144
:10577000019A894DD168D1F80100D1F8051005F1E1
:105780002C0303C31046FFF75DFC214601AA41F23A
:105790000100FFF70BFF044680BB0198C3685A78ED
:1057A00085F824205A88EA841A7985F82520B3F8E8
:1057B00007202A85B3F805306B85FFF743FC2146A7
:1057C00001AA41F20200FFF7F1FE0446B0B9019FC1
:1057D000FA6805F13406531C41321868596834469A
:1057E00003C4083393422646F7D13846FFF72AFC14
:1057F00095F830305C0604D46FF01204204603B0F4
:10580000F0BD01AA002142F20300FFF7CFFE0446DB
:105810000028F3D1019A614BD168D1F80100D1F889
:10582000051003C31046FFF70DFC95F830309806BD
:1058300018D4022140F66D40FFF772FD064600289D
:1058400000F0A58002210C3010F026FE01234470E8
:1058500003702246314640F66D40FFF7A7FE04462E
:105860000028CBD195F85030190712D501AA002194
:1058700042F21C00FFF79AFE04460028BED10198B0
:10588000C368D3F80120D3F80530C5E92623FFF714
:10589000D9FB95F8923013F0180F01D11A0604D5F0
:1058A00001F0ECF904460028A8D1082142F20100D9
:1058B000FFF736FD0446002869D008210C3010F0AF
:1058C000EBFDF023002243700227972307708370BB
:1058D000C270027142718271C271214642F20100AE
:1058E000FFF764FE0446002888D1082140F60140F5
:1058F000FFF716FD0646002849D008210C3010F0AD
:10590000CBFD8023437020230470847004714471A4
:105910008471C770C3712246314640F60140FFF7DB
:1059200045FE044600287FF469AF014601AA4FF600
:105930000140FFF73BFE044620BB0198FFF782FBC6
:10594000214601AA4FF60240FFF730FE0446C8B9CF
:105950000198C368B3F80130A5F87530FFF772FB02
:1059600095F875305B070DD501AA21464FF6034027
:10597000FFF71CFE30B90198C3685B7885F8743076
:10598000FFF760FB03B0BDE8F04000F06DBA6FF0C8
:10599000680433E748050020C004002050050020BB
:1059A00073B5264D0646D5F8E40011F09FF900289E
:1059B0003CD06FF0020105F1880010F005FE0121D6
:1059C00010F0D8FD10EA010433D11D4B1E600A46C9
:1059D00005F1A80011F0F1FA05F1CC0011F0A9FAD7
:1059E000184811F02FFB1849164800946FF0070370
:1059F0004FF496620DF0F6FE1449124811F02EFB9A
:105A0000D5F8E400124983681B689847044628B912
:105A10003EB9FFF77FFE78B9FFF752FD204602B08E
:105A200070BD05F178000DF0D7FEF7E76FF01204B6
:105A3000F4E76FF07704F1E70446EFE7C0040020D5
:105A4000CC0F0020200B002040880020169701007A
:105A50006554000010B5FFF75DFE044608B9FFF776
:105A60002FFD044B1B681BB12046BDE810401847B2
:105A700010BD00BFCC0F0020F7B5144B93F94F3089
:105A8000002B05460C461DDA14B9204603B0F0BDC4
:105A9000082C01AA4FF0000142F21800264628BF48
:105AA0000826FFF783FD0028F0D1019FF9683246F0
:105AB0000131284611F0C0FC3846FFF7C3FA3544DF
:105AC000A41BE1E76FF08500E0E700BFC004002001
:105AD00038B5032104460C3010F0F5FCE368057876
