:020000040000FA
:10000000C039002099E400001F49010085E4000088
:1000100085E4000085E4000085E4000000000000A5
:100020000000000000000000000000004DE600009D
:1000300085E400000000000019E6000085E40000EF
:1000400005E800004B55010005E8000005E8000048
:1000500005E8000005E8000005E8000005E80000EC
:100060000155010005E8000005E8000035550100D4
:1000700005E8000005E8000005E8000005E80000CC
:1000800005E8000005E8000005E8000005E80000BC
:1000900005E8000005E8000005E8000005E80000AC
:1000A00005E8000005E8000005E8000005E800009C
:1000B00005E8000005E8000005E8000005E800008C
:1000C00005E8000005E8000005E8000005E800007C
:1000D00005E8000005E8000005E8000005E800006C
:1000E00005E8000005E8000005E8000005E800005C
:1000F00005E8000005E8000005E8000005E800004C
:10010000064B074A1B7902604FF4B8728280C371B4
:100110000822FF2382710372704700BF600800202D
:1001200039D30000054B064A5B7902609022828039
:10013000C3710822FF238271037270476008002098
:10014000CDD600002DE9F341C41D002824F007049A
:10015000064614BF2046002000F0C2FC071E04DA49
:100160006FF00B0002B0BDE8F0810EB9FC42F7D48D
:10017000354D297AE879AB7A6A7A033103300BF08E
:10018000F8F90028ECDBA978EB783C440334002E26
:10019000194424F0030400FB01F114BF20460020A1
:1001A00000F034FE20440EB90028D9DB2B79044638
:1001B000B3B1697C19446B791944FF29D0DC033051
:1001C000002E20F0030414BF20460020AA89C9B2E3
:1001D00000F072FE0028C3DB04440EB9002CBFDB24
:1001E000012000F073FCC8B1E97AB9B195F8283064
:1001F0000734002B15BF402325234FF4817228229A
:1002000024F00704002E14BF2046002001F0E4FA79
:100210000028A5DB04440EB9002CA1DBAB7BE3B1C5
:100220002B799BB10734002E24F0070414BF20461D
:100230000020A97B03F02EF8002891DB044466B966
:10024000002C0ADA8CE700BF60080020012000F0D3
:100250003DFC10B1EB7A002BE4D1714B1B6893B1DC
:10026000A97981B10334002E24F0030414BF204681
:100270000020EA7B98470028FFF672AF044416B9C5
:10028000002CFFF66DAF674B1B688BB1297C79B1F1
:100290000334002E24F0030414BF204600209847A6
:1002A0000028FFF65DAF044416B9002CFFF658AFE6
:1002B0005D4B1F68AFB1697C99B10334002E2B7D73
:1002C000009324F0030414BF20460020EB7CAA7C9A
:1002D000B8470028FFF644AF044416B9002CFFF6D7
:1002E0003FAF072000F0F2FB98B1A97989B1033440
:1002F000002E24F0030414BF20460020AA7D00F045
:10030000C9FE0028FFF62CAF044416B9002CFFF6F6
:1003100027AF95F82100B6FA86F77F09A0B1EB7EEA
:10032000297E033424F00704194444F004043B46B6
:100330002246C9B200F0F0FE0028FFF611AF0444D7
:1003400016B9002CFFF60CAF95F82210002957D0F3
:100350000734002E24F0070814BF40460020AA8C62
:100360000BF01CF9041EFFF6FBAE444416B9002C3A
:10037000FFF6F6AE1EB1A98C404606F0C7FE297FF7
:1003800000293FD095F82030002B3BD0EA8B073472
:10039000002E24F0070802F1240214BF404600207A
:1003A00092B20BF0FBF8041EFFF6DAAE444416B925
:1003B000002CFFF6D5AEAB7E297E95F820000334E5
:1003C00024F00704194444F004043B462246C9B211
:1003D00000F094FE0028FFF6C3AE044416B9002CCA
:1003E000FFF6BEAE36B1EA8B297F083292B24046A4
:1003F00006F092FEEB6A5BB176B1EC620020B1E6EA
:100400008846B7E7002EF5D0002211461046EFE7E8
:10041000002EF3D12046A5E62834FBD5A0E600BF88
:100420001C05002024050020200500201FB572B601
:10043000184B1D6BE5B9BFF34F8F1749174BCA68AF
:1004400002F4E0621343CB60BFF34F8F00BFFDE7C0
:10045000B2FBF6F2DCB20133002AF9D104F1100349
:100460006B4403F80C2C0A2234B901A8A847E2E730
:10047000024600230A26EDE7631E04AEDCB256FAFC
:1004800083F3B0FBF2F602FB1600303003F80C0CDD
:100490003046E9E76008002000ED00E00400FA05BE
:1004A00013B5114CA37A8DF80130637A8DF80030C2
:1004B000237AADF804306846E379ADF8023002F0F3
:1004C000FDF818B1D9210320FFF7B0FF207D02F01D
:1004D00021F908B1DC21F6E7E07C02F015F908B15A
:1004E000DD21F0E702B010BD6008002038B50546F8
:1004F00000283ED009F054FE10B94FF0FF3038BD4F
:100500000DF057FBB0F5FA7FF7D81C4C1C4825635B
:10051000002500F055FA26222946A01C84F8345004
:10052000257084F82850E5620AF072FA1B22E27105
:1005300040F21B3240F20113228140F2023263800A
:10054000628101231F222371A281A3754FF40272DD
:10055000F723E281E38344F60112FB236282A38442
:10056000EFF3108472B600F0E7FD2CB962B62046B6
:10057000C5E76FF01500C2E72846C0E76008002015
:10058000A104000038B51446002840F0B3805B4D4C
:1005900095F83430032B00F0AA80B1B112B96FF096
:1005A000150038BD0139142900F2A480DFE801F0FC
:1005B0000B1C1F2F59627F356568793B414F54856D
:1005C0008896999C8E001378AB700020FFF7BAFDD7
:1005D0000028B7BF0123022385F834306FF00B00E9
:1005E000A8BF85F83430DCE71378EB70EDE793783B
:1005F000002BD4D0D378002BD1D013781A2BCED99E
:1006000053781A2BCBD91368C5F80730DDE7137878
:100610006A799342C3D32B71D7E713782A7993422F
:10062000BDD86B71D1E713782A799342B7D86B7430
:10063000CBE71378002BB2D05378013BDBB2F82B19
:10064000ADD813886B822E4B92789A70BDE71078E4
:10065000687505F02BF8B8E71378002B9FD0AB75C1
:10066000B3E7012000F032FA237808B1012B96D9C4
:10067000EB72AAE71388AB81A7E71378AB71A4E705
:10068000072000F023FA10B92378012B87D907201F
:1006900000F01CFA10B12378002B80D02378EB7384
:1006A00093E71378082B3FF67AAF2B748DE7138806
:1006B000FF2B3FF674AFAB7387E71378EB7584E7D6
:1006C00013780E2B3FF66BAF2B767EE723680D4A2F
:1006D000EB61636853602389138176E713786B7647
:1006E00073E71378EB7670E71378AB766DE74FF02E
:1006F000FF3056E76FF02C0053E700BF6008002082
:10070000720800207C080020F8B50D46064630B37C
:1007100029B311F0070422D1124F97F83430012B7E
:1007200002D16FF00B00F8BD032B02D14FF0FF3068
:10073000F9E700F081F80028F8D02846FFF702FD1D
:100740000028EEDB0DF0A8F93046F96A02F03AF81D
:10075000FFF7A6FE032387F834302046E3E76FF067
:100760001500E0E76008002010B5074C94F834301D
:10077000032B03D102F042F802F0ACFC0BF037F887
:10078000002084F8340010BD6008002050B1074BF1
:1007900003F1140253F8041B40F8041B9342F9D1EF
:1007A000002070476FF01500704700BFC36C010058
:1007B00010B5074B93F834403CB901F0CFFF03204C
:1007C000044900F07BF9204610BD4FF0FF30FBE7F5
:1007D000600800200101000010B5054B93F834407B
:1007E0001CB90BF062FF204610BD4FF0FF30FBE755
:1007F0006008002010B5074B93F834403CB901F075
:10080000C7FF0420044900F059F9204610BD4FF0FD
:10081000FF30FBE76008002025010000024B026862
:100820001A600020704700BF98080020014B1B6829
:10083000184700BF98080020024B1868003818BFFE
:100840000120704798080020F7B52E4E0446071D7A
:100850002C48376002F04EFC0228054606D1294993
:1008600020460AF067F9284603B0F0BD042842D1BB
:100870003378092B0AD0252B1ED0314620460AF0AA
:10088000BEF9B0F5817F2DD3722112E005213E2003
:100890000AF042F90028F0D1F378327901A943EA4D
:1008A00002236846ADF800300AF06FFD0028CFD073
:1008B00053210820FFF7BAFD1A213E200AF02CF937
:1008C0000028DAD17368C3F30F23ADF8043069460A
:1008D000112301A88DF806300AF07FFD0028B7D05B
:1008E0006521E6E70028B3D0A17820780AF014F952
:1008F0000028B8D1ACE70828B5D1024920460AF053
:1009000048F9B0E79C080020074B4FF0FF3141F653
:10091000FF72C3E9001205490022C1E900221F212C
:10092000C3E90212704700BFC0040020A0090020E4
:100930003F280CD801380B4BC0F3421200F01F00C7
:1009400053F8223023FA00F000F001007047FF282E
:1009500006D04038C0F34212034B00F01F00EFE70F
:1009600001207047C0040020A00900200146074B69
:10097000006849681A4603C240F48C221A6041F0AC
:10098000107242F4FF625A60704700BFC00400203A
:100990000246024B0068516803C37047C804002038
:1009A0000138064BC0F3421203EB820300F01F0034
:1009B0009B6823FA00F000F001007047C00400209B
:1009C000014B1860704700BFA809002010B5FFF761
:1009D0009BFF0BF043F9034B1B68044603B1984798
:1009E000204610BDA80900200B880288F0B5C3F38B
:1009F0000E049EB204F11403C57CC35A02352A4486
:100A00002B4497B213FA82F3013B4288B3FBF7F30E
:100A100013FB07439BB29A42044A93BF22EA0603A0
:100A2000324013439BB20B80F0BD00BF0080FFFF3C
:100A30004A1E062A08B50346084604D84FF4D17169
:100A40001520FFF7F3FC094A914202D940F2A311A5
:100A5000F6E711B903B1196008BD2BB11B6800227C
:100A6000C3E901211A1D1A600430F5E7FAFFFF7F80
:100A700010B5114B00EB41041A786389B3FBF2F314
:100A800003FB0223013A1A44B2F5706F027928BFC2
:100A900000231A448378B2FBF3F0194403FB1020BF
:100AA000091AB1FBF3F003FB101313446FEA43433D
:100AB0006FEA5343638110BDAC090020024B03EB86
:100AC00080035960704700BFAC090020034B03EB63
:100AD00080035868003818BF01207047AC09002017
:100AE0002DE9F04F10F0070A85B0054604D040F21A
:100AF00061111720FFF79AFC554F07F14006B146E8
:100B00000446B0464FF0010B57F8043B8DF80BA09C
:100B10003BB101A898479DF80A30082B01D9E8217C
:100B2000E7E79DF80B1081BB05B13160B94506F1CF
:100B30000406E9D12DB3DFF81CE100238EF8003064
:100B40001E460F2258F82200013A60B190F804A026
:100B50008178BAF1FF0F66D14FF000078E4207711E
:100B60003CBFCEB20123511CECD10BB18EF800601A
:100B70000F2640F6FF6A58F82670002F65D1013E17
:100B8000F9D2601B05B0BDE8F08F9DF80AC0BCF13A
:100B9000020FE64601F1050238BF4FF0020E0EF1DA
:100BA000FF3004EB42040444CEF100002040BDF8C5
:100BB00008406444013CCCF1000C04EA0C04B4F598
:100BC000803F4FEA420301D3F82192E775B1C31A7F
:100BD000336099701C8083F803B09DF80C201A7163
:100BE000019A1A814FEA124CA3F806C004FB0104D3
:100BF0009CE758F82C90B9F1000F06D099F804B092
:100C0000D34504BF99F802904F440CF1FF3CBCF16E
:100C1000000FEEDA3944FF29A0D90BB18EF800603D
:100C200040F2271165E794460027F0E707EB410300
:100C30003846A3F80AA0FFF71BFF09F10109BB78AA
:100C40005FFA89F18B42F1D899E74FF00009F6E796
:100C5000B0090020AC090020034B03EB8003586C63
:100C600000B18078704700BFAC090020F8B54FF69E
:100C7000FF730380184B03EB81030546586CB8B132
:100C800086780379B3FBF6F206FB1233DBB2194622
:100C90000A1D00EB4202B2F902705488002F09DBF2
:100CA0000131B1FBF6F206FB1211C9B28B42EFD152
:100CB0000020F8BDFF29FBD0C4F30E03C4782B80BD
:100CC00024B94FF4D5711720FFF7B0FB5380BDE86E
:100CD000F8400AF018BC00BFAC0900201D4B03EB24
:100CE000810370B55C6C054644B3030404D54FF42E
:100CF000DC711720FFF79AFB014620460AF0E5FB5E
:100D0000FF28014604D02046BDE870400AF0FBBB36
:100D1000A078B5FBF0F300FB1353DBB219460A1DB4
:100D200004EB4206B6F90260002E09DB0131B1FB8B
:100D3000F0F200FB1211C9B28B42F0D1002070BD5D
:100D4000FF29FBD08B4204EB42021CBF0023E3705F
:100D50005580D8E7AC090020094B03EB810310B59F
:100D60005C6C014620460AF0B0FBFF28014604D027
:100D70002046BDE810400AF0C6BB002010BD00BFF1
:100D8000AC090020F8B5104B03EB810307465C6CFF
:100D9000014620460AF099FBFF28054611D0E68857
:100DA000238953EA064606D0014620460AF0ABFBEB
:100DB00001463846B04720462946FFF759FE002035
:100DC000F8BD0520FCE700BFAC09002038B50E4B8C
:100DD000827903EB82030446586C08B9052038BDBC
:100DE0008278E1799142F9D24B1CE37100EB410327
:100DF0005D89B3F90A30002BF3DBA5800AF083FB91
:100E000020600020EBE700BFAC09002070B504466D
:100E100010F003000E4603D04F211820FFF706FB09
:100E2000FFF706FE054624B1034831460460FFF78C
:100E3000FFFD284670BD00BF300A00202DE9F14FAC
:100E4000DFF870B09DF828A09DF82C901E46DBF8C6
:100E5000003007460D4690461BB961211820FFF768
:100E6000E5FA5246092140460AF0DCFA4A4684B2C5
:100E7000092130460AF0D6FA14FA80F1DBF80000B6
:100E80000AF0FFFA386018B9286001B0BDE8F08FA9
:100E900004442C6038685346414609220AF0A1FAFE
:100EA00028684B460922314601B0BDE8F04F0AF0F0
:100EB00098BA00BF300A00201F2AF8B5044613462E
:100EC0000ED89200033222F00303B3F5803F2DD2F7
:100ED000184DACB1A00710D05F210920FFF7A6FA8A
:100EE000FF2B4FEA420204D9FF339A42A8BF1A46A9
:100EF000E8E77C2AB8BF7C22E4E729706C602B818C
:100F000022F0030201EB81031204D80001276B6871
:100F1000120C0025EEB28E4200D3F8BD14B1261893
:100F20001F705E60104401352833F3E74FF0FF3047
:100F3000F3E700BF340A002038B5144A1478536828
:100F40000021C8B2844203D8AB210920FFF76EFA12
:100F50001846013105782833002DF2D00021817028
:100F600001241289447044688161C161920800F1D2
:100F70002001051D21F8022B994245F8044B144429
:100F8000F8D100234361037038BD00BF340A00204C
:100F90000A4B1B89B3F5FF7F4FEA930006D25A082C
:100FA0009B1A9BB2984238BF18467047B3F5EE6F54
:100FB00001D8FF22F4E740F27263F3E7340A00201D
:100FC0002DE9F8434B7880460C4602F0040602F007
:100FD000FB07D3B1DFB12E4BD4F804901D89B7BB0A
:100FE00001236370AD08A761E76104F120034A465D
:100FF000211D04F1280023F8025B984241F8042BDC
:101000002A44F8D10023636101E0002FE3D0FF23DD
:10101000A370002E18BF0226A3191B7D032B03D13A
:10102000022F1CBF0136F6B2A31901221A7506F170
:101030000C0204EB8606002324F812307268A370B9
:10104000C8F80020A8F804304046BDE8F883002125
:1010500014226170A01809F0DBFCB5F5FF7F0FD2F8
:101060006B08ED1AADB209EB0502C4F804902584B3
:10107000A2606384C4F80C90A5842261E384C6E76F
:10108000B5F5EE6F4FF0FF03EBD940F27265EAE77A
:10109000340A00202DE9F84305460C46F7200521C7
:1010A00091460AF0BFF9061E22DB1DB914FB06F0BB
:1010B000BDE8F88315F0030703D098211920FFF746
:1010C000B5F9DFF83480C8F81050A8F81460A5B25C
:1010D000BBB29D42EAD9B8F814C0D8F810004B460C
:1010E00007FB0C000522F7210AF07BF90137EFE737
:1010F0004FF0FF30DCE700BF480A002007B5CDE91C
:1011000000230B4603490246081D0AF04AFB03B0C0
:101110005DF804FB600A002013B5064CCDE90023FE
:101120000B46024604F1080104F10C000AF039FBF9
:1011300002B010BD600A0020134B012200214FF0C5
:10114000FF309A60C3F80012C3F80803C3F8001513
:10115000C3F804259A60C3F80803C3F80015C3F860
:1011600004250A490A4A03F580334FF40040C3F8C6
:101170000825C1F88000BFF34F8FBFF36F8FC1F810
:101180008001C3F80825704700F0004000E100E04E
:101190000000F63F014B1876704700BF700A002030
:1011A0002DE9F843002800F0E0800446072900F20A
:1011B000D380DFE801F0AB2424A7D11F9ECD0146E8
:1011C00020460CF0C3F8D4F84C3100F1DB059D4209
:1011D00040F2C680E81A322838BF3220032108F0D6
:1011E00097FCC4F84C51064620460CF073F9002ECB
:1011F00000F09D802046BDE8F8430CF06CB90CF07F
:10120000F4F8D4F81C21002305460E4684F8483132
:1012100084F85131BAB150EA010314D0CA00C300B6
:101220001B1A42EA507262EB0102D4F838115B18C3
:10123000D4F83C1142EB0102D4E95601834272EB2F
:101240000103C0F09080022304F5A47784F85031A4
:10125000384607F0F5FE002800F08B8094F86831DE
:1012600003F0FF01002B6BD1D4E958026FF000436B
:101270009A4208BFB0F1FF3F13D02046D4E95698F8
:101280000CF064F8D4F86031D4F86421B3EB0903AE
:1012900000F1DB0062EB08021B1A62F10002002A77
:1012A0004BDB94F81801394607F0BCFF00286AD0E0
:1012B000D4E95601D4E94C32834272EB01071FD2C4
:1012C00055EA06071CD0C01A61EB020133462A46D4
:1012D00009F068FA05FB01F3D4E94C2100FB06365E
:1012E000A5FB00535519334443EB0103C4E94C53A8
:1012F00006E090F8180107F075FE002384F84031ED
:10130000BDE8F883BDE8F84305F09CBA03F0E6FCBD
:10131000D4F84C01CB3808F0ADFB78B320460CF084
:10132000A6F800283FF44BAF20460CF0D3F8D4E9E0
:101330005623C4E94E23BDE8F883204603F0D6FCCB
:1013400094F8180107F04EFE002384F84031AFE70F
:10135000F4213020FFF76AF8F8213020FFF766F813
:10136000C4F84C51E0E701236EE7D7213020FFF7A6
:101370005DF840F292613020FFF758F840F25121B9
:101380003020FFF753F840F296613020FFF74EF817
:10139000D0F81C01704700BF2DE9F04385B0002351
:1013A0000322CDE90033FF268DF806206846FFF7BB
:1013B0000DFD044620BB009D95F84031002BF5D073
:1013C00085F86861012128460CF087F895F84031CE
:1013D000002BEBD095F8180108F086F995F8180164
:1013E00008F0BEFC95F8180107F0FCFD00283CD081
:1013F00085F840416846FFF7E9FC04460028DAD04A
:10140000DFF87C80012388F80830002502264FF69B
:10141000FF771AE0029BE3B193F85C22202A18D0F0
:101420001888B8421BD00221FFF796FC814608B30A
:1014300090F85C0208F094FC99F85C0289F8444248
:1014400007F0D0FD202389F85C32CDE902558DF8F4
:101450000E6002A8FFF7BAFC04460028DAD0002389
:1014600088F8083005B0BDE8F08340F2DF11302085
:10147000FEF7DCFF40F22B113020FEF7D7FF00BF54
:10148000400B0020054B0022012142F210705A72DD
:10149000588119701A72FFF77FBF00BF400B002000
:1014A0002DE9F84390F84031002B76D10446884668
:1014B00001465648154603F0FF0707F067FD202850
:1014C00006466AD05822394604F58C7009F0A0FA15
:1014D00084F81861C4F81C81FF2384F84031B8F106
:1014E000000F06D001F060FE00F00700013088F820
:1014F000340202234FF00008A4F8503184F84881E8
:101500000CF059FB00F19E062046B6B20BF0AFFF7F
:10151000002846D00BF022F900F5CD6189B22846AB
:101520000CF041FB2844C4F84C010CF064FB30186B
:1015300041F100014FF00109C4F85801A4F82680D8
:10154000C4F85C1184F8209120460BF0A6FF002817
:1015500045D0494620460BF0F9FEA5F2D7452D1A95
:10156000C4F824514FF0FF326FF00043C4E9582310
:1015700094F8180104F5A47107F054FE00283FD038
:10158000D4E956232046C4E94C23C4E94E23002164
:101590000BF0A3FF3846BDE8F8830C273846BDE8BA
:1015A000F883014620460BF0D1FEDFF86480DB3083
:1015B000C4F84C01B8F80A0008B1E08CB8B9064488
:1015C0000CF019FB361841F10001C4E95661002DF9
:1015D000C8D0AE1941F10001C4E95861C8E74846D6
:1015E0000CF053F8DB3D2D1AC4F82451BAE701F092
:1015F000DBFDB8F80A30B0FBF3F202FB1300DEE7C4
:1016000040F2C1113020FEF711FF00BFA111000010
:10161000400B002090F840310BB90020704710B506
:101620000446FF2380F8683101210BF056FF94F83F
:1016300040310BB9002010BD94F8180108F054F89F
:1016400094F8180108F08CFB94F8180107F0CAFC14
:1016500020B1002384F84031002010BD40F2DF119A
:101660003020FEF7E3FE00BF014B5872704700BF09
:10167000400B002090F8682182B910B502F0FF04F9
:1016800090F8202112B90122104610BDD0E949314D
:101690009942F9D903F02AFB2246F5E700221046C9
:1016A000704700BF08B540F2FF110BF07FFBB0F5AB
:1016B000296F28BF4FF4296080B208BDF8B50446F1
:1016C00051B101295BD1002380F8203104F092FF51
:1016D000BDE8F84007F012BBC58C002D47D120466D
:1016E000D4E94C760BF081FE401941F10001C0199C
:1016F00046EB010100220223C4E95601C4E94C0172
:1017000084F84821A4F8503194F8683103F0FF01BF
:10171000002BDBD1D4E958026FF000439A4208BF96
:10172000B0F1FF3F0CD194F8180104F5A47107F053
:1017300079FD0028CAD140F2E9613020FEF776FE3B
:101740002046D4E956560BF001FED4F86031D4F8A7
:1017500064215B1B00F1DB0062EB06021B1A62F1E5
:101760000002002ADFDA204603F0C0FAAEE701F0FB
:1017700003FDE58CB0FBF5F303FB1505AFE740F285
:101780009F713020FEF752FE90F84001003818BFDC
:1017900001207047014B5881704700BF400B00206B
:1017A00090F85430590702460DD413F0030000D1CD
:1017B000704792F8550000F0FD00A0F10100B0FA6A
:1017C00080F04009704790F85600A0F10100B0FA8F
:1017D00080F04009704700BF303270B592B20546C4
:1017E0000C461E4609F0DAFE35B1044A00231560A6
:1017F000147456741471536170BD00BF640B0020E3
:10180000014B1870704700BFD104002090F87000A1
:10181000003818BF01207047014B5870704700BF57
:10182000800B0020C369ABB110B4D0E90214DA68B0
:10183000D0F818C0C3F818C0214411448269D96097
:1018400032B1D36100220023C0E9062310BC7047E7
:10185000DA60F7E7826904490A6002B1D3610022C5
:101860000023C0E906237047880B002008B5C1613A
:10187000A1B18B698861836173B1D861C1690023AB
:10188000C36041B1CB6823B18268934211D39B1AE4
:10189000C3600023CB6008BDC360F3E7074A136849
:1018A00083611BB1D861C1691060E8E71060C36053
:1018B00008BD2D213720FEF7B9FD00BF880B0020A1
:1018C000014B1868704700BF880B00200D4B1B6848
:1018D000B3B100B584464FF0FF3E002000E0134650
:1018E000DA68944503D8964584BF184696469A69A7
:1018F000002AF4D111B9002808BF18465DF804FB8E
:1019000018467047880B002030B585B0DDE90834F3
:10191000C01A61EB0404002C15460BDB214603AA18
:10192000009202AB2A4608F031FF002C039805DB39
:1019300005B030BD404264EB4401F0E70028F7D029
:10194000281A05B030BD00BF014B01221A71704743
:10195000880B0020014B00221A717047880B002071
:10196000014B1879704700BF880B002038B52C4B0D
:101970001B68864608466BB34FF0000C64461D6931
:101980000CB1A54204D22C46002D43D0B3F814C0AC
:101990009B69002BF3D1ECB1A0421CD3B0FBF4FC4B
:1019A0000EF1FF3E0EEB0401B1FBF4F18C4511D3B7
:1019B00004FB0CF3B3FBF4F504FB153525B9B3FBBD
:1019C000F2F502FB15350DB30CF1FF3C8C45A3EB92
:1019D0000403EFD238BD431E2344B4FBFEFEB3FB29
:1019E000F0F37345F6D8B4FBF3F503FB154149B9A1
:1019F000B5FBF2F102FB115121B9B5FBFCF10CFB77
:101A0000115129B101337345EDD938BD184638BDA0
:101A1000284638BD4FF496713720FEF707FD00BF0A
:101A2000880B00200120704710B5044609F0E1FE44
:101A300008B9002010BDE04309F0DBFE0028F8D013
:101A4000E31683EAA4635A1E1A42F2D0E3B25A1E86
:101A500013405A1E1342ECD0A0B20BF005FA0B282B
:101A6000E7D820460BF0FCF91828E2D8A3B2B3EB74
:101A7000144F04D184EA142313F0FF1FD9D0044B70
:101A800063405A1E1A4214BF01200020D2E700BF53
:101A9000D6BE898EF0B5070CA7F5AA42144B543A6E
:101AA000012A03EA90231FD927F4004042F6AA2214
:101AB000801A18BF01200022162116461F2487EA2B
:101AC000060562EA0505013510D0DD03ADB245EA31
:101AD0005606E503ADB2013945EA52024FEA530317
:101AE0004FEA5404EBD1F0BD0020E4E70020FAE710
:101AF000E0FF3F00F8B58D1FADB240F67A4C65456A
:101B00000746BDF824601046BDF818203BD8841F56
:101B1000A4B264458CBF002401242546AFBB1D4FF1
:101B20003F796FB15CB96FF450654D19062D06D839
:101B30006FF450640419062C8CBF00240124254640
:101B4000FDB1814224D803FB0666B6F5FA7F1FDC9F
:101B5000A2F10A039BB240F67644A34218D809F0DA
:101B600034FF42F210735A4300FB06F1B2EB410F0F
:101B70000ED9BDF81C50BDF8200085428CBF002551
:101B800001252846F8BD0024C7E797F88170C8E70B
:101B90000025F6E7480C00200138C0B2032808B53C
:101BA00004D940F217310620FEF740FC014B185CC7
:101BB00008BD00BF046301000138C0B2032808B5A6
:101BC00004D940F217310620FEF730FC014B185CB7
:101BD00008BD00BF6E6301000138C0B2032808B51C
:101BE00004D940F217310620FEF720FC014B185CA7
:101BF00008BD00BFEC630100F7B5114B9C7EDD7E94
:101C00009F8B064614B900F03FFE0446A5B900F0CC
:101C10003BFE054614B9092003B0F0BD0028FAD0F8
:101C2000304601A98DF804408DF80550ADF80670D6
:101C30000AF02BFE0020EFE7002CF1D1EBE700BF0C
:101C4000CC100020034B044A1A60044B044A1A606B
:101C5000704700BF3C050020315500002C050020D6
:101C6000C551000010B503210020FFF775F80446A8
:101C700070B90321FFF732F8044620B940F23D3134
:101C80003920FEF7D3FB034B93F950100BF014FBF4
:101C9000204610BD480C002038B50AF06FFD00F05A
:101CA0006DFF00F0FFFD0BF05CF801F0D5F801F0DE
:101CB00003FB01F005F9012000F0B8FD164B174AAF
:101CC0001A6000251B22164C5D839A80DD831D84DB
:101CD0001D76144BA576F92258682283124A1B8977
:101CE0002260E0611422294604F124002384A580A7
:101CF000A57508F08DFE012342F21072C4E90A2294
:101D000084F8243084F8393084F8445004F13A00DF
:101D1000BDE838400BF0B6BECC10002003021B001B
:101D2000480C0020046301001B004801044B41F6ED
:101D30004C521B21C3E9022219745A61FFF7ACBF50
:101D4000CC10002073B5384DAB68044640F8443FD2
:101D5000FFF7A8FC064600F091FD2B7C84F84C3080
:101D6000324BA4F84E6010F0200F1B681DBFAA88EC
:101D70006988A4F86E101B2208BFA4F86E20A4F88E
:101D800070201BB194F980102088984728490B795E
:101D9000003B18BF012384F88130264B1B6813B128
:101DA00020880831984794F88130002B41F64C5335
:101DB00018BF4FF47A73E3612046FFF71DFF064614
:101DC00048B120880221FEF7DDFF40B340F2B9514F
:101DD0003920FEF72BFB184B1B6813B101462088F6
:101DE000984704F128000BF047FEAB886A886978B1
:101DF000019103332978009103329BB292B204F12E
:101E0000180104F11400FFF719F8636913B940F2DF
:101E1000CE51DDE7A3691BB940F2CF51D8E70926BF
:101E2000304602B070BD00BFCC100020300500204D
:101E3000480C002044050020400500202DE9F34116
:101E400005460E460BF07DFA002800F0AE802846CD
:101E50000BF00DFB30B1B6F80130013B7F2B01D9FF
:101E6000122404E028460BF006FB20B90C2420467F
:101E700002B0BDE8F0812846FFF786FC0028F5D1C6
:101E800028460BF003FA80460028EFD1284602F0DE
:101E9000DBFC0028E4D0B6F80170F17842F2107350
:101EA00028465F430BF0CBFA04213078FEF754FF4D
:101EB000062104463078FEF74FFF002C77D038B16A
:101EC00041F661113920FEF7B1FA90F8BD80044661
:101ED000404E3368002B6CD0403420460BF046FD5A
:101EE000002866D020460BF023FD002861D1B8F110
:101EF000000F08D0384B20461B689847002858D060
:101F000041F67511DEE73549336849694246204696
:101F1000984700284DD041F67A11D3E728460BF0B8
:101F2000A6FA40B902210DF10600FEF79FFE064613
:101F300058B90D249BE728460BF0ABFA0028F1D1E5
:101F4000274B1B79002BEDD18AE7002100F00AFF17
:101F5000BDF806303380284631460BF0AFFA2846EC
:101F60000BF097FAA0B928460BF09DFA01463046CF
:101F7000FFF7E8FE044600287FF479AF3A46314681
:101F80002846FFF78DFA044620B141F6A61199E7DD
:101F90000121ECE7124BDB6C002B3FF468AF0246EB
:101FA00006F5A1713046984761E742245FE70028B3
:101FB0008BD128460BF04FFA01460028AED13A46A5
:101FC0002846FFF76DFA044600283FF450AF41F66B
:101FD000831177E73C05002038050020CC10002055
:101FE000480C0020B0F90020F8B514B292B202F506
:101FF000A0639BB2B3F5206F34D8B0F902301DB2A4
:102000009BB203F5A06189B2B1F5206F2AD802F224
:10201000F64189B240F2BE50814225D803F2F64122
:1020200089B2814220D8002CC4BF093214B2002DDD
:10203000C4BF09331DB20A2094FBF0F400F014FF72
:1020400067B206460A21384695FBF1F149B200F025
:10205000FDFE074B1B684BB1A01B40B208B198476F
:102060000020F8BD3020FCE71120FAE71846F8E719
:1020700034050020034B5A8802801B7883700020AF
:10208000704700BFCC1000202DE9FF410778EF2FEB
:1020900004460D4601D91225A5E0B0F80130ADF88F
:1020A0000C309DF90C209DF80C30002AF3DB9DF8D4
:1020B0000D209607EFD1D8066CD4990603F00302E1
:1020C00065D5002AE7D11A0703D503F06703012B72
:1020D000E1D163781E0711D42179E278E07942EAF0
:1020E0000122617942EA0142A17941EA0021207A84
:1020F00041EA00418A42CED81F2ACCD9627A013AFD
:10210000062AC8D8A27A032AC5D813F0040102D13E
:10211000023A012A03D8E27A012ABCD811B9A27C7A
:10212000032AB8D813F01001227D44D0012AB2D17D
:10213000237E012BAFD800294DD06378D80703D573
:1021400000F020FB00284DD06378227D03F01801B9
:1021500008295AD1022A45D11B0709D4E279A3796B
:1021600043EA0223227A43EA0243B3F5804F39D887
:102170001FFA87F803214046FEF7EEFD06460028C9
:1021800049D0FFF701FB002851D00C252BE0032A92
:1021900099D180E713F0600F7FF47DAF03F00F0259
:1021A00003F00703052B94D0931E012B91D9002A2D
:1021B0007FF471AF8DE7022A04D103F06F03092B7E
:1021C0007FF469AFA37D013B022B3FF664AFE37D53
:1021D0000F2BADD95FE700F057FB81070AD4237DB1
:1021E000022B04D11125284604B0BDE8F081A37D5F
:1021F000022BF7D000F048FB42079ED4237D032B2F
:10220000F0D0A37D032B98D1ECE7022AA4D0A27EC4
:10221000002AA1D0E6E703214046FEF75FFD06460F
:10222000002840D0214B93F950100BF045F80021C5
:1022300038460BF060FA18BB30460BF009F921461E
:102240002870E074304602F057FB637E0546002B91
:10225000C9D00028C7D1F16C02466846FEF7B0FE2F
:10226000F06C2A46012109F0EEF9F16C684604226F
:10227000FEF7A6FEF06C2A46294609F0E4F9B2E71B
:1022800040300BF073FB0028D6D0637813F0330F87
:102290007FF401AF3046A77D0BF005F9FFF77CFC1A
:1022A0008742C9D071E707259DE700BF480C002091
:1022B00030B50279042A8BB0034658D84488B4F567
:1022C000804F54D82B4810440021827C457BADF8C8
:1022D000041042F0100242EA4502C57D007F8DF8ED
:1022E0000C1042EA850242EAC00202F01F028DF899
:1022F0000420BDF80420ADF80D201A888DF80F20B9
:102300008DF81240120A240A8DF811108DF814105D
:102310008DF810208DF813405A7B8DF815205A79CE
:102320008DF816209A79D3F807008DF81720B3F8A6
:102330000B209B7B8DF81E307F238DF81F300123EF
:1023400006908DF82110ADF81C208DF820308DF806
:10235000223003A88DF823108DF824108DF8251055
:102360008DF8261001A9FFF78FFE0BB030BD1220AB
:10237000FBE700BF04630100F7B5B0F80120B0F837
:1023800003309A42054602D9122003B0F0BD052A57
:10239000FAD9052BF8D9B0F80530002B40F09C8015
:1023A00000780321FEF7D8FC0646002800F096804E
:1023B0000BF055F80028E7D130460BF06AF80028FA
:1023C000E2D130460BF047F80028DDD130460BF063
:1023D0004AF801460028D7D128780BF08CF904463A
:1023E000002852D128780621FEF7B6FC07460028BF
:1023F00052D1BCB906202F7809F08DF8BFB2002861
:102400005DD006213846FEF769FC002857D080F8D9
:10241000BD400446354B20461B68984706F128030B
:10242000C4F88830E28D94F8300094F834104FF6F8
:10243000FF7301F0FF07002954D19A4294F8351038
:1024400046D0002814BF3B272327A06809F089F94C
:10245000B5F8032073790097014640F2E240424309
:1024600020460BF094F900283AD004F140012846A8
:1024700009F022FB7379237430460AF0E9FF014624
:1024800020460BF096F900207FE740300BF050FA21
:102490000028A7D00C2078E790F8BD303BB101466A
:1024A00028780BF0CDFA114B38461B68984706F197
:1024B0002803C7F88830002387F8BD3099E7042146
:1024C0003846FEF70BFC04460028A3D107205CE742
:1024D000002918BF0927B8E7112056E7422054E722
:1024E000452052E79A42ACD10927AEE72C050020DF
:1024F0002DE9F743074603214078FEF72DFC0546FA
:10250000002800F0B88004217878FEF725FC062129
:1025100004467878FEF720FC06462CB1C0B14FF493
:10252000D9513920FDF782FF18B90C2003B0BDE85E
:10253000F08390F8BD9004463B7804F14008DB0737
:10254000404640F18B800BF0F3F918B10020EDE725
:102550008146F1E728460AF082FF0028E5D12846A7
:102560000AF097FF0028E0D128460AF074FF0028FF
:10257000DBD128460AF077FF0028D6D13B78C3F399
:102580004003A373B9F1000F32D06B79237495F82F
:102590004630627B1B0963F307126273404602F008
:1025A000C1FF0028C2D156B1B9F1000F07D009F020
:1025B000E6F9344BC6F890001B7E86F8A33009F08C
:1025C000DEF9206000F0F0FD20F07F4060602846DA
:1025D000FFF7DAF80028B9D0B9F1000F32D02A4B52
:1025E00040461B6898470028B0D041F6733198E701
:1025F000A06809F08EF8002897D1E28D94F8300099
:1026000094F834104FF6FF7301F0FF07002934D11E
:102610009A4294F8351011D0002814BF3B27232785
:10262000A06809F09EF86B7900970146226F20465A
:102630000BF0ADF80028A8D1452077E7002918BF96
:102640000927EDE7114B4A465969404602F070FFF1
:1026500000283FF47BAF41F6783162E7B9F1000F13
:1026600004D003B0BDE8F0430BF0ECB903B0BDE813
:10267000F0430BF0CFB9422058E79A42CCD109275A
:10268000CEE700BF480C002038050020CC10002009
:1026900013B50378044653B1002301A8019304F055
:1026A00043FD019B9B0702D00C2002B010BD024BE2
:1026B00022781A710020F8E7480C002002780346BF
:1026C00072B1427862B142881A2A09D982881A2ADC
:1026D00006D9044A006810609B88938000207047E8
:1026E00012207047CC100020024B02689A60002034
:1026F000704700BFCC100020024B02685A610020D6
:10270000704700BFCC100020014B187600207047A6
:10271000480C0020014B587600207047480C0020E0
:10272000024B1B6803B11847112070472805002091
:1027300008B501F089FFFEF7A5FEBDE80840014895
:1027400001F06CBF9C0C002008B5034802F024FD8A
:10275000BDE80840FFF776BA9C0C002010B5064C87
:10276000064904F5037009F0BDFF04F5047004493F
:10277000BDE8104009F0B6BF9C0C002048050020C1
:1027800050050020014B93F80A0270479C0C002072
:1027900010B5094C0D2000F055F804F503700749F9
:1027A00009F0A0FF04F50470054909F09BFFBDE89E
:1027B0001040242000F046B89C0C00205805002052
:1027C0006005002038B5094C0D4600F06FFCD4F8C8
:1027D0000C02C4F8045109F07DFFFFF7A7FA00F0DE
:1027E000FBFC012384F8183238BD00BF9C0C00208C
:1027F000014B93F8180270479C0C002010B50A4C4E
:10280000D4F8100209F066FFD4F8140209F062FF50
:10281000FFF742FA202000F023F8262000F020F8ED
:10282000002384F8183210BD9C0C0020014B83F863
:10283000190270479C0C0020014B93F81902704755
:102840009C0C0020C2080549012300F0070003FA90
:1028500000F08B5C18438854704700BFD8040020F8
:10286000C208054900F0070001238340885C20EA84
:1028700003008854704700BFD8040020014BD3E9FF
:1028800000017047D8040020054B1868C0F3C0222F
:10289000C0F30020400040EA820040F00100704791
:1028A000D804002008B50BF084F9084A002332F858
:1028B0002310814205D302EB83039B78044A1370F3
:1028C00008BD01330C2BF2D10023F7E73E63010072
:1028D000B60E0020024B1878072828BF0720704743
:1028E000B60E0020054B9A8E824201BF002283F86B
:1028F00032204FF6FF729A86704700BFB80E002054
:1029000050B90A4A1346012003F8010B0868C2F8BF
:1029100001008A889A807047012805D1034B0A6814
:102920009A608A88D8719A81704700BFF20E0020A1
:1029300048B90A4B187880B1D3F80120B3F80530B4
:102940000A608B807047012806D1044BD87920B1EA
:102950009A680A609B89F4E700207047F20E002015
:1029600020B9054B187800F00100704701280ABF14
:10297000014B0020D879F6E7F20E0020F7B50022CF
:102980008B888DF80600ADF8043008680C4B8DF884
:102990000720019D1C78014603F5AC73D0B2844238
:1029A00001D8082009E0D3E90076AE4208BF8F4283
:1029B00003F1080302F10102F0D103B0F0BD00BF42
:1029C000000F002030B5094B01465C78002203F56A
:1029D0008173D0B2844201D8082005E013F8015B6E
:1029E0008D4202F10102F4D130BD00BF000F002082
:1029F000F0B5254D95F8984189B0224605F2991118
:102A0000684607F08DFF2146684609F0D6FE044669
:102A1000B8B300EB4001C9B202A8FDF707FF601E82
:102A200095F8A161C0B2012495F8982105E0731CC6
:102A3000B3FBF2F102FB1133DEB206F120030DEB22
:102A4000030111F8203C002BF1D100EB40022032B1
:102A50006A4406EB46032B4412F8187C83F8A271F3
:102A600012F8177C12F8162C83F8A37183F8A421AE
:102A700001F8204C0138AB19C0B2FF2883F8994106
:102A8000D2D109B0F0BD00BF000F002070B50646DE
:102A900088B00C46002A4FD02A4A92F8A131D018AB
:102AA00090F8991121B94FF480712820FDF7BEFCF0
:102AB00003EB43011144013391F8A251E57091F801
:102AC000A35191F8A41161710021257180F8991129
:102AD00092F89811B3FBF1F001FB103382F8A131A9
:102AE00092F8C23123B9184902F5DD700AF05BF99A
:102AF000657905F03F0545F0400565710D2200211F
:102B0000684607F085FFE3788DF80F3023798DF85C
:102B10000E3004AA0423694630468DF80D5007F0A4
:102B200075FC9DF81F3023709DF81E3063709DF872
:102B30001D30A37008B070BD03216018FDF776FE4C
:102B4000D6E700BF000F0020F1290000044B5A789F
:102B5000824286BF1B1893F84A010020704700BFCD
:102B6000000F0020044B5A78824286BF1B1893F84E
:102B700042010020704700BF000F0020064B0022DA
:102B80004FF461711A8083F8C32183F8C421A3F83C
:102B9000C61183F8C2217047000F0020014B83F853
:102BA000C4017047000F0020014BB3F8C601704705
:102BB000000F002030B50A4B5C7884420ED91844CF
:102BC00090F802012B3003EBC004A5790D7053F887
:102BD00030001060A3889380012030BD0020FCE706
:102BE000000F00200246074810B590F8C34124B1F9
:102BF000417821B1023002F069FD204610BD0C463B
:102C0000FBE700BF000F00202DE9F74F2F4C9A463D
:102C1000637883428046894656D9231893F84251F7
:102C200085F00105F9B193F84A31E3B945F002079F
:102C30000135BAF1000F18D1FA070AD5062101FBB8
:102C4000084104EB0810524601F585718230FFF708
:102C50001DFFBB0734D504EB08105246494602302D
:102C6000FFF714FF2CE02F46E3E794F8A1614FF043
:102C7000010B002DE0D0A319019393F8991199B994
:102C80000092DAB100F078FA06EB46012144019B8C
:102C900081F8A2014FEA102C009A81F8A3C1000C20
:102CA00081F8A40183F899B194F898310136B6FB04
:102CB000F3F103FB1166F6B2013DDAE747F00407D2
:102CC000384603B0BDE8F08F0027F9E7000F002079
:102CD000074B5A78824209D91A1892F842212AB928
:102CE000062202FB003000F5857070470020704717
:102CF000000F0020064B5A78824281BF1B1893F8C0
:102D00003A01B0FA80F0400998BF0020704700BF38
:102D1000000F002030B50024A0F84240B0F8464033
:102D200042F210754C43B4FBF2F4A0F84640541E36
:102D300005FB0343B3FBF2F3A0F84430084BB3FBAD
:102D4000F2F30133A0F84A30838F05FB0344436B51
:102D5000B4FBF2F459438463B1FBF2F2426330BD39
:102D6000005A620270B504460D4649BB4FF44272E8
:102D700007F04EFE012384F8A6306FF0360384F886
:102D8000F330042384F8F4306FF03B0384F8F5301B
:102D90006F2384F8F6306FF03F0384F8F7302B236D
:102DA00084F8F230FE2384F832317F2384F89D309A
:102DB000202384F8F85084F8F95084F85C3270BD10
:102DC000012922D10023A0F81C3280F81332154BC0
:102DD000C2691344B3FBF2F3C0F8C83040F6B8330D
:102DE000A0F8CC301146C38C9030FFF793FF07F06A
:102DF00025FC30B1206AFEF74DFE10B984F8005270
:102E0000DDE7002384F80032D9E70229D7D1B0F8F2
:102E1000E232D0F8DC22C169BDE870409030FFF7A3
:102E200079BF00BF7FC3C901074B93F90030184435
:102E3000142804DC10F17F0F03DB40B2704714202C
:102E400070476FF07E007047C8100020014B18706B
:102E500059707047C8100020024B00221A705A7037
:102E6000704700BFC8100020014B93F90000704765
:102E7000C8100020014B93F901007047C8100020D2
:102E8000054B1B7833B9054B1A681B790260037137
:102E90000120704700207047CA100020E004002085
:102EA000054BFF221A70054A016811600179117102
:102EB00000221A70704700BFCA100020E0040020F2
:102EC00007B5064B186800901B798DF804306846EA
:102ED000FFF7E6FF03B05DF804FB00BFD86C01000C
:102EE00083230B70014B1B78CB707047F0100020D0
:102EF0002DE9F347DFF8589106460D464FF00508D7
:102F000000272B693BB11B7A2BB12C699CB900209F
:102F100002B0BDE8F0876C68237A012BF7D0EFF39D
:102F2000108372B66A6812686A6003B962B6237A5F
:102F3000002BE6D02C6194F808A05FFA8AFA84F896
:102F400008800AF1FF330B2B74D8DFE803F070061A
:102F500012266D3D4C3D3D3D3D60636823B94FF405
:102F6000EE711020FDF762FA3146204698470420A2
:102F70001BE0636813B940F2E511F2E731462046E1
:102F800098470346C3F30723012BADF80400C0B2F2
:102F900053D0022B09D12F6151E0636813B940F27D
:102FA000EF11DEE7204698470020EFF3108372B65A
:102FB000227A052AD1B201D0002944D127722F618B
:102FC000002B3CD162B63AE0D9F80030002BEBD0B0
:102FD0006068524631469847BAF10A0FC7D10023BC
:102FE0002B61042094E763680BB9DB21B9E70D225C
:102FF00032701988A6F80310012200245869B270B3
:103000007271B471214608F020FA2C61E9E760681A
:1030100010B940F21A21A4E70E4B31461B689847BD
:1030200000232B61022073E740F2232199E740F24D
:10303000262196E740F2292193E7032323720028F3
:103040003FF45FAF64E7002B7FF45BAF62B658E7F5
:103050006C0500206805002070B5134C1426231D54
:1030600032460021184607F0D3FC0346012525749B
:1030700000210433324604F11800C4E9013307F09B
:10308000C7FC84F8245004F11C03C4E90633002370
:10309000E362236384F83430C4F83530C4F839303F
:1030A00084F83D3070BD00BFF010002010B5084C12
:1030B0002378FF2B04D04FF4B7711020FDF7B6F939
:1030C00007F0ECF92070BDE81040FFF7C5BF00BF66
:1030D000E504002010B5034C207807F0FBF9FF232E
:1030E000237010BDE5040020014B187807F002BAE8
:1030F000E504002038B50B4D05F118010446FFF733
:10310000F7FE70B9AB681B7A0C2B04D1064BDA7F43
:103110000AB11B8C2BB120460449BDE83840FFF7AB
:10312000E7BE38BDF0100020CC100020F4100020C5
:1031300010B51346027A22B140F2C9211020FDF7E2
:1031400075F90A46BDE810400146014809F00BBE7A
:10315000F41000200346064890F83E203AB190F85B
:103160003D2022B900F8353B024909F019BE7047ED
:10317000F0100020E12E0000094AD2E9000343408C
:1031800083EAB01181EA43214FEAF3435360054BD0
:10319000116058434FEAF06000EB8000704700BFB9
:1031A00030110020BB79379E094AD2E90003434021
:1031B00083EAB01181EA43214FEAF3435360054BA0
:1031C000116058434FEAF06000EB8000704700BF89
:1031D000E8040020BB79379E10B50A4C0948082145
:1031E000FDF724FBD4E900231343F7D0064CFFF787
:1031F000DBFF2060FFF7D8FF236860600343F6D051
:1032000010BD00BFE804002030110020F0B5204EB2
:10321000054630780024147080B1431E7768DBB215
:10322000181B01280BDC07EBC40057F8346040681A
:10323000884208BFAE4212D114700120F0BD1819A7
:10324000461007EBC60E57F836C0DEF80460AC45F2
:10325000C0F347008E412CBF03460446E0E7B54269
:1032600071EB000002D214700020E7E707EBC30007
:1032700057F833404068884208BFAC4201D1137010
:10328000DBE7A542814128BF01331370ECE700BFA3
:103290005811002010F0070208B503D06321482020
:1032A000FDF7C4F818B1034B197258601A70C800C2
:1032B00008BD00BF58110020014B00221A70704752
:1032C00058110020014B187A704700BF5811002098
:1032D0002DE9D34309F0CEFD0DF1070207460E4656
:1032E000FFF794FF98B9114C2278237A93420ED0BD
:1032F000616813466FF0604E9DF80700984209D34D
:1033000001EBC003C3E9007601322270012002B054
:10331000BDE8D08303EB0E0001EBC000D0E90089CB
:10332000013BC0E90289DBB2E6E700BF581100208B
:1033300037B509F09FFD0DF10702FFF767FF04465F
:10334000A0B10C4A9DF8070013785568013BDBB229
:1033500013701A1AD2B2411CD200834238BF002225
:1033600005EBC10105EBC00007F094FA204603B05D
:1033700030BD00BF581100200F4B33F8113010B58D
:10338000042900F1FF3403F2E7334FF47A724FEA75
:10339000C414B3FBF2F309D003290AD002290CBFED
:1033A0006022F022234400FB023010BD4FF4D262B1
:1033B000F8E740F2BE22F5E7B8630100042913B52F
:1033C00017D19B0103F53473417990F844400139DA
:1033D000C9B203291AD81A480144887AD101CA31DE
:1033E00003FB0213174A934215D940F262712D2054
:1033F0000FE0032903D11B0103F5E773E4E702297A
:103400000BBF0B330A339B00DB00DDE740F2613179
:103410000620FDF70BF81E2204F03F01B3FBF2F388
:103420001A0A42EA401241F04001002061F307000D
:10343000DBB263F30F20D3B263F3174002B010BDC9
:10344000B8630100C3BF030038B5074D044600F15F
:103450006901286809F0A8FA94F868102868BDE89E
:10346000384009F0AFBA00BF78110020F7B5044624
:10347000803009F07CF9D4F888300BB101221A6051
:103480006388DB0727D50023CDE90033134E256A77
:1034900002238DF80630FF2386F8203005F10A0755
:1034A0006846FDF793FCB0B9009CA542F8D06A7A53
:1034B000607A3B4604F10A0109F061F90028EFD077
:1034C000A37886F82030D4F80330C6F82130044BB6
:1034D000B4F807209A8003B0F0BD00BF7811002037
:1034E0009911002038B5084D044600F16901062302
:1034F0002868002209F07FFB94F868102868BDE86E
:10350000384009F05FBA00BF7811002007B509F014
:10351000C0F98DF8070005480123006806220DF167
:10352000070109F068FB03B05DF804FB7811002087
:1035300008B5044B986910B140300AF0F9F900F071
:10354000010008BD7811002008B5044BD86910B1FE
:1035500040300AF0EDF900F0010008BD78110020BC
:10356000F8B504460E466588C07F15F00401134681
:1035700018BF04F177013246FFF746FBC207054644
:103580000BD5012384F86830E07FFFF7A1FB0368C7
:10359000C4F869308388A4F86D30AB070CD5094EA8
:1035A0000127306884F8767004F1770109F003FA96
:1035B0003068394609F00FFA85F00400C0F3800046
:1035C000F8BD00BF7811002010B50446084694F8F5
:1035D000E0306BBB237884F8E130082904F1E30282
:1035E00016D004F1E201FFF7E5FA20B940F6FB61DD
:1035F0002D20FCF71BFF94F8E23043F0020384F81F
:10360000E23004F1D8000B49BDE8104009F0C8BB16
:10361000094B1868034613F8031BC1F3801184F8A3
:10362000E210D0F80310C4F8E3109B889380E8E719
:1036300010BD00BFB7CE00007811002070B5044661
:103640000E461546FFF7F8F898B9237884F8C83085
:10365000637CA4F8C96084F8C7500BB194F8483073
:1036600084F8CB3004F1BE000249BDE8704009F097
:1036700097BB70BD37D2000010B50F490446943097
:1036800009F08EFB0D4904F1CC0009F089FB94F898
:103690009D20B4F89E102046FFF7D0FF084B002273
:1036A0001A71084B1B682BB1206A21460222BDE823
:1036B0001040184710BD00BFADD10000A1CE0000E2
:1036C000781100207805002038B5B0F848301A4D40
:1036D0000133A0F84830AB7C04462BB103F068F806
:1036E00002F02AF80023AB7400232B7194F8913078
:1036F0002BB101212046BDE83840FDF7DFBF637CD8
:10370000BBB1B4F848209A4213D301212046FDF7FB
:10371000D5FF6388DB0748BF236A204644BF19886A
:103720004322BDE838405CBF43224FF6FF71FFF7EC
:1037300085BF0021DEE700BF7811002010B5094CDD
:103740002379012B02D02379022B05D1A37C1BB155
:1037500003F02EF801F0F0FFA06ABDE81040FFF77B
:10376000B3BF00BF78110020074A0346906A03B92F
:1037700009B9FFF7A9BF1379D26A03F1804312692F
:10378000033B52F823301847781100202DE9F0430D
:10379000032985B0054690467BD090F890300529E6
:1037A000DBB202D14288D60760D5002B5ED101275B
:1037B000DFF8E89099F81260B6B109F015F808281A
:1037C00088F8000014D002AA0DF10701FFF7F2F902
:1037D00020B940F685612D20FCF728FE9DF80700F2
:1037E00002A909F053FB064698F80030082B08D1CF
:1037F000D9F8001011F8030BC0F3801009F046FB54
:103800000646D9F8001095F86F2011F8030B05F162
:103810007003C0F3801008F0B2FFD9F8001004461E
:1038200011F8030BC0F3801008F0D4FF8146FFF7B6
:1038300061FA014640B1B9F1080F1BD04846FFF7C5
:1038400085F980F00101C9B298F80000082815D068
:1038500094B9EB7F1C1A604260416B885A0706D40A
:1038600021B996B96B7D93B1BB4210D0002005B051
:10387000BDE8F0830021E7E70120EEE714B181F015
:103880000104E4B204F00100E7E73046EFE701206D
:10389000EDE743889B07E9D5022789E778110020E7
:1038A0002DE9F341444C2379012B07D02379022BD6
:1038B00004D040F63C412D20FCF7B8FDA26A176AFF
:1038C0000FB197F88170A8B90125A37C1BB102F054
:1038D0006FFF01F031FF002D6BD0A06AFDF7CAFE2B
:1038E000002860D002F0DEFDE36A9B6802B0BDE80C
:1038F000F0411847216811F8096B02F16903F009DA
:1039000092F8682008F03BFF0028DDD006F00F0693
:10391000052E20682CD190F8243003F01F03102BC3
:1039200026D9D4F8288098F813500DB308230DF148
:103930000702314640468DF80730FFF727FF002881
:10394000C3D098F8F130002BBFD1226808F1F20102
:10395000D31C233253F8040B41F8040B9342F9D1E2
:103960001B880B8008F1E900144909F019FAACE74B
:10397000394609F055F80028A6D02379A06A012B12
:1039800005D02379022B02D040F6154193E7237925
:10399000E26A03F180435269013B314652F8233019
:1039A0009847054691E7A06A02B0BDE8F041FFF7ED
:1039B0008BBE02B0BDE8F08178110020CFCE0000B0
:1039C000032973B5044604D0052927D0012002B08D
:1039D00070BD08230DF107028DF80730FFF7D6FE02
:1039E0000028F3D0237C23B19DF807102046FFF771
:1039F000EBFD0F4D2B68062204265A701E702046E0
:103A0000FFF722FD94F85C20A16D286808F0F9FF0B
:103A100028682E7102F062FE0020D8E7054B1B6873
:103A200023B1984780F00100C0B2D0E71846CEE736
:103A30007811002074050020F8B504460F4619B32C
:103A400000F13005284609F0C6FDA0B963881A07C1
:103A50002ED5284609F0D6FD0646284609F0BBFDBE
:103A6000301AC0B209F011FE444A93680344284654
:103A7000936009F08CFD284609F08EFD02F08AFB68
:103A80002179252002F0EEF93C4D94F87620286843
:103A90000023037043706388103B0D2B5ED8DFE872
:103AA00003F0595D550C5D405D5D5D5D5D5D5D40A4
:103AB0002046BDE8F840FFF707BE062343702023E9
:103AC00003702046FFF7C0FC638823F008039BB215
:103AD000152B05D094F85420216D286808F082FF3A
:103AE000286802F0FBFD032321792B71002002F0EE
:103AF0005FFB064607B9E86063881B0704D509F039
:103B0000C1FD0644C4F828616388103B0D2B30D8F2
:103B1000DFE803F0322F29292F292F2F2F2F2F2FC6
:103B20002F290C2343702123037042B104F1770144
:103B300008F041FF0121286808F04DFFC1E704F1BA
:103B4000700108F038FF94F86F10F4E70623037053
:103B50004370B6E7022303700623F9E740F22661BB
:103B60002D20FCF763FC21790120BDE8F84002F02C
:103B70002DBE40F6AA41F3E7F8BD00BF7811002042
:103B800038B54388102B044604D1BDE838400121E4
:103B9000FFF752BF0B4DAB7C23B101F0AFFD4020CE
:103BA00002F0FAFD286802F099FD608810F0040028
:103BB00002D1217902F00AFE002002F0C9FD0123A2
:103BC0002B7138BD7811002003292DE9F7430446F5
:103BD00005D0052900F08680FFF776FD7CE00823FC
:103BE0000DF103028DF80330FFF7D0FD002877D0E8
:103BF000237C23B19DF803102046FFF7E5FCB4F8C1
:103C000002803D4E01231F4630684FEA981200257E
:103C100062F38617072243700270C570294609F0C7
:103C200014F82A463946306809F016F82046FFF79E
:103C300059FC306809F05AF8B4F85C30C0F1FE0560
:103C4000AB42B4BFDDB2EDB2AB42C8F380182AD9A3
:103C500047F0100700223946306808F0FDFF306851
:103C600008F0EFFFA91E0144C9B2204609F0D5FAB9
:103C70000422C0F307238DF80400C0F307400DEBC6
:103C800002018DF805308DF806000323306808F036
:103C9000B2FF306800223946A5F1030908F0DCFFC5
:103CA0005FFA89F94D46B8F1000F06D094F9142057
:103CB00094F844106079FFF729FCA16D30682A461A
:103CC00008F0FEFF3582FF20617902F0CBF8072370
:103CD0003068337102F002FD002003B0BDE8F083CC
:103CE000204679E7054B1B6823B1984780F0010017
:103CF000C0B2F2E71846F0E7781100207005002006
:103D000010B5154CA37C1BB102F052FD01F014FD5F
:103D1000A06AFDF7AFFC20B1A06A438803F0180346
:103D200023B9A06ABDE81040FFF7CEBC2379012B70
:103D300007D02379022B04D040F643312D20FCF725
:103D400075FB2379E26A03F18043D268013BBDE849
:103D5000104052F823301847781100202DE9F04F19
:103D6000B0F802B08BB01BF0030704460191164671
:103D700008D0012F06D0022F04D040F253612D202D
:103D8000FCF754FB0BF00703052B08D1002E72D073
:103D90004FF000094D464FF0010A012209E0022BC5
:103DA0005DD1002E67D04FF000094D464FF0010A5B
:103DB0004A464FF001081BF0400B04D0002E00F0E3
:103DC000FF804FF0010B48EA420242EACA0343EA8D
:103DD000051343EA491949EA8B1BDFF860820BF0AF
:103DE0007B030093D8F800309DF800B00022012139
:103DF00007205A7018705970002E40F00481DE7050
:103E0000B1463946D8F8000008F01FFFD8F8000086
:103E10009DF800104A4608F01FFF009B9DF80070B7
:103E2000D80702D52046FFF75DFBB90710D5019BE7
:103E3000D8F80000002B00F0F78004F1770106238A
:103E4000012208F0D8FE0121D8F8000008F0C3FDD7
:103E50000023002B00F0F48040F635018FE7002BA3
:103E600048D166BBB4F854200BF02303134309D0A8
:103E70001BF0200913D04FF000090125AA464A463D
:103E8000C84698E7FFF754FB0028F1D1FFF75CFB29
:103E900002460028ECD1B1463546B24689E794F88F
:103EA0000480A8F10308B8F1010F4FF0010594BF99
:103EB0004FF000084FF00108AA464A467BE7FFF79B
:103EC00037FBA8B9FFF740FB1BF0200500F0010904
:103ED0006CD194F80480A8F10308B8F1010F8CBFED
:103EE0004FF000084FF001084FF0010A2A4662E740
:103EF0000120E9E7012B17D194F8048056B9A8F105
:103F00000205D5F1000848EB0508B1461D469A4662
:103F1000324650E7B8F102084FF0000918BF4FF0E1
:103F200001084D469A46C8E7062B3FF42FAF042BF5
:103F300039D126BBB4F854200BF02303134311D01E
:103F40002279033A012A94BF002201221BF0200F9C
:103F50000CBF90464FF000084FF0000901254FF0CC
:103F6000010A28E7FFF7E4FA0028E9D1FFF7ECFAA5
:103F700082460028E4D14FF000094D460DE7FFF7D7
:103F8000D7FA70B9FFF7E0FA2279033A012A8CBF19
:103F9000002201221BF0200500F001090CD19046FF
:103FA000DDE70120F0E740F2F661E8E600254FF09A
:103FB000010A2A46A846FEE600254FF0010AF9E765
:103FC000B4F8541059B194F804B0ABF1030BBBF141
:103FD000010F94BF4FF0000B4FF0010BF3E6618827
:103FE00001F023010029EED10092FFF7A1FA009A17
:103FF0000028E8D1FFF7A8FA009A0028E3D1002FA3
:104000003FF4DFAEDFE7DA70FFF79EFA50B1D8F881
:104010001C3093F8BD30002B0CBF4FF000094FF05F
:104020000A09EEE68146ECE604F17001062301225E
:1040300008F0E1FD94F86F1006E700BF781100204A
:104040003A0716D5626CD8F80000C2F30B2262F36F
:104050000B0394F84620ADF814301209C3F307237C
:1040600062F307138DF815300322022305A908F027
:10407000C2FDBF0640F1B580D4F85831D8F81C70A5
:104080000293D4F85C3103930FB9D8F81870D7E9CC
:1040900018A30193FFF758FA80B1D8F81C3093F8B1
:1040A000BD305BB107F1400009F0E0FC30B93B6F77
:1040B00013EB0A0A019B43F100030193397CA44BE3
:1040C000D8F8142033F81100DDF808E04FF47A73C3
:1040D00000F2E730B0FBF3F0D2F16E0361EB0101C7
:1040E000B3EB0E03DDF80CE061EB0E01C318019891
:1040F00041F1000113EB0A0340EB0101D4F84C013C
:10410000B3F5161FA0EB020E9DF8150071F1000229
:104110004FF0000C4FEAEE7A00F0BF000ADB6CF3C0
:1041200045108DF81500BDF814306FF30C03ADF891
:10413000143026E0B3F5703F71F1000208DB9E45B4
:104140007AEB0102EBDA40F020008DF8150007E071
:104150009E456CF345107AEB01028DF81500E2DA0A
:104160009DF8152012F0200FBDF8142014BF4FF455
:10417000967A4FF01E0AB3FBFAF363F30C02ADF824
:1041800014203B6F40F2E242B3FBF2F3ADF816307D
:10419000D7F81730FA7E06939DF81C3062F30403BB
:1041A0008DF81C30FEF796FB9DF81C3060F347132A
:1041B0008DF81C309DF815306FF3C7138DF815304E
:1041C0003B68CDF81D303B798DF821307B798DF837
:1041D0002230BB798DF82330B7F852300133ADF877
:1041E0002430012E50D1B4F85430002B4CD06388C9
:1041F000980749D4DFF85CA1DAF8000008F021FD47
:10420000B4F85410BAF81070421CD2B2CF1B034657
:10421000C2F1FF008742A8BFD743FFB2B94228D9F5
:104220006288D10725D40193009BD8F8000043F0A1
:1042300010014A468B4608F00FFD019BF91E04331E
:10424000CFB253FA81F1C9B2204608F0E6FFC0F3BD
:1042500007238DF81000C0F307408DF811308DF85A
:1042600012000323D8F80000042204A908F0C3FCBC
:1042700001253A46216DDAF8000008F021FDBAF870
:1042800010301F44AAF8107065F3041B1BF0200FB8
:104290005FFA8BF506D02F4812230068052205A986
:1042A00008F0A9FC6A060CD5002E4AD104F13000B2
:1042B000267909F0B4F9014694F914203046FFF745
:1042C00025F9FFF741F9002836D0224CE36993F82D
:1042D000BD308BB30721206808F0ACFC09230370C4
:1042E00032234370E369D3F890308370E369D3F8E5
:1042F00090301B0AC370E369B3F892300371E3692D
:1043000093F893304371E36993F8A1308371E369C3
:1043100040F2E241D3F89420B2FBF1F2C271E369BA
:10432000D3F89830B3FBF1F30372E3697D22D3F83D
:104330009C30B3FBF2F343722B0606D540F69A018C
:104340001DE5667994F84410B6E70BB0BDE8F08F30
:10435000B8630100781100202DE9F74F044690F86A
:104360004400774D0F4601F015FF6179FF2001F001
:1043700079FD002F48D1286808F014FB94F80480D8
:10438000064604F1300009F03DF9B8F1040F2CD1D4
:10439000B60106F53476EB6803EBC013CA3306FBAF
:1043A000003663886E61190742BFAB68F6186E610C
:1043B00062796969002002F01DF863889A072AD0A3
:1043C0005FBB6179012002F001FA94F876100122B6
:1043D0002046FFF7C3FC286802F080F906232B7102
:1043E00001236B7103B0BDE8F08FB8F1030F03D167
:1043F000360106F5E776CEE7B8F1020F0BBF0B36B4
:104400000A36B600F600C6E762794FF4A5710020BF
:1044100002F004F8D1E7002FD7D06688286806F0AC
:104420000203002B0CBF4FF001094FF000094FF0C1
:10443000070319BFD4F85880B4F85C70D4F85080E2
:10444000B4F8547003704FF0000A01234FEAC90911
:10445000C6F38016437049EA861B80F803A05146D4
:1044600008F0F3FB28685246594608F0F5FB1BF0AC
:10447000080FD94617D0626CBDF804302868C2F323
:104480000B2262F30B0394F84620ADF804301209B6
:10449000C3F3072362F307138DF8053003220223C9
:1044A00001A908F0A8FB286808F020FC2B8AC0F1BD
:1044B000FE06FA1AB242B4BFD6B2F6B233449F42F5
:1044C0002ADD002249F01001286808F0C5FB2868A1
:1044D00008F00CFC2E8ABF1BC0F1FE06B74228680C
:1044E000B4BFFEB2F6B208F0ACFB81190131C9B21B
:1044F000204608F092FE0422C0F307238DF8040042
:10450000C0F307408DF805308DF8060003232868B6
:104510000DEB020108F06FFB63885B0606D594F98A
:10452000142094F844106079FEF7F0FF298A286877
:104530003246414408F0C4FB288A06442E824AE7EA
:104540007811002010B5084CB0F85C30228A9A42ED
:1045500005D00121FFF700FF0723237110BDBDE83F
:104560001040FFF7B1B800BF7811002038B543887C
:104570001E4D13F0020F04460FD1DB070DD42A8A1B
:10458000B0F854309A4203D1BDE83840FFF79CB8E8
:10459000BDE838400121FFF7DFBE0020617902F05D
:1045A00015F96388617913F0020F14BF0C202220E3
:1045B00001F058FC02232B71AB7C4BB101F09EF84B
:1045C0006379033B012B94BF4520402002F0E4F8BF
:1045D0006379033B012B94BF2820002002F0B8F838
:1045E0002868BDE8384002F079B800BF7811002093
:1045F00010B50948037903F0FF0453B9242221467A
:10460000043006F005FA02F0D3F801F095F82046E0
:1046100010BD0C24FBE700BF7811002010B5094C39
:10462000002323712060FFF7E3FF20B140F2F62161
:104630002D20FBF7FBFEE36A13B940F2F921F7E7FF
:1046400010BD00BF78110020014B024ADA627047AA
:1046500078110020684D00002DE9F34704460E460E
:1046600000297BD000F13005284608F0B4FF28B9B6
:10467000638818076CD5284608F089FF284608F09B
:104680008BFF01F087FD2179252001F0EBFB364DF2
:1046900028680379D90623D5C3789A0620D008F074
:1046A00081F9074604F1300094F8048008F093FF84
:1046B000421C3B46D2B241462046FEF77FFE042212
:1046C000C0F307238DF80400C0F307408DF80530D0
:1046D0008DF80600032328680DEB020108F08BFA21
:1046E00046B32868D5F80C8008F05CF904F1300A6C
:1046F0008146504608F086FF0746504608F06BFF9B
:10470000013F391A1FFA89F22079C9B208F0A4FFD3
:1047100063881B07804408D5AB6801212046984474
:1047200008F014FE4044C4F82801227941460020D4
:1047300001F060FE286801F0D1FF26B921793046EA
:1047400001F036FDE86005232B7102B0BDE8F0876B
:10475000204602B0BDE8F047FEF7B6BF0A4690F823
:104760007610FFF7FBFA92E77811002070B5174E2C
:10477000044601253030B57108F02DFFF8B9638883
:10478000DA0604D52046BDE87040FEF79DBFB27939
:10479000002AF7D0B4F8542003F02303134305D0C4
:1047A00020460021BDE87040FFF7D6BDFEF7C0FEF1
:1047B0000028F5D1FEF7C8FE0028F1D1E2E729462E
:1047C0002046BDE87040FFF747BF00BF78110020CA
:1047D00070B5114D0026012104462E826E7108F03D
:1047E000B5FDAB680344AB60B4F848300133A4F8BE
:1047F0004830FEF7C1FC4FF47F73B0FBF3F202FBCD
:104800001300AB6894F876101844A860324620462E
:10481000BDE87040FFF7A2BA7811002010B5094C2E
:10482000A06A4388092B07D1FFF7D2FFA06A0121B4
:10483000BDE81040FFF710BFBDE810400121FFF7B1
:10484000FBB800BF78110020F8B5867DB31EDBB23F
:10485000012B04468CBF0027012796B3023E18BFE8
:104860000126012B2DD800F1700190F86F0007F0A0
:10487000B1FF054663889B0605D4082D2CD0284639
:10488000FEF770F940BBE577A77784F86860FEF71C
:104890008BF9054609F0AFF9164BA5FB03351B183C
:1048A00045EB01050022C4E9183584F8762011464D
:1048B0002046FEF755FE70B940F293412D20FBF7DC
:1048C000B5FD0825D6E704F169013046FEF730F85A
:1048D0000028D8D10020F8BD002EF4D0637F002B33
:1048E000F8D0D4F81730C4F86930B4F81B30A4F805
:1048F0006D30C8E740420F002DE9F04F07460C46E7
:1049000005460FCF9BB00EAE0FC60FCF0FC697E870
:104910000F0086E80F0006A86E7995F8129008F04F
:104920001BFEA37A029323780393237D6178013BD6
:10493000DBB2022B01F07F0800F28180684A134449
:10494000C9069F7B06D4A37D013BDBB2022B76D840
:1049500013449E7BB9F1010F05D1042F08BF032733
:10496000042E08BF0326617A06A808F0FCFD237D0B
:10497000A27E022B08BF617D02F1010206BF013158
:10498000C9B20121D2B206A808F0EFFD18F0080F55
:104990006CD106A808F036FE6378DA06824653D456
:1049A000FCF7F6FA394681465046FEF7E5FCCDF8AD
:1049B0000080014601233246484608F097FA2279E2
:1049C000E37843EA0223627940F2712143EA024329
:1049D00000F2D7204B43B0FBF1F04843984238D85F
:1049E0004FF0000B94F818A00593A37C04930AF1F0
:1049F000FF33D3F1000AE86C4AEB030A06F0B1FE7C
:104A00008146E86C06F0BDFE484538BF484680B296
:104A1000059B0DF1180960B308A9CDE90A3BCDF853
:104A20002090ADF824808DF830708DF8316008F05A
:104A30008EFB059BE8B945201BB0BDE8F08F40F226
:104A400029310620FBF7F2FC2822414600F098F9B4
:104A5000B5E7E379A27942EA0322237A42EA0342E4
:104A600001FB02F3984298BF0346B9E700239B4637
:104A7000B8E7CDE9103B049B8DF84D30039A029BBB
:104A80008DF83C708DF83D608DF848A08DF84E3063
:104A90008DF83820ADF83A800EAF0FCF2E460FC6F6
:104AA0000FCF0FC697E80F0086E80F0099E80300C4
:104AB0002863A986E37A13F0FD0F14BF01230023B6
:104AC00085F86F30E3682B67238AA5F87430E27DA0
:104AD00095F8463062F3071385F846300020ABE7BF
:104AE000B86301002DE9FF41564E3279044602F0C9
:104AF000FF0312B90278FF2A04D140F6A9112D2034
:104B0000FBF794FC3382B3607371B37180F891301A
:104B10004D4B00934D4B01934D4B0293F36A684606
:104B20005B68039301F0C4FD01F01CFA01F040FE44
:104B300000F002FE474801F023FB04F1300546482F
:104B400001F0B0FD284608F022FD284608F024FDBB
:104B500001F020FB2179252001F084F994F914005B
:104B600001F008FB04F15001E06C06F089FD04F14E
:104B700058010746E06C06F0AAFD80461FB194F884
:104B80002430002B38D1B8F1000F37D094F82550DD
:104B9000A37F13B963885B0709D5D4E918126FF0B6
:104BA00000439A4208BFB1F1FF3F29D185BB002FD6
:104BB00008BF474694F8933003B9AFB1638813F048
:104BC000100511D1606CC0F30B2008F06EFC94F856
:104BD000463084F8450023F00F03C0F30320184348
:104BE00084F8460084F8935030680330FDF7FAFFEC
:104BF000B07404B0BDE8F0810125C9E74546C7E7B8
:104C000008F0F9FFD4E91823904271EB0303CDD3E8
:104C1000012205EA02012046FEF7A2FC68B1FDF779
:104C2000C3FF054608F0E7FF0C4BA5FB03351B1837
:104C300045EB0105C4E91835B9E7002DB7D040F6BA
:104C4000DE115CE778110020013D0000A138000072
:104C500069370000D6BE898E5555550040420F0079
:104C600037B50446FFF73EFF042120781A4DFCF7C4
:104C700073F8A86120780621FCF76EF8AB69E8614B
:104C80002BB120B140F616212D20FBF7CFFB20469B
:104C900008F0B5FA618811F0100118D00021204603
:104CA000FEF7CAFE94F892305BB16846FEF7E8F86A
:104CB00038B1694604F1360007F025FE002384F878
:104CC0009230204603B0BDE83040FEF7CFBB20460F
:104CD000FFF7C2FCE6E700BF78110020024B9862A4
:104CE000DB6A1B68184700BF7811002043881A0749
:104CF00010B5044611D5036A10493C2280F89D2066
:104D00001B88A0F89E30FF2380F8BB304FF6FF735E
:104D1000A0F8BC30943008F043F86388DB0743BF49
:104D2000236A3C2219883C2258BF4FF6FF71204667
:104D3000FEF784FCFF2384F8913010BDADD1000054
:104D4000C1390000C93B0000813B000089D200004E
:104D50006D4700006D4500004545000079360000B4
:104D600083D2000099D30000614C00003D37000061
:104D70001D480000604D0000484D0000404D0000FF
:104D80000138022808B503D9C3212F20FBF74EFBB9
:104D900013290A4B05D811290CD8102907D0D12185
:104DA000F3E71529FBD103EB4003D88801E033F882
:104DB000100008BD03EB40039889FAE7CA630100BD
:104DC00038B50446084694F8C83213B10C25284675
:104DD00038BD94F89F30163B012BF7D894F8EC328D
:104DE00003F0FF05002BF1D1A1B194F82E3223B9C5
:104DF00040F6A1113120FBF719FB074B99680523F9
:104E000001F5887201F21E2105F000FB012384F8F0
:104E1000C832DCE70223FAE7A811002010B5044CE1
:104E20002068403008F0C4FD0023237110BD00BF8E
:104E300020120020024B1B790BB1FFF7EFBF704728
:104E4000201200202DE9F04FA64C236893F82D5036
:104E500093B082460E463DB1D3F8882055786279EA
:104E6000954294BF00250125B3F82880E288D88DAB
:104E70009F7BA8EB02085A6A01924FF6FF73984293
:104E80001FFA88F83CD00A21FBF766FF814607230A
:104E90008AF8003000210123A0688AF801308AF8DE
:104EA000031007F0D2FE86B1236893F8356056BB35
:104EB000B9F1000F29D099F81630012B05D099F8D7
:104EC0004F30002B14BF3B262326AD0045EAC70513
:104ED00005F00C0AA0683246514607F0BDFE15F0F9
:104EE0000403D346009317D02368D3F888100B78B7
:104EF00013F0C00F0BD040F203110A20FBF796FA13
:104F00004FF00009C3E70926DFE74E46DDE7A0685A
:104F10000123022207F06FFE21688B7B2BB1A06872
:104F2000022303220C3107F066FEA06807F089FE19
:104F3000C0F1FE07B845B4BF5FFA88F7FFB2474536
:104F400005460AD3009B002B5CD022686379D2F817
:104F5000882052780133934254DA4AF01001A06855
:104F600032468B4607F078FEA06807F06AFEC0F173
:104F7000FE07B8450546B4BF5FFA88F7FFB24FF0A9
:104F8000010A092E41D108238DF80C3028238DF811
:104F90000D3023689A6BCDF80E2093F83C20DB8E01
:104FA0008DF81220ADF81330A0683346072203A90C
:104FB00007F021FE6AF3041B1BF0100F5FFA8BF160
:104FC00071D0237B2268984408F03F08B8F1240F81
:104FD00088BFA8F12408002384F80C80ADF80830BD
:104FE0008DF80A30237B107C03F03F0343F040032D
:104FF00002288DF8083027D014D8012861D040F25B
:105000005D117AE74FF0000ABBE7374B1B68002BB6
:10501000D0D0232E01D03B2ECCD1226803A9484604
:105020009847C1E7C31E012BE9D89DF80A30022634
:1050300066F347138DF80A3044F2902641F2BE130E
:10504000042808BF334608E09DF80A30012666F3BD
:1050500047138DF80A304FF4856349070CD50428AF
:105060003D4431D1AD0105F53475D2F888301B7857
:10507000DB0003F0F8032B4403F5A575ADB21E2346
:10508000B5FBF3F59DF80A308DF8095023F01F03A6
:10509000C5F304251D43A0688DF80A50032304229C
:1050A00002A907F0A8FDE188019BA0680B443A46DD
:1050B000194607F005FEE3881F44E78013B0BDE8FA
:1050C000F08F40F64803C8E7032803D12D0105F50A
:1050D000E775CAE702280BBF0B350A35AD00ED00B6
:1050E000C3E700BF201200207C05002010B50A4C49
:1050F000207B01F04FF8A0680021FFF7A3FE236892
:1051000000201A7C4FF4A57101F088F9A068BDE871
:10511000104001F0E3BA00BF2012002013B500B91F
:1051200021B902B0BDE81040FFF778BE19494B79AC
:105130000A68013392F82D00DBB24B71E0B1D2F86E
:10514000880044789C4217D9037813F0C00F14BF2D
:105150009B0903238DF8043003780021C3F3040274
:1051600001A8DB008DF805208DF8063000F0ACFEBC
:10517000FFF7BCFF02B010BD108DCB88984203D161
:10518000B2F852309382CCE702B0BDE81040FFF78E
:10519000ADBF00BF20120020054B00221A7198609D
:1051A000044B054A1A60054B054A1A60704700BF58
:1051B0002012002080050020E0540000840500201B
:1051C000F05400001FB590220021044605F020FC99
:1051D000FBF7B2FE01220146A0606846FBF7F0FE35
:1051E000A0680022012106F02EFA02A8FDF748FE71
:1051F00020B94FF4E5710A20FBF718F902A904F170
:10520000160007F080FB054BA3640023A3824FF632
:10521000FF732464E38504B010BD00BFF0540000A8
:105220002DE9F04117463B4A32F81750884605F5FC
:105230007E5519464FF47A7204460735B5FBF2F5F0
:1052400008F06DFA00EB0803FF2B04DD01288CBF8A
:1052500003300430C0B2C64394F82D30F1B258FA8E
:1052600086F6013E96FBF1F6F6B22BB1D4F8882013
:105270005278964238BF16464044002E36D0042F4E
:1052800021D0032F22D040F2725240F6921C022FFE
:1052900018BF6246013E06FB1100042F02FB0652B6
:1052A00000F0FF0015D1800100F53470104443B1C7
:1052B000D4F8882013785278DB0003F0F80303FB5E
:1052C0000200BDE8F08144F2DA32E3E741F208324D
:1052D000E0E7032F03D1000100F5E770E6E7022FB6
:1052E0000BBF0B300A308000C000DFE7042F04D171
:1052F000800100F534702844D9E7032F03D1000161
:1053000000F5E770F7E7022F0BBF0B300A30800083
:10531000C000F0E70264010073B56E4C2379206091
:10532000064623B14FF42C710A20FBF77FF808F0F2
:1053300007FA00F26B15B06D85420ED92D1A322D89
:10534000304638BF322508F0B0F90146284604F04F
:10535000DFFB50BBB36D2B44B365256895F8353042
:105360007BB1EB8EB5F852209B1A1BB2002B12DCDE
:1053700005F1380105F1160007F0C5FA002385F89C
:10538000353095F8343033B1AA6D2B6F9A4211D96C
:10539000002385F834300023E38063712368D3F859
:1053A0008830F3B940F2BD21BEE702B0BDE87040DD
:1053B000FFF734BD05F138063046FDF761FD0028E2
:1053C000E9D0052205F11701304605F043FA00281F
:1053D000DED0012385F83530B5F852300A33EB863C
:1053E000D6E700F0BFFD3C4B186801F061F9236877
:1053F00093F90F0000F0BEFE2368FF20197C00F037
:1054000031FD2368186800F0BBFE2068B0F8522018
:1054100050F8161B07F08FFA207300F0BBFEA0684F
:1054200001F05CF92368586801F03CF9236898683A
:1054300003F1240106F024F988B123689A7B4AB16C
:105440009889C0F30B0008F030F823689A8960F35C
:105450000B029A812368002283F82C2004E0236841
:1054600093F82C30002BE8D1A0680121FFF7EAFC6B
:10547000236893F82D20AAB1D3F88820137813F06D
:10548000C00F14BF9B0903238DF80430137800214B
:10549000C3F3040201A8DB008DF805208DF8063067
:1054A00000F012FD23681A7C0C4B33F81210002018
:1054B0004FF47A7301F5FA71B1FBF3F16E3100F03C
:1054C00099FF2068403008F067FA0123237102B089
:1054D00070BD00BF20120020800500200264010082
:1054E000A1D6000097D600001D510000354E0000E7
:1054F00041D70000ABD60000195300001D4E00003C
:105500001D4E00004568000093D6000008B5044B0E
:1055100000221A6001F06EF8BDE8084003F0EEBB0F
:1055200030120020014908F0EEB900BF49D900004F
:105530002DE9F043044689B00F469146037C012BC8
:105540007DD102463F49007902F0B2FA20B94FF40A
:10555000FA710B20FAF76AFF08F04DFB05460E467C
:10556000FCF7F2F94946A7623846FCF7AFF9014665
:10557000804604F12000FCF779F940F6B8302D1888
:1055800046F10006B9F1010F4AD1FCF799F9826999
:10559000002A4ED0206B7B1E0344B3FBF0F3434341
:1055A000DB1BD2E9000761EB0101181841EB070191
:1055B0009046CDE90056226BFCF7A6F90746B8F9EC
:1055C0002400A4F84400022107F0FAFBB4F84430A8
:1055D0001B1A3F18A4F844304FEAE07343F100036C
:1055E0007D1946EB0306FCF7B5F9204608F0E3F811
:1055F000A368039000275B6820688DF808709847BF
:105600008DF811708DF81000CDE906560223237431
:10561000204602A908F0FCF8384609B0BDE8F0833E
:10562000B8F1000FDFD098E80B00181841F1000125
:10563000BFE7B8F1000FD6D028463146B9E70C20B5
:10564000EBE700BF49D9000010B50246072927D86B
:10565000DFE801F00426261417202923438A0133AA
:10566000438208F065F9936818B9DB68BDE810401B
:105670001847BDE810409B681068184783685B694D
:10568000F4E7094B1B68002BF0D140F251110B20BD
:10569000FAF7CCFE83681B69E8E74FF4B171F6E7CF
:1056A00040F26511F3E710BD30120020014B187471
:1056B000704700BF34120020034B00214FF480528A
:1056C0001970A3F801207047B412002070B5064687
:1056D000022014460D4600F0DDF8064B01221A7038
:1056E000054B033CC3F81045C3F80865C3F80455DF
:1056F00070BD00BFB412002000F0004008B50220C9
:1057000000F0C8F809480A4B0A494FF0010C80F82C
:1057100000C000224FF40000C3F80021C3F80421A8
:10572000C3F80821C1F8040508BD00BFB412002069
:1057300000F0004000F00140114B1A786AB1114AA4
:1057400011494FF40000C2F80805D1F800213AB918
:105750001021002099705A701870002000F09AB83B
:10576000D1F80421002AF3D0D1F8082112B1102178
:105770000022EEE7D1F800140122C9B2E9E700BF28
:10578000B412002000F0014000F0004008B5114BB9
:105790001A78587892B1104AC823D2F8001141B152
:1057A000D2F8040120B1D2F80801B0FA80F0400923
:1057B00008BD013B13F0FF03EFD101E0022803D144
:1057C000F5213B20FAF732FEA0F10100B0FA80F09B
:1057D000400908BDB412002000F000400A4B1A78BE
:1057E0007AB10A4BD3F800214AB1D3F8042132B17F
:1057F000D3F808211AB9D3F80004C0B270471020BA
:1058000070479878704700BFB412002000F0004045
:10581000024B00221A809A70704700BFB812002015
:105820000A4B1A786AB10A490A48C1F808050022E9
:10583000C1F89825C1F89C25C1F89825C1F89C2588
:105840001A700022A3F80120704700BFB812002090
:1058500000F001400000020208B50B4B4FF400427B
:10586000C3F88020BFF34F8FBFF36F8F074B002229
:10587000C3F80025C3F80025FFF7D2FF044B4FF40F
:105880000002C3F8082508BD00E100E000F0004078
:1058900000F0014038B5144C0023C4F80035C4F8BA
:1058A00000350546FFF7BCFF104B4FF40002012DF9
:1058B000C3F8082503D0022D08D085B938BD0223CE
:1058C000C4F800350A4BC4F81435F7E70321C4F8CF
:1058D00000150749C4F81415C3F80425EEE7822122
:1058E0003D20FAF7A3FD00BF00F0004000F00140AA
:1058F000BD120020094B9B78012B0CD0022B09D143
:10590000830706D40649074B00200122C1F8400551
:105910001A61704770474207F4D57047C8130020DA
:10592000008000400010004070B54D4E431E82B014
:10593000044686F82400032B00F28C80DFE803F095
:105940003C413702474B0522C3F81025464A454BD8
:10595000525CC3F80825C3F854157378012B64D042
:10596000404DD5F80032FF2243F4887386F8582062
:10597000C5F8003204F04CFE88B1E31E012B32D989
:10598000D5F83C3723F00043C5F83C37D5F87C37D1
:10599000002223F0004386F85720C5F87C372046C4
:1059A00001F04CFB04F04AFE80B102B070BD2D4BFB
:1059B0000622C3F81025C9E72A4B0322C3F8102595
:1059C000C4E7284B0422C3F81025BFE704F046FEC5
:1059D0000028EAD1234AD2F8683543F4C023C2F83C
:1059E000683502B070BD0122C5F80423D5F83C37F4
:1059F00086F8572023F0004323F0FF0343F00043D1
:105A000043F07D03C5F83C37D5F87C3786F856203F
:105A100023F0004323F0700343F0004343F060039E
:105A2000C5F87C37EA632A64B9E796F92520F0784F
:105A300001AB01F01BFB9DF9040001F07BFA9DF81E
:105A4000050001F09BFB00288AD040F2DE513E2089
:105A5000FAF7ECFC40F675513E20FAF7E7FC00BF80
:105A6000C813002000100040046501002DE9F04734
:105A70000D4682B01746064638BB04230DEB0308DB
:105A80008DF804308DF8060002F022F801284FF05E
:105A9000FF3088BF00208DF80500404605F024F84F
:105AA000002840F0F080C34C012384F86D307B1E49
:105AB00094F8261084F82470032B00F27581DFE837
:105AC00013F03C0137013201E70000234FF00209D7
:105AD0008DF804908DF8063001F0FAFF01280DF1E1
